{
	"contracts/Traceability.sol": {
		"Traceability": {
			"abi": [
				{
					"inputs": [],
					"stateMutability": "nonpayable",
					"type": "constructor"
				},
				{
					"inputs": [
						{
							"internalType": "address",
							"name": "owner",
							"type": "address"
						}
					],
					"name": "OwnableInvalidOwner",
					"type": "error"
				},
				{
					"inputs": [
						{
							"internalType": "address",
							"name": "account",
							"type": "address"
						}
					],
					"name": "OwnableUnauthorizedAccount",
					"type": "error"
				},
				{
					"anonymous": false,
					"inputs": [
						{
							"indexed": true,
							"internalType": "string",
							"name": "product_id",
							"type": "string"
						},
						{
							"indexed": false,
							"internalType": "string",
							"name": "user_id",
							"type": "string"
						},
						{
							"indexed": false,
							"internalType": "uint256",
							"name": "process_date",
							"type": "uint256"
						},
						{
							"indexed": false,
							"internalType": "string",
							"name": "location_name",
							"type": "string"
						},
						{
							"indexed": false,
							"internalType": "string",
							"name": "location_address",
							"type": "string"
						}
					],
					"name": "BasicTraceDataAdded",
					"type": "event"
				},
				{
					"anonymous": false,
					"inputs": [
						{
							"indexed": true,
							"internalType": "address",
							"name": "previousOwner",
							"type": "address"
						},
						{
							"indexed": true,
							"internalType": "address",
							"name": "newOwner",
							"type": "address"
						}
					],
					"name": "OwnershipTransferred",
					"type": "event"
				},
				{
					"anonymous": false,
					"inputs": [
						{
							"indexed": true,
							"internalType": "string",
							"name": "product_id",
							"type": "string"
						},
						{
							"indexed": false,
							"internalType": "string",
							"name": "user_id",
							"type": "string"
						},
						{
							"indexed": false,
							"internalType": "string",
							"name": "product_type",
							"type": "string"
						},
						{
							"indexed": false,
							"internalType": "uint256",
							"name": "expiry_date",
							"type": "uint256"
						},
						{
							"indexed": false,
							"internalType": "string",
							"name": "location_name",
							"type": "string"
						},
						{
							"indexed": false,
							"internalType": "string",
							"name": "location_address",
							"type": "string"
						}
					],
					"name": "ProducerTraceDataAdded",
					"type": "event"
				},
				{
					"anonymous": false,
					"inputs": [
						{
							"indexed": true,
							"internalType": "address",
							"name": "user",
							"type": "address"
						},
						{
							"indexed": false,
							"internalType": "uint256",
							"name": "roleId",
							"type": "uint256"
						},
						{
							"indexed": false,
							"internalType": "string",
							"name": "subjectName",
							"type": "string"
						}
					],
					"name": "RoleAndUserSet",
					"type": "event"
				},
				{
					"inputs": [
						{
							"internalType": "address",
							"name": "",
							"type": "address"
						}
					],
					"name": "SubjectName",
					"outputs": [
						{
							"internalType": "string",
							"name": "",
							"type": "string"
						}
					],
					"stateMutability": "view",
					"type": "function"
				},
				{
					"inputs": [
						{
							"internalType": "string",
							"name": "",
							"type": "string"
						}
					],
					"name": "TraceDataMap",
					"outputs": [
						{
							"internalType": "string",
							"name": "user_id",
							"type": "string"
						},
						{
							"internalType": "address",
							"name": "user_address",
							"type": "address"
						},
						{
							"internalType": "string",
							"name": "product_id",
							"type": "string"
						},
						{
							"internalType": "uint256",
							"name": "process_date",
							"type": "uint256"
						},
						{
							"internalType": "string",
							"name": "location_name",
							"type": "string"
						},
						{
							"internalType": "string",
							"name": "location_address",
							"type": "string"
						},
						{
							"internalType": "string",
							"name": "product_type",
							"type": "string"
						},
						{
							"internalType": "uint256",
							"name": "expiry_date",
							"type": "uint256"
						}
					],
					"stateMutability": "view",
					"type": "function"
				},
				{
					"inputs": [
						{
							"internalType": "address",
							"name": "",
							"type": "address"
						}
					],
					"name": "UserRole",
					"outputs": [
						{
							"internalType": "uint256",
							"name": "",
							"type": "uint256"
						}
					],
					"stateMutability": "view",
					"type": "function"
				},
				{
					"inputs": [
						{
							"internalType": "string",
							"name": "_product_id",
							"type": "string"
						},
						{
							"internalType": "uint256",
							"name": "_process_date",
							"type": "uint256"
						},
						{
							"internalType": "string",
							"name": "_location_name",
							"type": "string"
						},
						{
							"internalType": "string",
							"name": "_location_address",
							"type": "string"
						},
						{
							"internalType": "string[]",
							"name": "_src_product_id",
							"type": "string[]"
						},
						{
							"internalType": "string",
							"name": "_product_type",
							"type": "string"
						},
						{
							"internalType": "uint256",
							"name": "_expiry_date",
							"type": "uint256"
						}
					],
					"name": "addBasicTraceData",
					"outputs": [],
					"stateMutability": "nonpayable",
					"type": "function"
				},
				{
					"inputs": [
						{
							"internalType": "string",
							"name": "_product_id",
							"type": "string"
						}
					],
					"name": "getTraceData",
					"outputs": [
						{
							"internalType": "string",
							"name": "user_id",
							"type": "string"
						},
						{
							"internalType": "address",
							"name": "user_address",
							"type": "address"
						},
						{
							"internalType": "string",
							"name": "product_id",
							"type": "string"
						},
						{
							"internalType": "uint256",
							"name": "process_date",
							"type": "uint256"
						},
						{
							"internalType": "string",
							"name": "location_name",
							"type": "string"
						},
						{
							"internalType": "string",
							"name": "location_address",
							"type": "string"
						},
						{
							"internalType": "string[]",
							"name": "_src_product_id",
							"type": "string[]"
						},
						{
							"internalType": "string",
							"name": "product_type",
							"type": "string"
						},
						{
							"internalType": "uint256",
							"name": "expiry_date",
							"type": "uint256"
						}
					],
					"stateMutability": "view",
					"type": "function"
				},
				{
					"inputs": [],
					"name": "owner",
					"outputs": [
						{
							"internalType": "address",
							"name": "",
							"type": "address"
						}
					],
					"stateMutability": "view",
					"type": "function"
				},
				{
					"inputs": [],
					"name": "renounceOwnership",
					"outputs": [],
					"stateMutability": "nonpayable",
					"type": "function"
				},
				{
					"inputs": [
						{
							"internalType": "address",
							"name": "_user",
							"type": "address"
						},
						{
							"internalType": "uint256",
							"name": "_roleId",
							"type": "uint256"
						},
						{
							"internalType": "string",
							"name": "_subjectName",
							"type": "string"
						}
					],
					"name": "setRoleAndUser",
					"outputs": [],
					"stateMutability": "nonpayable",
					"type": "function"
				},
				{
					"inputs": [
						{
							"internalType": "address",
							"name": "newOwner",
							"type": "address"
						}
					],
					"name": "transferOwnership",
					"outputs": [],
					"stateMutability": "nonpayable",
					"type": "function"
				}
			],
			"devdoc": {
				"errors": {
					"OwnableInvalidOwner(address)": [
						{
							"details": "The owner is not a valid owner account. (eg. `address(0)`)"
						}
					],
					"OwnableUnauthorizedAccount(address)": [
						{
							"details": "The caller account is not authorized to perform an operation."
						}
					]
				},
				"kind": "dev",
				"methods": {
					"owner()": {
						"details": "Returns the address of the current owner."
					},
					"renounceOwnership()": {
						"details": "Leaves the contract without owner. It will not be possible to call `onlyOwner` functions. Can only be called by the current owner. NOTE: Renouncing ownership will leave the contract without an owner, thereby disabling any functionality that is only available to the owner."
					},
					"transferOwnership(address)": {
						"details": "Transfers ownership of the contract to a new account (`newOwner`). Can only be called by the current owner."
					}
				},
				"version": 1
			},
			"evm": {
				"assembly": "    /* \"contracts/Traceability.sol\":117:3581  contract Traceability is Ownable {... */\n  mstore(0x40, 0x80)\n    /* \"contracts/Traceability.sol\":1159:1195  constructor() Ownable(msg.sender) {} */\n  callvalue\n  dup1\n  iszero\n  tag_1\n  jumpi\n  0x00\n  dup1\n  revert\ntag_1:\n  pop\n    /* \"contracts/Traceability.sol\":1181:1191  msg.sender */\n  caller\n    /* \"@openzeppelin/contracts/access/Ownable.sol\":1297:1298  0 */\n  0x00\n    /* \"@openzeppelin/contracts/access/Ownable.sol\":1273:1299  initialOwner == address(0) */\n  0xffffffffffffffffffffffffffffffffffffffff\n  and\n    /* \"@openzeppelin/contracts/access/Ownable.sol\":1273:1285  initialOwner */\n  dup2\n    /* \"@openzeppelin/contracts/access/Ownable.sol\":1273:1299  initialOwner == address(0) */\n  0xffffffffffffffffffffffffffffffffffffffff\n  and\n  sub\n    /* \"@openzeppelin/contracts/access/Ownable.sol\":1269:1364  if (initialOwner == address(0)) {... */\n  tag_5\n  jumpi\n    /* \"@openzeppelin/contracts/access/Ownable.sol\":1350:1351  0 */\n  0x00\n    /* \"@openzeppelin/contracts/access/Ownable.sol\":1322:1353  OwnableInvalidOwner(address(0)) */\n  mload(0x40)\n  0x1e4fbdf700000000000000000000000000000000000000000000000000000000\n  dup2\n  mstore\n  0x04\n  add\n  tag_6\n  swap2\n  swap1\n  tag_7\n  jump\t// in\ntag_6:\n  mload(0x40)\n  dup1\n  swap2\n  sub\n  swap1\n  revert\n    /* \"@openzeppelin/contracts/access/Ownable.sol\":1269:1364  if (initialOwner == address(0)) {... */\ntag_5:\n    /* \"@openzeppelin/contracts/access/Ownable.sol\":1373:1405  _transferOwnership(initialOwner) */\n  tag_8\n    /* \"@openzeppelin/contracts/access/Ownable.sol\":1392:1404  initialOwner */\n  dup2\n    /* \"@openzeppelin/contracts/access/Ownable.sol\":1373:1391  _transferOwnership */\n  shl(0x20, tag_9)\n    /* \"@openzeppelin/contracts/access/Ownable.sol\":1373:1405  _transferOwnership(initialOwner) */\n  0x20\n  shr\n  jump\t// in\ntag_8:\n    /* \"@openzeppelin/contracts/access/Ownable.sol\":1225:1412  constructor(address initialOwner) {... */\n  pop\n    /* \"contracts/Traceability.sol\":117:3581  contract Traceability is Ownable {... */\n  jump(tag_11)\n    /* \"@openzeppelin/contracts/access/Ownable.sol\":2912:3099  function _transferOwnership(address newOwner) internal virtual {... */\ntag_9:\n    /* \"@openzeppelin/contracts/access/Ownable.sol\":2985:3001  address oldOwner */\n  0x00\n    /* \"@openzeppelin/contracts/access/Ownable.sol\":3004:3010  _owner */\n  dup1\n  0x00\n  swap1\n  sload\n  swap1\n  0x0100\n  exp\n  swap1\n  div\n  0xffffffffffffffffffffffffffffffffffffffff\n  and\n    /* \"@openzeppelin/contracts/access/Ownable.sol\":2985:3010  address oldOwner = _owner */\n  swap1\n  pop\n    /* \"@openzeppelin/contracts/access/Ownable.sol\":3029:3037  newOwner */\n  dup2\n    /* \"@openzeppelin/contracts/access/Ownable.sol\":3020:3026  _owner */\n  0x00\n  dup1\n    /* \"@openzeppelin/contracts/access/Ownable.sol\":3020:3037  _owner = newOwner */\n  0x0100\n  exp\n  dup2\n  sload\n  dup2\n  0xffffffffffffffffffffffffffffffffffffffff\n  mul\n  not\n  and\n  swap1\n  dup4\n  0xffffffffffffffffffffffffffffffffffffffff\n  and\n  mul\n  or\n  swap1\n  sstore\n  pop\n    /* \"@openzeppelin/contracts/access/Ownable.sol\":3083:3091  newOwner */\n  dup2\n    /* \"@openzeppelin/contracts/access/Ownable.sol\":3052:3092  OwnershipTransferred(oldOwner, newOwner) */\n  0xffffffffffffffffffffffffffffffffffffffff\n  and\n    /* \"@openzeppelin/contracts/access/Ownable.sol\":3073:3081  oldOwner */\n  dup2\n    /* \"@openzeppelin/contracts/access/Ownable.sol\":3052:3092  OwnershipTransferred(oldOwner, newOwner) */\n  0xffffffffffffffffffffffffffffffffffffffff\n  and\n  0x8be0079c531659141344cd1fd0a4f28419497f9722a3daafe3b4186f6b6457e0\n  mload(0x40)\n  mload(0x40)\n  dup1\n  swap2\n  sub\n  swap1\n  log3\n    /* \"@openzeppelin/contracts/access/Ownable.sol\":2975:3099  {... */\n  pop\n    /* \"@openzeppelin/contracts/access/Ownable.sol\":2912:3099  function _transferOwnership(address newOwner) internal virtual {... */\n  pop\n  jump\t// out\n    /* \"#utility.yul\":7:133   */\ntag_13:\n    /* \"#utility.yul\":44:51   */\n  0x00\n    /* \"#utility.yul\":84:126   */\n  0xffffffffffffffffffffffffffffffffffffffff\n    /* \"#utility.yul\":77:82   */\n  dup3\n    /* \"#utility.yul\":73:127   */\n  and\n    /* \"#utility.yul\":62:127   */\n  swap1\n  pop\n    /* \"#utility.yul\":7:133   */\n  swap2\n  swap1\n  pop\n  jump\t// out\n    /* \"#utility.yul\":139:235   */\ntag_14:\n    /* \"#utility.yul\":176:183   */\n  0x00\n    /* \"#utility.yul\":205:229   */\n  tag_19\n    /* \"#utility.yul\":223:228   */\n  dup3\n    /* \"#utility.yul\":205:229   */\n  tag_13\n  jump\t// in\ntag_19:\n    /* \"#utility.yul\":194:229   */\n  swap1\n  pop\n    /* \"#utility.yul\":139:235   */\n  swap2\n  swap1\n  pop\n  jump\t// out\n    /* \"#utility.yul\":241:359   */\ntag_15:\n    /* \"#utility.yul\":328:352   */\n  tag_21\n    /* \"#utility.yul\":346:351   */\n  dup2\n    /* \"#utility.yul\":328:352   */\n  tag_14\n  jump\t// in\ntag_21:\n    /* \"#utility.yul\":323:326   */\n  dup3\n    /* \"#utility.yul\":316:353   */\n  mstore\n    /* \"#utility.yul\":241:359   */\n  pop\n  pop\n  jump\t// out\n    /* \"#utility.yul\":365:587   */\ntag_7:\n    /* \"#utility.yul\":458:462   */\n  0x00\n    /* \"#utility.yul\":496:498   */\n  0x20\n    /* \"#utility.yul\":485:494   */\n  dup3\n    /* \"#utility.yul\":481:499   */\n  add\n    /* \"#utility.yul\":473:499   */\n  swap1\n  pop\n    /* \"#utility.yul\":509:580   */\n  tag_23\n    /* \"#utility.yul\":577:578   */\n  0x00\n    /* \"#utility.yul\":566:575   */\n  dup4\n    /* \"#utility.yul\":562:579   */\n  add\n    /* \"#utility.yul\":553:559   */\n  dup5\n    /* \"#utility.yul\":509:580   */\n  tag_15\n  jump\t// in\ntag_23:\n    /* \"#utility.yul\":365:587   */\n  swap3\n  swap2\n  pop\n  pop\n  jump\t// out\n    /* \"contracts/Traceability.sol\":117:3581  contract Traceability is Ownable {... */\ntag_11:\n  dataSize(sub_0)\n  dup1\n  dataOffset(sub_0)\n  0x00\n  codecopy\n  0x00\n  return\nstop\n\nsub_0: assembly {\n        /* \"contracts/Traceability.sol\":117:3581  contract Traceability is Ownable {... */\n      mstore(0x40, 0x80)\n      callvalue\n      dup1\n      iszero\n      tag_1\n      jumpi\n      0x00\n      dup1\n      revert\n    tag_1:\n      pop\n      jumpi(tag_2, lt(calldatasize, 0x04))\n      shr(0xe0, calldataload(0x00))\n      dup1\n      0x6c0c378d\n      gt\n      tag_12\n      jumpi\n      dup1\n      0x6c0c378d\n      eq\n      tag_7\n      jumpi\n      dup1\n      0x715018a6\n      eq\n      tag_8\n      jumpi\n      dup1\n      0x8da5cb5b\n      eq\n      tag_9\n      jumpi\n      dup1\n      0xd0c53848\n      eq\n      tag_10\n      jumpi\n      dup1\n      0xf2fde38b\n      eq\n      tag_11\n      jumpi\n      jump(tag_2)\n    tag_12:\n      dup1\n      0x06d3f233\n      eq\n      tag_3\n      jumpi\n      dup1\n      0x1792da60\n      eq\n      tag_4\n      jumpi\n      dup1\n      0x490a370e\n      eq\n      tag_5\n      jumpi\n      dup1\n      0x53060fac\n      eq\n      tag_6\n      jumpi\n    tag_2:\n      0x00\n      dup1\n      revert\n        /* \"contracts/Traceability.sol\":1201:1446  function setRoleAndUser(address _user, uint256 _roleId, string memory _subjectName) public onlyOwner {... */\n    tag_3:\n      tag_13\n      0x04\n      dup1\n      calldatasize\n      sub\n      dup2\n      add\n      swap1\n      tag_14\n      swap2\n      swap1\n      tag_15\n      jump\t// in\n    tag_14:\n      tag_16\n      jump\t// in\n    tag_13:\n      stop\n        /* \"contracts/Traceability.sol\":1104:1152  mapping(string => TraceData) public TraceDataMap */\n    tag_4:\n      tag_17\n      0x04\n      dup1\n      calldatasize\n      sub\n      dup2\n      add\n      swap1\n      tag_18\n      swap2\n      swap1\n      tag_19\n      jump\t// in\n    tag_18:\n      tag_20\n      jump\t// in\n    tag_17:\n      mload(0x40)\n      tag_21\n      swap9\n      swap8\n      swap7\n      swap6\n      swap5\n      swap4\n      swap3\n      swap2\n      swap1\n      tag_22\n      jump\t// in\n    tag_21:\n      mload(0x40)\n      dup1\n      swap2\n      sub\n      swap1\n      return\n        /* \"contracts/Traceability.sol\":1452:2821  function addBasicTraceData(... */\n    tag_5:\n      tag_23\n      0x04\n      dup1\n      calldatasize\n      sub\n      dup2\n      add\n      swap1\n      tag_24\n      swap2\n      swap1\n      tag_25\n      jump\t// in\n    tag_24:\n      tag_26\n      jump\t// in\n    tag_23:\n      stop\n        /* \"contracts/Traceability.sol\":580:623  mapping(address => uint256) public UserRole */\n    tag_6:\n      tag_27\n      0x04\n      dup1\n      calldatasize\n      sub\n      dup2\n      add\n      swap1\n      tag_28\n      swap2\n      swap1\n      tag_29\n      jump\t// in\n    tag_28:\n      tag_30\n      jump\t// in\n    tag_27:\n      mload(0x40)\n      tag_31\n      swap2\n      swap1\n      tag_32\n      jump\t// in\n    tag_31:\n      mload(0x40)\n      dup1\n      swap2\n      sub\n      swap1\n      return\n        /* \"contracts/Traceability.sol\":2827:3579  function getTraceData(string memory _product_id) public view returns (... */\n    tag_7:\n      tag_33\n      0x04\n      dup1\n      calldatasize\n      sub\n      dup2\n      add\n      swap1\n      tag_34\n      swap2\n      swap1\n      tag_19\n      jump\t// in\n    tag_34:\n      tag_35\n      jump\t// in\n    tag_33:\n      mload(0x40)\n      tag_36\n      swap10\n      swap9\n      swap8\n      swap7\n      swap6\n      swap5\n      swap4\n      swap3\n      swap2\n      swap1\n      tag_37\n      jump\t// in\n    tag_36:\n      mload(0x40)\n      dup1\n      swap2\n      sub\n      swap1\n      return\n        /* \"@openzeppelin/contracts/access/Ownable.sol\":2293:2394  function renounceOwnership() public virtual onlyOwner {... */\n    tag_8:\n      tag_38\n      tag_39\n      jump\t// in\n    tag_38:\n      stop\n        /* \"@openzeppelin/contracts/access/Ownable.sol\":1638:1723  function owner() public view virtual returns (address) {... */\n    tag_9:\n      tag_40\n      tag_41\n      jump\t// in\n    tag_40:\n      mload(0x40)\n      tag_42\n      swap2\n      swap1\n      tag_43\n      jump\t// in\n    tag_42:\n      mload(0x40)\n      dup1\n      swap2\n      sub\n      swap1\n      return\n        /* \"contracts/Traceability.sol\":706:751  mapping(address => string) public SubjectName */\n    tag_10:\n      tag_44\n      0x04\n      dup1\n      calldatasize\n      sub\n      dup2\n      add\n      swap1\n      tag_45\n      swap2\n      swap1\n      tag_29\n      jump\t// in\n    tag_45:\n      tag_46\n      jump\t// in\n    tag_44:\n      mload(0x40)\n      tag_47\n      swap2\n      swap1\n      tag_48\n      jump\t// in\n    tag_47:\n      mload(0x40)\n      dup1\n      swap2\n      sub\n      swap1\n      return\n        /* \"@openzeppelin/contracts/access/Ownable.sol\":2543:2758  function transferOwnership(address newOwner) public virtual onlyOwner {... */\n    tag_11:\n      tag_49\n      0x04\n      dup1\n      calldatasize\n      sub\n      dup2\n      add\n      swap1\n      tag_50\n      swap2\n      swap1\n      tag_29\n      jump\t// in\n    tag_50:\n      tag_51\n      jump\t// in\n    tag_49:\n      stop\n        /* \"contracts/Traceability.sol\":1201:1446  function setRoleAndUser(address _user, uint256 _roleId, string memory _subjectName) public onlyOwner {... */\n    tag_16:\n        /* \"@openzeppelin/contracts/access/Ownable.sol\":1531:1544  _checkOwner() */\n      tag_53\n        /* \"@openzeppelin/contracts/access/Ownable.sol\":1531:1542  _checkOwner */\n      tag_54\n        /* \"@openzeppelin/contracts/access/Ownable.sol\":1531:1544  _checkOwner() */\n      jump\t// in\n    tag_53:\n        /* \"contracts/Traceability.sol\":1330:1337  _roleId */\n      dup2\n        /* \"contracts/Traceability.sol\":1312:1320  UserRole */\n      0x01\n        /* \"contracts/Traceability.sol\":1312:1327  UserRole[_user] */\n      0x00\n        /* \"contracts/Traceability.sol\":1321:1326  _user */\n      dup6\n        /* \"contracts/Traceability.sol\":1312:1327  UserRole[_user] */\n      0xffffffffffffffffffffffffffffffffffffffff\n      and\n      0xffffffffffffffffffffffffffffffffffffffff\n      and\n      dup2\n      mstore\n      0x20\n      add\n      swap1\n      dup2\n      mstore\n      0x20\n      add\n      0x00\n      keccak256\n        /* \"contracts/Traceability.sol\":1312:1337  UserRole[_user] = _roleId */\n      dup2\n      swap1\n      sstore\n      pop\n        /* \"contracts/Traceability.sol\":1368:1380  _subjectName */\n      dup1\n        /* \"contracts/Traceability.sol\":1347:1358  SubjectName */\n      0x02\n        /* \"contracts/Traceability.sol\":1347:1365  SubjectName[_user] */\n      0x00\n        /* \"contracts/Traceability.sol\":1359:1364  _user */\n      dup6\n        /* \"contracts/Traceability.sol\":1347:1365  SubjectName[_user] */\n      0xffffffffffffffffffffffffffffffffffffffff\n      and\n      0xffffffffffffffffffffffffffffffffffffffff\n      and\n      dup2\n      mstore\n      0x20\n      add\n      swap1\n      dup2\n      mstore\n      0x20\n      add\n      0x00\n      keccak256\n        /* \"contracts/Traceability.sol\":1347:1380  SubjectName[_user] = _subjectName */\n      swap1\n      dup2\n      tag_56\n      swap2\n      swap1\n      tag_57\n      jump\t// in\n    tag_56:\n      pop\n        /* \"contracts/Traceability.sol\":1410:1415  _user */\n      dup3\n        /* \"contracts/Traceability.sol\":1395:1439  RoleAndUserSet(_user, _roleId, _subjectName) */\n      0xffffffffffffffffffffffffffffffffffffffff\n      and\n      0x75541d04f577c4b73a2a0439aa5f65abbc21fb391c30e2147bb341bd2e90de76\n        /* \"contracts/Traceability.sol\":1417:1424  _roleId */\n      dup4\n        /* \"contracts/Traceability.sol\":1426:1438  _subjectName */\n      dup4\n        /* \"contracts/Traceability.sol\":1395:1439  RoleAndUserSet(_user, _roleId, _subjectName) */\n      mload(0x40)\n      tag_58\n      swap3\n      swap2\n      swap1\n      tag_59\n      jump\t// in\n    tag_58:\n      mload(0x40)\n      dup1\n      swap2\n      sub\n      swap1\n      log2\n        /* \"contracts/Traceability.sol\":1201:1446  function setRoleAndUser(address _user, uint256 _roleId, string memory _subjectName) public onlyOwner {... */\n      pop\n      pop\n      pop\n      jump\t// out\n        /* \"contracts/Traceability.sol\":1104:1152  mapping(string => TraceData) public TraceDataMap */\n    tag_20:\n      0x03\n      dup2\n      dup1\n      mload\n      0x20\n      dup2\n      add\n      dup3\n      add\n      dup1\n      mload\n      dup5\n      dup3\n      mstore\n      0x20\n      dup4\n      add\n      0x20\n      dup6\n      add\n      keccak256\n      dup2\n      dup4\n      mstore\n      dup1\n      swap6\n      pop\n      pop\n      pop\n      pop\n      pop\n      pop\n      0x00\n      swap2\n      pop\n      swap1\n      pop\n      dup1\n      0x00\n      add\n      dup1\n      sload\n      tag_60\n      swap1\n      tag_61\n      jump\t// in\n    tag_60:\n      dup1\n      0x1f\n      add\n      0x20\n      dup1\n      swap2\n      div\n      mul\n      0x20\n      add\n      mload(0x40)\n      swap1\n      dup2\n      add\n      0x40\n      mstore\n      dup1\n      swap3\n      swap2\n      swap1\n      dup2\n      dup2\n      mstore\n      0x20\n      add\n      dup3\n      dup1\n      sload\n      tag_62\n      swap1\n      tag_61\n      jump\t// in\n    tag_62:\n      dup1\n      iszero\n      tag_63\n      jumpi\n      dup1\n      0x1f\n      lt\n      tag_64\n      jumpi\n      0x0100\n      dup1\n      dup4\n      sload\n      div\n      mul\n      dup4\n      mstore\n      swap2\n      0x20\n      add\n      swap2\n      jump(tag_63)\n    tag_64:\n      dup3\n      add\n      swap2\n      swap1\n      0x00\n      mstore\n      keccak256(0x00, 0x20)\n      swap1\n    tag_65:\n      dup2\n      sload\n      dup2\n      mstore\n      swap1\n      0x01\n      add\n      swap1\n      0x20\n      add\n      dup1\n      dup4\n      gt\n      tag_65\n      jumpi\n      dup3\n      swap1\n      sub\n      0x1f\n      and\n      dup3\n      add\n      swap2\n    tag_63:\n      pop\n      pop\n      pop\n      pop\n      pop\n      swap1\n      dup1\n      0x01\n      add\n      0x00\n      swap1\n      sload\n      swap1\n      0x0100\n      exp\n      swap1\n      div\n      0xffffffffffffffffffffffffffffffffffffffff\n      and\n      swap1\n      dup1\n      0x02\n      add\n      dup1\n      sload\n      tag_66\n      swap1\n      tag_61\n      jump\t// in\n    tag_66:\n      dup1\n      0x1f\n      add\n      0x20\n      dup1\n      swap2\n      div\n      mul\n      0x20\n      add\n      mload(0x40)\n      swap1\n      dup2\n      add\n      0x40\n      mstore\n      dup1\n      swap3\n      swap2\n      swap1\n      dup2\n      dup2\n      mstore\n      0x20\n      add\n      dup3\n      dup1\n      sload\n      tag_67\n      swap1\n      tag_61\n      jump\t// in\n    tag_67:\n      dup1\n      iszero\n      tag_68\n      jumpi\n      dup1\n      0x1f\n      lt\n      tag_69\n      jumpi\n      0x0100\n      dup1\n      dup4\n      sload\n      div\n      mul\n      dup4\n      mstore\n      swap2\n      0x20\n      add\n      swap2\n      jump(tag_68)\n    tag_69:\n      dup3\n      add\n      swap2\n      swap1\n      0x00\n      mstore\n      keccak256(0x00, 0x20)\n      swap1\n    tag_70:\n      dup2\n      sload\n      dup2\n      mstore\n      swap1\n      0x01\n      add\n      swap1\n      0x20\n      add\n      dup1\n      dup4\n      gt\n      tag_70\n      jumpi\n      dup3\n      swap1\n      sub\n      0x1f\n      and\n      dup3\n      add\n      swap2\n    tag_68:\n      pop\n      pop\n      pop\n      pop\n      pop\n      swap1\n      dup1\n      0x03\n      add\n      sload\n      swap1\n      dup1\n      0x04\n      add\n      dup1\n      sload\n      tag_71\n      swap1\n      tag_61\n      jump\t// in\n    tag_71:\n      dup1\n      0x1f\n      add\n      0x20\n      dup1\n      swap2\n      div\n      mul\n      0x20\n      add\n      mload(0x40)\n      swap1\n      dup2\n      add\n      0x40\n      mstore\n      dup1\n      swap3\n      swap2\n      swap1\n      dup2\n      dup2\n      mstore\n      0x20\n      add\n      dup3\n      dup1\n      sload\n      tag_72\n      swap1\n      tag_61\n      jump\t// in\n    tag_72:\n      dup1\n      iszero\n      tag_73\n      jumpi\n      dup1\n      0x1f\n      lt\n      tag_74\n      jumpi\n      0x0100\n      dup1\n      dup4\n      sload\n      div\n      mul\n      dup4\n      mstore\n      swap2\n      0x20\n      add\n      swap2\n      jump(tag_73)\n    tag_74:\n      dup3\n      add\n      swap2\n      swap1\n      0x00\n      mstore\n      keccak256(0x00, 0x20)\n      swap1\n    tag_75:\n      dup2\n      sload\n      dup2\n      mstore\n      swap1\n      0x01\n      add\n      swap1\n      0x20\n      add\n      dup1\n      dup4\n      gt\n      tag_75\n      jumpi\n      dup3\n      swap1\n      sub\n      0x1f\n      and\n      dup3\n      add\n      swap2\n    tag_73:\n      pop\n      pop\n      pop\n      pop\n      pop\n      swap1\n      dup1\n      0x05\n      add\n      dup1\n      sload\n      tag_76\n      swap1\n      tag_61\n      jump\t// in\n    tag_76:\n      dup1\n      0x1f\n      add\n      0x20\n      dup1\n      swap2\n      div\n      mul\n      0x20\n      add\n      mload(0x40)\n      swap1\n      dup2\n      add\n      0x40\n      mstore\n      dup1\n      swap3\n      swap2\n      swap1\n      dup2\n      dup2\n      mstore\n      0x20\n      add\n      dup3\n      dup1\n      sload\n      tag_77\n      swap1\n      tag_61\n      jump\t// in\n    tag_77:\n      dup1\n      iszero\n      tag_78\n      jumpi\n      dup1\n      0x1f\n      lt\n      tag_79\n      jumpi\n      0x0100\n      dup1\n      dup4\n      sload\n      div\n      mul\n      dup4\n      mstore\n      swap2\n      0x20\n      add\n      swap2\n      jump(tag_78)\n    tag_79:\n      dup3\n      add\n      swap2\n      swap1\n      0x00\n      mstore\n      keccak256(0x00, 0x20)\n      swap1\n    tag_80:\n      dup2\n      sload\n      dup2\n      mstore\n      swap1\n      0x01\n      add\n      swap1\n      0x20\n      add\n      dup1\n      dup4\n      gt\n      tag_80\n      jumpi\n      dup3\n      swap1\n      sub\n      0x1f\n      and\n      dup3\n      add\n      swap2\n    tag_78:\n      pop\n      pop\n      pop\n      pop\n      pop\n      swap1\n      dup1\n      0x07\n      add\n      dup1\n      sload\n      tag_81\n      swap1\n      tag_61\n      jump\t// in\n    tag_81:\n      dup1\n      0x1f\n      add\n      0x20\n      dup1\n      swap2\n      div\n      mul\n      0x20\n      add\n      mload(0x40)\n      swap1\n      dup2\n      add\n      0x40\n      mstore\n      dup1\n      swap3\n      swap2\n      swap1\n      dup2\n      dup2\n      mstore\n      0x20\n      add\n      dup3\n      dup1\n      sload\n      tag_82\n      swap1\n      tag_61\n      jump\t// in\n    tag_82:\n      dup1\n      iszero\n      tag_83\n      jumpi\n      dup1\n      0x1f\n      lt\n      tag_84\n      jumpi\n      0x0100\n      dup1\n      dup4\n      sload\n      div\n      mul\n      dup4\n      mstore\n      swap2\n      0x20\n      add\n      swap2\n      jump(tag_83)\n    tag_84:\n      dup3\n      add\n      swap2\n      swap1\n      0x00\n      mstore\n      keccak256(0x00, 0x20)\n      swap1\n    tag_85:\n      dup2\n      sload\n      dup2\n      mstore\n      swap1\n      0x01\n      add\n      swap1\n      0x20\n      add\n      dup1\n      dup4\n      gt\n      tag_85\n      jumpi\n      dup3\n      swap1\n      sub\n      0x1f\n      and\n      dup3\n      add\n      swap2\n    tag_83:\n      pop\n      pop\n      pop\n      pop\n      pop\n      swap1\n      dup1\n      0x08\n      add\n      sload\n      swap1\n      pop\n      dup9\n      jump\t// out\n        /* \"contracts/Traceability.sol\":1452:2821  function addBasicTraceData(... */\n    tag_26:\n        /* \"contracts/Traceability.sol\":1787:1788  0 */\n      0x00\n        /* \"contracts/Traceability.sol\":1763:1771  UserRole */\n      0x01\n        /* \"contracts/Traceability.sol\":1763:1783  UserRole[msg.sender] */\n      0x00\n        /* \"contracts/Traceability.sol\":1772:1782  msg.sender */\n      caller\n        /* \"contracts/Traceability.sol\":1763:1783  UserRole[msg.sender] */\n      0xffffffffffffffffffffffffffffffffffffffff\n      and\n      0xffffffffffffffffffffffffffffffffffffffff\n      and\n      dup2\n      mstore\n      0x20\n      add\n      swap1\n      dup2\n      mstore\n      0x20\n      add\n      0x00\n      keccak256\n      sload\n        /* \"contracts/Traceability.sol\":1763:1788  UserRole[msg.sender] != 0 */\n      eq\n      iszero\n        /* \"contracts/Traceability.sol\":1763:1816  UserRole[msg.sender] != 0 && UserRole[msg.sender] < 5 */\n      dup1\n      iszero\n      tag_87\n      jumpi\n      pop\n        /* \"contracts/Traceability.sol\":1815:1816  5 */\n      0x05\n        /* \"contracts/Traceability.sol\":1792:1800  UserRole */\n      0x01\n        /* \"contracts/Traceability.sol\":1792:1812  UserRole[msg.sender] */\n      0x00\n        /* \"contracts/Traceability.sol\":1801:1811  msg.sender */\n      caller\n        /* \"contracts/Traceability.sol\":1792:1812  UserRole[msg.sender] */\n      0xffffffffffffffffffffffffffffffffffffffff\n      and\n      0xffffffffffffffffffffffffffffffffffffffff\n      and\n      dup2\n      mstore\n      0x20\n      add\n      swap1\n      dup2\n      mstore\n      0x20\n      add\n      0x00\n      keccak256\n      sload\n        /* \"contracts/Traceability.sol\":1792:1816  UserRole[msg.sender] < 5 */\n      lt\n        /* \"contracts/Traceability.sol\":1763:1816  UserRole[msg.sender] != 0 && UserRole[msg.sender] < 5 */\n    tag_87:\n        /* \"contracts/Traceability.sol\":1755:1851  require(UserRole[msg.sender] != 0 && UserRole[msg.sender] < 5, \"User must have a valid role id\") */\n      tag_88\n      jumpi\n      mload(0x40)\n      0x08c379a000000000000000000000000000000000000000000000000000000000\n      dup2\n      mstore\n      0x04\n      add\n      tag_89\n      swap1\n      tag_90\n      jump\t// in\n    tag_89:\n      mload(0x40)\n      dup1\n      swap2\n      sub\n      swap1\n      revert\n    tag_88:\n        /* \"contracts/Traceability.sol\":1980:1981  2 */\n      0x02\n        /* \"contracts/Traceability.sol\":1956:1964  UserRole */\n      0x01\n        /* \"contracts/Traceability.sol\":1956:1976  UserRole[msg.sender] */\n      0x00\n        /* \"contracts/Traceability.sol\":1965:1975  msg.sender */\n      caller\n        /* \"contracts/Traceability.sol\":1956:1976  UserRole[msg.sender] */\n      0xffffffffffffffffffffffffffffffffffffffff\n      and\n      0xffffffffffffffffffffffffffffffffffffffff\n      and\n      dup2\n      mstore\n      0x20\n      add\n      swap1\n      dup2\n      mstore\n      0x20\n      add\n      0x00\n      keccak256\n      sload\n        /* \"contracts/Traceability.sol\":1956:1981  UserRole[msg.sender] != 2 */\n      eq\n        /* \"contracts/Traceability.sol\":1953:2056  if(UserRole[msg.sender] != 2){... */\n      tag_91\n      jumpi\n        /* \"contracts/Traceability.sol\":1996:2014  _product_type = \"\" */\n      mload(0x40)\n      dup1\n      0x20\n      add\n      0x40\n      mstore\n      dup1\n      0x00\n      dup2\n      mstore\n      pop\n      swap2\n      pop\n        /* \"contracts/Traceability.sol\":2043:2044  0 */\n      0x00\n        /* \"contracts/Traceability.sol\":2028:2044  _expiry_date = 0 */\n      swap1\n      pop\n        /* \"contracts/Traceability.sol\":1953:2056  if(UserRole[msg.sender] != 2){... */\n    tag_91:\n        /* \"contracts/Traceability.sol\":2094:2494  TraceData({... */\n      mload(0x40)\n      dup1\n      0x0120\n      add\n      0x40\n      mstore\n      dup1\n        /* \"contracts/Traceability.sol\":2127:2138  SubjectName */\n      0x02\n        /* \"contracts/Traceability.sol\":2127:2150  SubjectName[msg.sender] */\n      0x00\n        /* \"contracts/Traceability.sol\":2139:2149  msg.sender */\n      caller\n        /* \"contracts/Traceability.sol\":2127:2150  SubjectName[msg.sender] */\n      0xffffffffffffffffffffffffffffffffffffffff\n      and\n      0xffffffffffffffffffffffffffffffffffffffff\n      and\n      dup2\n      mstore\n      0x20\n      add\n      swap1\n      dup2\n      mstore\n      0x20\n      add\n      0x00\n      keccak256\n        /* \"contracts/Traceability.sol\":2094:2494  TraceData({... */\n      dup1\n      sload\n      tag_92\n      swap1\n      tag_61\n      jump\t// in\n    tag_92:\n      dup1\n      0x1f\n      add\n      0x20\n      dup1\n      swap2\n      div\n      mul\n      0x20\n      add\n      mload(0x40)\n      swap1\n      dup2\n      add\n      0x40\n      mstore\n      dup1\n      swap3\n      swap2\n      swap1\n      dup2\n      dup2\n      mstore\n      0x20\n      add\n      dup3\n      dup1\n      sload\n      tag_93\n      swap1\n      tag_61\n      jump\t// in\n    tag_93:\n      dup1\n      iszero\n      tag_94\n      jumpi\n      dup1\n      0x1f\n      lt\n      tag_95\n      jumpi\n      0x0100\n      dup1\n      dup4\n      sload\n      div\n      mul\n      dup4\n      mstore\n      swap2\n      0x20\n      add\n      swap2\n      jump(tag_94)\n    tag_95:\n      dup3\n      add\n      swap2\n      swap1\n      0x00\n      mstore\n      keccak256(0x00, 0x20)\n      swap1\n    tag_96:\n      dup2\n      sload\n      dup2\n      mstore\n      swap1\n      0x01\n      add\n      swap1\n      0x20\n      add\n      dup1\n      dup4\n      gt\n      tag_96\n      jumpi\n      dup3\n      swap1\n      sub\n      0x1f\n      and\n      dup3\n      add\n      swap2\n    tag_94:\n      pop\n      pop\n      pop\n      pop\n      pop\n      dup2\n      mstore\n      0x20\n      add\n        /* \"contracts/Traceability.sol\":2178:2188  msg.sender */\n      caller\n        /* \"contracts/Traceability.sol\":2094:2494  TraceData({... */\n      0xffffffffffffffffffffffffffffffffffffffff\n      and\n      dup2\n      mstore\n      0x20\n      add\n        /* \"contracts/Traceability.sol\":2214:2225  _product_id */\n      dup9\n        /* \"contracts/Traceability.sol\":2094:2494  TraceData({... */\n      dup2\n      mstore\n      0x20\n      add\n        /* \"contracts/Traceability.sol\":2253:2266  _process_date */\n      dup8\n        /* \"contracts/Traceability.sol\":2094:2494  TraceData({... */\n      dup2\n      mstore\n      0x20\n      add\n        /* \"contracts/Traceability.sol\":2295:2309  _location_name */\n      dup7\n        /* \"contracts/Traceability.sol\":2094:2494  TraceData({... */\n      dup2\n      mstore\n      0x20\n      add\n        /* \"contracts/Traceability.sol\":2341:2358  _location_address */\n      dup6\n        /* \"contracts/Traceability.sol\":2094:2494  TraceData({... */\n      dup2\n      mstore\n      0x20\n      add\n        /* \"contracts/Traceability.sol\":2388:2403  _src_product_id */\n      dup5\n        /* \"contracts/Traceability.sol\":2094:2494  TraceData({... */\n      dup2\n      mstore\n      0x20\n      add\n        /* \"contracts/Traceability.sol\":2431:2444  _product_type */\n      dup4\n        /* \"contracts/Traceability.sol\":2094:2494  TraceData({... */\n      dup2\n      mstore\n      0x20\n      add\n        /* \"contracts/Traceability.sol\":2471:2483  _expiry_date */\n      dup3\n        /* \"contracts/Traceability.sol\":2094:2494  TraceData({... */\n      dup2\n      mstore\n      pop\n        /* \"contracts/Traceability.sol\":2066:2078  TraceDataMap */\n      0x03\n        /* \"contracts/Traceability.sol\":2079:2090  _product_id */\n      dup9\n        /* \"contracts/Traceability.sol\":2066:2091  TraceDataMap[_product_id] */\n      mload(0x40)\n      tag_97\n      swap2\n      swap1\n      tag_98\n      jump\t// in\n    tag_97:\n      swap1\n      dup2\n      mstore\n      0x20\n      add\n      mload(0x40)\n      dup1\n      swap2\n      sub\n      swap1\n      keccak256\n        /* \"contracts/Traceability.sol\":2066:2494  TraceDataMap[_product_id] = TraceData({... */\n      0x00\n      dup3\n      add\n      mload\n      dup2\n      0x00\n      add\n      swap1\n      dup2\n      tag_99\n      swap2\n      swap1\n      tag_57\n      jump\t// in\n    tag_99:\n      pop\n      0x20\n      dup3\n      add\n      mload\n      dup2\n      0x01\n      add\n      exp(0x0100, 0x00)\n      dup2\n      sload\n      dup2\n      0xffffffffffffffffffffffffffffffffffffffff\n      mul\n      not\n      and\n      swap1\n      dup4\n      0xffffffffffffffffffffffffffffffffffffffff\n      and\n      mul\n      or\n      swap1\n      sstore\n      pop\n      0x40\n      dup3\n      add\n      mload\n      dup2\n      0x02\n      add\n      swap1\n      dup2\n      tag_100\n      swap2\n      swap1\n      tag_57\n      jump\t// in\n    tag_100:\n      pop\n      0x60\n      dup3\n      add\n      mload\n      dup2\n      0x03\n      add\n      sstore\n      0x80\n      dup3\n      add\n      mload\n      dup2\n      0x04\n      add\n      swap1\n      dup2\n      tag_101\n      swap2\n      swap1\n      tag_57\n      jump\t// in\n    tag_101:\n      pop\n      0xa0\n      dup3\n      add\n      mload\n      dup2\n      0x05\n      add\n      swap1\n      dup2\n      tag_102\n      swap2\n      swap1\n      tag_57\n      jump\t// in\n    tag_102:\n      pop\n      0xc0\n      dup3\n      add\n      mload\n      dup2\n      0x06\n      add\n      swap1\n      dup1\n      mload\n      swap1\n      0x20\n      add\n      swap1\n      tag_103\n      swap3\n      swap2\n      swap1\n      tag_104\n      jump\t// in\n    tag_103:\n      pop\n      0xe0\n      dup3\n      add\n      mload\n      dup2\n      0x07\n      add\n      swap1\n      dup2\n      tag_105\n      swap2\n      swap1\n      tag_57\n      jump\t// in\n    tag_105:\n      pop\n      0x0100\n      dup3\n      add\n      mload\n      dup2\n      0x08\n      add\n      sstore\n      swap1\n      pop\n      pop\n        /* \"contracts/Traceability.sol\":2530:2541  _product_id */\n      dup7\n        /* \"contracts/Traceability.sol\":2510:2617  BasicTraceDataAdded(_product_id, SubjectName[msg.sender], _process_date, _location_name, _location_address) */\n      mload(0x40)\n      tag_106\n      swap2\n      swap1\n      tag_98\n      jump\t// in\n    tag_106:\n      mload(0x40)\n      dup1\n      swap2\n      sub\n      swap1\n      keccak256\n      0x4ec0335d49ce48af3b2be1555f2724c6aded22db73f58d175f703be14044b99b\n        /* \"contracts/Traceability.sol\":2543:2554  SubjectName */\n      0x02\n        /* \"contracts/Traceability.sol\":2543:2566  SubjectName[msg.sender] */\n      0x00\n        /* \"contracts/Traceability.sol\":2555:2565  msg.sender */\n      caller\n        /* \"contracts/Traceability.sol\":2543:2566  SubjectName[msg.sender] */\n      0xffffffffffffffffffffffffffffffffffffffff\n      and\n      0xffffffffffffffffffffffffffffffffffffffff\n      and\n      dup2\n      mstore\n      0x20\n      add\n      swap1\n      dup2\n      mstore\n      0x20\n      add\n      0x00\n      keccak256\n        /* \"contracts/Traceability.sol\":2568:2581  _process_date */\n      dup9\n        /* \"contracts/Traceability.sol\":2583:2597  _location_name */\n      dup9\n        /* \"contracts/Traceability.sol\":2599:2616  _location_address */\n      dup9\n        /* \"contracts/Traceability.sol\":2510:2617  BasicTraceDataAdded(_product_id, SubjectName[msg.sender], _process_date, _location_name, _location_address) */\n      mload(0x40)\n      tag_107\n      swap5\n      swap4\n      swap3\n      swap2\n      swap1\n      tag_108\n      jump\t// in\n    tag_107:\n      mload(0x40)\n      dup1\n      swap2\n      sub\n      swap1\n      log2\n        /* \"contracts/Traceability.sol\":2659:2660  2 */\n      0x02\n        /* \"contracts/Traceability.sol\":2635:2643  UserRole */\n      0x01\n        /* \"contracts/Traceability.sol\":2635:2655  UserRole[msg.sender] */\n      0x00\n        /* \"contracts/Traceability.sol\":2644:2654  msg.sender */\n      caller\n        /* \"contracts/Traceability.sol\":2635:2655  UserRole[msg.sender] */\n      0xffffffffffffffffffffffffffffffffffffffff\n      and\n      0xffffffffffffffffffffffffffffffffffffffff\n      and\n      dup2\n      mstore\n      0x20\n      add\n      swap1\n      dup2\n      mstore\n      0x20\n      add\n      0x00\n      keccak256\n      sload\n        /* \"contracts/Traceability.sol\":2635:2660  UserRole[msg.sender] == 2 */\n      sub\n        /* \"contracts/Traceability.sol\":2632:2815  if(UserRole[msg.sender] == 2){... */\n      tag_109\n      jumpi\n        /* \"contracts/Traceability.sol\":2703:2714  _product_id */\n      dup7\n        /* \"contracts/Traceability.sol\":2680:2804  ProducerTraceDataAdded(_product_id, SubjectName[msg.sender], _product_type, _expiry_date, _location_name, _location_address) */\n      mload(0x40)\n      tag_110\n      swap2\n      swap1\n      tag_98\n      jump\t// in\n    tag_110:\n      mload(0x40)\n      dup1\n      swap2\n      sub\n      swap1\n      keccak256\n      0xd0d34aa945315e3f0b3e36799a4d0751af195ca3a10841986740a9140e824dff\n        /* \"contracts/Traceability.sol\":2716:2727  SubjectName */\n      0x02\n        /* \"contracts/Traceability.sol\":2716:2739  SubjectName[msg.sender] */\n      0x00\n        /* \"contracts/Traceability.sol\":2728:2738  msg.sender */\n      caller\n        /* \"contracts/Traceability.sol\":2716:2739  SubjectName[msg.sender] */\n      0xffffffffffffffffffffffffffffffffffffffff\n      and\n      0xffffffffffffffffffffffffffffffffffffffff\n      and\n      dup2\n      mstore\n      0x20\n      add\n      swap1\n      dup2\n      mstore\n      0x20\n      add\n      0x00\n      keccak256\n        /* \"contracts/Traceability.sol\":2741:2754  _product_type */\n      dup5\n        /* \"contracts/Traceability.sol\":2756:2768  _expiry_date */\n      dup5\n        /* \"contracts/Traceability.sol\":2770:2784  _location_name */\n      dup10\n        /* \"contracts/Traceability.sol\":2786:2803  _location_address */\n      dup10\n        /* \"contracts/Traceability.sol\":2680:2804  ProducerTraceDataAdded(_product_id, SubjectName[msg.sender], _product_type, _expiry_date, _location_name, _location_address) */\n      mload(0x40)\n      tag_111\n      swap6\n      swap5\n      swap4\n      swap3\n      swap2\n      swap1\n      tag_112\n      jump\t// in\n    tag_111:\n      mload(0x40)\n      dup1\n      swap2\n      sub\n      swap1\n      log2\n        /* \"contracts/Traceability.sol\":2632:2815  if(UserRole[msg.sender] == 2){... */\n    tag_109:\n        /* \"contracts/Traceability.sol\":1452:2821  function addBasicTraceData(... */\n      pop\n      pop\n      pop\n      pop\n      pop\n      pop\n      pop\n      jump\t// out\n        /* \"contracts/Traceability.sol\":580:623  mapping(address => uint256) public UserRole */\n    tag_30:\n      mstore(0x20, 0x01)\n      dup1\n      0x00\n      mstore\n      keccak256(0x00, 0x40)\n      0x00\n      swap2\n      pop\n      swap1\n      pop\n      sload\n      dup2\n      jump\t// out\n        /* \"contracts/Traceability.sol\":2827:3579  function getTraceData(string memory _product_id) public view returns (... */\n    tag_35:\n        /* \"contracts/Traceability.sol\":2906:2927  string memory user_id */\n      0x60\n        /* \"contracts/Traceability.sol\":2937:2957  address user_address */\n      0x00\n        /* \"contracts/Traceability.sol\":2967:2991  string memory product_id */\n      0x60\n        /* \"contracts/Traceability.sol\":3001:3021  uint256 process_date */\n      0x00\n        /* \"contracts/Traceability.sol\":3031:3058  string memory location_name */\n      0x60\n        /* \"contracts/Traceability.sol\":3068:3098  string memory location_address */\n      dup1\n        /* \"contracts/Traceability.sol\":3108:3139  string[] memory _src_product_id */\n      0x60\n        /* \"contracts/Traceability.sol\":3149:3175  string memory product_type */\n      dup1\n        /* \"contracts/Traceability.sol\":3185:3201  uint expiry_date */\n      0x00\n        /* \"contracts/Traceability.sol\":3218:3239  TraceData memory data */\n      dup1\n        /* \"contracts/Traceability.sol\":3242:3254  TraceDataMap */\n      0x03\n        /* \"contracts/Traceability.sol\":3255:3266  _product_id */\n      dup12\n        /* \"contracts/Traceability.sol\":3242:3267  TraceDataMap[_product_id] */\n      mload(0x40)\n      tag_114\n      swap2\n      swap1\n      tag_98\n      jump\t// in\n    tag_114:\n      swap1\n      dup2\n      mstore\n      0x20\n      add\n      mload(0x40)\n      dup1\n      swap2\n      sub\n      swap1\n      keccak256\n        /* \"contracts/Traceability.sol\":3218:3267  TraceData memory data = TraceDataMap[_product_id] */\n      mload(0x40)\n      dup1\n      0x0120\n      add\n      0x40\n      mstore\n      swap1\n      dup2\n      0x00\n      dup3\n      add\n      dup1\n      sload\n      tag_115\n      swap1\n      tag_61\n      jump\t// in\n    tag_115:\n      dup1\n      0x1f\n      add\n      0x20\n      dup1\n      swap2\n      div\n      mul\n      0x20\n      add\n      mload(0x40)\n      swap1\n      dup2\n      add\n      0x40\n      mstore\n      dup1\n      swap3\n      swap2\n      swap1\n      dup2\n      dup2\n      mstore\n      0x20\n      add\n      dup3\n      dup1\n      sload\n      tag_116\n      swap1\n      tag_61\n      jump\t// in\n    tag_116:\n      dup1\n      iszero\n      tag_117\n      jumpi\n      dup1\n      0x1f\n      lt\n      tag_118\n      jumpi\n      0x0100\n      dup1\n      dup4\n      sload\n      div\n      mul\n      dup4\n      mstore\n      swap2\n      0x20\n      add\n      swap2\n      jump(tag_117)\n    tag_118:\n      dup3\n      add\n      swap2\n      swap1\n      0x00\n      mstore\n      keccak256(0x00, 0x20)\n      swap1\n    tag_119:\n      dup2\n      sload\n      dup2\n      mstore\n      swap1\n      0x01\n      add\n      swap1\n      0x20\n      add\n      dup1\n      dup4\n      gt\n      tag_119\n      jumpi\n      dup3\n      swap1\n      sub\n      0x1f\n      and\n      dup3\n      add\n      swap2\n    tag_117:\n      pop\n      pop\n      pop\n      pop\n      pop\n      dup2\n      mstore\n      0x20\n      add\n      0x01\n      dup3\n      add\n      0x00\n      swap1\n      sload\n      swap1\n      0x0100\n      exp\n      swap1\n      div\n      0xffffffffffffffffffffffffffffffffffffffff\n      and\n      0xffffffffffffffffffffffffffffffffffffffff\n      and\n      0xffffffffffffffffffffffffffffffffffffffff\n      and\n      dup2\n      mstore\n      0x20\n      add\n      0x02\n      dup3\n      add\n      dup1\n      sload\n      tag_120\n      swap1\n      tag_61\n      jump\t// in\n    tag_120:\n      dup1\n      0x1f\n      add\n      0x20\n      dup1\n      swap2\n      div\n      mul\n      0x20\n      add\n      mload(0x40)\n      swap1\n      dup2\n      add\n      0x40\n      mstore\n      dup1\n      swap3\n      swap2\n      swap1\n      dup2\n      dup2\n      mstore\n      0x20\n      add\n      dup3\n      dup1\n      sload\n      tag_121\n      swap1\n      tag_61\n      jump\t// in\n    tag_121:\n      dup1\n      iszero\n      tag_122\n      jumpi\n      dup1\n      0x1f\n      lt\n      tag_123\n      jumpi\n      0x0100\n      dup1\n      dup4\n      sload\n      div\n      mul\n      dup4\n      mstore\n      swap2\n      0x20\n      add\n      swap2\n      jump(tag_122)\n    tag_123:\n      dup3\n      add\n      swap2\n      swap1\n      0x00\n      mstore\n      keccak256(0x00, 0x20)\n      swap1\n    tag_124:\n      dup2\n      sload\n      dup2\n      mstore\n      swap1\n      0x01\n      add\n      swap1\n      0x20\n      add\n      dup1\n      dup4\n      gt\n      tag_124\n      jumpi\n      dup3\n      swap1\n      sub\n      0x1f\n      and\n      dup3\n      add\n      swap2\n    tag_122:\n      pop\n      pop\n      pop\n      pop\n      pop\n      dup2\n      mstore\n      0x20\n      add\n      0x03\n      dup3\n      add\n      sload\n      dup2\n      mstore\n      0x20\n      add\n      0x04\n      dup3\n      add\n      dup1\n      sload\n      tag_125\n      swap1\n      tag_61\n      jump\t// in\n    tag_125:\n      dup1\n      0x1f\n      add\n      0x20\n      dup1\n      swap2\n      div\n      mul\n      0x20\n      add\n      mload(0x40)\n      swap1\n      dup2\n      add\n      0x40\n      mstore\n      dup1\n      swap3\n      swap2\n      swap1\n      dup2\n      dup2\n      mstore\n      0x20\n      add\n      dup3\n      dup1\n      sload\n      tag_126\n      swap1\n      tag_61\n      jump\t// in\n    tag_126:\n      dup1\n      iszero\n      tag_127\n      jumpi\n      dup1\n      0x1f\n      lt\n      tag_128\n      jumpi\n      0x0100\n      dup1\n      dup4\n      sload\n      div\n      mul\n      dup4\n      mstore\n      swap2\n      0x20\n      add\n      swap2\n      jump(tag_127)\n    tag_128:\n      dup3\n      add\n      swap2\n      swap1\n      0x00\n      mstore\n      keccak256(0x00, 0x20)\n      swap1\n    tag_129:\n      dup2\n      sload\n      dup2\n      mstore\n      swap1\n      0x01\n      add\n      swap1\n      0x20\n      add\n      dup1\n      dup4\n      gt\n      tag_129\n      jumpi\n      dup3\n      swap1\n      sub\n      0x1f\n      and\n      dup3\n      add\n      swap2\n    tag_127:\n      pop\n      pop\n      pop\n      pop\n      pop\n      dup2\n      mstore\n      0x20\n      add\n      0x05\n      dup3\n      add\n      dup1\n      sload\n      tag_130\n      swap1\n      tag_61\n      jump\t// in\n    tag_130:\n      dup1\n      0x1f\n      add\n      0x20\n      dup1\n      swap2\n      div\n      mul\n      0x20\n      add\n      mload(0x40)\n      swap1\n      dup2\n      add\n      0x40\n      mstore\n      dup1\n      swap3\n      swap2\n      swap1\n      dup2\n      dup2\n      mstore\n      0x20\n      add\n      dup3\n      dup1\n      sload\n      tag_131\n      swap1\n      tag_61\n      jump\t// in\n    tag_131:\n      dup1\n      iszero\n      tag_132\n      jumpi\n      dup1\n      0x1f\n      lt\n      tag_133\n      jumpi\n      0x0100\n      dup1\n      dup4\n      sload\n      div\n      mul\n      dup4\n      mstore\n      swap2\n      0x20\n      add\n      swap2\n      jump(tag_132)\n    tag_133:\n      dup3\n      add\n      swap2\n      swap1\n      0x00\n      mstore\n      keccak256(0x00, 0x20)\n      swap1\n    tag_134:\n      dup2\n      sload\n      dup2\n      mstore\n      swap1\n      0x01\n      add\n      swap1\n      0x20\n      add\n      dup1\n      dup4\n      gt\n      tag_134\n      jumpi\n      dup3\n      swap1\n      sub\n      0x1f\n      and\n      dup3\n      add\n      swap2\n    tag_132:\n      pop\n      pop\n      pop\n      pop\n      pop\n      dup2\n      mstore\n      0x20\n      add\n      0x06\n      dup3\n      add\n      dup1\n      sload\n      dup1\n      0x20\n      mul\n      0x20\n      add\n      mload(0x40)\n      swap1\n      dup2\n      add\n      0x40\n      mstore\n      dup1\n      swap3\n      swap2\n      swap1\n      dup2\n      dup2\n      mstore\n      0x20\n      add\n      0x00\n      swap1\n    tag_135:\n      dup3\n      dup3\n      lt\n      iszero\n      tag_136\n      jumpi\n      dup4\n      dup3\n      swap1\n      0x00\n      mstore\n      keccak256(0x00, 0x20)\n      add\n      dup1\n      sload\n      tag_138\n      swap1\n      tag_61\n      jump\t// in\n    tag_138:\n      dup1\n      0x1f\n      add\n      0x20\n      dup1\n      swap2\n      div\n      mul\n      0x20\n      add\n      mload(0x40)\n      swap1\n      dup2\n      add\n      0x40\n      mstore\n      dup1\n      swap3\n      swap2\n      swap1\n      dup2\n      dup2\n      mstore\n      0x20\n      add\n      dup3\n      dup1\n      sload\n      tag_139\n      swap1\n      tag_61\n      jump\t// in\n    tag_139:\n      dup1\n      iszero\n      tag_140\n      jumpi\n      dup1\n      0x1f\n      lt\n      tag_141\n      jumpi\n      0x0100\n      dup1\n      dup4\n      sload\n      div\n      mul\n      dup4\n      mstore\n      swap2\n      0x20\n      add\n      swap2\n      jump(tag_140)\n    tag_141:\n      dup3\n      add\n      swap2\n      swap1\n      0x00\n      mstore\n      keccak256(0x00, 0x20)\n      swap1\n    tag_142:\n      dup2\n      sload\n      dup2\n      mstore\n      swap1\n      0x01\n      add\n      swap1\n      0x20\n      add\n      dup1\n      dup4\n      gt\n      tag_142\n      jumpi\n      dup3\n      swap1\n      sub\n      0x1f\n      and\n      dup3\n      add\n      swap2\n    tag_140:\n      pop\n      pop\n      pop\n      pop\n      pop\n      dup2\n      mstore\n      0x20\n      add\n      swap1\n      0x01\n      add\n      swap1\n      jump(tag_135)\n    tag_136:\n      pop\n      pop\n      pop\n      pop\n      dup2\n      mstore\n      0x20\n      add\n      0x07\n      dup3\n      add\n      dup1\n      sload\n      tag_143\n      swap1\n      tag_61\n      jump\t// in\n    tag_143:\n      dup1\n      0x1f\n      add\n      0x20\n      dup1\n      swap2\n      div\n      mul\n      0x20\n      add\n      mload(0x40)\n      swap1\n      dup2\n      add\n      0x40\n      mstore\n      dup1\n      swap3\n      swap2\n      swap1\n      dup2\n      dup2\n      mstore\n      0x20\n      add\n      dup3\n      dup1\n      sload\n      tag_144\n      swap1\n      tag_61\n      jump\t// in\n    tag_144:\n      dup1\n      iszero\n      tag_145\n      jumpi\n      dup1\n      0x1f\n      lt\n      tag_146\n      jumpi\n      0x0100\n      dup1\n      dup4\n      sload\n      div\n      mul\n      dup4\n      mstore\n      swap2\n      0x20\n      add\n      swap2\n      jump(tag_145)\n    tag_146:\n      dup3\n      add\n      swap2\n      swap1\n      0x00\n      mstore\n      keccak256(0x00, 0x20)\n      swap1\n    tag_147:\n      dup2\n      sload\n      dup2\n      mstore\n      swap1\n      0x01\n      add\n      swap1\n      0x20\n      add\n      dup1\n      dup4\n      gt\n      tag_147\n      jumpi\n      dup3\n      swap1\n      sub\n      0x1f\n      and\n      dup3\n      add\n      swap2\n    tag_145:\n      pop\n      pop\n      pop\n      pop\n      pop\n      dup2\n      mstore\n      0x20\n      add\n      0x08\n      dup3\n      add\n      sload\n      dup2\n      mstore\n      pop\n      pop\n      swap1\n      pop\n        /* \"contracts/Traceability.sol\":3298:3302  data */\n      dup1\n        /* \"contracts/Traceability.sol\":3298:3310  data.user_id */\n      0x00\n      add\n      mload\n        /* \"contracts/Traceability.sol\":3324:3328  data */\n      dup2\n        /* \"contracts/Traceability.sol\":3324:3341  data.user_address */\n      0x20\n      add\n      mload\n        /* \"contracts/Traceability.sol\":3355:3359  data */\n      dup3\n        /* \"contracts/Traceability.sol\":3355:3370  data.product_id */\n      0x40\n      add\n      mload\n        /* \"contracts/Traceability.sol\":3384:3388  data */\n      dup4\n        /* \"contracts/Traceability.sol\":3384:3401  data.process_date */\n      0x60\n      add\n      mload\n        /* \"contracts/Traceability.sol\":3415:3419  data */\n      dup5\n        /* \"contracts/Traceability.sol\":3415:3433  data.location_name */\n      0x80\n      add\n      mload\n        /* \"contracts/Traceability.sol\":3447:3451  data */\n      dup6\n        /* \"contracts/Traceability.sol\":3447:3468  data.location_address */\n      0xa0\n      add\n      mload\n        /* \"contracts/Traceability.sol\":3482:3486  data */\n      dup7\n        /* \"contracts/Traceability.sol\":3482:3501  data.src_product_id */\n      0xc0\n      add\n      mload\n        /* \"contracts/Traceability.sol\":3515:3519  data */\n      dup8\n        /* \"contracts/Traceability.sol\":3515:3532  data.product_type */\n      0xe0\n      add\n      mload\n        /* \"contracts/Traceability.sol\":3546:3550  data */\n      dup9\n        /* \"contracts/Traceability.sol\":3546:3562  data.expiry_date */\n      0x0100\n      add\n      mload\n        /* \"contracts/Traceability.sol\":3277:3572  return (... */\n      swap10\n      pop\n      swap10\n      pop\n      swap10\n      pop\n      swap10\n      pop\n      swap10\n      pop\n      swap10\n      pop\n      swap10\n      pop\n      swap10\n      pop\n      swap10\n      pop\n      pop\n        /* \"contracts/Traceability.sol\":2827:3579  function getTraceData(string memory _product_id) public view returns (... */\n      swap2\n      swap4\n      swap6\n      swap8\n      swap10\n      swap1\n      swap3\n      swap5\n      swap7\n      swap9\n      pop\n      jump\t// out\n        /* \"@openzeppelin/contracts/access/Ownable.sol\":2293:2394  function renounceOwnership() public virtual onlyOwner {... */\n    tag_39:\n        /* \"@openzeppelin/contracts/access/Ownable.sol\":1531:1544  _checkOwner() */\n      tag_149\n        /* \"@openzeppelin/contracts/access/Ownable.sol\":1531:1542  _checkOwner */\n      tag_54\n        /* \"@openzeppelin/contracts/access/Ownable.sol\":1531:1544  _checkOwner() */\n      jump\t// in\n    tag_149:\n        /* \"@openzeppelin/contracts/access/Ownable.sol\":2357:2387  _transferOwnership(address(0)) */\n      tag_151\n        /* \"@openzeppelin/contracts/access/Ownable.sol\":2384:2385  0 */\n      0x00\n        /* \"@openzeppelin/contracts/access/Ownable.sol\":2357:2375  _transferOwnership */\n      tag_152\n        /* \"@openzeppelin/contracts/access/Ownable.sol\":2357:2387  _transferOwnership(address(0)) */\n      jump\t// in\n    tag_151:\n        /* \"@openzeppelin/contracts/access/Ownable.sol\":2293:2394  function renounceOwnership() public virtual onlyOwner {... */\n      jump\t// out\n        /* \"@openzeppelin/contracts/access/Ownable.sol\":1638:1723  function owner() public view virtual returns (address) {... */\n    tag_41:\n        /* \"@openzeppelin/contracts/access/Ownable.sol\":1684:1691  address */\n      0x00\n        /* \"@openzeppelin/contracts/access/Ownable.sol\":1710:1716  _owner */\n      dup1\n      0x00\n      swap1\n      sload\n      swap1\n      0x0100\n      exp\n      swap1\n      div\n      0xffffffffffffffffffffffffffffffffffffffff\n      and\n        /* \"@openzeppelin/contracts/access/Ownable.sol\":1703:1716  return _owner */\n      swap1\n      pop\n        /* \"@openzeppelin/contracts/access/Ownable.sol\":1638:1723  function owner() public view virtual returns (address) {... */\n      swap1\n      jump\t// out\n        /* \"contracts/Traceability.sol\":706:751  mapping(address => string) public SubjectName */\n    tag_46:\n      mstore(0x20, 0x02)\n      dup1\n      0x00\n      mstore\n      keccak256(0x00, 0x40)\n      0x00\n      swap2\n      pop\n      swap1\n      pop\n      dup1\n      sload\n      tag_154\n      swap1\n      tag_61\n      jump\t// in\n    tag_154:\n      dup1\n      0x1f\n      add\n      0x20\n      dup1\n      swap2\n      div\n      mul\n      0x20\n      add\n      mload(0x40)\n      swap1\n      dup2\n      add\n      0x40\n      mstore\n      dup1\n      swap3\n      swap2\n      swap1\n      dup2\n      dup2\n      mstore\n      0x20\n      add\n      dup3\n      dup1\n      sload\n      tag_155\n      swap1\n      tag_61\n      jump\t// in\n    tag_155:\n      dup1\n      iszero\n      tag_156\n      jumpi\n      dup1\n      0x1f\n      lt\n      tag_157\n      jumpi\n      0x0100\n      dup1\n      dup4\n      sload\n      div\n      mul\n      dup4\n      mstore\n      swap2\n      0x20\n      add\n      swap2\n      jump(tag_156)\n    tag_157:\n      dup3\n      add\n      swap2\n      swap1\n      0x00\n      mstore\n      keccak256(0x00, 0x20)\n      swap1\n    tag_158:\n      dup2\n      sload\n      dup2\n      mstore\n      swap1\n      0x01\n      add\n      swap1\n      0x20\n      add\n      dup1\n      dup4\n      gt\n      tag_158\n      jumpi\n      dup3\n      swap1\n      sub\n      0x1f\n      and\n      dup3\n      add\n      swap2\n    tag_156:\n      pop\n      pop\n      pop\n      pop\n      pop\n      dup2\n      jump\t// out\n        /* \"@openzeppelin/contracts/access/Ownable.sol\":2543:2758  function transferOwnership(address newOwner) public virtual onlyOwner {... */\n    tag_51:\n        /* \"@openzeppelin/contracts/access/Ownable.sol\":1531:1544  _checkOwner() */\n      tag_160\n        /* \"@openzeppelin/contracts/access/Ownable.sol\":1531:1542  _checkOwner */\n      tag_54\n        /* \"@openzeppelin/contracts/access/Ownable.sol\":1531:1544  _checkOwner() */\n      jump\t// in\n    tag_160:\n        /* \"@openzeppelin/contracts/access/Ownable.sol\":2647:2648  0 */\n      0x00\n        /* \"@openzeppelin/contracts/access/Ownable.sol\":2627:2649  newOwner == address(0) */\n      0xffffffffffffffffffffffffffffffffffffffff\n      and\n        /* \"@openzeppelin/contracts/access/Ownable.sol\":2627:2635  newOwner */\n      dup2\n        /* \"@openzeppelin/contracts/access/Ownable.sol\":2627:2649  newOwner == address(0) */\n      0xffffffffffffffffffffffffffffffffffffffff\n      and\n      sub\n        /* \"@openzeppelin/contracts/access/Ownable.sol\":2623:2714  if (newOwner == address(0)) {... */\n      tag_162\n      jumpi\n        /* \"@openzeppelin/contracts/access/Ownable.sol\":2700:2701  0 */\n      0x00\n        /* \"@openzeppelin/contracts/access/Ownable.sol\":2672:2703  OwnableInvalidOwner(address(0)) */\n      mload(0x40)\n      0x1e4fbdf700000000000000000000000000000000000000000000000000000000\n      dup2\n      mstore\n      0x04\n      add\n      tag_163\n      swap2\n      swap1\n      tag_43\n      jump\t// in\n    tag_163:\n      mload(0x40)\n      dup1\n      swap2\n      sub\n      swap1\n      revert\n        /* \"@openzeppelin/contracts/access/Ownable.sol\":2623:2714  if (newOwner == address(0)) {... */\n    tag_162:\n        /* \"@openzeppelin/contracts/access/Ownable.sol\":2723:2751  _transferOwnership(newOwner) */\n      tag_164\n        /* \"@openzeppelin/contracts/access/Ownable.sol\":2742:2750  newOwner */\n      dup2\n        /* \"@openzeppelin/contracts/access/Ownable.sol\":2723:2741  _transferOwnership */\n      tag_152\n        /* \"@openzeppelin/contracts/access/Ownable.sol\":2723:2751  _transferOwnership(newOwner) */\n      jump\t// in\n    tag_164:\n        /* \"@openzeppelin/contracts/access/Ownable.sol\":2543:2758  function transferOwnership(address newOwner) public virtual onlyOwner {... */\n      pop\n      jump\t// out\n        /* \"@openzeppelin/contracts/access/Ownable.sol\":1796:1958  function _checkOwner() internal view virtual {... */\n    tag_54:\n        /* \"@openzeppelin/contracts/access/Ownable.sol\":1866:1878  _msgSender() */\n      tag_166\n        /* \"@openzeppelin/contracts/access/Ownable.sol\":1866:1876  _msgSender */\n      tag_167\n        /* \"@openzeppelin/contracts/access/Ownable.sol\":1866:1878  _msgSender() */\n      jump\t// in\n    tag_166:\n        /* \"@openzeppelin/contracts/access/Ownable.sol\":1855:1878  owner() != _msgSender() */\n      0xffffffffffffffffffffffffffffffffffffffff\n      and\n        /* \"@openzeppelin/contracts/access/Ownable.sol\":1855:1862  owner() */\n      tag_168\n        /* \"@openzeppelin/contracts/access/Ownable.sol\":1855:1860  owner */\n      tag_41\n        /* \"@openzeppelin/contracts/access/Ownable.sol\":1855:1862  owner() */\n      jump\t// in\n    tag_168:\n        /* \"@openzeppelin/contracts/access/Ownable.sol\":1855:1878  owner() != _msgSender() */\n      0xffffffffffffffffffffffffffffffffffffffff\n      and\n      eq\n        /* \"@openzeppelin/contracts/access/Ownable.sol\":1851:1952  if (owner() != _msgSender()) {... */\n      tag_169\n      jumpi\n        /* \"@openzeppelin/contracts/access/Ownable.sol\":1928:1940  _msgSender() */\n      tag_170\n        /* \"@openzeppelin/contracts/access/Ownable.sol\":1928:1938  _msgSender */\n      tag_167\n        /* \"@openzeppelin/contracts/access/Ownable.sol\":1928:1940  _msgSender() */\n      jump\t// in\n    tag_170:\n        /* \"@openzeppelin/contracts/access/Ownable.sol\":1901:1941  OwnableUnauthorizedAccount(_msgSender()) */\n      mload(0x40)\n      0x118cdaa700000000000000000000000000000000000000000000000000000000\n      dup2\n      mstore\n      0x04\n      add\n      tag_171\n      swap2\n      swap1\n      tag_43\n      jump\t// in\n    tag_171:\n      mload(0x40)\n      dup1\n      swap2\n      sub\n      swap1\n      revert\n        /* \"@openzeppelin/contracts/access/Ownable.sol\":1851:1952  if (owner() != _msgSender()) {... */\n    tag_169:\n        /* \"@openzeppelin/contracts/access/Ownable.sol\":1796:1958  function _checkOwner() internal view virtual {... */\n      jump\t// out\n        /* \"@openzeppelin/contracts/access/Ownable.sol\":2912:3099  function _transferOwnership(address newOwner) internal virtual {... */\n    tag_152:\n        /* \"@openzeppelin/contracts/access/Ownable.sol\":2985:3001  address oldOwner */\n      0x00\n        /* \"@openzeppelin/contracts/access/Ownable.sol\":3004:3010  _owner */\n      dup1\n      0x00\n      swap1\n      sload\n      swap1\n      0x0100\n      exp\n      swap1\n      div\n      0xffffffffffffffffffffffffffffffffffffffff\n      and\n        /* \"@openzeppelin/contracts/access/Ownable.sol\":2985:3010  address oldOwner = _owner */\n      swap1\n      pop\n        /* \"@openzeppelin/contracts/access/Ownable.sol\":3029:3037  newOwner */\n      dup2\n        /* \"@openzeppelin/contracts/access/Ownable.sol\":3020:3026  _owner */\n      0x00\n      dup1\n        /* \"@openzeppelin/contracts/access/Ownable.sol\":3020:3037  _owner = newOwner */\n      0x0100\n      exp\n      dup2\n      sload\n      dup2\n      0xffffffffffffffffffffffffffffffffffffffff\n      mul\n      not\n      and\n      swap1\n      dup4\n      0xffffffffffffffffffffffffffffffffffffffff\n      and\n      mul\n      or\n      swap1\n      sstore\n      pop\n        /* \"@openzeppelin/contracts/access/Ownable.sol\":3083:3091  newOwner */\n      dup2\n        /* \"@openzeppelin/contracts/access/Ownable.sol\":3052:3092  OwnershipTransferred(oldOwner, newOwner) */\n      0xffffffffffffffffffffffffffffffffffffffff\n      and\n        /* \"@openzeppelin/contracts/access/Ownable.sol\":3073:3081  oldOwner */\n      dup2\n        /* \"@openzeppelin/contracts/access/Ownable.sol\":3052:3092  OwnershipTransferred(oldOwner, newOwner) */\n      0xffffffffffffffffffffffffffffffffffffffff\n      and\n      0x8be0079c531659141344cd1fd0a4f28419497f9722a3daafe3b4186f6b6457e0\n      mload(0x40)\n      mload(0x40)\n      dup1\n      swap2\n      sub\n      swap1\n      log3\n        /* \"@openzeppelin/contracts/access/Ownable.sol\":2975:3099  {... */\n      pop\n        /* \"@openzeppelin/contracts/access/Ownable.sol\":2912:3099  function _transferOwnership(address newOwner) internal virtual {... */\n      pop\n      jump\t// out\n        /* \"@openzeppelin/contracts/utils/Context.sol\":656:752  function _msgSender() internal view virtual returns (address) {... */\n    tag_167:\n        /* \"@openzeppelin/contracts/utils/Context.sol\":709:716  address */\n      0x00\n        /* \"@openzeppelin/contracts/utils/Context.sol\":735:745  msg.sender */\n      caller\n        /* \"@openzeppelin/contracts/utils/Context.sol\":728:745  return msg.sender */\n      swap1\n      pop\n        /* \"@openzeppelin/contracts/utils/Context.sol\":656:752  function _msgSender() internal view virtual returns (address) {... */\n      swap1\n      jump\t// out\n    tag_104:\n      dup3\n      dup1\n      sload\n      dup3\n      dup3\n      sstore\n      swap1\n      0x00\n      mstore\n      keccak256(0x00, 0x20)\n      swap1\n      dup2\n      add\n      swap3\n      dup3\n      iszero\n      tag_174\n      jumpi\n      swap2\n      0x20\n      mul\n      dup3\n      add\n    tag_175:\n      dup3\n      dup2\n      gt\n      iszero\n      tag_176\n      jumpi\n      dup3\n      mload\n      dup3\n      swap1\n      dup2\n      tag_177\n      swap2\n      swap1\n      tag_57\n      jump\t// in\n    tag_177:\n      pop\n      swap2\n      0x20\n      add\n      swap2\n      swap1\n      0x01\n      add\n      swap1\n      jump(tag_175)\n    tag_176:\n    tag_174:\n      pop\n      swap1\n      pop\n      tag_178\n      swap2\n      swap1\n      tag_179\n      jump\t// in\n    tag_178:\n      pop\n      swap1\n      jump\t// out\n    tag_179:\n    tag_180:\n      dup1\n      dup3\n      gt\n      iszero\n      tag_181\n      jumpi\n      0x00\n      dup2\n      dup2\n      tag_182\n      swap2\n      swap1\n      tag_183\n      jump\t// in\n    tag_182:\n      pop\n      0x01\n      add\n      jump(tag_180)\n    tag_181:\n      pop\n      swap1\n      jump\t// out\n    tag_183:\n      pop\n      dup1\n      sload\n      tag_184\n      swap1\n      tag_61\n      jump\t// in\n    tag_184:\n      0x00\n      dup3\n      sstore\n      dup1\n      0x1f\n      lt\n      tag_186\n      jumpi\n      pop\n      jump(tag_185)\n    tag_186:\n      0x1f\n      add\n      0x20\n      swap1\n      div\n      swap1\n      0x00\n      mstore\n      keccak256(0x00, 0x20)\n      swap1\n      dup2\n      add\n      swap1\n      tag_187\n      swap2\n      swap1\n      tag_188\n      jump\t// in\n    tag_187:\n    tag_185:\n      pop\n      jump\t// out\n    tag_188:\n    tag_189:\n      dup1\n      dup3\n      gt\n      iszero\n      tag_190\n      jumpi\n      0x00\n      dup2\n      0x00\n      swap1\n      sstore\n      pop\n      0x01\n      add\n      jump(tag_189)\n    tag_190:\n      pop\n      swap1\n      jump\t// out\n        /* \"#utility.yul\":7:82   */\n    tag_191:\n        /* \"#utility.yul\":40:46   */\n      0x00\n        /* \"#utility.yul\":73:75   */\n      0x40\n        /* \"#utility.yul\":67:76   */\n      mload\n        /* \"#utility.yul\":57:76   */\n      swap1\n      pop\n        /* \"#utility.yul\":7:82   */\n      swap1\n      jump\t// out\n        /* \"#utility.yul\":88:205   */\n    tag_192:\n        /* \"#utility.yul\":197:198   */\n      0x00\n        /* \"#utility.yul\":194:195   */\n      dup1\n        /* \"#utility.yul\":187:199   */\n      revert\n        /* \"#utility.yul\":211:328   */\n    tag_193:\n        /* \"#utility.yul\":320:321   */\n      0x00\n        /* \"#utility.yul\":317:318   */\n      dup1\n        /* \"#utility.yul\":310:322   */\n      revert\n        /* \"#utility.yul\":334:460   */\n    tag_194:\n        /* \"#utility.yul\":371:378   */\n      0x00\n        /* \"#utility.yul\":411:453   */\n      0xffffffffffffffffffffffffffffffffffffffff\n        /* \"#utility.yul\":404:409   */\n      dup3\n        /* \"#utility.yul\":400:454   */\n      and\n        /* \"#utility.yul\":389:454   */\n      swap1\n      pop\n        /* \"#utility.yul\":334:460   */\n      swap2\n      swap1\n      pop\n      jump\t// out\n        /* \"#utility.yul\":466:562   */\n    tag_195:\n        /* \"#utility.yul\":503:510   */\n      0x00\n        /* \"#utility.yul\":532:556   */\n      tag_256\n        /* \"#utility.yul\":550:555   */\n      dup3\n        /* \"#utility.yul\":532:556   */\n      tag_194\n      jump\t// in\n    tag_256:\n        /* \"#utility.yul\":521:556   */\n      swap1\n      pop\n        /* \"#utility.yul\":466:562   */\n      swap2\n      swap1\n      pop\n      jump\t// out\n        /* \"#utility.yul\":568:690   */\n    tag_196:\n        /* \"#utility.yul\":641:665   */\n      tag_258\n        /* \"#utility.yul\":659:664   */\n      dup2\n        /* \"#utility.yul\":641:665   */\n      tag_195\n      jump\t// in\n    tag_258:\n        /* \"#utility.yul\":634:639   */\n      dup2\n        /* \"#utility.yul\":631:666   */\n      eq\n        /* \"#utility.yul\":621:684   */\n      tag_259\n      jumpi\n        /* \"#utility.yul\":680:681   */\n      0x00\n        /* \"#utility.yul\":677:678   */\n      dup1\n        /* \"#utility.yul\":670:682   */\n      revert\n        /* \"#utility.yul\":621:684   */\n    tag_259:\n        /* \"#utility.yul\":568:690   */\n      pop\n      jump\t// out\n        /* \"#utility.yul\":696:835   */\n    tag_197:\n        /* \"#utility.yul\":742:747   */\n      0x00\n        /* \"#utility.yul\":780:786   */\n      dup2\n        /* \"#utility.yul\":767:787   */\n      calldataload\n        /* \"#utility.yul\":758:787   */\n      swap1\n      pop\n        /* \"#utility.yul\":796:829   */\n      tag_261\n        /* \"#utility.yul\":823:828   */\n      dup2\n        /* \"#utility.yul\":796:829   */\n      tag_196\n      jump\t// in\n    tag_261:\n        /* \"#utility.yul\":696:835   */\n      swap3\n      swap2\n      pop\n      pop\n      jump\t// out\n        /* \"#utility.yul\":841:918   */\n    tag_198:\n        /* \"#utility.yul\":878:885   */\n      0x00\n        /* \"#utility.yul\":907:912   */\n      dup2\n        /* \"#utility.yul\":896:912   */\n      swap1\n      pop\n        /* \"#utility.yul\":841:918   */\n      swap2\n      swap1\n      pop\n      jump\t// out\n        /* \"#utility.yul\":924:1046   */\n    tag_199:\n        /* \"#utility.yul\":997:1021   */\n      tag_264\n        /* \"#utility.yul\":1015:1020   */\n      dup2\n        /* \"#utility.yul\":997:1021   */\n      tag_198\n      jump\t// in\n    tag_264:\n        /* \"#utility.yul\":990:995   */\n      dup2\n        /* \"#utility.yul\":987:1022   */\n      eq\n        /* \"#utility.yul\":977:1040   */\n      tag_265\n      jumpi\n        /* \"#utility.yul\":1036:1037   */\n      0x00\n        /* \"#utility.yul\":1033:1034   */\n      dup1\n        /* \"#utility.yul\":1026:1038   */\n      revert\n        /* \"#utility.yul\":977:1040   */\n    tag_265:\n        /* \"#utility.yul\":924:1046   */\n      pop\n      jump\t// out\n        /* \"#utility.yul\":1052:1191   */\n    tag_200:\n        /* \"#utility.yul\":1098:1103   */\n      0x00\n        /* \"#utility.yul\":1136:1142   */\n      dup2\n        /* \"#utility.yul\":1123:1143   */\n      calldataload\n        /* \"#utility.yul\":1114:1143   */\n      swap1\n      pop\n        /* \"#utility.yul\":1152:1185   */\n      tag_267\n        /* \"#utility.yul\":1179:1184   */\n      dup2\n        /* \"#utility.yul\":1152:1185   */\n      tag_199\n      jump\t// in\n    tag_267:\n        /* \"#utility.yul\":1052:1191   */\n      swap3\n      swap2\n      pop\n      pop\n      jump\t// out\n        /* \"#utility.yul\":1197:1314   */\n    tag_201:\n        /* \"#utility.yul\":1306:1307   */\n      0x00\n        /* \"#utility.yul\":1303:1304   */\n      dup1\n        /* \"#utility.yul\":1296:1308   */\n      revert\n        /* \"#utility.yul\":1320:1437   */\n    tag_202:\n        /* \"#utility.yul\":1429:1430   */\n      0x00\n        /* \"#utility.yul\":1426:1427   */\n      dup1\n        /* \"#utility.yul\":1419:1431   */\n      revert\n        /* \"#utility.yul\":1443:1545   */\n    tag_203:\n        /* \"#utility.yul\":1484:1490   */\n      0x00\n        /* \"#utility.yul\":1535:1537   */\n      0x1f\n        /* \"#utility.yul\":1531:1538   */\n      not\n        /* \"#utility.yul\":1526:1528   */\n      0x1f\n        /* \"#utility.yul\":1519:1524   */\n      dup4\n        /* \"#utility.yul\":1515:1529   */\n      add\n        /* \"#utility.yul\":1511:1539   */\n      and\n        /* \"#utility.yul\":1501:1539   */\n      swap1\n      pop\n        /* \"#utility.yul\":1443:1545   */\n      swap2\n      swap1\n      pop\n      jump\t// out\n        /* \"#utility.yul\":1551:1731   */\n    tag_204:\n        /* \"#utility.yul\":1599:1676   */\n      0x4e487b7100000000000000000000000000000000000000000000000000000000\n        /* \"#utility.yul\":1596:1597   */\n      0x00\n        /* \"#utility.yul\":1589:1677   */\n      mstore\n        /* \"#utility.yul\":1696:1700   */\n      0x41\n        /* \"#utility.yul\":1693:1694   */\n      0x04\n        /* \"#utility.yul\":1686:1701   */\n      mstore\n        /* \"#utility.yul\":1720:1724   */\n      0x24\n        /* \"#utility.yul\":1717:1718   */\n      0x00\n        /* \"#utility.yul\":1710:1725   */\n      revert\n        /* \"#utility.yul\":1737:2018   */\n    tag_205:\n        /* \"#utility.yul\":1820:1847   */\n      tag_273\n        /* \"#utility.yul\":1842:1846   */\n      dup3\n        /* \"#utility.yul\":1820:1847   */\n      tag_203\n      jump\t// in\n    tag_273:\n        /* \"#utility.yul\":1812:1818   */\n      dup2\n        /* \"#utility.yul\":1808:1848   */\n      add\n        /* \"#utility.yul\":1950:1956   */\n      dup2\n        /* \"#utility.yul\":1938:1948   */\n      dup2\n        /* \"#utility.yul\":1935:1957   */\n      lt\n        /* \"#utility.yul\":1914:1932   */\n      0xffffffffffffffff\n        /* \"#utility.yul\":1902:1912   */\n      dup3\n        /* \"#utility.yul\":1899:1933   */\n      gt\n        /* \"#utility.yul\":1896:1958   */\n      or\n        /* \"#utility.yul\":1893:1981   */\n      iszero\n      tag_274\n      jumpi\n        /* \"#utility.yul\":1961:1979   */\n      tag_275\n      tag_204\n      jump\t// in\n    tag_275:\n        /* \"#utility.yul\":1893:1981   */\n    tag_274:\n        /* \"#utility.yul\":2001:2011   */\n      dup1\n        /* \"#utility.yul\":1997:1999   */\n      0x40\n        /* \"#utility.yul\":1990:2012   */\n      mstore\n        /* \"#utility.yul\":1780:2018   */\n      pop\n        /* \"#utility.yul\":1737:2018   */\n      pop\n      pop\n      jump\t// out\n        /* \"#utility.yul\":2024:2153   */\n    tag_206:\n        /* \"#utility.yul\":2058:2064   */\n      0x00\n        /* \"#utility.yul\":2085:2105   */\n      tag_277\n      tag_191\n      jump\t// in\n    tag_277:\n        /* \"#utility.yul\":2075:2105   */\n      swap1\n      pop\n        /* \"#utility.yul\":2114:2147   */\n      tag_278\n        /* \"#utility.yul\":2142:2146   */\n      dup3\n        /* \"#utility.yul\":2134:2140   */\n      dup3\n        /* \"#utility.yul\":2114:2147   */\n      tag_205\n      jump\t// in\n    tag_278:\n        /* \"#utility.yul\":2024:2153   */\n      swap2\n      swap1\n      pop\n      jump\t// out\n        /* \"#utility.yul\":2159:2467   */\n    tag_207:\n        /* \"#utility.yul\":2221:2225   */\n      0x00\n        /* \"#utility.yul\":2311:2329   */\n      0xffffffffffffffff\n        /* \"#utility.yul\":2303:2309   */\n      dup3\n        /* \"#utility.yul\":2300:2330   */\n      gt\n        /* \"#utility.yul\":2297:2353   */\n      iszero\n      tag_280\n      jumpi\n        /* \"#utility.yul\":2333:2351   */\n      tag_281\n      tag_204\n      jump\t// in\n    tag_281:\n        /* \"#utility.yul\":2297:2353   */\n    tag_280:\n        /* \"#utility.yul\":2371:2400   */\n      tag_282\n        /* \"#utility.yul\":2393:2399   */\n      dup3\n        /* \"#utility.yul\":2371:2400   */\n      tag_203\n      jump\t// in\n    tag_282:\n        /* \"#utility.yul\":2363:2400   */\n      swap1\n      pop\n        /* \"#utility.yul\":2455:2459   */\n      0x20\n        /* \"#utility.yul\":2449:2453   */\n      dup2\n        /* \"#utility.yul\":2445:2460   */\n      add\n        /* \"#utility.yul\":2437:2460   */\n      swap1\n      pop\n        /* \"#utility.yul\":2159:2467   */\n      swap2\n      swap1\n      pop\n      jump\t// out\n        /* \"#utility.yul\":2473:2619   */\n    tag_208:\n        /* \"#utility.yul\":2570:2576   */\n      dup3\n        /* \"#utility.yul\":2565:2568   */\n      dup2\n        /* \"#utility.yul\":2560:2563   */\n      dup4\n        /* \"#utility.yul\":2547:2577   */\n      calldatacopy\n        /* \"#utility.yul\":2611:2612   */\n      0x00\n        /* \"#utility.yul\":2602:2608   */\n      dup4\n        /* \"#utility.yul\":2597:2600   */\n      dup4\n        /* \"#utility.yul\":2593:2609   */\n      add\n        /* \"#utility.yul\":2586:2613   */\n      mstore\n        /* \"#utility.yul\":2473:2619   */\n      pop\n      pop\n      pop\n      jump\t// out\n        /* \"#utility.yul\":2625:3050   */\n    tag_209:\n        /* \"#utility.yul\":2703:2708   */\n      0x00\n        /* \"#utility.yul\":2728:2794   */\n      tag_285\n        /* \"#utility.yul\":2744:2793   */\n      tag_286\n        /* \"#utility.yul\":2786:2792   */\n      dup5\n        /* \"#utility.yul\":2744:2793   */\n      tag_207\n      jump\t// in\n    tag_286:\n        /* \"#utility.yul\":2728:2794   */\n      tag_206\n      jump\t// in\n    tag_285:\n        /* \"#utility.yul\":2719:2794   */\n      swap1\n      pop\n        /* \"#utility.yul\":2817:2823   */\n      dup3\n        /* \"#utility.yul\":2810:2815   */\n      dup2\n        /* \"#utility.yul\":2803:2824   */\n      mstore\n        /* \"#utility.yul\":2855:2859   */\n      0x20\n        /* \"#utility.yul\":2848:2853   */\n      dup2\n        /* \"#utility.yul\":2844:2860   */\n      add\n        /* \"#utility.yul\":2893:2896   */\n      dup5\n        /* \"#utility.yul\":2884:2890   */\n      dup5\n        /* \"#utility.yul\":2879:2882   */\n      dup5\n        /* \"#utility.yul\":2875:2891   */\n      add\n        /* \"#utility.yul\":2872:2897   */\n      gt\n        /* \"#utility.yul\":2869:2981   */\n      iszero\n      tag_287\n      jumpi\n        /* \"#utility.yul\":2900:2979   */\n      tag_288\n      tag_202\n      jump\t// in\n    tag_288:\n        /* \"#utility.yul\":2869:2981   */\n    tag_287:\n        /* \"#utility.yul\":2990:3044   */\n      tag_289\n        /* \"#utility.yul\":3037:3043   */\n      dup5\n        /* \"#utility.yul\":3032:3035   */\n      dup3\n        /* \"#utility.yul\":3027:3030   */\n      dup6\n        /* \"#utility.yul\":2990:3044   */\n      tag_208\n      jump\t// in\n    tag_289:\n        /* \"#utility.yul\":2709:3050   */\n      pop\n        /* \"#utility.yul\":2625:3050   */\n      swap4\n      swap3\n      pop\n      pop\n      pop\n      jump\t// out\n        /* \"#utility.yul\":3070:3410   */\n    tag_210:\n        /* \"#utility.yul\":3126:3131   */\n      0x00\n        /* \"#utility.yul\":3175:3178   */\n      dup3\n        /* \"#utility.yul\":3168:3172   */\n      0x1f\n        /* \"#utility.yul\":3160:3166   */\n      dup4\n        /* \"#utility.yul\":3156:3173   */\n      add\n        /* \"#utility.yul\":3152:3179   */\n      slt\n        /* \"#utility.yul\":3142:3264   */\n      tag_291\n      jumpi\n        /* \"#utility.yul\":3183:3262   */\n      tag_292\n      tag_201\n      jump\t// in\n    tag_292:\n        /* \"#utility.yul\":3142:3264   */\n    tag_291:\n        /* \"#utility.yul\":3300:3306   */\n      dup2\n        /* \"#utility.yul\":3287:3307   */\n      calldataload\n        /* \"#utility.yul\":3325:3404   */\n      tag_293\n        /* \"#utility.yul\":3400:3403   */\n      dup5\n        /* \"#utility.yul\":3392:3398   */\n      dup3\n        /* \"#utility.yul\":3385:3389   */\n      0x20\n        /* \"#utility.yul\":3377:3383   */\n      dup7\n        /* \"#utility.yul\":3373:3390   */\n      add\n        /* \"#utility.yul\":3325:3404   */\n      tag_209\n      jump\t// in\n    tag_293:\n        /* \"#utility.yul\":3316:3404   */\n      swap2\n      pop\n        /* \"#utility.yul\":3132:3410   */\n      pop\n        /* \"#utility.yul\":3070:3410   */\n      swap3\n      swap2\n      pop\n      pop\n      jump\t// out\n        /* \"#utility.yul\":3416:4215   */\n    tag_15:\n        /* \"#utility.yul\":3503:3509   */\n      0x00\n        /* \"#utility.yul\":3511:3517   */\n      dup1\n        /* \"#utility.yul\":3519:3525   */\n      0x00\n        /* \"#utility.yul\":3568:3570   */\n      0x60\n        /* \"#utility.yul\":3556:3565   */\n      dup5\n        /* \"#utility.yul\":3547:3554   */\n      dup7\n        /* \"#utility.yul\":3543:3566   */\n      sub\n        /* \"#utility.yul\":3539:3571   */\n      slt\n        /* \"#utility.yul\":3536:3655   */\n      iszero\n      tag_295\n      jumpi\n        /* \"#utility.yul\":3574:3653   */\n      tag_296\n      tag_192\n      jump\t// in\n    tag_296:\n        /* \"#utility.yul\":3536:3655   */\n    tag_295:\n        /* \"#utility.yul\":3694:3695   */\n      0x00\n        /* \"#utility.yul\":3719:3772   */\n      tag_297\n        /* \"#utility.yul\":3764:3771   */\n      dup7\n        /* \"#utility.yul\":3755:3761   */\n      dup3\n        /* \"#utility.yul\":3744:3753   */\n      dup8\n        /* \"#utility.yul\":3740:3762   */\n      add\n        /* \"#utility.yul\":3719:3772   */\n      tag_197\n      jump\t// in\n    tag_297:\n        /* \"#utility.yul\":3709:3772   */\n      swap4\n      pop\n        /* \"#utility.yul\":3665:3782   */\n      pop\n        /* \"#utility.yul\":3821:3823   */\n      0x20\n        /* \"#utility.yul\":3847:3900   */\n      tag_298\n        /* \"#utility.yul\":3892:3899   */\n      dup7\n        /* \"#utility.yul\":3883:3889   */\n      dup3\n        /* \"#utility.yul\":3872:3881   */\n      dup8\n        /* \"#utility.yul\":3868:3890   */\n      add\n        /* \"#utility.yul\":3847:3900   */\n      tag_200\n      jump\t// in\n    tag_298:\n        /* \"#utility.yul\":3837:3900   */\n      swap3\n      pop\n        /* \"#utility.yul\":3792:3910   */\n      pop\n        /* \"#utility.yul\":3977:3979   */\n      0x40\n        /* \"#utility.yul\":3966:3975   */\n      dup5\n        /* \"#utility.yul\":3962:3980   */\n      add\n        /* \"#utility.yul\":3949:3981   */\n      calldataload\n        /* \"#utility.yul\":4008:4026   */\n      0xffffffffffffffff\n        /* \"#utility.yul\":4000:4006   */\n      dup2\n        /* \"#utility.yul\":3997:4027   */\n      gt\n        /* \"#utility.yul\":3994:4111   */\n      iszero\n      tag_299\n      jumpi\n        /* \"#utility.yul\":4030:4109   */\n      tag_300\n      tag_193\n      jump\t// in\n    tag_300:\n        /* \"#utility.yul\":3994:4111   */\n    tag_299:\n        /* \"#utility.yul\":4135:4198   */\n      tag_301\n        /* \"#utility.yul\":4190:4197   */\n      dup7\n        /* \"#utility.yul\":4181:4187   */\n      dup3\n        /* \"#utility.yul\":4170:4179   */\n      dup8\n        /* \"#utility.yul\":4166:4188   */\n      add\n        /* \"#utility.yul\":4135:4198   */\n      tag_210\n      jump\t// in\n    tag_301:\n        /* \"#utility.yul\":4125:4198   */\n      swap2\n      pop\n        /* \"#utility.yul\":3920:4208   */\n      pop\n        /* \"#utility.yul\":3416:4215   */\n      swap3\n      pop\n      swap3\n      pop\n      swap3\n      jump\t// out\n        /* \"#utility.yul\":4221:4730   */\n    tag_19:\n        /* \"#utility.yul\":4290:4296   */\n      0x00\n        /* \"#utility.yul\":4339:4341   */\n      0x20\n        /* \"#utility.yul\":4327:4336   */\n      dup3\n        /* \"#utility.yul\":4318:4325   */\n      dup5\n        /* \"#utility.yul\":4314:4337   */\n      sub\n        /* \"#utility.yul\":4310:4342   */\n      slt\n        /* \"#utility.yul\":4307:4426   */\n      iszero\n      tag_303\n      jumpi\n        /* \"#utility.yul\":4345:4424   */\n      tag_304\n      tag_192\n      jump\t// in\n    tag_304:\n        /* \"#utility.yul\":4307:4426   */\n    tag_303:\n        /* \"#utility.yul\":4493:4494   */\n      0x00\n        /* \"#utility.yul\":4482:4491   */\n      dup3\n        /* \"#utility.yul\":4478:4495   */\n      add\n        /* \"#utility.yul\":4465:4496   */\n      calldataload\n        /* \"#utility.yul\":4523:4541   */\n      0xffffffffffffffff\n        /* \"#utility.yul\":4515:4521   */\n      dup2\n        /* \"#utility.yul\":4512:4542   */\n      gt\n        /* \"#utility.yul\":4509:4626   */\n      iszero\n      tag_305\n      jumpi\n        /* \"#utility.yul\":4545:4624   */\n      tag_306\n      tag_193\n      jump\t// in\n    tag_306:\n        /* \"#utility.yul\":4509:4626   */\n    tag_305:\n        /* \"#utility.yul\":4650:4713   */\n      tag_307\n        /* \"#utility.yul\":4705:4712   */\n      dup5\n        /* \"#utility.yul\":4696:4702   */\n      dup3\n        /* \"#utility.yul\":4685:4694   */\n      dup6\n        /* \"#utility.yul\":4681:4703   */\n      add\n        /* \"#utility.yul\":4650:4713   */\n      tag_210\n      jump\t// in\n    tag_307:\n        /* \"#utility.yul\":4640:4713   */\n      swap2\n      pop\n        /* \"#utility.yul\":4436:4723   */\n      pop\n        /* \"#utility.yul\":4221:4730   */\n      swap3\n      swap2\n      pop\n      pop\n      jump\t// out\n        /* \"#utility.yul\":4736:4835   */\n    tag_211:\n        /* \"#utility.yul\":4788:4794   */\n      0x00\n        /* \"#utility.yul\":4822:4827   */\n      dup2\n        /* \"#utility.yul\":4816:4828   */\n      mload\n        /* \"#utility.yul\":4806:4828   */\n      swap1\n      pop\n        /* \"#utility.yul\":4736:4835   */\n      swap2\n      swap1\n      pop\n      jump\t// out\n        /* \"#utility.yul\":4841:5010   */\n    tag_212:\n        /* \"#utility.yul\":4925:4936   */\n      0x00\n        /* \"#utility.yul\":4959:4965   */\n      dup3\n        /* \"#utility.yul\":4954:4957   */\n      dup3\n        /* \"#utility.yul\":4947:4966   */\n      mstore\n        /* \"#utility.yul\":4999:5003   */\n      0x20\n        /* \"#utility.yul\":4994:4997   */\n      dup3\n        /* \"#utility.yul\":4990:5004   */\n      add\n        /* \"#utility.yul\":4975:5004   */\n      swap1\n      pop\n        /* \"#utility.yul\":4841:5010   */\n      swap3\n      swap2\n      pop\n      pop\n      jump\t// out\n        /* \"#utility.yul\":5016:5262   */\n    tag_213:\n        /* \"#utility.yul\":5097:5098   */\n      0x00\n        /* \"#utility.yul\":5107:5220   */\n    tag_311:\n        /* \"#utility.yul\":5121:5127   */\n      dup4\n        /* \"#utility.yul\":5118:5119   */\n      dup2\n        /* \"#utility.yul\":5115:5128   */\n      lt\n        /* \"#utility.yul\":5107:5220   */\n      iszero\n      tag_313\n      jumpi\n        /* \"#utility.yul\":5206:5207   */\n      dup1\n        /* \"#utility.yul\":5201:5204   */\n      dup3\n        /* \"#utility.yul\":5197:5208   */\n      add\n        /* \"#utility.yul\":5191:5209   */\n      mload\n        /* \"#utility.yul\":5187:5188   */\n      dup2\n        /* \"#utility.yul\":5182:5185   */\n      dup5\n        /* \"#utility.yul\":5178:5189   */\n      add\n        /* \"#utility.yul\":5171:5210   */\n      mstore\n        /* \"#utility.yul\":5143:5145   */\n      0x20\n        /* \"#utility.yul\":5140:5141   */\n      dup2\n        /* \"#utility.yul\":5136:5146   */\n      add\n        /* \"#utility.yul\":5131:5146   */\n      swap1\n      pop\n        /* \"#utility.yul\":5107:5220   */\n      jump(tag_311)\n    tag_313:\n        /* \"#utility.yul\":5254:5255   */\n      0x00\n        /* \"#utility.yul\":5245:5251   */\n      dup5\n        /* \"#utility.yul\":5240:5243   */\n      dup5\n        /* \"#utility.yul\":5236:5252   */\n      add\n        /* \"#utility.yul\":5229:5256   */\n      mstore\n        /* \"#utility.yul\":5078:5262   */\n      pop\n        /* \"#utility.yul\":5016:5262   */\n      pop\n      pop\n      pop\n      jump\t// out\n        /* \"#utility.yul\":5268:5645   */\n    tag_214:\n        /* \"#utility.yul\":5356:5359   */\n      0x00\n        /* \"#utility.yul\":5384:5423   */\n      tag_315\n        /* \"#utility.yul\":5417:5422   */\n      dup3\n        /* \"#utility.yul\":5384:5423   */\n      tag_211\n      jump\t// in\n    tag_315:\n        /* \"#utility.yul\":5439:5510   */\n      tag_316\n        /* \"#utility.yul\":5503:5509   */\n      dup2\n        /* \"#utility.yul\":5498:5501   */\n      dup6\n        /* \"#utility.yul\":5439:5510   */\n      tag_212\n      jump\t// in\n    tag_316:\n        /* \"#utility.yul\":5432:5510   */\n      swap4\n      pop\n        /* \"#utility.yul\":5519:5584   */\n      tag_317\n        /* \"#utility.yul\":5577:5583   */\n      dup2\n        /* \"#utility.yul\":5572:5575   */\n      dup6\n        /* \"#utility.yul\":5565:5569   */\n      0x20\n        /* \"#utility.yul\":5558:5563   */\n      dup7\n        /* \"#utility.yul\":5554:5570   */\n      add\n        /* \"#utility.yul\":5519:5584   */\n      tag_213\n      jump\t// in\n    tag_317:\n        /* \"#utility.yul\":5609:5638   */\n      tag_318\n        /* \"#utility.yul\":5631:5637   */\n      dup2\n        /* \"#utility.yul\":5609:5638   */\n      tag_203\n      jump\t// in\n    tag_318:\n        /* \"#utility.yul\":5604:5607   */\n      dup5\n        /* \"#utility.yul\":5600:5639   */\n      add\n        /* \"#utility.yul\":5593:5639   */\n      swap2\n      pop\n        /* \"#utility.yul\":5360:5645   */\n      pop\n        /* \"#utility.yul\":5268:5645   */\n      swap3\n      swap2\n      pop\n      pop\n      jump\t// out\n        /* \"#utility.yul\":5651:5769   */\n    tag_215:\n        /* \"#utility.yul\":5738:5762   */\n      tag_320\n        /* \"#utility.yul\":5756:5761   */\n      dup2\n        /* \"#utility.yul\":5738:5762   */\n      tag_195\n      jump\t// in\n    tag_320:\n        /* \"#utility.yul\":5733:5736   */\n      dup3\n        /* \"#utility.yul\":5726:5763   */\n      mstore\n        /* \"#utility.yul\":5651:5769   */\n      pop\n      pop\n      jump\t// out\n        /* \"#utility.yul\":5775:5893   */\n    tag_216:\n        /* \"#utility.yul\":5862:5886   */\n      tag_322\n        /* \"#utility.yul\":5880:5885   */\n      dup2\n        /* \"#utility.yul\":5862:5886   */\n      tag_198\n      jump\t// in\n    tag_322:\n        /* \"#utility.yul\":5857:5860   */\n      dup3\n        /* \"#utility.yul\":5850:5887   */\n      mstore\n        /* \"#utility.yul\":5775:5893   */\n      pop\n      pop\n      jump\t// out\n        /* \"#utility.yul\":5899:7351   */\n    tag_22:\n        /* \"#utility.yul\":6288:6292   */\n      0x00\n        /* \"#utility.yul\":6326:6329   */\n      0x0100\n        /* \"#utility.yul\":6315:6324   */\n      dup3\n        /* \"#utility.yul\":6311:6330   */\n      add\n        /* \"#utility.yul\":6303:6330   */\n      swap1\n      pop\n        /* \"#utility.yul\":6376:6385   */\n      dup2\n        /* \"#utility.yul\":6370:6374   */\n      dup2\n        /* \"#utility.yul\":6366:6386   */\n      sub\n        /* \"#utility.yul\":6362:6363   */\n      0x00\n        /* \"#utility.yul\":6351:6360   */\n      dup4\n        /* \"#utility.yul\":6347:6364   */\n      add\n        /* \"#utility.yul\":6340:6387   */\n      mstore\n        /* \"#utility.yul\":6404:6482   */\n      tag_324\n        /* \"#utility.yul\":6477:6481   */\n      dup2\n        /* \"#utility.yul\":6468:6474   */\n      dup12\n        /* \"#utility.yul\":6404:6482   */\n      tag_214\n      jump\t// in\n    tag_324:\n        /* \"#utility.yul\":6396:6482   */\n      swap1\n      pop\n        /* \"#utility.yul\":6492:6564   */\n      tag_325\n        /* \"#utility.yul\":6560:6562   */\n      0x20\n        /* \"#utility.yul\":6549:6558   */\n      dup4\n        /* \"#utility.yul\":6545:6563   */\n      add\n        /* \"#utility.yul\":6536:6542   */\n      dup11\n        /* \"#utility.yul\":6492:6564   */\n      tag_215\n      jump\t// in\n    tag_325:\n        /* \"#utility.yul\":6611:6620   */\n      dup2\n        /* \"#utility.yul\":6605:6609   */\n      dup2\n        /* \"#utility.yul\":6601:6621   */\n      sub\n        /* \"#utility.yul\":6596:6598   */\n      0x40\n        /* \"#utility.yul\":6585:6594   */\n      dup4\n        /* \"#utility.yul\":6581:6599   */\n      add\n        /* \"#utility.yul\":6574:6622   */\n      mstore\n        /* \"#utility.yul\":6639:6717   */\n      tag_326\n        /* \"#utility.yul\":6712:6716   */\n      dup2\n        /* \"#utility.yul\":6703:6709   */\n      dup10\n        /* \"#utility.yul\":6639:6717   */\n      tag_214\n      jump\t// in\n    tag_326:\n        /* \"#utility.yul\":6631:6717   */\n      swap1\n      pop\n        /* \"#utility.yul\":6727:6799   */\n      tag_327\n        /* \"#utility.yul\":6795:6797   */\n      0x60\n        /* \"#utility.yul\":6784:6793   */\n      dup4\n        /* \"#utility.yul\":6780:6798   */\n      add\n        /* \"#utility.yul\":6771:6777   */\n      dup9\n        /* \"#utility.yul\":6727:6799   */\n      tag_216\n      jump\t// in\n    tag_327:\n        /* \"#utility.yul\":6847:6856   */\n      dup2\n        /* \"#utility.yul\":6841:6845   */\n      dup2\n        /* \"#utility.yul\":6837:6857   */\n      sub\n        /* \"#utility.yul\":6831:6834   */\n      0x80\n        /* \"#utility.yul\":6820:6829   */\n      dup4\n        /* \"#utility.yul\":6816:6835   */\n      add\n        /* \"#utility.yul\":6809:6858   */\n      mstore\n        /* \"#utility.yul\":6875:6953   */\n      tag_328\n        /* \"#utility.yul\":6948:6952   */\n      dup2\n        /* \"#utility.yul\":6939:6945   */\n      dup8\n        /* \"#utility.yul\":6875:6953   */\n      tag_214\n      jump\t// in\n    tag_328:\n        /* \"#utility.yul\":6867:6953   */\n      swap1\n      pop\n        /* \"#utility.yul\":7001:7010   */\n      dup2\n        /* \"#utility.yul\":6995:6999   */\n      dup2\n        /* \"#utility.yul\":6991:7011   */\n      sub\n        /* \"#utility.yul\":6985:6988   */\n      0xa0\n        /* \"#utility.yul\":6974:6983   */\n      dup4\n        /* \"#utility.yul\":6970:6989   */\n      add\n        /* \"#utility.yul\":6963:7012   */\n      mstore\n        /* \"#utility.yul\":7029:7107   */\n      tag_329\n        /* \"#utility.yul\":7102:7106   */\n      dup2\n        /* \"#utility.yul\":7093:7099   */\n      dup7\n        /* \"#utility.yul\":7029:7107   */\n      tag_214\n      jump\t// in\n    tag_329:\n        /* \"#utility.yul\":7021:7107   */\n      swap1\n      pop\n        /* \"#utility.yul\":7155:7164   */\n      dup2\n        /* \"#utility.yul\":7149:7153   */\n      dup2\n        /* \"#utility.yul\":7145:7165   */\n      sub\n        /* \"#utility.yul\":7139:7142   */\n      0xc0\n        /* \"#utility.yul\":7128:7137   */\n      dup4\n        /* \"#utility.yul\":7124:7143   */\n      add\n        /* \"#utility.yul\":7117:7166   */\n      mstore\n        /* \"#utility.yul\":7183:7261   */\n      tag_330\n        /* \"#utility.yul\":7256:7260   */\n      dup2\n        /* \"#utility.yul\":7247:7253   */\n      dup6\n        /* \"#utility.yul\":7183:7261   */\n      tag_214\n      jump\t// in\n    tag_330:\n        /* \"#utility.yul\":7175:7261   */\n      swap1\n      pop\n        /* \"#utility.yul\":7271:7344   */\n      tag_331\n        /* \"#utility.yul\":7339:7342   */\n      0xe0\n        /* \"#utility.yul\":7328:7337   */\n      dup4\n        /* \"#utility.yul\":7324:7343   */\n      add\n        /* \"#utility.yul\":7315:7321   */\n      dup5\n        /* \"#utility.yul\":7271:7344   */\n      tag_216\n      jump\t// in\n    tag_331:\n        /* \"#utility.yul\":5899:7351   */\n      swap10\n      swap9\n      pop\n      pop\n      pop\n      pop\n      pop\n      pop\n      pop\n      pop\n      pop\n      jump\t// out\n        /* \"#utility.yul\":7357:7678   */\n    tag_217:\n        /* \"#utility.yul\":7444:7448   */\n      0x00\n        /* \"#utility.yul\":7534:7552   */\n      0xffffffffffffffff\n        /* \"#utility.yul\":7526:7532   */\n      dup3\n        /* \"#utility.yul\":7523:7553   */\n      gt\n        /* \"#utility.yul\":7520:7576   */\n      iszero\n      tag_333\n      jumpi\n        /* \"#utility.yul\":7556:7574   */\n      tag_334\n      tag_204\n      jump\t// in\n    tag_334:\n        /* \"#utility.yul\":7520:7576   */\n    tag_333:\n        /* \"#utility.yul\":7606:7610   */\n      0x20\n        /* \"#utility.yul\":7598:7604   */\n      dup3\n        /* \"#utility.yul\":7594:7611   */\n      mul\n        /* \"#utility.yul\":7586:7611   */\n      swap1\n      pop\n        /* \"#utility.yul\":7666:7670   */\n      0x20\n        /* \"#utility.yul\":7660:7664   */\n      dup2\n        /* \"#utility.yul\":7656:7671   */\n      add\n        /* \"#utility.yul\":7648:7671   */\n      swap1\n      pop\n        /* \"#utility.yul\":7357:7678   */\n      swap2\n      swap1\n      pop\n      jump\t// out\n        /* \"#utility.yul\":7684:7801   */\n    tag_218:\n        /* \"#utility.yul\":7793:7794   */\n      0x00\n        /* \"#utility.yul\":7790:7791   */\n      dup1\n        /* \"#utility.yul\":7783:7795   */\n      revert\n        /* \"#utility.yul\":7823:8768   */\n    tag_219:\n        /* \"#utility.yul\":7929:7934   */\n      0x00\n        /* \"#utility.yul\":7954:8045   */\n      tag_337\n        /* \"#utility.yul\":7970:8044   */\n      tag_338\n        /* \"#utility.yul\":8037:8043   */\n      dup5\n        /* \"#utility.yul\":7970:8044   */\n      tag_217\n      jump\t// in\n    tag_338:\n        /* \"#utility.yul\":7954:8045   */\n      tag_206\n      jump\t// in\n    tag_337:\n        /* \"#utility.yul\":7945:8045   */\n      swap1\n      pop\n        /* \"#utility.yul\":8065:8070   */\n      dup1\n        /* \"#utility.yul\":8094:8100   */\n      dup4\n        /* \"#utility.yul\":8087:8092   */\n      dup3\n        /* \"#utility.yul\":8080:8101   */\n      mstore\n        /* \"#utility.yul\":8128:8132   */\n      0x20\n        /* \"#utility.yul\":8121:8126   */\n      dup3\n        /* \"#utility.yul\":8117:8133   */\n      add\n        /* \"#utility.yul\":8110:8133   */\n      swap1\n      pop\n        /* \"#utility.yul\":8181:8185   */\n      0x20\n        /* \"#utility.yul\":8173:8179   */\n      dup5\n        /* \"#utility.yul\":8169:8186   */\n      mul\n        /* \"#utility.yul\":8161:8167   */\n      dup4\n        /* \"#utility.yul\":8157:8187   */\n      add\n        /* \"#utility.yul\":8210:8213   */\n      dup6\n        /* \"#utility.yul\":8202:8208   */\n      dup2\n        /* \"#utility.yul\":8199:8214   */\n      gt\n        /* \"#utility.yul\":8196:8318   */\n      iszero\n      tag_339\n      jumpi\n        /* \"#utility.yul\":8229:8308   */\n      tag_340\n      tag_218\n      jump\t// in\n    tag_340:\n        /* \"#utility.yul\":8196:8318   */\n    tag_339:\n        /* \"#utility.yul\":8344:8350   */\n      dup4\n        /* \"#utility.yul\":8327:8762   */\n    tag_341:\n        /* \"#utility.yul\":8361:8367   */\n      dup2\n        /* \"#utility.yul\":8356:8359   */\n      dup2\n        /* \"#utility.yul\":8353:8368   */\n      lt\n        /* \"#utility.yul\":8327:8762   */\n      iszero\n      tag_343\n      jumpi\n        /* \"#utility.yul\":8450:8453   */\n      dup1\n        /* \"#utility.yul\":8437:8454   */\n      calldataload\n        /* \"#utility.yul\":8486:8504   */\n      0xffffffffffffffff\n        /* \"#utility.yul\":8473:8484   */\n      dup2\n        /* \"#utility.yul\":8470:8505   */\n      gt\n        /* \"#utility.yul\":8467:8589   */\n      iszero\n      tag_344\n      jumpi\n        /* \"#utility.yul\":8508:8587   */\n      tag_345\n      tag_201\n      jump\t// in\n    tag_345:\n        /* \"#utility.yul\":8467:8589   */\n    tag_344:\n        /* \"#utility.yul\":8632:8643   */\n      dup1\n        /* \"#utility.yul\":8624:8630   */\n      dup7\n        /* \"#utility.yul\":8620:8644   */\n      add\n        /* \"#utility.yul\":8670:8717   */\n      tag_346\n        /* \"#utility.yul\":8713:8716   */\n      dup10\n        /* \"#utility.yul\":8701:8711   */\n      dup3\n        /* \"#utility.yul\":8670:8717   */\n      tag_210\n      jump\t// in\n    tag_346:\n        /* \"#utility.yul\":8665:8668   */\n      dup6\n        /* \"#utility.yul\":8658:8718   */\n      mstore\n        /* \"#utility.yul\":8747:8751   */\n      0x20\n        /* \"#utility.yul\":8742:8745   */\n      dup6\n        /* \"#utility.yul\":8738:8752   */\n      add\n        /* \"#utility.yul\":8731:8752   */\n      swap5\n      pop\n        /* \"#utility.yul\":8403:8762   */\n      pop\n      pop\n        /* \"#utility.yul\":8387:8391   */\n      0x20\n        /* \"#utility.yul\":8382:8385   */\n      dup2\n        /* \"#utility.yul\":8378:8392   */\n      add\n        /* \"#utility.yul\":8371:8392   */\n      swap1\n      pop\n        /* \"#utility.yul\":8327:8762   */\n      jump(tag_341)\n    tag_343:\n        /* \"#utility.yul\":8331:8352   */\n      pop\n        /* \"#utility.yul\":7935:8768   */\n      pop\n      pop\n        /* \"#utility.yul\":7823:8768   */\n      swap4\n      swap3\n      pop\n      pop\n      pop\n      jump\t// out\n        /* \"#utility.yul\":8790:9180   */\n    tag_220:\n        /* \"#utility.yul\":8871:8876   */\n      0x00\n        /* \"#utility.yul\":8920:8923   */\n      dup3\n        /* \"#utility.yul\":8913:8917   */\n      0x1f\n        /* \"#utility.yul\":8905:8911   */\n      dup4\n        /* \"#utility.yul\":8901:8918   */\n      add\n        /* \"#utility.yul\":8897:8924   */\n      slt\n        /* \"#utility.yul\":8887:9009   */\n      tag_348\n      jumpi\n        /* \"#utility.yul\":8928:9007   */\n      tag_349\n      tag_201\n      jump\t// in\n    tag_349:\n        /* \"#utility.yul\":8887:9009   */\n    tag_348:\n        /* \"#utility.yul\":9045:9051   */\n      dup2\n        /* \"#utility.yul\":9032:9052   */\n      calldataload\n        /* \"#utility.yul\":9070:9174   */\n      tag_350\n        /* \"#utility.yul\":9170:9173   */\n      dup5\n        /* \"#utility.yul\":9162:9168   */\n      dup3\n        /* \"#utility.yul\":9155:9159   */\n      0x20\n        /* \"#utility.yul\":9147:9153   */\n      dup7\n        /* \"#utility.yul\":9143:9160   */\n      add\n        /* \"#utility.yul\":9070:9174   */\n      tag_219\n      jump\t// in\n    tag_350:\n        /* \"#utility.yul\":9061:9174   */\n      swap2\n      pop\n        /* \"#utility.yul\":8877:9180   */\n      pop\n        /* \"#utility.yul\":8790:9180   */\n      swap3\n      swap2\n      pop\n      pop\n      jump\t// out\n        /* \"#utility.yul\":9186:11339   */\n    tag_25:\n        /* \"#utility.yul\":9374:9380   */\n      0x00\n        /* \"#utility.yul\":9382:9388   */\n      dup1\n        /* \"#utility.yul\":9390:9396   */\n      0x00\n        /* \"#utility.yul\":9398:9404   */\n      dup1\n        /* \"#utility.yul\":9406:9412   */\n      0x00\n        /* \"#utility.yul\":9414:9420   */\n      dup1\n        /* \"#utility.yul\":9422:9428   */\n      0x00\n        /* \"#utility.yul\":9471:9474   */\n      0xe0\n        /* \"#utility.yul\":9459:9468   */\n      dup9\n        /* \"#utility.yul\":9450:9457   */\n      dup11\n        /* \"#utility.yul\":9446:9469   */\n      sub\n        /* \"#utility.yul\":9442:9475   */\n      slt\n        /* \"#utility.yul\":9439:9559   */\n      iszero\n      tag_352\n      jumpi\n        /* \"#utility.yul\":9478:9557   */\n      tag_353\n      tag_192\n      jump\t// in\n    tag_353:\n        /* \"#utility.yul\":9439:9559   */\n    tag_352:\n        /* \"#utility.yul\":9626:9627   */\n      0x00\n        /* \"#utility.yul\":9615:9624   */\n      dup9\n        /* \"#utility.yul\":9611:9628   */\n      add\n        /* \"#utility.yul\":9598:9629   */\n      calldataload\n        /* \"#utility.yul\":9656:9674   */\n      0xffffffffffffffff\n        /* \"#utility.yul\":9648:9654   */\n      dup2\n        /* \"#utility.yul\":9645:9675   */\n      gt\n        /* \"#utility.yul\":9642:9759   */\n      iszero\n      tag_354\n      jumpi\n        /* \"#utility.yul\":9678:9757   */\n      tag_355\n      tag_193\n      jump\t// in\n    tag_355:\n        /* \"#utility.yul\":9642:9759   */\n    tag_354:\n        /* \"#utility.yul\":9783:9846   */\n      tag_356\n        /* \"#utility.yul\":9838:9845   */\n      dup11\n        /* \"#utility.yul\":9829:9835   */\n      dup3\n        /* \"#utility.yul\":9818:9827   */\n      dup12\n        /* \"#utility.yul\":9814:9836   */\n      add\n        /* \"#utility.yul\":9783:9846   */\n      tag_210\n      jump\t// in\n    tag_356:\n        /* \"#utility.yul\":9773:9846   */\n      swap8\n      pop\n        /* \"#utility.yul\":9569:9856   */\n      pop\n        /* \"#utility.yul\":9895:9897   */\n      0x20\n        /* \"#utility.yul\":9921:9974   */\n      tag_357\n        /* \"#utility.yul\":9966:9973   */\n      dup11\n        /* \"#utility.yul\":9957:9963   */\n      dup3\n        /* \"#utility.yul\":9946:9955   */\n      dup12\n        /* \"#utility.yul\":9942:9964   */\n      add\n        /* \"#utility.yul\":9921:9974   */\n      tag_200\n      jump\t// in\n    tag_357:\n        /* \"#utility.yul\":9911:9974   */\n      swap7\n      pop\n        /* \"#utility.yul\":9866:9984   */\n      pop\n        /* \"#utility.yul\":10051:10053   */\n      0x40\n        /* \"#utility.yul\":10040:10049   */\n      dup9\n        /* \"#utility.yul\":10036:10054   */\n      add\n        /* \"#utility.yul\":10023:10055   */\n      calldataload\n        /* \"#utility.yul\":10082:10100   */\n      0xffffffffffffffff\n        /* \"#utility.yul\":10074:10080   */\n      dup2\n        /* \"#utility.yul\":10071:10101   */\n      gt\n        /* \"#utility.yul\":10068:10185   */\n      iszero\n      tag_358\n      jumpi\n        /* \"#utility.yul\":10104:10183   */\n      tag_359\n      tag_193\n      jump\t// in\n    tag_359:\n        /* \"#utility.yul\":10068:10185   */\n    tag_358:\n        /* \"#utility.yul\":10209:10272   */\n      tag_360\n        /* \"#utility.yul\":10264:10271   */\n      dup11\n        /* \"#utility.yul\":10255:10261   */\n      dup3\n        /* \"#utility.yul\":10244:10253   */\n      dup12\n        /* \"#utility.yul\":10240:10262   */\n      add\n        /* \"#utility.yul\":10209:10272   */\n      tag_210\n      jump\t// in\n    tag_360:\n        /* \"#utility.yul\":10199:10272   */\n      swap6\n      pop\n        /* \"#utility.yul\":9994:10282   */\n      pop\n        /* \"#utility.yul\":10349:10351   */\n      0x60\n        /* \"#utility.yul\":10338:10347   */\n      dup9\n        /* \"#utility.yul\":10334:10352   */\n      add\n        /* \"#utility.yul\":10321:10353   */\n      calldataload\n        /* \"#utility.yul\":10380:10398   */\n      0xffffffffffffffff\n        /* \"#utility.yul\":10372:10378   */\n      dup2\n        /* \"#utility.yul\":10369:10399   */\n      gt\n        /* \"#utility.yul\":10366:10483   */\n      iszero\n      tag_361\n      jumpi\n        /* \"#utility.yul\":10402:10481   */\n      tag_362\n      tag_193\n      jump\t// in\n    tag_362:\n        /* \"#utility.yul\":10366:10483   */\n    tag_361:\n        /* \"#utility.yul\":10507:10570   */\n      tag_363\n        /* \"#utility.yul\":10562:10569   */\n      dup11\n        /* \"#utility.yul\":10553:10559   */\n      dup3\n        /* \"#utility.yul\":10542:10551   */\n      dup12\n        /* \"#utility.yul\":10538:10560   */\n      add\n        /* \"#utility.yul\":10507:10570   */\n      tag_210\n      jump\t// in\n    tag_363:\n        /* \"#utility.yul\":10497:10570   */\n      swap5\n      pop\n        /* \"#utility.yul\":10292:10580   */\n      pop\n        /* \"#utility.yul\":10647:10650   */\n      0x80\n        /* \"#utility.yul\":10636:10645   */\n      dup9\n        /* \"#utility.yul\":10632:10651   */\n      add\n        /* \"#utility.yul\":10619:10652   */\n      calldataload\n        /* \"#utility.yul\":10679:10697   */\n      0xffffffffffffffff\n        /* \"#utility.yul\":10671:10677   */\n      dup2\n        /* \"#utility.yul\":10668:10698   */\n      gt\n        /* \"#utility.yul\":10665:10782   */\n      iszero\n      tag_364\n      jumpi\n        /* \"#utility.yul\":10701:10780   */\n      tag_365\n      tag_193\n      jump\t// in\n    tag_365:\n        /* \"#utility.yul\":10665:10782   */\n    tag_364:\n        /* \"#utility.yul\":10806:10894   */\n      tag_366\n        /* \"#utility.yul\":10886:10893   */\n      dup11\n        /* \"#utility.yul\":10877:10883   */\n      dup3\n        /* \"#utility.yul\":10866:10875   */\n      dup12\n        /* \"#utility.yul\":10862:10884   */\n      add\n        /* \"#utility.yul\":10806:10894   */\n      tag_220\n      jump\t// in\n    tag_366:\n        /* \"#utility.yul\":10796:10894   */\n      swap4\n      pop\n        /* \"#utility.yul\":10590:10904   */\n      pop\n        /* \"#utility.yul\":10971:10974   */\n      0xa0\n        /* \"#utility.yul\":10960:10969   */\n      dup9\n        /* \"#utility.yul\":10956:10975   */\n      add\n        /* \"#utility.yul\":10943:10976   */\n      calldataload\n        /* \"#utility.yul\":11003:11021   */\n      0xffffffffffffffff\n        /* \"#utility.yul\":10995:11001   */\n      dup2\n        /* \"#utility.yul\":10992:11022   */\n      gt\n        /* \"#utility.yul\":10989:11106   */\n      iszero\n      tag_367\n      jumpi\n        /* \"#utility.yul\":11025:11104   */\n      tag_368\n      tag_193\n      jump\t// in\n    tag_368:\n        /* \"#utility.yul\":10989:11106   */\n    tag_367:\n        /* \"#utility.yul\":11130:11193   */\n      tag_369\n        /* \"#utility.yul\":11185:11192   */\n      dup11\n        /* \"#utility.yul\":11176:11182   */\n      dup3\n        /* \"#utility.yul\":11165:11174   */\n      dup12\n        /* \"#utility.yul\":11161:11183   */\n      add\n        /* \"#utility.yul\":11130:11193   */\n      tag_210\n      jump\t// in\n    tag_369:\n        /* \"#utility.yul\":11120:11193   */\n      swap3\n      pop\n        /* \"#utility.yul\":10914:11203   */\n      pop\n        /* \"#utility.yul\":11242:11245   */\n      0xc0\n        /* \"#utility.yul\":11269:11322   */\n      tag_370\n        /* \"#utility.yul\":11314:11321   */\n      dup11\n        /* \"#utility.yul\":11305:11311   */\n      dup3\n        /* \"#utility.yul\":11294:11303   */\n      dup12\n        /* \"#utility.yul\":11290:11312   */\n      add\n        /* \"#utility.yul\":11269:11322   */\n      tag_200\n      jump\t// in\n    tag_370:\n        /* \"#utility.yul\":11259:11322   */\n      swap2\n      pop\n        /* \"#utility.yul\":11213:11332   */\n      pop\n        /* \"#utility.yul\":9186:11339   */\n      swap3\n      swap6\n      swap9\n      swap2\n      swap5\n      swap8\n      pop\n      swap3\n      swap6\n      pop\n      jump\t// out\n        /* \"#utility.yul\":11345:11674   */\n    tag_29:\n        /* \"#utility.yul\":11404:11410   */\n      0x00\n        /* \"#utility.yul\":11453:11455   */\n      0x20\n        /* \"#utility.yul\":11441:11450   */\n      dup3\n        /* \"#utility.yul\":11432:11439   */\n      dup5\n        /* \"#utility.yul\":11428:11451   */\n      sub\n        /* \"#utility.yul\":11424:11456   */\n      slt\n        /* \"#utility.yul\":11421:11540   */\n      iszero\n      tag_372\n      jumpi\n        /* \"#utility.yul\":11459:11538   */\n      tag_373\n      tag_192\n      jump\t// in\n    tag_373:\n        /* \"#utility.yul\":11421:11540   */\n    tag_372:\n        /* \"#utility.yul\":11579:11580   */\n      0x00\n        /* \"#utility.yul\":11604:11657   */\n      tag_374\n        /* \"#utility.yul\":11649:11656   */\n      dup5\n        /* \"#utility.yul\":11640:11646   */\n      dup3\n        /* \"#utility.yul\":11629:11638   */\n      dup6\n        /* \"#utility.yul\":11625:11647   */\n      add\n        /* \"#utility.yul\":11604:11657   */\n      tag_197\n      jump\t// in\n    tag_374:\n        /* \"#utility.yul\":11594:11657   */\n      swap2\n      pop\n        /* \"#utility.yul\":11550:11667   */\n      pop\n        /* \"#utility.yul\":11345:11674   */\n      swap3\n      swap2\n      pop\n      pop\n      jump\t// out\n        /* \"#utility.yul\":11680:11902   */\n    tag_32:\n        /* \"#utility.yul\":11773:11777   */\n      0x00\n        /* \"#utility.yul\":11811:11813   */\n      0x20\n        /* \"#utility.yul\":11800:11809   */\n      dup3\n        /* \"#utility.yul\":11796:11814   */\n      add\n        /* \"#utility.yul\":11788:11814   */\n      swap1\n      pop\n        /* \"#utility.yul\":11824:11895   */\n      tag_376\n        /* \"#utility.yul\":11892:11893   */\n      0x00\n        /* \"#utility.yul\":11881:11890   */\n      dup4\n        /* \"#utility.yul\":11877:11894   */\n      add\n        /* \"#utility.yul\":11868:11874   */\n      dup5\n        /* \"#utility.yul\":11824:11895   */\n      tag_216\n      jump\t// in\n    tag_376:\n        /* \"#utility.yul\":11680:11902   */\n      swap3\n      swap2\n      pop\n      pop\n      jump\t// out\n        /* \"#utility.yul\":11908:12032   */\n    tag_221:\n        /* \"#utility.yul\":11985:11991   */\n      0x00\n        /* \"#utility.yul\":12019:12024   */\n      dup2\n        /* \"#utility.yul\":12013:12025   */\n      mload\n        /* \"#utility.yul\":12003:12025   */\n      swap1\n      pop\n        /* \"#utility.yul\":11908:12032   */\n      swap2\n      swap1\n      pop\n      jump\t// out\n        /* \"#utility.yul\":12038:12232   */\n    tag_222:\n        /* \"#utility.yul\":12147:12158   */\n      0x00\n        /* \"#utility.yul\":12181:12187   */\n      dup3\n        /* \"#utility.yul\":12176:12179   */\n      dup3\n        /* \"#utility.yul\":12169:12188   */\n      mstore\n        /* \"#utility.yul\":12221:12225   */\n      0x20\n        /* \"#utility.yul\":12216:12219   */\n      dup3\n        /* \"#utility.yul\":12212:12226   */\n      add\n        /* \"#utility.yul\":12197:12226   */\n      swap1\n      pop\n        /* \"#utility.yul\":12038:12232   */\n      swap3\n      swap2\n      pop\n      pop\n      jump\t// out\n        /* \"#utility.yul\":12238:12380   */\n    tag_223:\n        /* \"#utility.yul\":12315:12319   */\n      0x00\n        /* \"#utility.yul\":12338:12341   */\n      dup2\n        /* \"#utility.yul\":12330:12341   */\n      swap1\n      pop\n        /* \"#utility.yul\":12368:12372   */\n      0x20\n        /* \"#utility.yul\":12363:12366   */\n      dup3\n        /* \"#utility.yul\":12359:12373   */\n      add\n        /* \"#utility.yul\":12351:12373   */\n      swap1\n      pop\n        /* \"#utility.yul\":12238:12380   */\n      swap2\n      swap1\n      pop\n      jump\t// out\n        /* \"#utility.yul\":12386:12545   */\n    tag_224:\n        /* \"#utility.yul\":12460:12471   */\n      0x00\n        /* \"#utility.yul\":12494:12500   */\n      dup3\n        /* \"#utility.yul\":12489:12492   */\n      dup3\n        /* \"#utility.yul\":12482:12501   */\n      mstore\n        /* \"#utility.yul\":12534:12538   */\n      0x20\n        /* \"#utility.yul\":12529:12532   */\n      dup3\n        /* \"#utility.yul\":12525:12539   */\n      add\n        /* \"#utility.yul\":12510:12539   */\n      swap1\n      pop\n        /* \"#utility.yul\":12386:12545   */\n      swap3\n      swap2\n      pop\n      pop\n      jump\t// out\n        /* \"#utility.yul\":12551:12908   */\n    tag_225:\n        /* \"#utility.yul\":12629:12632   */\n      0x00\n        /* \"#utility.yul\":12657:12696   */\n      tag_382\n        /* \"#utility.yul\":12690:12695   */\n      dup3\n        /* \"#utility.yul\":12657:12696   */\n      tag_211\n      jump\t// in\n    tag_382:\n        /* \"#utility.yul\":12712:12773   */\n      tag_383\n        /* \"#utility.yul\":12766:12772   */\n      dup2\n        /* \"#utility.yul\":12761:12764   */\n      dup6\n        /* \"#utility.yul\":12712:12773   */\n      tag_224\n      jump\t// in\n    tag_383:\n        /* \"#utility.yul\":12705:12773   */\n      swap4\n      pop\n        /* \"#utility.yul\":12782:12847   */\n      tag_384\n        /* \"#utility.yul\":12840:12846   */\n      dup2\n        /* \"#utility.yul\":12835:12838   */\n      dup6\n        /* \"#utility.yul\":12828:12832   */\n      0x20\n        /* \"#utility.yul\":12821:12826   */\n      dup7\n        /* \"#utility.yul\":12817:12833   */\n      add\n        /* \"#utility.yul\":12782:12847   */\n      tag_213\n      jump\t// in\n    tag_384:\n        /* \"#utility.yul\":12872:12901   */\n      tag_385\n        /* \"#utility.yul\":12894:12900   */\n      dup2\n        /* \"#utility.yul\":12872:12901   */\n      tag_203\n      jump\t// in\n    tag_385:\n        /* \"#utility.yul\":12867:12870   */\n      dup5\n        /* \"#utility.yul\":12863:12902   */\n      add\n        /* \"#utility.yul\":12856:12902   */\n      swap2\n      pop\n        /* \"#utility.yul\":12633:12908   */\n      pop\n        /* \"#utility.yul\":12551:12908   */\n      swap3\n      swap2\n      pop\n      pop\n      jump\t// out\n        /* \"#utility.yul\":12914:13110   */\n    tag_226:\n        /* \"#utility.yul\":13003:13013   */\n      0x00\n        /* \"#utility.yul\":13038:13104   */\n      tag_387\n        /* \"#utility.yul\":13100:13103   */\n      dup4\n        /* \"#utility.yul\":13092:13098   */\n      dup4\n        /* \"#utility.yul\":13038:13104   */\n      tag_225\n      jump\t// in\n    tag_387:\n        /* \"#utility.yul\":13024:13104   */\n      swap1\n      pop\n        /* \"#utility.yul\":12914:13110   */\n      swap3\n      swap2\n      pop\n      pop\n      jump\t// out\n        /* \"#utility.yul\":13116:13239   */\n    tag_227:\n        /* \"#utility.yul\":13196:13200   */\n      0x00\n        /* \"#utility.yul\":13228:13232   */\n      0x20\n        /* \"#utility.yul\":13223:13226   */\n      dup3\n        /* \"#utility.yul\":13219:13233   */\n      add\n        /* \"#utility.yul\":13211:13233   */\n      swap1\n      pop\n        /* \"#utility.yul\":13116:13239   */\n      swap2\n      swap1\n      pop\n      jump\t// out\n        /* \"#utility.yul\":13273:14264   */\n    tag_228:\n        /* \"#utility.yul\":13412:13415   */\n      0x00\n        /* \"#utility.yul\":13441:13505   */\n      tag_390\n        /* \"#utility.yul\":13499:13504   */\n      dup3\n        /* \"#utility.yul\":13441:13505   */\n      tag_221\n      jump\t// in\n    tag_390:\n        /* \"#utility.yul\":13521:13617   */\n      tag_391\n        /* \"#utility.yul\":13610:13616   */\n      dup2\n        /* \"#utility.yul\":13605:13608   */\n      dup6\n        /* \"#utility.yul\":13521:13617   */\n      tag_222\n      jump\t// in\n    tag_391:\n        /* \"#utility.yul\":13514:13617   */\n      swap4\n      pop\n        /* \"#utility.yul\":13643:13646   */\n      dup4\n        /* \"#utility.yul\":13688:13692   */\n      0x20\n        /* \"#utility.yul\":13680:13686   */\n      dup3\n        /* \"#utility.yul\":13676:13693   */\n      mul\n        /* \"#utility.yul\":13671:13674   */\n      dup6\n        /* \"#utility.yul\":13667:13694   */\n      add\n        /* \"#utility.yul\":13718:13784   */\n      tag_392\n        /* \"#utility.yul\":13778:13783   */\n      dup6\n        /* \"#utility.yul\":13718:13784   */\n      tag_223\n      jump\t// in\n    tag_392:\n        /* \"#utility.yul\":13807:13814   */\n      dup1\n        /* \"#utility.yul\":13838:13839   */\n      0x00\n        /* \"#utility.yul\":13823:14219   */\n    tag_393:\n        /* \"#utility.yul\":13848:13854   */\n      dup6\n        /* \"#utility.yul\":13845:13846   */\n      dup2\n        /* \"#utility.yul\":13842:13855   */\n      lt\n        /* \"#utility.yul\":13823:14219   */\n      iszero\n      tag_395\n      jumpi\n        /* \"#utility.yul\":13919:13928   */\n      dup5\n        /* \"#utility.yul\":13913:13917   */\n      dup5\n        /* \"#utility.yul\":13909:13929   */\n      sub\n        /* \"#utility.yul\":13904:13907   */\n      dup10\n        /* \"#utility.yul\":13897:13930   */\n      mstore\n        /* \"#utility.yul\":13970:13976   */\n      dup2\n        /* \"#utility.yul\":13964:13977   */\n      mload\n        /* \"#utility.yul\":13998:14082   */\n      tag_396\n        /* \"#utility.yul\":14077:14081   */\n      dup6\n        /* \"#utility.yul\":14062:14075   */\n      dup3\n        /* \"#utility.yul\":13998:14082   */\n      tag_226\n      jump\t// in\n    tag_396:\n        /* \"#utility.yul\":13990:14082   */\n      swap5\n      pop\n        /* \"#utility.yul\":14105:14175   */\n      tag_397\n        /* \"#utility.yul\":14168:14174   */\n      dup4\n        /* \"#utility.yul\":14105:14175   */\n      tag_227\n      jump\t// in\n    tag_397:\n        /* \"#utility.yul\":14095:14175   */\n      swap3\n      pop\n        /* \"#utility.yul\":14204:14208   */\n      0x20\n        /* \"#utility.yul\":14199:14202   */\n      dup11\n        /* \"#utility.yul\":14195:14209   */\n      add\n        /* \"#utility.yul\":14188:14209   */\n      swap10\n      pop\n        /* \"#utility.yul\":13883:14219   */\n      pop\n        /* \"#utility.yul\":13870:13871   */\n      0x01\n        /* \"#utility.yul\":13867:13868   */\n      dup2\n        /* \"#utility.yul\":13863:13872   */\n      add\n        /* \"#utility.yul\":13858:13872   */\n      swap1\n      pop\n        /* \"#utility.yul\":13823:14219   */\n      jump(tag_393)\n    tag_395:\n        /* \"#utility.yul\":13827:13841   */\n      pop\n        /* \"#utility.yul\":14235:14239   */\n      dup3\n        /* \"#utility.yul\":14228:14239   */\n      swap8\n      pop\n        /* \"#utility.yul\":14255:14258   */\n      dup8\n        /* \"#utility.yul\":14248:14258   */\n      swap6\n      pop\n        /* \"#utility.yul\":13417:14264   */\n      pop\n      pop\n      pop\n      pop\n      pop\n        /* \"#utility.yul\":13273:14264   */\n      swap3\n      swap2\n      pop\n      pop\n      jump\t// out\n        /* \"#utility.yul\":14270:16024   */\n    tag_37:\n        /* \"#utility.yul\":14757:14761   */\n      0x00\n        /* \"#utility.yul\":14795:14798   */\n      0x0120\n        /* \"#utility.yul\":14784:14793   */\n      dup3\n        /* \"#utility.yul\":14780:14799   */\n      add\n        /* \"#utility.yul\":14772:14799   */\n      swap1\n      pop\n        /* \"#utility.yul\":14845:14854   */\n      dup2\n        /* \"#utility.yul\":14839:14843   */\n      dup2\n        /* \"#utility.yul\":14835:14855   */\n      sub\n        /* \"#utility.yul\":14831:14832   */\n      0x00\n        /* \"#utility.yul\":14820:14829   */\n      dup4\n        /* \"#utility.yul\":14816:14833   */\n      add\n        /* \"#utility.yul\":14809:14856   */\n      mstore\n        /* \"#utility.yul\":14873:14951   */\n      tag_399\n        /* \"#utility.yul\":14946:14950   */\n      dup2\n        /* \"#utility.yul\":14937:14943   */\n      dup13\n        /* \"#utility.yul\":14873:14951   */\n      tag_214\n      jump\t// in\n    tag_399:\n        /* \"#utility.yul\":14865:14951   */\n      swap1\n      pop\n        /* \"#utility.yul\":14961:15033   */\n      tag_400\n        /* \"#utility.yul\":15029:15031   */\n      0x20\n        /* \"#utility.yul\":15018:15027   */\n      dup4\n        /* \"#utility.yul\":15014:15032   */\n      add\n        /* \"#utility.yul\":15005:15011   */\n      dup12\n        /* \"#utility.yul\":14961:15033   */\n      tag_215\n      jump\t// in\n    tag_400:\n        /* \"#utility.yul\":15080:15089   */\n      dup2\n        /* \"#utility.yul\":15074:15078   */\n      dup2\n        /* \"#utility.yul\":15070:15090   */\n      sub\n        /* \"#utility.yul\":15065:15067   */\n      0x40\n        /* \"#utility.yul\":15054:15063   */\n      dup4\n        /* \"#utility.yul\":15050:15068   */\n      add\n        /* \"#utility.yul\":15043:15091   */\n      mstore\n        /* \"#utility.yul\":15108:15186   */\n      tag_401\n        /* \"#utility.yul\":15181:15185   */\n      dup2\n        /* \"#utility.yul\":15172:15178   */\n      dup11\n        /* \"#utility.yul\":15108:15186   */\n      tag_214\n      jump\t// in\n    tag_401:\n        /* \"#utility.yul\":15100:15186   */\n      swap1\n      pop\n        /* \"#utility.yul\":15196:15268   */\n      tag_402\n        /* \"#utility.yul\":15264:15266   */\n      0x60\n        /* \"#utility.yul\":15253:15262   */\n      dup4\n        /* \"#utility.yul\":15249:15267   */\n      add\n        /* \"#utility.yul\":15240:15246   */\n      dup10\n        /* \"#utility.yul\":15196:15268   */\n      tag_216\n      jump\t// in\n    tag_402:\n        /* \"#utility.yul\":15316:15325   */\n      dup2\n        /* \"#utility.yul\":15310:15314   */\n      dup2\n        /* \"#utility.yul\":15306:15326   */\n      sub\n        /* \"#utility.yul\":15300:15303   */\n      0x80\n        /* \"#utility.yul\":15289:15298   */\n      dup4\n        /* \"#utility.yul\":15285:15304   */\n      add\n        /* \"#utility.yul\":15278:15327   */\n      mstore\n        /* \"#utility.yul\":15344:15422   */\n      tag_403\n        /* \"#utility.yul\":15417:15421   */\n      dup2\n        /* \"#utility.yul\":15408:15414   */\n      dup9\n        /* \"#utility.yul\":15344:15422   */\n      tag_214\n      jump\t// in\n    tag_403:\n        /* \"#utility.yul\":15336:15422   */\n      swap1\n      pop\n        /* \"#utility.yul\":15470:15479   */\n      dup2\n        /* \"#utility.yul\":15464:15468   */\n      dup2\n        /* \"#utility.yul\":15460:15480   */\n      sub\n        /* \"#utility.yul\":15454:15457   */\n      0xa0\n        /* \"#utility.yul\":15443:15452   */\n      dup4\n        /* \"#utility.yul\":15439:15458   */\n      add\n        /* \"#utility.yul\":15432:15481   */\n      mstore\n        /* \"#utility.yul\":15498:15576   */\n      tag_404\n        /* \"#utility.yul\":15571:15575   */\n      dup2\n        /* \"#utility.yul\":15562:15568   */\n      dup8\n        /* \"#utility.yul\":15498:15576   */\n      tag_214\n      jump\t// in\n    tag_404:\n        /* \"#utility.yul\":15490:15576   */\n      swap1\n      pop\n        /* \"#utility.yul\":15624:15633   */\n      dup2\n        /* \"#utility.yul\":15618:15622   */\n      dup2\n        /* \"#utility.yul\":15614:15634   */\n      sub\n        /* \"#utility.yul\":15608:15611   */\n      0xc0\n        /* \"#utility.yul\":15597:15606   */\n      dup4\n        /* \"#utility.yul\":15593:15612   */\n      add\n        /* \"#utility.yul\":15586:15635   */\n      mstore\n        /* \"#utility.yul\":15652:15780   */\n      tag_405\n        /* \"#utility.yul\":15775:15779   */\n      dup2\n        /* \"#utility.yul\":15766:15772   */\n      dup7\n        /* \"#utility.yul\":15652:15780   */\n      tag_228\n      jump\t// in\n    tag_405:\n        /* \"#utility.yul\":15644:15780   */\n      swap1\n      pop\n        /* \"#utility.yul\":15828:15837   */\n      dup2\n        /* \"#utility.yul\":15822:15826   */\n      dup2\n        /* \"#utility.yul\":15818:15838   */\n      sub\n        /* \"#utility.yul\":15812:15815   */\n      0xe0\n        /* \"#utility.yul\":15801:15810   */\n      dup4\n        /* \"#utility.yul\":15797:15816   */\n      add\n        /* \"#utility.yul\":15790:15839   */\n      mstore\n        /* \"#utility.yul\":15856:15934   */\n      tag_406\n        /* \"#utility.yul\":15929:15933   */\n      dup2\n        /* \"#utility.yul\":15920:15926   */\n      dup6\n        /* \"#utility.yul\":15856:15934   */\n      tag_214\n      jump\t// in\n    tag_406:\n        /* \"#utility.yul\":15848:15934   */\n      swap1\n      pop\n        /* \"#utility.yul\":15944:16017   */\n      tag_407\n        /* \"#utility.yul\":16012:16015   */\n      0x0100\n        /* \"#utility.yul\":16001:16010   */\n      dup4\n        /* \"#utility.yul\":15997:16016   */\n      add\n        /* \"#utility.yul\":15988:15994   */\n      dup5\n        /* \"#utility.yul\":15944:16017   */\n      tag_216\n      jump\t// in\n    tag_407:\n        /* \"#utility.yul\":14270:16024   */\n      swap11\n      swap10\n      pop\n      pop\n      pop\n      pop\n      pop\n      pop\n      pop\n      pop\n      pop\n      pop\n      jump\t// out\n        /* \"#utility.yul\":16030:16252   */\n    tag_43:\n        /* \"#utility.yul\":16123:16127   */\n      0x00\n        /* \"#utility.yul\":16161:16163   */\n      0x20\n        /* \"#utility.yul\":16150:16159   */\n      dup3\n        /* \"#utility.yul\":16146:16164   */\n      add\n        /* \"#utility.yul\":16138:16164   */\n      swap1\n      pop\n        /* \"#utility.yul\":16174:16245   */\n      tag_409\n        /* \"#utility.yul\":16242:16243   */\n      0x00\n        /* \"#utility.yul\":16231:16240   */\n      dup4\n        /* \"#utility.yul\":16227:16244   */\n      add\n        /* \"#utility.yul\":16218:16224   */\n      dup5\n        /* \"#utility.yul\":16174:16245   */\n      tag_215\n      jump\t// in\n    tag_409:\n        /* \"#utility.yul\":16030:16252   */\n      swap3\n      swap2\n      pop\n      pop\n      jump\t// out\n        /* \"#utility.yul\":16258:16571   */\n    tag_48:\n        /* \"#utility.yul\":16371:16375   */\n      0x00\n        /* \"#utility.yul\":16409:16411   */\n      0x20\n        /* \"#utility.yul\":16398:16407   */\n      dup3\n        /* \"#utility.yul\":16394:16412   */\n      add\n        /* \"#utility.yul\":16386:16412   */\n      swap1\n      pop\n        /* \"#utility.yul\":16458:16467   */\n      dup2\n        /* \"#utility.yul\":16452:16456   */\n      dup2\n        /* \"#utility.yul\":16448:16468   */\n      sub\n        /* \"#utility.yul\":16444:16445   */\n      0x00\n        /* \"#utility.yul\":16433:16442   */\n      dup4\n        /* \"#utility.yul\":16429:16446   */\n      add\n        /* \"#utility.yul\":16422:16469   */\n      mstore\n        /* \"#utility.yul\":16486:16564   */\n      tag_411\n        /* \"#utility.yul\":16559:16563   */\n      dup2\n        /* \"#utility.yul\":16550:16556   */\n      dup5\n        /* \"#utility.yul\":16486:16564   */\n      tag_214\n      jump\t// in\n    tag_411:\n        /* \"#utility.yul\":16478:16564   */\n      swap1\n      pop\n        /* \"#utility.yul\":16258:16571   */\n      swap3\n      swap2\n      pop\n      pop\n      jump\t// out\n        /* \"#utility.yul\":16577:16757   */\n    tag_229:\n        /* \"#utility.yul\":16625:16702   */\n      0x4e487b7100000000000000000000000000000000000000000000000000000000\n        /* \"#utility.yul\":16622:16623   */\n      0x00\n        /* \"#utility.yul\":16615:16703   */\n      mstore\n        /* \"#utility.yul\":16722:16726   */\n      0x22\n        /* \"#utility.yul\":16719:16720   */\n      0x04\n        /* \"#utility.yul\":16712:16727   */\n      mstore\n        /* \"#utility.yul\":16746:16750   */\n      0x24\n        /* \"#utility.yul\":16743:16744   */\n      0x00\n        /* \"#utility.yul\":16736:16751   */\n      revert\n        /* \"#utility.yul\":16763:17083   */\n    tag_61:\n        /* \"#utility.yul\":16807:16813   */\n      0x00\n        /* \"#utility.yul\":16844:16845   */\n      0x02\n        /* \"#utility.yul\":16838:16842   */\n      dup3\n        /* \"#utility.yul\":16834:16846   */\n      div\n        /* \"#utility.yul\":16824:16846   */\n      swap1\n      pop\n        /* \"#utility.yul\":16891:16892   */\n      0x01\n        /* \"#utility.yul\":16885:16889   */\n      dup3\n        /* \"#utility.yul\":16881:16893   */\n      and\n        /* \"#utility.yul\":16912:16930   */\n      dup1\n        /* \"#utility.yul\":16902:16983   */\n      tag_414\n      jumpi\n        /* \"#utility.yul\":16968:16972   */\n      0x7f\n        /* \"#utility.yul\":16960:16966   */\n      dup3\n        /* \"#utility.yul\":16956:16973   */\n      and\n        /* \"#utility.yul\":16946:16973   */\n      swap2\n      pop\n        /* \"#utility.yul\":16902:16983   */\n    tag_414:\n        /* \"#utility.yul\":17030:17032   */\n      0x20\n        /* \"#utility.yul\":17022:17028   */\n      dup3\n        /* \"#utility.yul\":17019:17033   */\n      lt\n        /* \"#utility.yul\":16999:17017   */\n      dup2\n        /* \"#utility.yul\":16996:17034   */\n      sub\n        /* \"#utility.yul\":16993:17077   */\n      tag_415\n      jumpi\n        /* \"#utility.yul\":17049:17067   */\n      tag_416\n      tag_229\n      jump\t// in\n    tag_416:\n        /* \"#utility.yul\":16993:17077   */\n    tag_415:\n        /* \"#utility.yul\":16814:17083   */\n      pop\n        /* \"#utility.yul\":16763:17083   */\n      swap2\n      swap1\n      pop\n      jump\t// out\n        /* \"#utility.yul\":17089:17230   */\n    tag_230:\n        /* \"#utility.yul\":17138:17142   */\n      0x00\n        /* \"#utility.yul\":17161:17164   */\n      dup2\n        /* \"#utility.yul\":17153:17164   */\n      swap1\n      pop\n        /* \"#utility.yul\":17184:17187   */\n      dup2\n        /* \"#utility.yul\":17181:17182   */\n      0x00\n        /* \"#utility.yul\":17174:17188   */\n      mstore\n        /* \"#utility.yul\":17218:17222   */\n      0x20\n        /* \"#utility.yul\":17215:17216   */\n      0x00\n        /* \"#utility.yul\":17205:17223   */\n      keccak256\n        /* \"#utility.yul\":17197:17223   */\n      swap1\n      pop\n        /* \"#utility.yul\":17089:17230   */\n      swap2\n      swap1\n      pop\n      jump\t// out\n        /* \"#utility.yul\":17236:17329   */\n    tag_231:\n        /* \"#utility.yul\":17273:17279   */\n      0x00\n        /* \"#utility.yul\":17320:17322   */\n      0x20\n        /* \"#utility.yul\":17315:17317   */\n      0x1f\n        /* \"#utility.yul\":17308:17313   */\n      dup4\n        /* \"#utility.yul\":17304:17318   */\n      add\n        /* \"#utility.yul\":17300:17323   */\n      div\n        /* \"#utility.yul\":17290:17323   */\n      swap1\n      pop\n        /* \"#utility.yul\":17236:17329   */\n      swap2\n      swap1\n      pop\n      jump\t// out\n        /* \"#utility.yul\":17335:17442   */\n    tag_232:\n        /* \"#utility.yul\":17379:17387   */\n      0x00\n        /* \"#utility.yul\":17429:17434   */\n      dup3\n        /* \"#utility.yul\":17423:17427   */\n      dup3\n        /* \"#utility.yul\":17419:17435   */\n      shl\n        /* \"#utility.yul\":17398:17435   */\n      swap1\n      pop\n        /* \"#utility.yul\":17335:17442   */\n      swap3\n      swap2\n      pop\n      pop\n      jump\t// out\n        /* \"#utility.yul\":17448:17841   */\n    tag_233:\n        /* \"#utility.yul\":17517:17523   */\n      0x00\n        /* \"#utility.yul\":17567:17568   */\n      0x08\n        /* \"#utility.yul\":17555:17565   */\n      dup4\n        /* \"#utility.yul\":17551:17569   */\n      mul\n        /* \"#utility.yul\":17590:17687   */\n      tag_421\n        /* \"#utility.yul\":17620:17686   */\n      0xffffffffffffffffffffffffffffffffffffffffffffffffffffffffffffffff\n        /* \"#utility.yul\":17609:17618   */\n      dup3\n        /* \"#utility.yul\":17590:17687   */\n      tag_232\n      jump\t// in\n    tag_421:\n        /* \"#utility.yul\":17708:17747   */\n      tag_422\n        /* \"#utility.yul\":17738:17746   */\n      dup7\n        /* \"#utility.yul\":17727:17736   */\n      dup4\n        /* \"#utility.yul\":17708:17747   */\n      tag_232\n      jump\t// in\n    tag_422:\n        /* \"#utility.yul\":17696:17747   */\n      swap6\n      pop\n        /* \"#utility.yul\":17780:17784   */\n      dup1\n        /* \"#utility.yul\":17776:17785   */\n      not\n        /* \"#utility.yul\":17769:17774   */\n      dup5\n        /* \"#utility.yul\":17765:17786   */\n      and\n        /* \"#utility.yul\":17756:17786   */\n      swap4\n      pop\n        /* \"#utility.yul\":17829:17833   */\n      dup1\n        /* \"#utility.yul\":17819:17827   */\n      dup7\n        /* \"#utility.yul\":17815:17834   */\n      and\n        /* \"#utility.yul\":17808:17813   */\n      dup5\n        /* \"#utility.yul\":17805:17835   */\n      or\n        /* \"#utility.yul\":17795:17835   */\n      swap3\n      pop\n        /* \"#utility.yul\":17524:17841   */\n      pop\n      pop\n        /* \"#utility.yul\":17448:17841   */\n      swap4\n      swap3\n      pop\n      pop\n      pop\n      jump\t// out\n        /* \"#utility.yul\":17847:17907   */\n    tag_234:\n        /* \"#utility.yul\":17875:17878   */\n      0x00\n        /* \"#utility.yul\":17896:17901   */\n      dup2\n        /* \"#utility.yul\":17889:17901   */\n      swap1\n      pop\n        /* \"#utility.yul\":17847:17907   */\n      swap2\n      swap1\n      pop\n      jump\t// out\n        /* \"#utility.yul\":17913:18055   */\n    tag_235:\n        /* \"#utility.yul\":17963:17972   */\n      0x00\n        /* \"#utility.yul\":17996:18049   */\n      tag_425\n        /* \"#utility.yul\":18014:18048   */\n      tag_426\n        /* \"#utility.yul\":18023:18047   */\n      tag_427\n        /* \"#utility.yul\":18041:18046   */\n      dup5\n        /* \"#utility.yul\":18023:18047   */\n      tag_198\n      jump\t// in\n    tag_427:\n        /* \"#utility.yul\":18014:18048   */\n      tag_234\n      jump\t// in\n    tag_426:\n        /* \"#utility.yul\":17996:18049   */\n      tag_198\n      jump\t// in\n    tag_425:\n        /* \"#utility.yul\":17983:18049   */\n      swap1\n      pop\n        /* \"#utility.yul\":17913:18055   */\n      swap2\n      swap1\n      pop\n      jump\t// out\n        /* \"#utility.yul\":18061:18136   */\n    tag_236:\n        /* \"#utility.yul\":18104:18107   */\n      0x00\n        /* \"#utility.yul\":18125:18130   */\n      dup2\n        /* \"#utility.yul\":18118:18130   */\n      swap1\n      pop\n        /* \"#utility.yul\":18061:18136   */\n      swap2\n      swap1\n      pop\n      jump\t// out\n        /* \"#utility.yul\":18142:18411   */\n    tag_237:\n        /* \"#utility.yul\":18252:18291   */\n      tag_430\n        /* \"#utility.yul\":18283:18290   */\n      dup4\n        /* \"#utility.yul\":18252:18291   */\n      tag_235\n      jump\t// in\n    tag_430:\n        /* \"#utility.yul\":18313:18404   */\n      tag_431\n        /* \"#utility.yul\":18362:18403   */\n      tag_432\n        /* \"#utility.yul\":18386:18402   */\n      dup3\n        /* \"#utility.yul\":18362:18403   */\n      tag_236\n      jump\t// in\n    tag_432:\n        /* \"#utility.yul\":18354:18360   */\n      dup5\n        /* \"#utility.yul\":18347:18351   */\n      dup5\n        /* \"#utility.yul\":18341:18352   */\n      sload\n        /* \"#utility.yul\":18313:18404   */\n      tag_233\n      jump\t// in\n    tag_431:\n        /* \"#utility.yul\":18307:18311   */\n      dup3\n        /* \"#utility.yul\":18300:18405   */\n      sstore\n        /* \"#utility.yul\":18218:18411   */\n      pop\n        /* \"#utility.yul\":18142:18411   */\n      pop\n      pop\n      pop\n      jump\t// out\n        /* \"#utility.yul\":18417:18490   */\n    tag_238:\n        /* \"#utility.yul\":18462:18465   */\n      0x00\n        /* \"#utility.yul\":18417:18490   */\n      swap1\n      jump\t// out\n        /* \"#utility.yul\":18496:18685   */\n    tag_239:\n        /* \"#utility.yul\":18573:18605   */\n      tag_435\n      tag_238\n      jump\t// in\n    tag_435:\n        /* \"#utility.yul\":18614:18679   */\n      tag_436\n        /* \"#utility.yul\":18672:18678   */\n      dup2\n        /* \"#utility.yul\":18664:18670   */\n      dup5\n        /* \"#utility.yul\":18658:18662   */\n      dup5\n        /* \"#utility.yul\":18614:18679   */\n      tag_237\n      jump\t// in\n    tag_436:\n        /* \"#utility.yul\":18549:18685   */\n      pop\n        /* \"#utility.yul\":18496:18685   */\n      pop\n      pop\n      jump\t// out\n        /* \"#utility.yul\":18691:18877   */\n    tag_240:\n        /* \"#utility.yul\":18751:18871   */\n    tag_438:\n        /* \"#utility.yul\":18768:18771   */\n      dup2\n        /* \"#utility.yul\":18761:18766   */\n      dup2\n        /* \"#utility.yul\":18758:18772   */\n      lt\n        /* \"#utility.yul\":18751:18871   */\n      iszero\n      tag_440\n      jumpi\n        /* \"#utility.yul\":18822:18861   */\n      tag_441\n        /* \"#utility.yul\":18859:18860   */\n      0x00\n        /* \"#utility.yul\":18852:18857   */\n      dup3\n        /* \"#utility.yul\":18822:18861   */\n      tag_239\n      jump\t// in\n    tag_441:\n        /* \"#utility.yul\":18795:18796   */\n      0x01\n        /* \"#utility.yul\":18788:18793   */\n      dup2\n        /* \"#utility.yul\":18784:18797   */\n      add\n        /* \"#utility.yul\":18775:18797   */\n      swap1\n      pop\n        /* \"#utility.yul\":18751:18871   */\n      jump(tag_438)\n    tag_440:\n        /* \"#utility.yul\":18691:18877   */\n      pop\n      pop\n      jump\t// out\n        /* \"#utility.yul\":18883:19426   */\n    tag_241:\n        /* \"#utility.yul\":18984:18986   */\n      0x1f\n        /* \"#utility.yul\":18979:18982   */\n      dup3\n        /* \"#utility.yul\":18976:18987   */\n      gt\n        /* \"#utility.yul\":18973:19419   */\n      iszero\n      tag_443\n      jumpi\n        /* \"#utility.yul\":19018:19056   */\n      tag_444\n        /* \"#utility.yul\":19050:19055   */\n      dup2\n        /* \"#utility.yul\":19018:19056   */\n      tag_230\n      jump\t// in\n    tag_444:\n        /* \"#utility.yul\":19102:19131   */\n      tag_445\n        /* \"#utility.yul\":19120:19130   */\n      dup5\n        /* \"#utility.yul\":19102:19131   */\n      tag_231\n      jump\t// in\n    tag_445:\n        /* \"#utility.yul\":19092:19100   */\n      dup2\n        /* \"#utility.yul\":19088:19132   */\n      add\n        /* \"#utility.yul\":19285:19287   */\n      0x20\n        /* \"#utility.yul\":19273:19283   */\n      dup6\n        /* \"#utility.yul\":19270:19288   */\n      lt\n        /* \"#utility.yul\":19267:19316   */\n      iszero\n      tag_446\n      jumpi\n        /* \"#utility.yul\":19306:19314   */\n      dup2\n        /* \"#utility.yul\":19291:19314   */\n      swap1\n      pop\n        /* \"#utility.yul\":19267:19316   */\n    tag_446:\n        /* \"#utility.yul\":19329:19409   */\n      tag_447\n        /* \"#utility.yul\":19385:19407   */\n      tag_448\n        /* \"#utility.yul\":19403:19406   */\n      dup6\n        /* \"#utility.yul\":19385:19407   */\n      tag_231\n      jump\t// in\n    tag_448:\n        /* \"#utility.yul\":19375:19383   */\n      dup4\n        /* \"#utility.yul\":19371:19408   */\n      add\n        /* \"#utility.yul\":19358:19369   */\n      dup3\n        /* \"#utility.yul\":19329:19409   */\n      tag_240\n      jump\t// in\n    tag_447:\n        /* \"#utility.yul\":18988:19419   */\n      pop\n      pop\n        /* \"#utility.yul\":18973:19419   */\n    tag_443:\n        /* \"#utility.yul\":18883:19426   */\n      pop\n      pop\n      pop\n      jump\t// out\n        /* \"#utility.yul\":19432:19549   */\n    tag_242:\n        /* \"#utility.yul\":19486:19494   */\n      0x00\n        /* \"#utility.yul\":19536:19541   */\n      dup3\n        /* \"#utility.yul\":19530:19534   */\n      dup3\n        /* \"#utility.yul\":19526:19542   */\n      shr\n        /* \"#utility.yul\":19505:19542   */\n      swap1\n      pop\n        /* \"#utility.yul\":19432:19549   */\n      swap3\n      swap2\n      pop\n      pop\n      jump\t// out\n        /* \"#utility.yul\":19555:19724   */\n    tag_243:\n        /* \"#utility.yul\":19599:19605   */\n      0x00\n        /* \"#utility.yul\":19632:19683   */\n      tag_451\n        /* \"#utility.yul\":19680:19681   */\n      0x00\n        /* \"#utility.yul\":19676:19682   */\n      not\n        /* \"#utility.yul\":19668:19673   */\n      dup5\n        /* \"#utility.yul\":19665:19666   */\n      0x08\n        /* \"#utility.yul\":19661:19674   */\n      mul\n        /* \"#utility.yul\":19632:19683   */\n      tag_242\n      jump\t// in\n    tag_451:\n        /* \"#utility.yul\":19628:19684   */\n      not\n        /* \"#utility.yul\":19713:19717   */\n      dup1\n        /* \"#utility.yul\":19707:19711   */\n      dup4\n        /* \"#utility.yul\":19703:19718   */\n      and\n        /* \"#utility.yul\":19693:19718   */\n      swap2\n      pop\n        /* \"#utility.yul\":19606:19724   */\n      pop\n        /* \"#utility.yul\":19555:19724   */\n      swap3\n      swap2\n      pop\n      pop\n      jump\t// out\n        /* \"#utility.yul\":19729:20024   */\n    tag_244:\n        /* \"#utility.yul\":19805:19809   */\n      0x00\n        /* \"#utility.yul\":19951:19980   */\n      tag_453\n        /* \"#utility.yul\":19976:19979   */\n      dup4\n        /* \"#utility.yul\":19970:19974   */\n      dup4\n        /* \"#utility.yul\":19951:19980   */\n      tag_243\n      jump\t// in\n    tag_453:\n        /* \"#utility.yul\":19943:19980   */\n      swap2\n      pop\n        /* \"#utility.yul\":20013:20016   */\n      dup3\n        /* \"#utility.yul\":20010:20011   */\n      0x02\n        /* \"#utility.yul\":20006:20017   */\n      mul\n        /* \"#utility.yul\":20000:20004   */\n      dup3\n        /* \"#utility.yul\":19997:20018   */\n      or\n        /* \"#utility.yul\":19989:20018   */\n      swap1\n      pop\n        /* \"#utility.yul\":19729:20024   */\n      swap3\n      swap2\n      pop\n      pop\n      jump\t// out\n        /* \"#utility.yul\":20029:21424   */\n    tag_57:\n        /* \"#utility.yul\":20146:20183   */\n      tag_455\n        /* \"#utility.yul\":20179:20182   */\n      dup3\n        /* \"#utility.yul\":20146:20183   */\n      tag_211\n      jump\t// in\n    tag_455:\n        /* \"#utility.yul\":20248:20266   */\n      0xffffffffffffffff\n        /* \"#utility.yul\":20240:20246   */\n      dup2\n        /* \"#utility.yul\":20237:20267   */\n      gt\n        /* \"#utility.yul\":20234:20290   */\n      iszero\n      tag_456\n      jumpi\n        /* \"#utility.yul\":20270:20288   */\n      tag_457\n      tag_204\n      jump\t// in\n    tag_457:\n        /* \"#utility.yul\":20234:20290   */\n    tag_456:\n        /* \"#utility.yul\":20314:20352   */\n      tag_458\n        /* \"#utility.yul\":20346:20350   */\n      dup3\n        /* \"#utility.yul\":20340:20351   */\n      sload\n        /* \"#utility.yul\":20314:20352   */\n      tag_61\n      jump\t// in\n    tag_458:\n        /* \"#utility.yul\":20399:20466   */\n      tag_459\n        /* \"#utility.yul\":20459:20465   */\n      dup3\n        /* \"#utility.yul\":20451:20457   */\n      dup3\n        /* \"#utility.yul\":20445:20449   */\n      dup6\n        /* \"#utility.yul\":20399:20466   */\n      tag_241\n      jump\t// in\n    tag_459:\n        /* \"#utility.yul\":20493:20494   */\n      0x00\n        /* \"#utility.yul\":20517:20521   */\n      0x20\n        /* \"#utility.yul\":20504:20521   */\n      swap1\n      pop\n        /* \"#utility.yul\":20549:20551   */\n      0x1f\n        /* \"#utility.yul\":20541:20547   */\n      dup4\n        /* \"#utility.yul\":20538:20552   */\n      gt\n        /* \"#utility.yul\":20566:20567   */\n      0x01\n        /* \"#utility.yul\":20561:21179   */\n      dup2\n      eq\n      tag_461\n      jumpi\n        /* \"#utility.yul\":21223:21224   */\n      0x00\n        /* \"#utility.yul\":21240:21246   */\n      dup5\n        /* \"#utility.yul\":21237:21314   */\n      iszero\n      tag_462\n      jumpi\n        /* \"#utility.yul\":21289:21298   */\n      dup3\n        /* \"#utility.yul\":21284:21287   */\n      dup8\n        /* \"#utility.yul\":21280:21299   */\n      add\n        /* \"#utility.yul\":21274:21300   */\n      mload\n        /* \"#utility.yul\":21265:21300   */\n      swap1\n      pop\n        /* \"#utility.yul\":21237:21314   */\n    tag_462:\n        /* \"#utility.yul\":21340:21407   */\n      tag_463\n        /* \"#utility.yul\":21400:21406   */\n      dup6\n        /* \"#utility.yul\":21393:21398   */\n      dup3\n        /* \"#utility.yul\":21340:21407   */\n      tag_244\n      jump\t// in\n    tag_463:\n        /* \"#utility.yul\":21334:21338   */\n      dup7\n        /* \"#utility.yul\":21327:21408   */\n      sstore\n        /* \"#utility.yul\":21196:21418   */\n      pop\n        /* \"#utility.yul\":20531:21418   */\n      jump(tag_460)\n        /* \"#utility.yul\":20561:21179   */\n    tag_461:\n        /* \"#utility.yul\":20613:20617   */\n      0x1f\n        /* \"#utility.yul\":20609:20618   */\n      not\n        /* \"#utility.yul\":20601:20607   */\n      dup5\n        /* \"#utility.yul\":20597:20619   */\n      and\n        /* \"#utility.yul\":20647:20684   */\n      tag_464\n        /* \"#utility.yul\":20679:20683   */\n      dup7\n        /* \"#utility.yul\":20647:20684   */\n      tag_230\n      jump\t// in\n    tag_464:\n        /* \"#utility.yul\":20706:20707   */\n      0x00\n        /* \"#utility.yul\":20720:20928   */\n    tag_465:\n        /* \"#utility.yul\":20734:20741   */\n      dup3\n        /* \"#utility.yul\":20731:20732   */\n      dup2\n        /* \"#utility.yul\":20728:20742   */\n      lt\n        /* \"#utility.yul\":20720:20928   */\n      iszero\n      tag_467\n      jumpi\n        /* \"#utility.yul\":20813:20822   */\n      dup5\n        /* \"#utility.yul\":20808:20811   */\n      dup10\n        /* \"#utility.yul\":20804:20823   */\n      add\n        /* \"#utility.yul\":20798:20824   */\n      mload\n        /* \"#utility.yul\":20790:20796   */\n      dup3\n        /* \"#utility.yul\":20783:20825   */\n      sstore\n        /* \"#utility.yul\":20864:20865   */\n      0x01\n        /* \"#utility.yul\":20856:20862   */\n      dup3\n        /* \"#utility.yul\":20852:20866   */\n      add\n        /* \"#utility.yul\":20842:20866   */\n      swap2\n      pop\n        /* \"#utility.yul\":20911:20913   */\n      0x20\n        /* \"#utility.yul\":20900:20909   */\n      dup6\n        /* \"#utility.yul\":20896:20914   */\n      add\n        /* \"#utility.yul\":20883:20914   */\n      swap5\n      pop\n        /* \"#utility.yul\":20757:20761   */\n      0x20\n        /* \"#utility.yul\":20754:20755   */\n      dup2\n        /* \"#utility.yul\":20750:20762   */\n      add\n        /* \"#utility.yul\":20745:20762   */\n      swap1\n      pop\n        /* \"#utility.yul\":20720:20928   */\n      jump(tag_465)\n    tag_467:\n        /* \"#utility.yul\":20956:20962   */\n      dup7\n        /* \"#utility.yul\":20947:20954   */\n      dup4\n        /* \"#utility.yul\":20944:20963   */\n      lt\n        /* \"#utility.yul\":20941:21120   */\n      iszero\n      tag_468\n      jumpi\n        /* \"#utility.yul\":21014:21023   */\n      dup5\n        /* \"#utility.yul\":21009:21012   */\n      dup10\n        /* \"#utility.yul\":21005:21024   */\n      add\n        /* \"#utility.yul\":20999:21025   */\n      mload\n        /* \"#utility.yul\":21057:21105   */\n      tag_469\n        /* \"#utility.yul\":21099:21103   */\n      0x1f\n        /* \"#utility.yul\":21091:21097   */\n      dup10\n        /* \"#utility.yul\":21087:21104   */\n      and\n        /* \"#utility.yul\":21076:21085   */\n      dup3\n        /* \"#utility.yul\":21057:21105   */\n      tag_243\n      jump\t// in\n    tag_469:\n        /* \"#utility.yul\":21049:21055   */\n      dup4\n        /* \"#utility.yul\":21042:21106   */\n      sstore\n        /* \"#utility.yul\":20964:21120   */\n      pop\n        /* \"#utility.yul\":20941:21120   */\n    tag_468:\n        /* \"#utility.yul\":21166:21167   */\n      0x01\n        /* \"#utility.yul\":21162:21163   */\n      0x02\n        /* \"#utility.yul\":21154:21160   */\n      dup9\n        /* \"#utility.yul\":21150:21164   */\n      mul\n        /* \"#utility.yul\":21146:21168   */\n      add\n        /* \"#utility.yul\":21140:21144   */\n      dup9\n        /* \"#utility.yul\":21133:21169   */\n      sstore\n        /* \"#utility.yul\":20568:21179   */\n      pop\n      pop\n      pop\n        /* \"#utility.yul\":20531:21418   */\n    tag_460:\n      pop\n        /* \"#utility.yul\":20121:21424   */\n      pop\n      pop\n      pop\n        /* \"#utility.yul\":20029:21424   */\n      pop\n      pop\n      jump\t// out\n        /* \"#utility.yul\":21430:21853   */\n    tag_59:\n        /* \"#utility.yul\":21571:21575   */\n      0x00\n        /* \"#utility.yul\":21609:21611   */\n      0x40\n        /* \"#utility.yul\":21598:21607   */\n      dup3\n        /* \"#utility.yul\":21594:21612   */\n      add\n        /* \"#utility.yul\":21586:21612   */\n      swap1\n      pop\n        /* \"#utility.yul\":21622:21693   */\n      tag_471\n        /* \"#utility.yul\":21690:21691   */\n      0x00\n        /* \"#utility.yul\":21679:21688   */\n      dup4\n        /* \"#utility.yul\":21675:21692   */\n      add\n        /* \"#utility.yul\":21666:21672   */\n      dup6\n        /* \"#utility.yul\":21622:21693   */\n      tag_216\n      jump\t// in\n    tag_471:\n        /* \"#utility.yul\":21740:21749   */\n      dup2\n        /* \"#utility.yul\":21734:21738   */\n      dup2\n        /* \"#utility.yul\":21730:21750   */\n      sub\n        /* \"#utility.yul\":21725:21727   */\n      0x20\n        /* \"#utility.yul\":21714:21723   */\n      dup4\n        /* \"#utility.yul\":21710:21728   */\n      add\n        /* \"#utility.yul\":21703:21751   */\n      mstore\n        /* \"#utility.yul\":21768:21846   */\n      tag_472\n        /* \"#utility.yul\":21841:21845   */\n      dup2\n        /* \"#utility.yul\":21832:21838   */\n      dup5\n        /* \"#utility.yul\":21768:21846   */\n      tag_214\n      jump\t// in\n    tag_472:\n        /* \"#utility.yul\":21760:21846   */\n      swap1\n      pop\n        /* \"#utility.yul\":21430:21853   */\n      swap4\n      swap3\n      pop\n      pop\n      pop\n      jump\t// out\n        /* \"#utility.yul\":21859:22039   */\n    tag_245:\n        /* \"#utility.yul\":21999:22031   */\n      0x55736572206d757374206861766520612076616c696420726f6c652069640000\n        /* \"#utility.yul\":21995:21996   */\n      0x00\n        /* \"#utility.yul\":21987:21993   */\n      dup3\n        /* \"#utility.yul\":21983:21997   */\n      add\n        /* \"#utility.yul\":21976:22032   */\n      mstore\n        /* \"#utility.yul\":21859:22039   */\n      pop\n      jump\t// out\n        /* \"#utility.yul\":22045:22411   */\n    tag_246:\n        /* \"#utility.yul\":22187:22190   */\n      0x00\n        /* \"#utility.yul\":22208:22275   */\n      tag_475\n        /* \"#utility.yul\":22272:22274   */\n      0x1e\n        /* \"#utility.yul\":22267:22270   */\n      dup4\n        /* \"#utility.yul\":22208:22275   */\n      tag_212\n      jump\t// in\n    tag_475:\n        /* \"#utility.yul\":22201:22275   */\n      swap2\n      pop\n        /* \"#utility.yul\":22284:22377   */\n      tag_476\n        /* \"#utility.yul\":22373:22376   */\n      dup3\n        /* \"#utility.yul\":22284:22377   */\n      tag_245\n      jump\t// in\n    tag_476:\n        /* \"#utility.yul\":22402:22404   */\n      0x20\n        /* \"#utility.yul\":22397:22400   */\n      dup3\n        /* \"#utility.yul\":22393:22405   */\n      add\n        /* \"#utility.yul\":22386:22405   */\n      swap1\n      pop\n        /* \"#utility.yul\":22045:22411   */\n      swap2\n      swap1\n      pop\n      jump\t// out\n        /* \"#utility.yul\":22417:22836   */\n    tag_90:\n        /* \"#utility.yul\":22583:22587   */\n      0x00\n        /* \"#utility.yul\":22621:22623   */\n      0x20\n        /* \"#utility.yul\":22610:22619   */\n      dup3\n        /* \"#utility.yul\":22606:22624   */\n      add\n        /* \"#utility.yul\":22598:22624   */\n      swap1\n      pop\n        /* \"#utility.yul\":22670:22679   */\n      dup2\n        /* \"#utility.yul\":22664:22668   */\n      dup2\n        /* \"#utility.yul\":22660:22680   */\n      sub\n        /* \"#utility.yul\":22656:22657   */\n      0x00\n        /* \"#utility.yul\":22645:22654   */\n      dup4\n        /* \"#utility.yul\":22641:22658   */\n      add\n        /* \"#utility.yul\":22634:22681   */\n      mstore\n        /* \"#utility.yul\":22698:22829   */\n      tag_478\n        /* \"#utility.yul\":22824:22828   */\n      dup2\n        /* \"#utility.yul\":22698:22829   */\n      tag_246\n      jump\t// in\n    tag_478:\n        /* \"#utility.yul\":22690:22829   */\n      swap1\n      pop\n        /* \"#utility.yul\":22417:22836   */\n      swap2\n      swap1\n      pop\n      jump\t// out\n        /* \"#utility.yul\":22842:22990   */\n    tag_247:\n        /* \"#utility.yul\":22944:22955   */\n      0x00\n        /* \"#utility.yul\":22981:22984   */\n      dup2\n        /* \"#utility.yul\":22966:22984   */\n      swap1\n      pop\n        /* \"#utility.yul\":22842:22990   */\n      swap3\n      swap2\n      pop\n      pop\n      jump\t// out\n        /* \"#utility.yul\":22996:23386   */\n    tag_248:\n        /* \"#utility.yul\":23102:23105   */\n      0x00\n        /* \"#utility.yul\":23130:23169   */\n      tag_481\n        /* \"#utility.yul\":23163:23168   */\n      dup3\n        /* \"#utility.yul\":23130:23169   */\n      tag_211\n      jump\t// in\n    tag_481:\n        /* \"#utility.yul\":23185:23274   */\n      tag_482\n        /* \"#utility.yul\":23267:23273   */\n      dup2\n        /* \"#utility.yul\":23262:23265   */\n      dup6\n        /* \"#utility.yul\":23185:23274   */\n      tag_247\n      jump\t// in\n    tag_482:\n        /* \"#utility.yul\":23178:23274   */\n      swap4\n      pop\n        /* \"#utility.yul\":23283:23348   */\n      tag_483\n        /* \"#utility.yul\":23341:23347   */\n      dup2\n        /* \"#utility.yul\":23336:23339   */\n      dup6\n        /* \"#utility.yul\":23329:23333   */\n      0x20\n        /* \"#utility.yul\":23322:23327   */\n      dup7\n        /* \"#utility.yul\":23318:23334   */\n      add\n        /* \"#utility.yul\":23283:23348   */\n      tag_213\n      jump\t// in\n    tag_483:\n        /* \"#utility.yul\":23373:23379   */\n      dup1\n        /* \"#utility.yul\":23368:23371   */\n      dup5\n        /* \"#utility.yul\":23364:23380   */\n      add\n        /* \"#utility.yul\":23357:23380   */\n      swap2\n      pop\n        /* \"#utility.yul\":23106:23386   */\n      pop\n        /* \"#utility.yul\":22996:23386   */\n      swap3\n      swap2\n      pop\n      pop\n      jump\t// out\n        /* \"#utility.yul\":23392:23667   */\n    tag_98:\n        /* \"#utility.yul\":23524:23527   */\n      0x00\n        /* \"#utility.yul\":23546:23641   */\n      tag_485\n        /* \"#utility.yul\":23637:23640   */\n      dup3\n        /* \"#utility.yul\":23628:23634   */\n      dup5\n        /* \"#utility.yul\":23546:23641   */\n      tag_248\n      jump\t// in\n    tag_485:\n        /* \"#utility.yul\":23539:23641   */\n      swap2\n      pop\n        /* \"#utility.yul\":23658:23661   */\n      dup2\n        /* \"#utility.yul\":23651:23661   */\n      swap1\n      pop\n        /* \"#utility.yul\":23392:23667   */\n      swap3\n      swap2\n      pop\n      pop\n      jump\t// out\n        /* \"#utility.yul\":23697:24528   */\n    tag_249:\n        /* \"#utility.yul\":23782:23785   */\n      0x00\n        /* \"#utility.yul\":23819:23824   */\n      dup2\n        /* \"#utility.yul\":23813:23825   */\n      sload\n        /* \"#utility.yul\":23848:23884   */\n      tag_487\n        /* \"#utility.yul\":23874:23883   */\n      dup2\n        /* \"#utility.yul\":23848:23884   */\n      tag_61\n      jump\t// in\n    tag_487:\n        /* \"#utility.yul\":23900:23971   */\n      tag_488\n        /* \"#utility.yul\":23964:23970   */\n      dup2\n        /* \"#utility.yul\":23959:23962   */\n      dup7\n        /* \"#utility.yul\":23900:23971   */\n      tag_212\n      jump\t// in\n    tag_488:\n        /* \"#utility.yul\":23893:23971   */\n      swap5\n      pop\n        /* \"#utility.yul\":24002:24003   */\n      0x01\n        /* \"#utility.yul\":23991:24000   */\n      dup3\n        /* \"#utility.yul\":23987:24004   */\n      and\n        /* \"#utility.yul\":24018:24019   */\n      0x00\n        /* \"#utility.yul\":24013:24177   */\n      dup2\n      eq\n      tag_490\n      jumpi\n        /* \"#utility.yul\":24191:24192   */\n      0x01\n        /* \"#utility.yul\":24186:24522   */\n      dup2\n      eq\n      tag_491\n      jumpi\n        /* \"#utility.yul\":23980:24522   */\n      jump(tag_489)\n        /* \"#utility.yul\":24013:24177   */\n    tag_490:\n        /* \"#utility.yul\":24097:24101   */\n      0xff\n        /* \"#utility.yul\":24093:24102   */\n      not\n        /* \"#utility.yul\":24082:24091   */\n      dup4\n        /* \"#utility.yul\":24078:24103   */\n      and\n        /* \"#utility.yul\":24073:24076   */\n      dup7\n        /* \"#utility.yul\":24066:24104   */\n      mstore\n        /* \"#utility.yul\":24157:24163   */\n      dup2\n        /* \"#utility.yul\":24150:24164   */\n      iszero\n        /* \"#utility.yul\":24143:24165   */\n      iszero\n        /* \"#utility.yul\":24137:24141   */\n      0x20\n        /* \"#utility.yul\":24133:24166   */\n      mul\n        /* \"#utility.yul\":24128:24131   */\n      dup7\n        /* \"#utility.yul\":24124:24167   */\n      add\n        /* \"#utility.yul\":24117:24167   */\n      swap4\n      pop\n        /* \"#utility.yul\":24013:24177   */\n      jump(tag_489)\n        /* \"#utility.yul\":24186:24522   */\n    tag_491:\n        /* \"#utility.yul\":24253:24291   */\n      tag_492\n        /* \"#utility.yul\":24285:24290   */\n      dup6\n        /* \"#utility.yul\":24253:24291   */\n      tag_230\n      jump\t// in\n    tag_492:\n        /* \"#utility.yul\":24313:24314   */\n      0x00\n        /* \"#utility.yul\":24327:24481   */\n    tag_493:\n        /* \"#utility.yul\":24341:24347   */\n      dup4\n        /* \"#utility.yul\":24338:24339   */\n      dup2\n        /* \"#utility.yul\":24335:24348   */\n      lt\n        /* \"#utility.yul\":24327:24481   */\n      iszero\n      tag_495\n      jumpi\n        /* \"#utility.yul\":24415:24422   */\n      dup2\n        /* \"#utility.yul\":24409:24423   */\n      sload\n        /* \"#utility.yul\":24405:24406   */\n      dup2\n        /* \"#utility.yul\":24400:24403   */\n      dup10\n        /* \"#utility.yul\":24396:24407   */\n      add\n        /* \"#utility.yul\":24389:24424   */\n      mstore\n        /* \"#utility.yul\":24465:24466   */\n      0x01\n        /* \"#utility.yul\":24456:24463   */\n      dup3\n        /* \"#utility.yul\":24452:24467   */\n      add\n        /* \"#utility.yul\":24441:24467   */\n      swap2\n      pop\n        /* \"#utility.yul\":24363:24367   */\n      0x20\n        /* \"#utility.yul\":24360:24361   */\n      dup2\n        /* \"#utility.yul\":24356:24368   */\n      add\n        /* \"#utility.yul\":24351:24368   */\n      swap1\n      pop\n        /* \"#utility.yul\":24327:24481   */\n      jump(tag_493)\n    tag_495:\n        /* \"#utility.yul\":24510:24511   */\n      dup1\n        /* \"#utility.yul\":24505:24508   */\n      dup9\n        /* \"#utility.yul\":24501:24512   */\n      add\n        /* \"#utility.yul\":24494:24512   */\n      swap6\n      pop\n        /* \"#utility.yul\":24193:24522   */\n      pop\n      pop\n        /* \"#utility.yul\":23980:24522   */\n    tag_489:\n      pop\n        /* \"#utility.yul\":23786:24528   */\n      pop\n      pop\n        /* \"#utility.yul\":23697:24528   */\n      swap3\n      swap2\n      pop\n      pop\n      jump\t// out\n        /* \"#utility.yul\":24534:25354   */\n    tag_108:\n        /* \"#utility.yul\":24768:24772   */\n      0x00\n        /* \"#utility.yul\":24806:24809   */\n      0x80\n        /* \"#utility.yul\":24795:24804   */\n      dup3\n        /* \"#utility.yul\":24791:24810   */\n      add\n        /* \"#utility.yul\":24783:24810   */\n      swap1\n      pop\n        /* \"#utility.yul\":24856:24865   */\n      dup2\n        /* \"#utility.yul\":24850:24854   */\n      dup2\n        /* \"#utility.yul\":24846:24866   */\n      sub\n        /* \"#utility.yul\":24842:24843   */\n      0x00\n        /* \"#utility.yul\":24831:24840   */\n      dup4\n        /* \"#utility.yul\":24827:24844   */\n      add\n        /* \"#utility.yul\":24820:24867   */\n      mstore\n        /* \"#utility.yul\":24884:24959   */\n      tag_497\n        /* \"#utility.yul\":24954:24958   */\n      dup2\n        /* \"#utility.yul\":24945:24951   */\n      dup8\n        /* \"#utility.yul\":24884:24959   */\n      tag_249\n      jump\t// in\n    tag_497:\n        /* \"#utility.yul\":24876:24959   */\n      swap1\n      pop\n        /* \"#utility.yul\":24969:25041   */\n      tag_498\n        /* \"#utility.yul\":25037:25039   */\n      0x20\n        /* \"#utility.yul\":25026:25035   */\n      dup4\n        /* \"#utility.yul\":25022:25040   */\n      add\n        /* \"#utility.yul\":25013:25019   */\n      dup7\n        /* \"#utility.yul\":24969:25041   */\n      tag_216\n      jump\t// in\n    tag_498:\n        /* \"#utility.yul\":25088:25097   */\n      dup2\n        /* \"#utility.yul\":25082:25086   */\n      dup2\n        /* \"#utility.yul\":25078:25098   */\n      sub\n        /* \"#utility.yul\":25073:25075   */\n      0x40\n        /* \"#utility.yul\":25062:25071   */\n      dup4\n        /* \"#utility.yul\":25058:25076   */\n      add\n        /* \"#utility.yul\":25051:25099   */\n      mstore\n        /* \"#utility.yul\":25116:25194   */\n      tag_499\n        /* \"#utility.yul\":25189:25193   */\n      dup2\n        /* \"#utility.yul\":25180:25186   */\n      dup6\n        /* \"#utility.yul\":25116:25194   */\n      tag_214\n      jump\t// in\n    tag_499:\n        /* \"#utility.yul\":25108:25194   */\n      swap1\n      pop\n        /* \"#utility.yul\":25241:25250   */\n      dup2\n        /* \"#utility.yul\":25235:25239   */\n      dup2\n        /* \"#utility.yul\":25231:25251   */\n      sub\n        /* \"#utility.yul\":25226:25228   */\n      0x60\n        /* \"#utility.yul\":25215:25224   */\n      dup4\n        /* \"#utility.yul\":25211:25229   */\n      add\n        /* \"#utility.yul\":25204:25252   */\n      mstore\n        /* \"#utility.yul\":25269:25347   */\n      tag_500\n        /* \"#utility.yul\":25342:25346   */\n      dup2\n        /* \"#utility.yul\":25333:25339   */\n      dup5\n        /* \"#utility.yul\":25269:25347   */\n      tag_214\n      jump\t// in\n    tag_500:\n        /* \"#utility.yul\":25261:25347   */\n      swap1\n      pop\n        /* \"#utility.yul\":24534:25354   */\n      swap6\n      swap5\n      pop\n      pop\n      pop\n      pop\n      pop\n      jump\t// out\n        /* \"#utility.yul\":25360:26382   */\n    tag_112:\n        /* \"#utility.yul\":25642:25646   */\n      0x00\n        /* \"#utility.yul\":25680:25683   */\n      0xa0\n        /* \"#utility.yul\":25669:25678   */\n      dup3\n        /* \"#utility.yul\":25665:25684   */\n      add\n        /* \"#utility.yul\":25657:25684   */\n      swap1\n      pop\n        /* \"#utility.yul\":25730:25739   */\n      dup2\n        /* \"#utility.yul\":25724:25728   */\n      dup2\n        /* \"#utility.yul\":25720:25740   */\n      sub\n        /* \"#utility.yul\":25716:25717   */\n      0x00\n        /* \"#utility.yul\":25705:25714   */\n      dup4\n        /* \"#utility.yul\":25701:25718   */\n      add\n        /* \"#utility.yul\":25694:25741   */\n      mstore\n        /* \"#utility.yul\":25758:25833   */\n      tag_502\n        /* \"#utility.yul\":25828:25832   */\n      dup2\n        /* \"#utility.yul\":25819:25825   */\n      dup9\n        /* \"#utility.yul\":25758:25833   */\n      tag_249\n      jump\t// in\n    tag_502:\n        /* \"#utility.yul\":25750:25833   */\n      swap1\n      pop\n        /* \"#utility.yul\":25880:25889   */\n      dup2\n        /* \"#utility.yul\":25874:25878   */\n      dup2\n        /* \"#utility.yul\":25870:25890   */\n      sub\n        /* \"#utility.yul\":25865:25867   */\n      0x20\n        /* \"#utility.yul\":25854:25863   */\n      dup4\n        /* \"#utility.yul\":25850:25868   */\n      add\n        /* \"#utility.yul\":25843:25891   */\n      mstore\n        /* \"#utility.yul\":25908:25986   */\n      tag_503\n        /* \"#utility.yul\":25981:25985   */\n      dup2\n        /* \"#utility.yul\":25972:25978   */\n      dup8\n        /* \"#utility.yul\":25908:25986   */\n      tag_214\n      jump\t// in\n    tag_503:\n        /* \"#utility.yul\":25900:25986   */\n      swap1\n      pop\n        /* \"#utility.yul\":25996:26068   */\n      tag_504\n        /* \"#utility.yul\":26064:26066   */\n      0x40\n        /* \"#utility.yul\":26053:26062   */\n      dup4\n        /* \"#utility.yul\":26049:26067   */\n      add\n        /* \"#utility.yul\":26040:26046   */\n      dup7\n        /* \"#utility.yul\":25996:26068   */\n      tag_216\n      jump\t// in\n    tag_504:\n        /* \"#utility.yul\":26115:26124   */\n      dup2\n        /* \"#utility.yul\":26109:26113   */\n      dup2\n        /* \"#utility.yul\":26105:26125   */\n      sub\n        /* \"#utility.yul\":26100:26102   */\n      0x60\n        /* \"#utility.yul\":26089:26098   */\n      dup4\n        /* \"#utility.yul\":26085:26103   */\n      add\n        /* \"#utility.yul\":26078:26126   */\n      mstore\n        /* \"#utility.yul\":26143:26221   */\n      tag_505\n        /* \"#utility.yul\":26216:26220   */\n      dup2\n        /* \"#utility.yul\":26207:26213   */\n      dup6\n        /* \"#utility.yul\":26143:26221   */\n      tag_214\n      jump\t// in\n    tag_505:\n        /* \"#utility.yul\":26135:26221   */\n      swap1\n      pop\n        /* \"#utility.yul\":26269:26278   */\n      dup2\n        /* \"#utility.yul\":26263:26267   */\n      dup2\n        /* \"#utility.yul\":26259:26279   */\n      sub\n        /* \"#utility.yul\":26253:26256   */\n      0x80\n        /* \"#utility.yul\":26242:26251   */\n      dup4\n        /* \"#utility.yul\":26238:26257   */\n      add\n        /* \"#utility.yul\":26231:26280   */\n      mstore\n        /* \"#utility.yul\":26297:26375   */\n      tag_506\n        /* \"#utility.yul\":26370:26374   */\n      dup2\n        /* \"#utility.yul\":26361:26367   */\n      dup5\n        /* \"#utility.yul\":26297:26375   */\n      tag_214\n      jump\t// in\n    tag_506:\n        /* \"#utility.yul\":26289:26375   */\n      swap1\n      pop\n        /* \"#utility.yul\":25360:26382   */\n      swap7\n      swap6\n      pop\n      pop\n      pop\n      pop\n      pop\n      pop\n      jump\t// out\n\n    auxdata: 0xa26469706673582212209d97d96e70dc63f1ba9c2c52576a28691bd83c15c54c7537297362caf4c1a73964736f6c63430008140033\n}\n",
				"bytecode": {
					"linkReferences": {},
					"object": "608060405234801562000010575f80fd5b50335f73ffffffffffffffffffffffffffffffffffffffff168173ffffffffffffffffffffffffffffffffffffffff160362000085575f6040517f1e4fbdf70000000000000000000000000000000000000000000000000000000081526004016200007c9190620001a1565b60405180910390fd5b62000096816200009d60201b60201c565b50620001bc565b5f805f9054906101000a900473ffffffffffffffffffffffffffffffffffffffff169050815f806101000a81548173ffffffffffffffffffffffffffffffffffffffff021916908373ffffffffffffffffffffffffffffffffffffffff1602179055508173ffffffffffffffffffffffffffffffffffffffff168173ffffffffffffffffffffffffffffffffffffffff167f8be0079c531659141344cd1fd0a4f28419497f9722a3daafe3b4186f6b6457e060405160405180910390a35050565b5f73ffffffffffffffffffffffffffffffffffffffff82169050919050565b5f62000189826200015e565b9050919050565b6200019b816200017d565b82525050565b5f602082019050620001b65f83018462000190565b92915050565b611fe480620001ca5f395ff3fe608060405234801561000f575f80fd5b5060043610610091575f3560e01c80636c0c378d116100645780636c0c378d14610134578063715018a61461016c5780638da5cb5b14610176578063d0c5384814610194578063f2fde38b146101c457610091565b806306d3f233146100955780631792da60146100b1578063490a370e146100e857806353060fac14610104575b5f80fd5b6100af60048036038101906100aa919061148f565b6101e0565b005b6100cb60048036038101906100c691906114fb565b6102ca565b6040516100df9897969594939291906115da565b60405180910390f35b61010260048036038101906100fd919061175b565b6105e3565b005b61011e60048036038101906101199190611884565b610a93565b60405161012b91906118af565b60405180910390f35b61014e600480360381019061014991906114fb565b610aa8565b604051610163999897969594939291906119cb565b60405180910390f35b610174610f3b565b005b61017e610f4e565b60405161018b9190611a80565b60405180910390f35b6101ae60048036038101906101a99190611884565b610f75565b6040516101bb9190611a99565b60405180910390f35b6101de60048036038101906101d99190611884565b611010565b005b6101e8611094565b8160015f8573ffffffffffffffffffffffffffffffffffffffff1673ffffffffffffffffffffffffffffffffffffffff1681526020019081526020015f20819055508060025f8573ffffffffffffffffffffffffffffffffffffffff1673ffffffffffffffffffffffffffffffffffffffff1681526020019081526020015f2090816102749190611cb3565b508273ffffffffffffffffffffffffffffffffffffffff167f75541d04f577c4b73a2a0439aa5f65abbc21fb391c30e2147bb341bd2e90de7683836040516102bd929190611d82565b60405180910390a2505050565b6003818051602081018201805184825260208301602085012081835280955050505050505f91509050805f01805461030190611ae6565b80601f016020809104026020016040519081016040528092919081815260200182805461032d90611ae6565b80156103785780601f1061034f57610100808354040283529160200191610378565b820191905f5260205f20905b81548152906001019060200180831161035b57829003601f168201915b505050505090806001015f9054906101000a900473ffffffffffffffffffffffffffffffffffffffff16908060020180546103b290611ae6565b80601f01602080910402602001604051908101604052809291908181526020018280546103de90611ae6565b80156104295780601f1061040057610100808354040283529160200191610429565b820191905f5260205f20905b81548152906001019060200180831161040c57829003601f168201915b50505050509080600301549080600401805461044490611ae6565b80601f016020809104026020016040519081016040528092919081815260200182805461047090611ae6565b80156104bb5780601f10610492576101008083540402835291602001916104bb565b820191905f5260205f20905b81548152906001019060200180831161049e57829003601f168201915b5050505050908060050180546104d090611ae6565b80601f01602080910402602001604051908101604052809291908181526020018280546104fc90611ae6565b80156105475780601f1061051e57610100808354040283529160200191610547565b820191905f5260205f20905b81548152906001019060200180831161052a57829003601f168201915b50505050509080600701805461055c90611ae6565b80601f016020809104026020016040519081016040528092919081815260200182805461058890611ae6565b80156105d35780601f106105aa576101008083540402835291602001916105d3565b820191905f5260205f20905b8154815290600101906020018083116105b657829003601f168201915b5050505050908060080154905088565b5f60015f3373ffffffffffffffffffffffffffffffffffffffff1673ffffffffffffffffffffffffffffffffffffffff1681526020019081526020015f20541415801561066d5750600560015f3373ffffffffffffffffffffffffffffffffffffffff1673ffffffffffffffffffffffffffffffffffffffff1681526020019081526020015f2054105b6106ac576040517f08c379a00000000000000000000000000000000000000000000000000000000081526004016106a390611dfa565b60405180910390fd5b600260015f3373ffffffffffffffffffffffffffffffffffffffff1673ffffffffffffffffffffffffffffffffffffffff1681526020019081526020015f2054146107065760405180602001604052805f81525091505f90505b60405180610120016040528060025f3373ffffffffffffffffffffffffffffffffffffffff1673ffffffffffffffffffffffffffffffffffffffff1681526020019081526020015f20805461075a90611ae6565b80601f016020809104026020016040519081016040528092919081815260200182805461078690611ae6565b80156107d15780601f106107a8576101008083540402835291602001916107d1565b820191905f5260205f20905b8154815290600101906020018083116107b457829003601f168201915b505050505081526020013373ffffffffffffffffffffffffffffffffffffffff1681526020018881526020018781526020018681526020018581526020018481526020018381526020018281525060038860405161082f9190611e52565b90815260200160405180910390205f820151815f0190816108509190611cb3565b506020820151816001015f6101000a81548173ffffffffffffffffffffffffffffffffffffffff021916908373ffffffffffffffffffffffffffffffffffffffff16021790555060408201518160020190816108ac9190611cb3565b506060820151816003015560808201518160040190816108cc9190611cb3565b5060a08201518160050190816108e29190611cb3565b5060c08201518160060190805190602001906108ff9291906111e3565b5060e08201518160070190816109159190611cb3565b506101008201518160080155905050866040516109329190611e52565b60405180910390207f4ec0335d49ce48af3b2be1555f2724c6aded22db73f58d175f703be14044b99b60025f3373ffffffffffffffffffffffffffffffffffffffff1673ffffffffffffffffffffffffffffffffffffffff1681526020019081526020015f208888886040516109ab9493929190611ee9565b60405180910390a2600260015f3373ffffffffffffffffffffffffffffffffffffffff1673ffffffffffffffffffffffffffffffffffffffff1681526020019081526020015f205403610a8a5786604051610a069190611e52565b60405180910390207fd0d34aa945315e3f0b3e36799a4d0751af195ca3a10841986740a9140e824dff60025f3373ffffffffffffffffffffffffffffffffffffffff1673ffffffffffffffffffffffffffffffffffffffff1681526020019081526020015f2084848989604051610a81959493929190611f41565b60405180910390a25b50505050505050565b6001602052805f5260405f205f915090505481565b60605f60605f6060806060805f8060038b604051610ac69190611e52565b9081526020016040518091039020604051806101200160405290815f82018054610aef90611ae6565b80601f0160208091040260200160405190810160405280929190818152602001828054610b1b90611ae6565b8015610b665780601f10610b3d57610100808354040283529160200191610b66565b820191905f5260205f20905b815481529060010190602001808311610b4957829003601f168201915b50505050508152602001600182015f9054906101000a900473ffffffffffffffffffffffffffffffffffffffff1673ffffffffffffffffffffffffffffffffffffffff1673ffffffffffffffffffffffffffffffffffffffff168152602001600282018054610bd490611ae6565b80601f0160208091040260200160405190810160405280929190818152602001828054610c0090611ae6565b8015610c4b5780601f10610c2257610100808354040283529160200191610c4b565b820191905f5260205f20905b815481529060010190602001808311610c2e57829003601f168201915b5050505050815260200160038201548152602001600482018054610c6e90611ae6565b80601f0160208091040260200160405190810160405280929190818152602001828054610c9a90611ae6565b8015610ce55780601f10610cbc57610100808354040283529160200191610ce5565b820191905f5260205f20905b815481529060010190602001808311610cc857829003601f168201915b50505050508152602001600582018054610cfe90611ae6565b80601f0160208091040260200160405190810160405280929190818152602001828054610d2a90611ae6565b8015610d755780601f10610d4c57610100808354040283529160200191610d75565b820191905f5260205f20905b815481529060010190602001808311610d5857829003601f168201915b5050505050815260200160068201805480602002602001604051908101604052809291908181526020015f905b82821015610e4a578382905f5260205f20018054610dbf90611ae6565b80601f0160208091040260200160405190810160405280929190818152602001828054610deb90611ae6565b8015610e365780601f10610e0d57610100808354040283529160200191610e36565b820191905f5260205f20905b815481529060010190602001808311610e1957829003601f168201915b505050505081526020019060010190610da2565b505050508152602001600782018054610e6290611ae6565b80601f0160208091040260200160405190810160405280929190818152602001828054610e8e90611ae6565b8015610ed95780601f10610eb057610100808354040283529160200191610ed9565b820191905f5260205f20905b815481529060010190602001808311610ebc57829003601f168201915b505050505081526020016008820154815250509050805f015181602001518260400151836060015184608001518560a001518660c001518760e00151886101000151995099509950995099509950995099509950509193959799909294969850565b610f43611094565b610f4c5f61111b565b565b5f805f9054906101000a900473ffffffffffffffffffffffffffffffffffffffff16905090565b6002602052805f5260405f205f915090508054610f9190611ae6565b80601f0160208091040260200160405190810160405280929190818152602001828054610fbd90611ae6565b80156110085780601f10610fdf57610100808354040283529160200191611008565b820191905f5260205f20905b815481529060010190602001808311610feb57829003601f168201915b505050505081565b611018611094565b5f73ffffffffffffffffffffffffffffffffffffffff168173ffffffffffffffffffffffffffffffffffffffff1603611088575f6040517f1e4fbdf700000000000000000000000000000000000000000000000000000000815260040161107f9190611a80565b60405180910390fd5b6110918161111b565b50565b61109c6111dc565b73ffffffffffffffffffffffffffffffffffffffff166110ba610f4e565b73ffffffffffffffffffffffffffffffffffffffff1614611119576110dd6111dc565b6040517f118cdaa70000000000000000000000000000000000000000000000000000000081526004016111109190611a80565b60405180910390fd5b565b5f805f9054906101000a900473ffffffffffffffffffffffffffffffffffffffff169050815f806101000a81548173ffffffffffffffffffffffffffffffffffffffff021916908373ffffffffffffffffffffffffffffffffffffffff1602179055508173ffffffffffffffffffffffffffffffffffffffff168173ffffffffffffffffffffffffffffffffffffffff167f8be0079c531659141344cd1fd0a4f28419497f9722a3daafe3b4186f6b6457e060405160405180910390a35050565b5f33905090565b828054828255905f5260205f20908101928215611229579160200282015b828111156112285782518290816112189190611cb3565b5091602001919060010190611201565b5b509050611236919061123a565b5090565b5b80821115611259575f8181611250919061125d565b5060010161123b565b5090565b50805461126990611ae6565b5f825580601f1061127a5750611297565b601f0160209004905f5260205f2090810190611296919061129a565b5b50565b5b808211156112b1575f815f90555060010161129b565b5090565b5f604051905090565b5f80fd5b5f80fd5b5f73ffffffffffffffffffffffffffffffffffffffff82169050919050565b5f6112ef826112c6565b9050919050565b6112ff816112e5565b8114611309575f80fd5b50565b5f8135905061131a816112f6565b92915050565b5f819050919050565b61133281611320565b811461133c575f80fd5b50565b5f8135905061134d81611329565b92915050565b5f80fd5b5f80fd5b5f601f19601f8301169050919050565b7f4e487b71000000000000000000000000000000000000000000000000000000005f52604160045260245ffd5b6113a18261135b565b810181811067ffffffffffffffff821117156113c0576113bf61136b565b5b80604052505050565b5f6113d26112b5565b90506113de8282611398565b919050565b5f67ffffffffffffffff8211156113fd576113fc61136b565b5b6114068261135b565b9050602081019050919050565b828183375f83830152505050565b5f61143361142e846113e3565b6113c9565b90508281526020810184848401111561144f5761144e611357565b5b61145a848285611413565b509392505050565b5f82601f83011261147657611475611353565b5b8135611486848260208601611421565b91505092915050565b5f805f606084860312156114a6576114a56112be565b5b5f6114b38682870161130c565b93505060206114c48682870161133f565b925050604084013567ffffffffffffffff8111156114e5576114e46112c2565b5b6114f186828701611462565b9150509250925092565b5f602082840312156115105761150f6112be565b5b5f82013567ffffffffffffffff81111561152d5761152c6112c2565b5b61153984828501611462565b91505092915050565b5f81519050919050565b5f82825260208201905092915050565b5f5b8381101561157957808201518184015260208101905061155e565b5f8484015250505050565b5f61158e82611542565b611598818561154c565b93506115a881856020860161155c565b6115b18161135b565b840191505092915050565b6115c5816112e5565b82525050565b6115d481611320565b82525050565b5f610100820190508181035f8301526115f3818b611584565b9050611602602083018a6115bc565b81810360408301526116148189611584565b905061162360608301886115cb565b81810360808301526116358187611584565b905081810360a08301526116498186611584565b905081810360c083015261165d8185611584565b905061166c60e08301846115cb565b9998505050505050505050565b5f67ffffffffffffffff8211156116935761169261136b565b5b602082029050602081019050919050565b5f80fd5b5f6116ba6116b584611679565b6113c9565b905080838252602082019050602084028301858111156116dd576116dc6116a4565b5b835b8181101561172457803567ffffffffffffffff81111561170257611701611353565b5b80860161170f8982611462565b855260208501945050506020810190506116df565b5050509392505050565b5f82601f83011261174257611741611353565b5b81356117528482602086016116a8565b91505092915050565b5f805f805f805f60e0888a031215611776576117756112be565b5b5f88013567ffffffffffffffff811115611793576117926112c2565b5b61179f8a828b01611462565b97505060206117b08a828b0161133f565b965050604088013567ffffffffffffffff8111156117d1576117d06112c2565b5b6117dd8a828b01611462565b955050606088013567ffffffffffffffff8111156117fe576117fd6112c2565b5b61180a8a828b01611462565b945050608088013567ffffffffffffffff81111561182b5761182a6112c2565b5b6118378a828b0161172e565b93505060a088013567ffffffffffffffff811115611858576118576112c2565b5b6118648a828b01611462565b92505060c06118758a828b0161133f565b91505092959891949750929550565b5f60208284031215611899576118986112be565b5b5f6118a68482850161130c565b91505092915050565b5f6020820190506118c25f8301846115cb565b92915050565b5f81519050919050565b5f82825260208201905092915050565b5f819050602082019050919050565b5f82825260208201905092915050565b5f61190b82611542565b61191581856118f1565b935061192581856020860161155c565b61192e8161135b565b840191505092915050565b5f6119448383611901565b905092915050565b5f602082019050919050565b5f611962826118c8565b61196c81856118d2565b93508360208202850161197e856118e2565b805f5b858110156119b9578484038952815161199a8582611939565b94506119a58361194c565b925060208a01995050600181019050611981565b50829750879550505050505092915050565b5f610120820190508181035f8301526119e4818c611584565b90506119f3602083018b6115bc565b8181036040830152611a05818a611584565b9050611a1460608301896115cb565b8181036080830152611a268188611584565b905081810360a0830152611a3a8187611584565b905081810360c0830152611a4e8186611958565b905081810360e0830152611a628185611584565b9050611a726101008301846115cb565b9a9950505050505050505050565b5f602082019050611a935f8301846115bc565b92915050565b5f6020820190508181035f830152611ab18184611584565b905092915050565b7f4e487b71000000000000000000000000000000000000000000000000000000005f52602260045260245ffd5b5f6002820490506001821680611afd57607f821691505b602082108103611b1057611b0f611ab9565b5b50919050565b5f819050815f5260205f209050919050565b5f6020601f8301049050919050565b5f82821b905092915050565b5f60088302611b727fffffffffffffffffffffffffffffffffffffffffffffffffffffffffffffffff82611b37565b611b7c8683611b37565b95508019841693508086168417925050509392505050565b5f819050919050565b5f611bb7611bb2611bad84611320565b611b94565b611320565b9050919050565b5f819050919050565b611bd083611b9d565b611be4611bdc82611bbe565b848454611b43565b825550505050565b5f90565b611bf8611bec565b611c03818484611bc7565b505050565b5b81811015611c2657611c1b5f82611bf0565b600181019050611c09565b5050565b601f821115611c6b57611c3c81611b16565b611c4584611b28565b81016020851015611c54578190505b611c68611c6085611b28565b830182611c08565b50505b505050565b5f82821c905092915050565b5f611c8b5f1984600802611c70565b1980831691505092915050565b5f611ca38383611c7c565b9150826002028217905092915050565b611cbc82611542565b67ffffffffffffffff811115611cd557611cd461136b565b5b611cdf8254611ae6565b611cea828285611c2a565b5f60209050601f831160018114611d1b575f8415611d09578287015190505b611d138582611c98565b865550611d7a565b601f198416611d2986611b16565b5f5b82811015611d5057848901518255600182019150602085019450602081019050611d2b565b86831015611d6d5784890151611d69601f891682611c7c565b8355505b6001600288020188555050505b505050505050565b5f604082019050611d955f8301856115cb565b8181036020830152611da78184611584565b90509392505050565b7f55736572206d757374206861766520612076616c696420726f6c6520696400005f82015250565b5f611de4601e8361154c565b9150611def82611db0565b602082019050919050565b5f6020820190508181035f830152611e1181611dd8565b9050919050565b5f81905092915050565b5f611e2c82611542565b611e368185611e18565b9350611e4681856020860161155c565b80840191505092915050565b5f611e5d8284611e22565b915081905092915050565b5f8154611e7481611ae6565b611e7e818661154c565b9450600182165f8114611e985760018114611eae57611ee0565b60ff198316865281151560200286019350611ee0565b611eb785611b16565b5f5b83811015611ed857815481890152600182019150602081019050611eb9565b808801955050505b50505092915050565b5f6080820190508181035f830152611f018187611e68565b9050611f1060208301866115cb565b8181036040830152611f228185611584565b90508181036060830152611f368184611584565b905095945050505050565b5f60a0820190508181035f830152611f598188611e68565b90508181036020830152611f6d8187611584565b9050611f7c60408301866115cb565b8181036060830152611f8e8185611584565b90508181036080830152611fa28184611584565b9050969550505050505056fea26469706673582212209d97d96e70dc63f1ba9c2c52576a28691bd83c15c54c7537297362caf4c1a73964736f6c63430008140033",
					"opcodes": "PUSH1 0x80 PUSH1 0x40 MSTORE CALLVALUE DUP1 ISZERO PUSH3 0x10 JUMPI PUSH0 DUP1 REVERT JUMPDEST POP CALLER PUSH0 PUSH20 0xFFFFFFFFFFFFFFFFFFFFFFFFFFFFFFFFFFFFFFFF AND DUP2 PUSH20 0xFFFFFFFFFFFFFFFFFFFFFFFFFFFFFFFFFFFFFFFF AND SUB PUSH3 0x85 JUMPI PUSH0 PUSH1 0x40 MLOAD PUSH32 0x1E4FBDF700000000000000000000000000000000000000000000000000000000 DUP2 MSTORE PUSH1 0x4 ADD PUSH3 0x7C SWAP2 SWAP1 PUSH3 0x1A1 JUMP JUMPDEST PUSH1 0x40 MLOAD DUP1 SWAP2 SUB SWAP1 REVERT JUMPDEST PUSH3 0x96 DUP2 PUSH3 0x9D PUSH1 0x20 SHL PUSH1 0x20 SHR JUMP JUMPDEST POP PUSH3 0x1BC JUMP JUMPDEST PUSH0 DUP1 PUSH0 SWAP1 SLOAD SWAP1 PUSH2 0x100 EXP SWAP1 DIV PUSH20 0xFFFFFFFFFFFFFFFFFFFFFFFFFFFFFFFFFFFFFFFF AND SWAP1 POP DUP2 PUSH0 DUP1 PUSH2 0x100 EXP DUP2 SLOAD DUP2 PUSH20 0xFFFFFFFFFFFFFFFFFFFFFFFFFFFFFFFFFFFFFFFF MUL NOT AND SWAP1 DUP4 PUSH20 0xFFFFFFFFFFFFFFFFFFFFFFFFFFFFFFFFFFFFFFFF AND MUL OR SWAP1 SSTORE POP DUP2 PUSH20 0xFFFFFFFFFFFFFFFFFFFFFFFFFFFFFFFFFFFFFFFF AND DUP2 PUSH20 0xFFFFFFFFFFFFFFFFFFFFFFFFFFFFFFFFFFFFFFFF AND PUSH32 0x8BE0079C531659141344CD1FD0A4F28419497F9722A3DAAFE3B4186F6B6457E0 PUSH1 0x40 MLOAD PUSH1 0x40 MLOAD DUP1 SWAP2 SUB SWAP1 LOG3 POP POP JUMP JUMPDEST PUSH0 PUSH20 0xFFFFFFFFFFFFFFFFFFFFFFFFFFFFFFFFFFFFFFFF DUP3 AND SWAP1 POP SWAP2 SWAP1 POP JUMP JUMPDEST PUSH0 PUSH3 0x189 DUP3 PUSH3 0x15E JUMP JUMPDEST SWAP1 POP SWAP2 SWAP1 POP JUMP JUMPDEST PUSH3 0x19B DUP2 PUSH3 0x17D JUMP JUMPDEST DUP3 MSTORE POP POP JUMP JUMPDEST PUSH0 PUSH1 0x20 DUP3 ADD SWAP1 POP PUSH3 0x1B6 PUSH0 DUP4 ADD DUP5 PUSH3 0x190 JUMP JUMPDEST SWAP3 SWAP2 POP POP JUMP JUMPDEST PUSH2 0x1FE4 DUP1 PUSH3 0x1CA PUSH0 CODECOPY PUSH0 RETURN INVALID PUSH1 0x80 PUSH1 0x40 MSTORE CALLVALUE DUP1 ISZERO PUSH2 0xF JUMPI PUSH0 DUP1 REVERT JUMPDEST POP PUSH1 0x4 CALLDATASIZE LT PUSH2 0x91 JUMPI PUSH0 CALLDATALOAD PUSH1 0xE0 SHR DUP1 PUSH4 0x6C0C378D GT PUSH2 0x64 JUMPI DUP1 PUSH4 0x6C0C378D EQ PUSH2 0x134 JUMPI DUP1 PUSH4 0x715018A6 EQ PUSH2 0x16C JUMPI DUP1 PUSH4 0x8DA5CB5B EQ PUSH2 0x176 JUMPI DUP1 PUSH4 0xD0C53848 EQ PUSH2 0x194 JUMPI DUP1 PUSH4 0xF2FDE38B EQ PUSH2 0x1C4 JUMPI PUSH2 0x91 JUMP JUMPDEST DUP1 PUSH4 0x6D3F233 EQ PUSH2 0x95 JUMPI DUP1 PUSH4 0x1792DA60 EQ PUSH2 0xB1 JUMPI DUP1 PUSH4 0x490A370E EQ PUSH2 0xE8 JUMPI DUP1 PUSH4 0x53060FAC EQ PUSH2 0x104 JUMPI JUMPDEST PUSH0 DUP1 REVERT JUMPDEST PUSH2 0xAF PUSH1 0x4 DUP1 CALLDATASIZE SUB DUP2 ADD SWAP1 PUSH2 0xAA SWAP2 SWAP1 PUSH2 0x148F JUMP JUMPDEST PUSH2 0x1E0 JUMP JUMPDEST STOP JUMPDEST PUSH2 0xCB PUSH1 0x4 DUP1 CALLDATASIZE SUB DUP2 ADD SWAP1 PUSH2 0xC6 SWAP2 SWAP1 PUSH2 0x14FB JUMP JUMPDEST PUSH2 0x2CA JUMP JUMPDEST PUSH1 0x40 MLOAD PUSH2 0xDF SWAP9 SWAP8 SWAP7 SWAP6 SWAP5 SWAP4 SWAP3 SWAP2 SWAP1 PUSH2 0x15DA JUMP JUMPDEST PUSH1 0x40 MLOAD DUP1 SWAP2 SUB SWAP1 RETURN JUMPDEST PUSH2 0x102 PUSH1 0x4 DUP1 CALLDATASIZE SUB DUP2 ADD SWAP1 PUSH2 0xFD SWAP2 SWAP1 PUSH2 0x175B JUMP JUMPDEST PUSH2 0x5E3 JUMP JUMPDEST STOP JUMPDEST PUSH2 0x11E PUSH1 0x4 DUP1 CALLDATASIZE SUB DUP2 ADD SWAP1 PUSH2 0x119 SWAP2 SWAP1 PUSH2 0x1884 JUMP JUMPDEST PUSH2 0xA93 JUMP JUMPDEST PUSH1 0x40 MLOAD PUSH2 0x12B SWAP2 SWAP1 PUSH2 0x18AF JUMP JUMPDEST PUSH1 0x40 MLOAD DUP1 SWAP2 SUB SWAP1 RETURN JUMPDEST PUSH2 0x14E PUSH1 0x4 DUP1 CALLDATASIZE SUB DUP2 ADD SWAP1 PUSH2 0x149 SWAP2 SWAP1 PUSH2 0x14FB JUMP JUMPDEST PUSH2 0xAA8 JUMP JUMPDEST PUSH1 0x40 MLOAD PUSH2 0x163 SWAP10 SWAP9 SWAP8 SWAP7 SWAP6 SWAP5 SWAP4 SWAP3 SWAP2 SWAP1 PUSH2 0x19CB JUMP JUMPDEST PUSH1 0x40 MLOAD DUP1 SWAP2 SUB SWAP1 RETURN JUMPDEST PUSH2 0x174 PUSH2 0xF3B JUMP JUMPDEST STOP JUMPDEST PUSH2 0x17E PUSH2 0xF4E JUMP JUMPDEST PUSH1 0x40 MLOAD PUSH2 0x18B SWAP2 SWAP1 PUSH2 0x1A80 JUMP JUMPDEST PUSH1 0x40 MLOAD DUP1 SWAP2 SUB SWAP1 RETURN JUMPDEST PUSH2 0x1AE PUSH1 0x4 DUP1 CALLDATASIZE SUB DUP2 ADD SWAP1 PUSH2 0x1A9 SWAP2 SWAP1 PUSH2 0x1884 JUMP JUMPDEST PUSH2 0xF75 JUMP JUMPDEST PUSH1 0x40 MLOAD PUSH2 0x1BB SWAP2 SWAP1 PUSH2 0x1A99 JUMP JUMPDEST PUSH1 0x40 MLOAD DUP1 SWAP2 SUB SWAP1 RETURN JUMPDEST PUSH2 0x1DE PUSH1 0x4 DUP1 CALLDATASIZE SUB DUP2 ADD SWAP1 PUSH2 0x1D9 SWAP2 SWAP1 PUSH2 0x1884 JUMP JUMPDEST PUSH2 0x1010 JUMP JUMPDEST STOP JUMPDEST PUSH2 0x1E8 PUSH2 0x1094 JUMP JUMPDEST DUP2 PUSH1 0x1 PUSH0 DUP6 PUSH20 0xFFFFFFFFFFFFFFFFFFFFFFFFFFFFFFFFFFFFFFFF AND PUSH20 0xFFFFFFFFFFFFFFFFFFFFFFFFFFFFFFFFFFFFFFFF AND DUP2 MSTORE PUSH1 0x20 ADD SWAP1 DUP2 MSTORE PUSH1 0x20 ADD PUSH0 KECCAK256 DUP2 SWAP1 SSTORE POP DUP1 PUSH1 0x2 PUSH0 DUP6 PUSH20 0xFFFFFFFFFFFFFFFFFFFFFFFFFFFFFFFFFFFFFFFF AND PUSH20 0xFFFFFFFFFFFFFFFFFFFFFFFFFFFFFFFFFFFFFFFF AND DUP2 MSTORE PUSH1 0x20 ADD SWAP1 DUP2 MSTORE PUSH1 0x20 ADD PUSH0 KECCAK256 SWAP1 DUP2 PUSH2 0x274 SWAP2 SWAP1 PUSH2 0x1CB3 JUMP JUMPDEST POP DUP3 PUSH20 0xFFFFFFFFFFFFFFFFFFFFFFFFFFFFFFFFFFFFFFFF AND PUSH32 0x75541D04F577C4B73A2A0439AA5F65ABBC21FB391C30E2147BB341BD2E90DE76 DUP4 DUP4 PUSH1 0x40 MLOAD PUSH2 0x2BD SWAP3 SWAP2 SWAP1 PUSH2 0x1D82 JUMP JUMPDEST PUSH1 0x40 MLOAD DUP1 SWAP2 SUB SWAP1 LOG2 POP POP POP JUMP JUMPDEST PUSH1 0x3 DUP2 DUP1 MLOAD PUSH1 0x20 DUP2 ADD DUP3 ADD DUP1 MLOAD DUP5 DUP3 MSTORE PUSH1 0x20 DUP4 ADD PUSH1 0x20 DUP6 ADD KECCAK256 DUP2 DUP4 MSTORE DUP1 SWAP6 POP POP POP POP POP POP PUSH0 SWAP2 POP SWAP1 POP DUP1 PUSH0 ADD DUP1 SLOAD PUSH2 0x301 SWAP1 PUSH2 0x1AE6 JUMP JUMPDEST DUP1 PUSH1 0x1F ADD PUSH1 0x20 DUP1 SWAP2 DIV MUL PUSH1 0x20 ADD PUSH1 0x40 MLOAD SWAP1 DUP2 ADD PUSH1 0x40 MSTORE DUP1 SWAP3 SWAP2 SWAP1 DUP2 DUP2 MSTORE PUSH1 0x20 ADD DUP3 DUP1 SLOAD PUSH2 0x32D SWAP1 PUSH2 0x1AE6 JUMP JUMPDEST DUP1 ISZERO PUSH2 0x378 JUMPI DUP1 PUSH1 0x1F LT PUSH2 0x34F JUMPI PUSH2 0x100 DUP1 DUP4 SLOAD DIV MUL DUP4 MSTORE SWAP2 PUSH1 0x20 ADD SWAP2 PUSH2 0x378 JUMP JUMPDEST DUP3 ADD SWAP2 SWAP1 PUSH0 MSTORE PUSH1 0x20 PUSH0 KECCAK256 SWAP1 JUMPDEST DUP2 SLOAD DUP2 MSTORE SWAP1 PUSH1 0x1 ADD SWAP1 PUSH1 0x20 ADD DUP1 DUP4 GT PUSH2 0x35B JUMPI DUP3 SWAP1 SUB PUSH1 0x1F AND DUP3 ADD SWAP2 JUMPDEST POP POP POP POP POP SWAP1 DUP1 PUSH1 0x1 ADD PUSH0 SWAP1 SLOAD SWAP1 PUSH2 0x100 EXP SWAP1 DIV PUSH20 0xFFFFFFFFFFFFFFFFFFFFFFFFFFFFFFFFFFFFFFFF AND SWAP1 DUP1 PUSH1 0x2 ADD DUP1 SLOAD PUSH2 0x3B2 SWAP1 PUSH2 0x1AE6 JUMP JUMPDEST DUP1 PUSH1 0x1F ADD PUSH1 0x20 DUP1 SWAP2 DIV MUL PUSH1 0x20 ADD PUSH1 0x40 MLOAD SWAP1 DUP2 ADD PUSH1 0x40 MSTORE DUP1 SWAP3 SWAP2 SWAP1 DUP2 DUP2 MSTORE PUSH1 0x20 ADD DUP3 DUP1 SLOAD PUSH2 0x3DE SWAP1 PUSH2 0x1AE6 JUMP JUMPDEST DUP1 ISZERO PUSH2 0x429 JUMPI DUP1 PUSH1 0x1F LT PUSH2 0x400 JUMPI PUSH2 0x100 DUP1 DUP4 SLOAD DIV MUL DUP4 MSTORE SWAP2 PUSH1 0x20 ADD SWAP2 PUSH2 0x429 JUMP JUMPDEST DUP3 ADD SWAP2 SWAP1 PUSH0 MSTORE PUSH1 0x20 PUSH0 KECCAK256 SWAP1 JUMPDEST DUP2 SLOAD DUP2 MSTORE SWAP1 PUSH1 0x1 ADD SWAP1 PUSH1 0x20 ADD DUP1 DUP4 GT PUSH2 0x40C JUMPI DUP3 SWAP1 SUB PUSH1 0x1F AND DUP3 ADD SWAP2 JUMPDEST POP POP POP POP POP SWAP1 DUP1 PUSH1 0x3 ADD SLOAD SWAP1 DUP1 PUSH1 0x4 ADD DUP1 SLOAD PUSH2 0x444 SWAP1 PUSH2 0x1AE6 JUMP JUMPDEST DUP1 PUSH1 0x1F ADD PUSH1 0x20 DUP1 SWAP2 DIV MUL PUSH1 0x20 ADD PUSH1 0x40 MLOAD SWAP1 DUP2 ADD PUSH1 0x40 MSTORE DUP1 SWAP3 SWAP2 SWAP1 DUP2 DUP2 MSTORE PUSH1 0x20 ADD DUP3 DUP1 SLOAD PUSH2 0x470 SWAP1 PUSH2 0x1AE6 JUMP JUMPDEST DUP1 ISZERO PUSH2 0x4BB JUMPI DUP1 PUSH1 0x1F LT PUSH2 0x492 JUMPI PUSH2 0x100 DUP1 DUP4 SLOAD DIV MUL DUP4 MSTORE SWAP2 PUSH1 0x20 ADD SWAP2 PUSH2 0x4BB JUMP JUMPDEST DUP3 ADD SWAP2 SWAP1 PUSH0 MSTORE PUSH1 0x20 PUSH0 KECCAK256 SWAP1 JUMPDEST DUP2 SLOAD DUP2 MSTORE SWAP1 PUSH1 0x1 ADD SWAP1 PUSH1 0x20 ADD DUP1 DUP4 GT PUSH2 0x49E JUMPI DUP3 SWAP1 SUB PUSH1 0x1F AND DUP3 ADD SWAP2 JUMPDEST POP POP POP POP POP SWAP1 DUP1 PUSH1 0x5 ADD DUP1 SLOAD PUSH2 0x4D0 SWAP1 PUSH2 0x1AE6 JUMP JUMPDEST DUP1 PUSH1 0x1F ADD PUSH1 0x20 DUP1 SWAP2 DIV MUL PUSH1 0x20 ADD PUSH1 0x40 MLOAD SWAP1 DUP2 ADD PUSH1 0x40 MSTORE DUP1 SWAP3 SWAP2 SWAP1 DUP2 DUP2 MSTORE PUSH1 0x20 ADD DUP3 DUP1 SLOAD PUSH2 0x4FC SWAP1 PUSH2 0x1AE6 JUMP JUMPDEST DUP1 ISZERO PUSH2 0x547 JUMPI DUP1 PUSH1 0x1F LT PUSH2 0x51E JUMPI PUSH2 0x100 DUP1 DUP4 SLOAD DIV MUL DUP4 MSTORE SWAP2 PUSH1 0x20 ADD SWAP2 PUSH2 0x547 JUMP JUMPDEST DUP3 ADD SWAP2 SWAP1 PUSH0 MSTORE PUSH1 0x20 PUSH0 KECCAK256 SWAP1 JUMPDEST DUP2 SLOAD DUP2 MSTORE SWAP1 PUSH1 0x1 ADD SWAP1 PUSH1 0x20 ADD DUP1 DUP4 GT PUSH2 0x52A JUMPI DUP3 SWAP1 SUB PUSH1 0x1F AND DUP3 ADD SWAP2 JUMPDEST POP POP POP POP POP SWAP1 DUP1 PUSH1 0x7 ADD DUP1 SLOAD PUSH2 0x55C SWAP1 PUSH2 0x1AE6 JUMP JUMPDEST DUP1 PUSH1 0x1F ADD PUSH1 0x20 DUP1 SWAP2 DIV MUL PUSH1 0x20 ADD PUSH1 0x40 MLOAD SWAP1 DUP2 ADD PUSH1 0x40 MSTORE DUP1 SWAP3 SWAP2 SWAP1 DUP2 DUP2 MSTORE PUSH1 0x20 ADD DUP3 DUP1 SLOAD PUSH2 0x588 SWAP1 PUSH2 0x1AE6 JUMP JUMPDEST DUP1 ISZERO PUSH2 0x5D3 JUMPI DUP1 PUSH1 0x1F LT PUSH2 0x5AA JUMPI PUSH2 0x100 DUP1 DUP4 SLOAD DIV MUL DUP4 MSTORE SWAP2 PUSH1 0x20 ADD SWAP2 PUSH2 0x5D3 JUMP JUMPDEST DUP3 ADD SWAP2 SWAP1 PUSH0 MSTORE PUSH1 0x20 PUSH0 KECCAK256 SWAP1 JUMPDEST DUP2 SLOAD DUP2 MSTORE SWAP1 PUSH1 0x1 ADD SWAP1 PUSH1 0x20 ADD DUP1 DUP4 GT PUSH2 0x5B6 JUMPI DUP3 SWAP1 SUB PUSH1 0x1F AND DUP3 ADD SWAP2 JUMPDEST POP POP POP POP POP SWAP1 DUP1 PUSH1 0x8 ADD SLOAD SWAP1 POP DUP9 JUMP JUMPDEST PUSH0 PUSH1 0x1 PUSH0 CALLER PUSH20 0xFFFFFFFFFFFFFFFFFFFFFFFFFFFFFFFFFFFFFFFF AND PUSH20 0xFFFFFFFFFFFFFFFFFFFFFFFFFFFFFFFFFFFFFFFF AND DUP2 MSTORE PUSH1 0x20 ADD SWAP1 DUP2 MSTORE PUSH1 0x20 ADD PUSH0 KECCAK256 SLOAD EQ ISZERO DUP1 ISZERO PUSH2 0x66D JUMPI POP PUSH1 0x5 PUSH1 0x1 PUSH0 CALLER PUSH20 0xFFFFFFFFFFFFFFFFFFFFFFFFFFFFFFFFFFFFFFFF AND PUSH20 0xFFFFFFFFFFFFFFFFFFFFFFFFFFFFFFFFFFFFFFFF AND DUP2 MSTORE PUSH1 0x20 ADD SWAP1 DUP2 MSTORE PUSH1 0x20 ADD PUSH0 KECCAK256 SLOAD LT JUMPDEST PUSH2 0x6AC JUMPI PUSH1 0x40 MLOAD PUSH32 0x8C379A000000000000000000000000000000000000000000000000000000000 DUP2 MSTORE PUSH1 0x4 ADD PUSH2 0x6A3 SWAP1 PUSH2 0x1DFA JUMP JUMPDEST PUSH1 0x40 MLOAD DUP1 SWAP2 SUB SWAP1 REVERT JUMPDEST PUSH1 0x2 PUSH1 0x1 PUSH0 CALLER PUSH20 0xFFFFFFFFFFFFFFFFFFFFFFFFFFFFFFFFFFFFFFFF AND PUSH20 0xFFFFFFFFFFFFFFFFFFFFFFFFFFFFFFFFFFFFFFFF AND DUP2 MSTORE PUSH1 0x20 ADD SWAP1 DUP2 MSTORE PUSH1 0x20 ADD PUSH0 KECCAK256 SLOAD EQ PUSH2 0x706 JUMPI PUSH1 0x40 MLOAD DUP1 PUSH1 0x20 ADD PUSH1 0x40 MSTORE DUP1 PUSH0 DUP2 MSTORE POP SWAP2 POP PUSH0 SWAP1 POP JUMPDEST PUSH1 0x40 MLOAD DUP1 PUSH2 0x120 ADD PUSH1 0x40 MSTORE DUP1 PUSH1 0x2 PUSH0 CALLER PUSH20 0xFFFFFFFFFFFFFFFFFFFFFFFFFFFFFFFFFFFFFFFF AND PUSH20 0xFFFFFFFFFFFFFFFFFFFFFFFFFFFFFFFFFFFFFFFF AND DUP2 MSTORE PUSH1 0x20 ADD SWAP1 DUP2 MSTORE PUSH1 0x20 ADD PUSH0 KECCAK256 DUP1 SLOAD PUSH2 0x75A SWAP1 PUSH2 0x1AE6 JUMP JUMPDEST DUP1 PUSH1 0x1F ADD PUSH1 0x20 DUP1 SWAP2 DIV MUL PUSH1 0x20 ADD PUSH1 0x40 MLOAD SWAP1 DUP2 ADD PUSH1 0x40 MSTORE DUP1 SWAP3 SWAP2 SWAP1 DUP2 DUP2 MSTORE PUSH1 0x20 ADD DUP3 DUP1 SLOAD PUSH2 0x786 SWAP1 PUSH2 0x1AE6 JUMP JUMPDEST DUP1 ISZERO PUSH2 0x7D1 JUMPI DUP1 PUSH1 0x1F LT PUSH2 0x7A8 JUMPI PUSH2 0x100 DUP1 DUP4 SLOAD DIV MUL DUP4 MSTORE SWAP2 PUSH1 0x20 ADD SWAP2 PUSH2 0x7D1 JUMP JUMPDEST DUP3 ADD SWAP2 SWAP1 PUSH0 MSTORE PUSH1 0x20 PUSH0 KECCAK256 SWAP1 JUMPDEST DUP2 SLOAD DUP2 MSTORE SWAP1 PUSH1 0x1 ADD SWAP1 PUSH1 0x20 ADD DUP1 DUP4 GT PUSH2 0x7B4 JUMPI DUP3 SWAP1 SUB PUSH1 0x1F AND DUP3 ADD SWAP2 JUMPDEST POP POP POP POP POP DUP2 MSTORE PUSH1 0x20 ADD CALLER PUSH20 0xFFFFFFFFFFFFFFFFFFFFFFFFFFFFFFFFFFFFFFFF AND DUP2 MSTORE PUSH1 0x20 ADD DUP9 DUP2 MSTORE PUSH1 0x20 ADD DUP8 DUP2 MSTORE PUSH1 0x20 ADD DUP7 DUP2 MSTORE PUSH1 0x20 ADD DUP6 DUP2 MSTORE PUSH1 0x20 ADD DUP5 DUP2 MSTORE PUSH1 0x20 ADD DUP4 DUP2 MSTORE PUSH1 0x20 ADD DUP3 DUP2 MSTORE POP PUSH1 0x3 DUP9 PUSH1 0x40 MLOAD PUSH2 0x82F SWAP2 SWAP1 PUSH2 0x1E52 JUMP JUMPDEST SWAP1 DUP2 MSTORE PUSH1 0x20 ADD PUSH1 0x40 MLOAD DUP1 SWAP2 SUB SWAP1 KECCAK256 PUSH0 DUP3 ADD MLOAD DUP2 PUSH0 ADD SWAP1 DUP2 PUSH2 0x850 SWAP2 SWAP1 PUSH2 0x1CB3 JUMP JUMPDEST POP PUSH1 0x20 DUP3 ADD MLOAD DUP2 PUSH1 0x1 ADD PUSH0 PUSH2 0x100 EXP DUP2 SLOAD DUP2 PUSH20 0xFFFFFFFFFFFFFFFFFFFFFFFFFFFFFFFFFFFFFFFF MUL NOT AND SWAP1 DUP4 PUSH20 0xFFFFFFFFFFFFFFFFFFFFFFFFFFFFFFFFFFFFFFFF AND MUL OR SWAP1 SSTORE POP PUSH1 0x40 DUP3 ADD MLOAD DUP2 PUSH1 0x2 ADD SWAP1 DUP2 PUSH2 0x8AC SWAP2 SWAP1 PUSH2 0x1CB3 JUMP JUMPDEST POP PUSH1 0x60 DUP3 ADD MLOAD DUP2 PUSH1 0x3 ADD SSTORE PUSH1 0x80 DUP3 ADD MLOAD DUP2 PUSH1 0x4 ADD SWAP1 DUP2 PUSH2 0x8CC SWAP2 SWAP1 PUSH2 0x1CB3 JUMP JUMPDEST POP PUSH1 0xA0 DUP3 ADD MLOAD DUP2 PUSH1 0x5 ADD SWAP1 DUP2 PUSH2 0x8E2 SWAP2 SWAP1 PUSH2 0x1CB3 JUMP JUMPDEST POP PUSH1 0xC0 DUP3 ADD MLOAD DUP2 PUSH1 0x6 ADD SWAP1 DUP1 MLOAD SWAP1 PUSH1 0x20 ADD SWAP1 PUSH2 0x8FF SWAP3 SWAP2 SWAP1 PUSH2 0x11E3 JUMP JUMPDEST POP PUSH1 0xE0 DUP3 ADD MLOAD DUP2 PUSH1 0x7 ADD SWAP1 DUP2 PUSH2 0x915 SWAP2 SWAP1 PUSH2 0x1CB3 JUMP JUMPDEST POP PUSH2 0x100 DUP3 ADD MLOAD DUP2 PUSH1 0x8 ADD SSTORE SWAP1 POP POP DUP7 PUSH1 0x40 MLOAD PUSH2 0x932 SWAP2 SWAP1 PUSH2 0x1E52 JUMP JUMPDEST PUSH1 0x40 MLOAD DUP1 SWAP2 SUB SWAP1 KECCAK256 PUSH32 0x4EC0335D49CE48AF3B2BE1555F2724C6ADED22DB73F58D175F703BE14044B99B PUSH1 0x2 PUSH0 CALLER PUSH20 0xFFFFFFFFFFFFFFFFFFFFFFFFFFFFFFFFFFFFFFFF AND PUSH20 0xFFFFFFFFFFFFFFFFFFFFFFFFFFFFFFFFFFFFFFFF AND DUP2 MSTORE PUSH1 0x20 ADD SWAP1 DUP2 MSTORE PUSH1 0x20 ADD PUSH0 KECCAK256 DUP9 DUP9 DUP9 PUSH1 0x40 MLOAD PUSH2 0x9AB SWAP5 SWAP4 SWAP3 SWAP2 SWAP1 PUSH2 0x1EE9 JUMP JUMPDEST PUSH1 0x40 MLOAD DUP1 SWAP2 SUB SWAP1 LOG2 PUSH1 0x2 PUSH1 0x1 PUSH0 CALLER PUSH20 0xFFFFFFFFFFFFFFFFFFFFFFFFFFFFFFFFFFFFFFFF AND PUSH20 0xFFFFFFFFFFFFFFFFFFFFFFFFFFFFFFFFFFFFFFFF AND DUP2 MSTORE PUSH1 0x20 ADD SWAP1 DUP2 MSTORE PUSH1 0x20 ADD PUSH0 KECCAK256 SLOAD SUB PUSH2 0xA8A JUMPI DUP7 PUSH1 0x40 MLOAD PUSH2 0xA06 SWAP2 SWAP1 PUSH2 0x1E52 JUMP JUMPDEST PUSH1 0x40 MLOAD DUP1 SWAP2 SUB SWAP1 KECCAK256 PUSH32 0xD0D34AA945315E3F0B3E36799A4D0751AF195CA3A10841986740A9140E824DFF PUSH1 0x2 PUSH0 CALLER PUSH20 0xFFFFFFFFFFFFFFFFFFFFFFFFFFFFFFFFFFFFFFFF AND PUSH20 0xFFFFFFFFFFFFFFFFFFFFFFFFFFFFFFFFFFFFFFFF AND DUP2 MSTORE PUSH1 0x20 ADD SWAP1 DUP2 MSTORE PUSH1 0x20 ADD PUSH0 KECCAK256 DUP5 DUP5 DUP10 DUP10 PUSH1 0x40 MLOAD PUSH2 0xA81 SWAP6 SWAP5 SWAP4 SWAP3 SWAP2 SWAP1 PUSH2 0x1F41 JUMP JUMPDEST PUSH1 0x40 MLOAD DUP1 SWAP2 SUB SWAP1 LOG2 JUMPDEST POP POP POP POP POP POP POP JUMP JUMPDEST PUSH1 0x1 PUSH1 0x20 MSTORE DUP1 PUSH0 MSTORE PUSH1 0x40 PUSH0 KECCAK256 PUSH0 SWAP2 POP SWAP1 POP SLOAD DUP2 JUMP JUMPDEST PUSH1 0x60 PUSH0 PUSH1 0x60 PUSH0 PUSH1 0x60 DUP1 PUSH1 0x60 DUP1 PUSH0 DUP1 PUSH1 0x3 DUP12 PUSH1 0x40 MLOAD PUSH2 0xAC6 SWAP2 SWAP1 PUSH2 0x1E52 JUMP JUMPDEST SWAP1 DUP2 MSTORE PUSH1 0x20 ADD PUSH1 0x40 MLOAD DUP1 SWAP2 SUB SWAP1 KECCAK256 PUSH1 0x40 MLOAD DUP1 PUSH2 0x120 ADD PUSH1 0x40 MSTORE SWAP1 DUP2 PUSH0 DUP3 ADD DUP1 SLOAD PUSH2 0xAEF SWAP1 PUSH2 0x1AE6 JUMP JUMPDEST DUP1 PUSH1 0x1F ADD PUSH1 0x20 DUP1 SWAP2 DIV MUL PUSH1 0x20 ADD PUSH1 0x40 MLOAD SWAP1 DUP2 ADD PUSH1 0x40 MSTORE DUP1 SWAP3 SWAP2 SWAP1 DUP2 DUP2 MSTORE PUSH1 0x20 ADD DUP3 DUP1 SLOAD PUSH2 0xB1B SWAP1 PUSH2 0x1AE6 JUMP JUMPDEST DUP1 ISZERO PUSH2 0xB66 JUMPI DUP1 PUSH1 0x1F LT PUSH2 0xB3D JUMPI PUSH2 0x100 DUP1 DUP4 SLOAD DIV MUL DUP4 MSTORE SWAP2 PUSH1 0x20 ADD SWAP2 PUSH2 0xB66 JUMP JUMPDEST DUP3 ADD SWAP2 SWAP1 PUSH0 MSTORE PUSH1 0x20 PUSH0 KECCAK256 SWAP1 JUMPDEST DUP2 SLOAD DUP2 MSTORE SWAP1 PUSH1 0x1 ADD SWAP1 PUSH1 0x20 ADD DUP1 DUP4 GT PUSH2 0xB49 JUMPI DUP3 SWAP1 SUB PUSH1 0x1F AND DUP3 ADD SWAP2 JUMPDEST POP POP POP POP POP DUP2 MSTORE PUSH1 0x20 ADD PUSH1 0x1 DUP3 ADD PUSH0 SWAP1 SLOAD SWAP1 PUSH2 0x100 EXP SWAP1 DIV PUSH20 0xFFFFFFFFFFFFFFFFFFFFFFFFFFFFFFFFFFFFFFFF AND PUSH20 0xFFFFFFFFFFFFFFFFFFFFFFFFFFFFFFFFFFFFFFFF AND PUSH20 0xFFFFFFFFFFFFFFFFFFFFFFFFFFFFFFFFFFFFFFFF AND DUP2 MSTORE PUSH1 0x20 ADD PUSH1 0x2 DUP3 ADD DUP1 SLOAD PUSH2 0xBD4 SWAP1 PUSH2 0x1AE6 JUMP JUMPDEST DUP1 PUSH1 0x1F ADD PUSH1 0x20 DUP1 SWAP2 DIV MUL PUSH1 0x20 ADD PUSH1 0x40 MLOAD SWAP1 DUP2 ADD PUSH1 0x40 MSTORE DUP1 SWAP3 SWAP2 SWAP1 DUP2 DUP2 MSTORE PUSH1 0x20 ADD DUP3 DUP1 SLOAD PUSH2 0xC00 SWAP1 PUSH2 0x1AE6 JUMP JUMPDEST DUP1 ISZERO PUSH2 0xC4B JUMPI DUP1 PUSH1 0x1F LT PUSH2 0xC22 JUMPI PUSH2 0x100 DUP1 DUP4 SLOAD DIV MUL DUP4 MSTORE SWAP2 PUSH1 0x20 ADD SWAP2 PUSH2 0xC4B JUMP JUMPDEST DUP3 ADD SWAP2 SWAP1 PUSH0 MSTORE PUSH1 0x20 PUSH0 KECCAK256 SWAP1 JUMPDEST DUP2 SLOAD DUP2 MSTORE SWAP1 PUSH1 0x1 ADD SWAP1 PUSH1 0x20 ADD DUP1 DUP4 GT PUSH2 0xC2E JUMPI DUP3 SWAP1 SUB PUSH1 0x1F AND DUP3 ADD SWAP2 JUMPDEST POP POP POP POP POP DUP2 MSTORE PUSH1 0x20 ADD PUSH1 0x3 DUP3 ADD SLOAD DUP2 MSTORE PUSH1 0x20 ADD PUSH1 0x4 DUP3 ADD DUP1 SLOAD PUSH2 0xC6E SWAP1 PUSH2 0x1AE6 JUMP JUMPDEST DUP1 PUSH1 0x1F ADD PUSH1 0x20 DUP1 SWAP2 DIV MUL PUSH1 0x20 ADD PUSH1 0x40 MLOAD SWAP1 DUP2 ADD PUSH1 0x40 MSTORE DUP1 SWAP3 SWAP2 SWAP1 DUP2 DUP2 MSTORE PUSH1 0x20 ADD DUP3 DUP1 SLOAD PUSH2 0xC9A SWAP1 PUSH2 0x1AE6 JUMP JUMPDEST DUP1 ISZERO PUSH2 0xCE5 JUMPI DUP1 PUSH1 0x1F LT PUSH2 0xCBC JUMPI PUSH2 0x100 DUP1 DUP4 SLOAD DIV MUL DUP4 MSTORE SWAP2 PUSH1 0x20 ADD SWAP2 PUSH2 0xCE5 JUMP JUMPDEST DUP3 ADD SWAP2 SWAP1 PUSH0 MSTORE PUSH1 0x20 PUSH0 KECCAK256 SWAP1 JUMPDEST DUP2 SLOAD DUP2 MSTORE SWAP1 PUSH1 0x1 ADD SWAP1 PUSH1 0x20 ADD DUP1 DUP4 GT PUSH2 0xCC8 JUMPI DUP3 SWAP1 SUB PUSH1 0x1F AND DUP3 ADD SWAP2 JUMPDEST POP POP POP POP POP DUP2 MSTORE PUSH1 0x20 ADD PUSH1 0x5 DUP3 ADD DUP1 SLOAD PUSH2 0xCFE SWAP1 PUSH2 0x1AE6 JUMP JUMPDEST DUP1 PUSH1 0x1F ADD PUSH1 0x20 DUP1 SWAP2 DIV MUL PUSH1 0x20 ADD PUSH1 0x40 MLOAD SWAP1 DUP2 ADD PUSH1 0x40 MSTORE DUP1 SWAP3 SWAP2 SWAP1 DUP2 DUP2 MSTORE PUSH1 0x20 ADD DUP3 DUP1 SLOAD PUSH2 0xD2A SWAP1 PUSH2 0x1AE6 JUMP JUMPDEST DUP1 ISZERO PUSH2 0xD75 JUMPI DUP1 PUSH1 0x1F LT PUSH2 0xD4C JUMPI PUSH2 0x100 DUP1 DUP4 SLOAD DIV MUL DUP4 MSTORE SWAP2 PUSH1 0x20 ADD SWAP2 PUSH2 0xD75 JUMP JUMPDEST DUP3 ADD SWAP2 SWAP1 PUSH0 MSTORE PUSH1 0x20 PUSH0 KECCAK256 SWAP1 JUMPDEST DUP2 SLOAD DUP2 MSTORE SWAP1 PUSH1 0x1 ADD SWAP1 PUSH1 0x20 ADD DUP1 DUP4 GT PUSH2 0xD58 JUMPI DUP3 SWAP1 SUB PUSH1 0x1F AND DUP3 ADD SWAP2 JUMPDEST POP POP POP POP POP DUP2 MSTORE PUSH1 0x20 ADD PUSH1 0x6 DUP3 ADD DUP1 SLOAD DUP1 PUSH1 0x20 MUL PUSH1 0x20 ADD PUSH1 0x40 MLOAD SWAP1 DUP2 ADD PUSH1 0x40 MSTORE DUP1 SWAP3 SWAP2 SWAP1 DUP2 DUP2 MSTORE PUSH1 0x20 ADD PUSH0 SWAP1 JUMPDEST DUP3 DUP3 LT ISZERO PUSH2 0xE4A JUMPI DUP4 DUP3 SWAP1 PUSH0 MSTORE PUSH1 0x20 PUSH0 KECCAK256 ADD DUP1 SLOAD PUSH2 0xDBF SWAP1 PUSH2 0x1AE6 JUMP JUMPDEST DUP1 PUSH1 0x1F ADD PUSH1 0x20 DUP1 SWAP2 DIV MUL PUSH1 0x20 ADD PUSH1 0x40 MLOAD SWAP1 DUP2 ADD PUSH1 0x40 MSTORE DUP1 SWAP3 SWAP2 SWAP1 DUP2 DUP2 MSTORE PUSH1 0x20 ADD DUP3 DUP1 SLOAD PUSH2 0xDEB SWAP1 PUSH2 0x1AE6 JUMP JUMPDEST DUP1 ISZERO PUSH2 0xE36 JUMPI DUP1 PUSH1 0x1F LT PUSH2 0xE0D JUMPI PUSH2 0x100 DUP1 DUP4 SLOAD DIV MUL DUP4 MSTORE SWAP2 PUSH1 0x20 ADD SWAP2 PUSH2 0xE36 JUMP JUMPDEST DUP3 ADD SWAP2 SWAP1 PUSH0 MSTORE PUSH1 0x20 PUSH0 KECCAK256 SWAP1 JUMPDEST DUP2 SLOAD DUP2 MSTORE SWAP1 PUSH1 0x1 ADD SWAP1 PUSH1 0x20 ADD DUP1 DUP4 GT PUSH2 0xE19 JUMPI DUP3 SWAP1 SUB PUSH1 0x1F AND DUP3 ADD SWAP2 JUMPDEST POP POP POP POP POP DUP2 MSTORE PUSH1 0x20 ADD SWAP1 PUSH1 0x1 ADD SWAP1 PUSH2 0xDA2 JUMP JUMPDEST POP POP POP POP DUP2 MSTORE PUSH1 0x20 ADD PUSH1 0x7 DUP3 ADD DUP1 SLOAD PUSH2 0xE62 SWAP1 PUSH2 0x1AE6 JUMP JUMPDEST DUP1 PUSH1 0x1F ADD PUSH1 0x20 DUP1 SWAP2 DIV MUL PUSH1 0x20 ADD PUSH1 0x40 MLOAD SWAP1 DUP2 ADD PUSH1 0x40 MSTORE DUP1 SWAP3 SWAP2 SWAP1 DUP2 DUP2 MSTORE PUSH1 0x20 ADD DUP3 DUP1 SLOAD PUSH2 0xE8E SWAP1 PUSH2 0x1AE6 JUMP JUMPDEST DUP1 ISZERO PUSH2 0xED9 JUMPI DUP1 PUSH1 0x1F LT PUSH2 0xEB0 JUMPI PUSH2 0x100 DUP1 DUP4 SLOAD DIV MUL DUP4 MSTORE SWAP2 PUSH1 0x20 ADD SWAP2 PUSH2 0xED9 JUMP JUMPDEST DUP3 ADD SWAP2 SWAP1 PUSH0 MSTORE PUSH1 0x20 PUSH0 KECCAK256 SWAP1 JUMPDEST DUP2 SLOAD DUP2 MSTORE SWAP1 PUSH1 0x1 ADD SWAP1 PUSH1 0x20 ADD DUP1 DUP4 GT PUSH2 0xEBC JUMPI DUP3 SWAP1 SUB PUSH1 0x1F AND DUP3 ADD SWAP2 JUMPDEST POP POP POP POP POP DUP2 MSTORE PUSH1 0x20 ADD PUSH1 0x8 DUP3 ADD SLOAD DUP2 MSTORE POP POP SWAP1 POP DUP1 PUSH0 ADD MLOAD DUP2 PUSH1 0x20 ADD MLOAD DUP3 PUSH1 0x40 ADD MLOAD DUP4 PUSH1 0x60 ADD MLOAD DUP5 PUSH1 0x80 ADD MLOAD DUP6 PUSH1 0xA0 ADD MLOAD DUP7 PUSH1 0xC0 ADD MLOAD DUP8 PUSH1 0xE0 ADD MLOAD DUP9 PUSH2 0x100 ADD MLOAD SWAP10 POP SWAP10 POP SWAP10 POP SWAP10 POP SWAP10 POP SWAP10 POP SWAP10 POP SWAP10 POP SWAP10 POP POP SWAP2 SWAP4 SWAP6 SWAP8 SWAP10 SWAP1 SWAP3 SWAP5 SWAP7 SWAP9 POP JUMP JUMPDEST PUSH2 0xF43 PUSH2 0x1094 JUMP JUMPDEST PUSH2 0xF4C PUSH0 PUSH2 0x111B JUMP JUMPDEST JUMP JUMPDEST PUSH0 DUP1 PUSH0 SWAP1 SLOAD SWAP1 PUSH2 0x100 EXP SWAP1 DIV PUSH20 0xFFFFFFFFFFFFFFFFFFFFFFFFFFFFFFFFFFFFFFFF AND SWAP1 POP SWAP1 JUMP JUMPDEST PUSH1 0x2 PUSH1 0x20 MSTORE DUP1 PUSH0 MSTORE PUSH1 0x40 PUSH0 KECCAK256 PUSH0 SWAP2 POP SWAP1 POP DUP1 SLOAD PUSH2 0xF91 SWAP1 PUSH2 0x1AE6 JUMP JUMPDEST DUP1 PUSH1 0x1F ADD PUSH1 0x20 DUP1 SWAP2 DIV MUL PUSH1 0x20 ADD PUSH1 0x40 MLOAD SWAP1 DUP2 ADD PUSH1 0x40 MSTORE DUP1 SWAP3 SWAP2 SWAP1 DUP2 DUP2 MSTORE PUSH1 0x20 ADD DUP3 DUP1 SLOAD PUSH2 0xFBD SWAP1 PUSH2 0x1AE6 JUMP JUMPDEST DUP1 ISZERO PUSH2 0x1008 JUMPI DUP1 PUSH1 0x1F LT PUSH2 0xFDF JUMPI PUSH2 0x100 DUP1 DUP4 SLOAD DIV MUL DUP4 MSTORE SWAP2 PUSH1 0x20 ADD SWAP2 PUSH2 0x1008 JUMP JUMPDEST DUP3 ADD SWAP2 SWAP1 PUSH0 MSTORE PUSH1 0x20 PUSH0 KECCAK256 SWAP1 JUMPDEST DUP2 SLOAD DUP2 MSTORE SWAP1 PUSH1 0x1 ADD SWAP1 PUSH1 0x20 ADD DUP1 DUP4 GT PUSH2 0xFEB JUMPI DUP3 SWAP1 SUB PUSH1 0x1F AND DUP3 ADD SWAP2 JUMPDEST POP POP POP POP POP DUP2 JUMP JUMPDEST PUSH2 0x1018 PUSH2 0x1094 JUMP JUMPDEST PUSH0 PUSH20 0xFFFFFFFFFFFFFFFFFFFFFFFFFFFFFFFFFFFFFFFF AND DUP2 PUSH20 0xFFFFFFFFFFFFFFFFFFFFFFFFFFFFFFFFFFFFFFFF AND SUB PUSH2 0x1088 JUMPI PUSH0 PUSH1 0x40 MLOAD PUSH32 0x1E4FBDF700000000000000000000000000000000000000000000000000000000 DUP2 MSTORE PUSH1 0x4 ADD PUSH2 0x107F SWAP2 SWAP1 PUSH2 0x1A80 JUMP JUMPDEST PUSH1 0x40 MLOAD DUP1 SWAP2 SUB SWAP1 REVERT JUMPDEST PUSH2 0x1091 DUP2 PUSH2 0x111B JUMP JUMPDEST POP JUMP JUMPDEST PUSH2 0x109C PUSH2 0x11DC JUMP JUMPDEST PUSH20 0xFFFFFFFFFFFFFFFFFFFFFFFFFFFFFFFFFFFFFFFF AND PUSH2 0x10BA PUSH2 0xF4E JUMP JUMPDEST PUSH20 0xFFFFFFFFFFFFFFFFFFFFFFFFFFFFFFFFFFFFFFFF AND EQ PUSH2 0x1119 JUMPI PUSH2 0x10DD PUSH2 0x11DC JUMP JUMPDEST PUSH1 0x40 MLOAD PUSH32 0x118CDAA700000000000000000000000000000000000000000000000000000000 DUP2 MSTORE PUSH1 0x4 ADD PUSH2 0x1110 SWAP2 SWAP1 PUSH2 0x1A80 JUMP JUMPDEST PUSH1 0x40 MLOAD DUP1 SWAP2 SUB SWAP1 REVERT JUMPDEST JUMP JUMPDEST PUSH0 DUP1 PUSH0 SWAP1 SLOAD SWAP1 PUSH2 0x100 EXP SWAP1 DIV PUSH20 0xFFFFFFFFFFFFFFFFFFFFFFFFFFFFFFFFFFFFFFFF AND SWAP1 POP DUP2 PUSH0 DUP1 PUSH2 0x100 EXP DUP2 SLOAD DUP2 PUSH20 0xFFFFFFFFFFFFFFFFFFFFFFFFFFFFFFFFFFFFFFFF MUL NOT AND SWAP1 DUP4 PUSH20 0xFFFFFFFFFFFFFFFFFFFFFFFFFFFFFFFFFFFFFFFF AND MUL OR SWAP1 SSTORE POP DUP2 PUSH20 0xFFFFFFFFFFFFFFFFFFFFFFFFFFFFFFFFFFFFFFFF AND DUP2 PUSH20 0xFFFFFFFFFFFFFFFFFFFFFFFFFFFFFFFFFFFFFFFF AND PUSH32 0x8BE0079C531659141344CD1FD0A4F28419497F9722A3DAAFE3B4186F6B6457E0 PUSH1 0x40 MLOAD PUSH1 0x40 MLOAD DUP1 SWAP2 SUB SWAP1 LOG3 POP POP JUMP JUMPDEST PUSH0 CALLER SWAP1 POP SWAP1 JUMP JUMPDEST DUP3 DUP1 SLOAD DUP3 DUP3 SSTORE SWAP1 PUSH0 MSTORE PUSH1 0x20 PUSH0 KECCAK256 SWAP1 DUP2 ADD SWAP3 DUP3 ISZERO PUSH2 0x1229 JUMPI SWAP2 PUSH1 0x20 MUL DUP3 ADD JUMPDEST DUP3 DUP2 GT ISZERO PUSH2 0x1228 JUMPI DUP3 MLOAD DUP3 SWAP1 DUP2 PUSH2 0x1218 SWAP2 SWAP1 PUSH2 0x1CB3 JUMP JUMPDEST POP SWAP2 PUSH1 0x20 ADD SWAP2 SWAP1 PUSH1 0x1 ADD SWAP1 PUSH2 0x1201 JUMP JUMPDEST JUMPDEST POP SWAP1 POP PUSH2 0x1236 SWAP2 SWAP1 PUSH2 0x123A JUMP JUMPDEST POP SWAP1 JUMP JUMPDEST JUMPDEST DUP1 DUP3 GT ISZERO PUSH2 0x1259 JUMPI PUSH0 DUP2 DUP2 PUSH2 0x1250 SWAP2 SWAP1 PUSH2 0x125D JUMP JUMPDEST POP PUSH1 0x1 ADD PUSH2 0x123B JUMP JUMPDEST POP SWAP1 JUMP JUMPDEST POP DUP1 SLOAD PUSH2 0x1269 SWAP1 PUSH2 0x1AE6 JUMP JUMPDEST PUSH0 DUP3 SSTORE DUP1 PUSH1 0x1F LT PUSH2 0x127A JUMPI POP PUSH2 0x1297 JUMP JUMPDEST PUSH1 0x1F ADD PUSH1 0x20 SWAP1 DIV SWAP1 PUSH0 MSTORE PUSH1 0x20 PUSH0 KECCAK256 SWAP1 DUP2 ADD SWAP1 PUSH2 0x1296 SWAP2 SWAP1 PUSH2 0x129A JUMP JUMPDEST JUMPDEST POP JUMP JUMPDEST JUMPDEST DUP1 DUP3 GT ISZERO PUSH2 0x12B1 JUMPI PUSH0 DUP2 PUSH0 SWAP1 SSTORE POP PUSH1 0x1 ADD PUSH2 0x129B JUMP JUMPDEST POP SWAP1 JUMP JUMPDEST PUSH0 PUSH1 0x40 MLOAD SWAP1 POP SWAP1 JUMP JUMPDEST PUSH0 DUP1 REVERT JUMPDEST PUSH0 DUP1 REVERT JUMPDEST PUSH0 PUSH20 0xFFFFFFFFFFFFFFFFFFFFFFFFFFFFFFFFFFFFFFFF DUP3 AND SWAP1 POP SWAP2 SWAP1 POP JUMP JUMPDEST PUSH0 PUSH2 0x12EF DUP3 PUSH2 0x12C6 JUMP JUMPDEST SWAP1 POP SWAP2 SWAP1 POP JUMP JUMPDEST PUSH2 0x12FF DUP2 PUSH2 0x12E5 JUMP JUMPDEST DUP2 EQ PUSH2 0x1309 JUMPI PUSH0 DUP1 REVERT JUMPDEST POP JUMP JUMPDEST PUSH0 DUP2 CALLDATALOAD SWAP1 POP PUSH2 0x131A DUP2 PUSH2 0x12F6 JUMP JUMPDEST SWAP3 SWAP2 POP POP JUMP JUMPDEST PUSH0 DUP2 SWAP1 POP SWAP2 SWAP1 POP JUMP JUMPDEST PUSH2 0x1332 DUP2 PUSH2 0x1320 JUMP JUMPDEST DUP2 EQ PUSH2 0x133C JUMPI PUSH0 DUP1 REVERT JUMPDEST POP JUMP JUMPDEST PUSH0 DUP2 CALLDATALOAD SWAP1 POP PUSH2 0x134D DUP2 PUSH2 0x1329 JUMP JUMPDEST SWAP3 SWAP2 POP POP JUMP JUMPDEST PUSH0 DUP1 REVERT JUMPDEST PUSH0 DUP1 REVERT JUMPDEST PUSH0 PUSH1 0x1F NOT PUSH1 0x1F DUP4 ADD AND SWAP1 POP SWAP2 SWAP1 POP JUMP JUMPDEST PUSH32 0x4E487B7100000000000000000000000000000000000000000000000000000000 PUSH0 MSTORE PUSH1 0x41 PUSH1 0x4 MSTORE PUSH1 0x24 PUSH0 REVERT JUMPDEST PUSH2 0x13A1 DUP3 PUSH2 0x135B JUMP JUMPDEST DUP2 ADD DUP2 DUP2 LT PUSH8 0xFFFFFFFFFFFFFFFF DUP3 GT OR ISZERO PUSH2 0x13C0 JUMPI PUSH2 0x13BF PUSH2 0x136B JUMP JUMPDEST JUMPDEST DUP1 PUSH1 0x40 MSTORE POP POP POP JUMP JUMPDEST PUSH0 PUSH2 0x13D2 PUSH2 0x12B5 JUMP JUMPDEST SWAP1 POP PUSH2 0x13DE DUP3 DUP3 PUSH2 0x1398 JUMP JUMPDEST SWAP2 SWAP1 POP JUMP JUMPDEST PUSH0 PUSH8 0xFFFFFFFFFFFFFFFF DUP3 GT ISZERO PUSH2 0x13FD JUMPI PUSH2 0x13FC PUSH2 0x136B JUMP JUMPDEST JUMPDEST PUSH2 0x1406 DUP3 PUSH2 0x135B JUMP JUMPDEST SWAP1 POP PUSH1 0x20 DUP2 ADD SWAP1 POP SWAP2 SWAP1 POP JUMP JUMPDEST DUP3 DUP2 DUP4 CALLDATACOPY PUSH0 DUP4 DUP4 ADD MSTORE POP POP POP JUMP JUMPDEST PUSH0 PUSH2 0x1433 PUSH2 0x142E DUP5 PUSH2 0x13E3 JUMP JUMPDEST PUSH2 0x13C9 JUMP JUMPDEST SWAP1 POP DUP3 DUP2 MSTORE PUSH1 0x20 DUP2 ADD DUP5 DUP5 DUP5 ADD GT ISZERO PUSH2 0x144F JUMPI PUSH2 0x144E PUSH2 0x1357 JUMP JUMPDEST JUMPDEST PUSH2 0x145A DUP5 DUP3 DUP6 PUSH2 0x1413 JUMP JUMPDEST POP SWAP4 SWAP3 POP POP POP JUMP JUMPDEST PUSH0 DUP3 PUSH1 0x1F DUP4 ADD SLT PUSH2 0x1476 JUMPI PUSH2 0x1475 PUSH2 0x1353 JUMP JUMPDEST JUMPDEST DUP2 CALLDATALOAD PUSH2 0x1486 DUP5 DUP3 PUSH1 0x20 DUP7 ADD PUSH2 0x1421 JUMP JUMPDEST SWAP2 POP POP SWAP3 SWAP2 POP POP JUMP JUMPDEST PUSH0 DUP1 PUSH0 PUSH1 0x60 DUP5 DUP7 SUB SLT ISZERO PUSH2 0x14A6 JUMPI PUSH2 0x14A5 PUSH2 0x12BE JUMP JUMPDEST JUMPDEST PUSH0 PUSH2 0x14B3 DUP7 DUP3 DUP8 ADD PUSH2 0x130C JUMP JUMPDEST SWAP4 POP POP PUSH1 0x20 PUSH2 0x14C4 DUP7 DUP3 DUP8 ADD PUSH2 0x133F JUMP JUMPDEST SWAP3 POP POP PUSH1 0x40 DUP5 ADD CALLDATALOAD PUSH8 0xFFFFFFFFFFFFFFFF DUP2 GT ISZERO PUSH2 0x14E5 JUMPI PUSH2 0x14E4 PUSH2 0x12C2 JUMP JUMPDEST JUMPDEST PUSH2 0x14F1 DUP7 DUP3 DUP8 ADD PUSH2 0x1462 JUMP JUMPDEST SWAP2 POP POP SWAP3 POP SWAP3 POP SWAP3 JUMP JUMPDEST PUSH0 PUSH1 0x20 DUP3 DUP5 SUB SLT ISZERO PUSH2 0x1510 JUMPI PUSH2 0x150F PUSH2 0x12BE JUMP JUMPDEST JUMPDEST PUSH0 DUP3 ADD CALLDATALOAD PUSH8 0xFFFFFFFFFFFFFFFF DUP2 GT ISZERO PUSH2 0x152D JUMPI PUSH2 0x152C PUSH2 0x12C2 JUMP JUMPDEST JUMPDEST PUSH2 0x1539 DUP5 DUP3 DUP6 ADD PUSH2 0x1462 JUMP JUMPDEST SWAP2 POP POP SWAP3 SWAP2 POP POP JUMP JUMPDEST PUSH0 DUP2 MLOAD SWAP1 POP SWAP2 SWAP1 POP JUMP JUMPDEST PUSH0 DUP3 DUP3 MSTORE PUSH1 0x20 DUP3 ADD SWAP1 POP SWAP3 SWAP2 POP POP JUMP JUMPDEST PUSH0 JUMPDEST DUP4 DUP2 LT ISZERO PUSH2 0x1579 JUMPI DUP1 DUP3 ADD MLOAD DUP2 DUP5 ADD MSTORE PUSH1 0x20 DUP2 ADD SWAP1 POP PUSH2 0x155E JUMP JUMPDEST PUSH0 DUP5 DUP5 ADD MSTORE POP POP POP POP JUMP JUMPDEST PUSH0 PUSH2 0x158E DUP3 PUSH2 0x1542 JUMP JUMPDEST PUSH2 0x1598 DUP2 DUP6 PUSH2 0x154C JUMP JUMPDEST SWAP4 POP PUSH2 0x15A8 DUP2 DUP6 PUSH1 0x20 DUP7 ADD PUSH2 0x155C JUMP JUMPDEST PUSH2 0x15B1 DUP2 PUSH2 0x135B JUMP JUMPDEST DUP5 ADD SWAP2 POP POP SWAP3 SWAP2 POP POP JUMP JUMPDEST PUSH2 0x15C5 DUP2 PUSH2 0x12E5 JUMP JUMPDEST DUP3 MSTORE POP POP JUMP JUMPDEST PUSH2 0x15D4 DUP2 PUSH2 0x1320 JUMP JUMPDEST DUP3 MSTORE POP POP JUMP JUMPDEST PUSH0 PUSH2 0x100 DUP3 ADD SWAP1 POP DUP2 DUP2 SUB PUSH0 DUP4 ADD MSTORE PUSH2 0x15F3 DUP2 DUP12 PUSH2 0x1584 JUMP JUMPDEST SWAP1 POP PUSH2 0x1602 PUSH1 0x20 DUP4 ADD DUP11 PUSH2 0x15BC JUMP JUMPDEST DUP2 DUP2 SUB PUSH1 0x40 DUP4 ADD MSTORE PUSH2 0x1614 DUP2 DUP10 PUSH2 0x1584 JUMP JUMPDEST SWAP1 POP PUSH2 0x1623 PUSH1 0x60 DUP4 ADD DUP9 PUSH2 0x15CB JUMP JUMPDEST DUP2 DUP2 SUB PUSH1 0x80 DUP4 ADD MSTORE PUSH2 0x1635 DUP2 DUP8 PUSH2 0x1584 JUMP JUMPDEST SWAP1 POP DUP2 DUP2 SUB PUSH1 0xA0 DUP4 ADD MSTORE PUSH2 0x1649 DUP2 DUP7 PUSH2 0x1584 JUMP JUMPDEST SWAP1 POP DUP2 DUP2 SUB PUSH1 0xC0 DUP4 ADD MSTORE PUSH2 0x165D DUP2 DUP6 PUSH2 0x1584 JUMP JUMPDEST SWAP1 POP PUSH2 0x166C PUSH1 0xE0 DUP4 ADD DUP5 PUSH2 0x15CB JUMP JUMPDEST SWAP10 SWAP9 POP POP POP POP POP POP POP POP POP JUMP JUMPDEST PUSH0 PUSH8 0xFFFFFFFFFFFFFFFF DUP3 GT ISZERO PUSH2 0x1693 JUMPI PUSH2 0x1692 PUSH2 0x136B JUMP JUMPDEST JUMPDEST PUSH1 0x20 DUP3 MUL SWAP1 POP PUSH1 0x20 DUP2 ADD SWAP1 POP SWAP2 SWAP1 POP JUMP JUMPDEST PUSH0 DUP1 REVERT JUMPDEST PUSH0 PUSH2 0x16BA PUSH2 0x16B5 DUP5 PUSH2 0x1679 JUMP JUMPDEST PUSH2 0x13C9 JUMP JUMPDEST SWAP1 POP DUP1 DUP4 DUP3 MSTORE PUSH1 0x20 DUP3 ADD SWAP1 POP PUSH1 0x20 DUP5 MUL DUP4 ADD DUP6 DUP2 GT ISZERO PUSH2 0x16DD JUMPI PUSH2 0x16DC PUSH2 0x16A4 JUMP JUMPDEST JUMPDEST DUP4 JUMPDEST DUP2 DUP2 LT ISZERO PUSH2 0x1724 JUMPI DUP1 CALLDATALOAD PUSH8 0xFFFFFFFFFFFFFFFF DUP2 GT ISZERO PUSH2 0x1702 JUMPI PUSH2 0x1701 PUSH2 0x1353 JUMP JUMPDEST JUMPDEST DUP1 DUP7 ADD PUSH2 0x170F DUP10 DUP3 PUSH2 0x1462 JUMP JUMPDEST DUP6 MSTORE PUSH1 0x20 DUP6 ADD SWAP5 POP POP POP PUSH1 0x20 DUP2 ADD SWAP1 POP PUSH2 0x16DF JUMP JUMPDEST POP POP POP SWAP4 SWAP3 POP POP POP JUMP JUMPDEST PUSH0 DUP3 PUSH1 0x1F DUP4 ADD SLT PUSH2 0x1742 JUMPI PUSH2 0x1741 PUSH2 0x1353 JUMP JUMPDEST JUMPDEST DUP2 CALLDATALOAD PUSH2 0x1752 DUP5 DUP3 PUSH1 0x20 DUP7 ADD PUSH2 0x16A8 JUMP JUMPDEST SWAP2 POP POP SWAP3 SWAP2 POP POP JUMP JUMPDEST PUSH0 DUP1 PUSH0 DUP1 PUSH0 DUP1 PUSH0 PUSH1 0xE0 DUP9 DUP11 SUB SLT ISZERO PUSH2 0x1776 JUMPI PUSH2 0x1775 PUSH2 0x12BE JUMP JUMPDEST JUMPDEST PUSH0 DUP9 ADD CALLDATALOAD PUSH8 0xFFFFFFFFFFFFFFFF DUP2 GT ISZERO PUSH2 0x1793 JUMPI PUSH2 0x1792 PUSH2 0x12C2 JUMP JUMPDEST JUMPDEST PUSH2 0x179F DUP11 DUP3 DUP12 ADD PUSH2 0x1462 JUMP JUMPDEST SWAP8 POP POP PUSH1 0x20 PUSH2 0x17B0 DUP11 DUP3 DUP12 ADD PUSH2 0x133F JUMP JUMPDEST SWAP7 POP POP PUSH1 0x40 DUP9 ADD CALLDATALOAD PUSH8 0xFFFFFFFFFFFFFFFF DUP2 GT ISZERO PUSH2 0x17D1 JUMPI PUSH2 0x17D0 PUSH2 0x12C2 JUMP JUMPDEST JUMPDEST PUSH2 0x17DD DUP11 DUP3 DUP12 ADD PUSH2 0x1462 JUMP JUMPDEST SWAP6 POP POP PUSH1 0x60 DUP9 ADD CALLDATALOAD PUSH8 0xFFFFFFFFFFFFFFFF DUP2 GT ISZERO PUSH2 0x17FE JUMPI PUSH2 0x17FD PUSH2 0x12C2 JUMP JUMPDEST JUMPDEST PUSH2 0x180A DUP11 DUP3 DUP12 ADD PUSH2 0x1462 JUMP JUMPDEST SWAP5 POP POP PUSH1 0x80 DUP9 ADD CALLDATALOAD PUSH8 0xFFFFFFFFFFFFFFFF DUP2 GT ISZERO PUSH2 0x182B JUMPI PUSH2 0x182A PUSH2 0x12C2 JUMP JUMPDEST JUMPDEST PUSH2 0x1837 DUP11 DUP3 DUP12 ADD PUSH2 0x172E JUMP JUMPDEST SWAP4 POP POP PUSH1 0xA0 DUP9 ADD CALLDATALOAD PUSH8 0xFFFFFFFFFFFFFFFF DUP2 GT ISZERO PUSH2 0x1858 JUMPI PUSH2 0x1857 PUSH2 0x12C2 JUMP JUMPDEST JUMPDEST PUSH2 0x1864 DUP11 DUP3 DUP12 ADD PUSH2 0x1462 JUMP JUMPDEST SWAP3 POP POP PUSH1 0xC0 PUSH2 0x1875 DUP11 DUP3 DUP12 ADD PUSH2 0x133F JUMP JUMPDEST SWAP2 POP POP SWAP3 SWAP6 SWAP9 SWAP2 SWAP5 SWAP8 POP SWAP3 SWAP6 POP JUMP JUMPDEST PUSH0 PUSH1 0x20 DUP3 DUP5 SUB SLT ISZERO PUSH2 0x1899 JUMPI PUSH2 0x1898 PUSH2 0x12BE JUMP JUMPDEST JUMPDEST PUSH0 PUSH2 0x18A6 DUP5 DUP3 DUP6 ADD PUSH2 0x130C JUMP JUMPDEST SWAP2 POP POP SWAP3 SWAP2 POP POP JUMP JUMPDEST PUSH0 PUSH1 0x20 DUP3 ADD SWAP1 POP PUSH2 0x18C2 PUSH0 DUP4 ADD DUP5 PUSH2 0x15CB JUMP JUMPDEST SWAP3 SWAP2 POP POP JUMP JUMPDEST PUSH0 DUP2 MLOAD SWAP1 POP SWAP2 SWAP1 POP JUMP JUMPDEST PUSH0 DUP3 DUP3 MSTORE PUSH1 0x20 DUP3 ADD SWAP1 POP SWAP3 SWAP2 POP POP JUMP JUMPDEST PUSH0 DUP2 SWAP1 POP PUSH1 0x20 DUP3 ADD SWAP1 POP SWAP2 SWAP1 POP JUMP JUMPDEST PUSH0 DUP3 DUP3 MSTORE PUSH1 0x20 DUP3 ADD SWAP1 POP SWAP3 SWAP2 POP POP JUMP JUMPDEST PUSH0 PUSH2 0x190B DUP3 PUSH2 0x1542 JUMP JUMPDEST PUSH2 0x1915 DUP2 DUP6 PUSH2 0x18F1 JUMP JUMPDEST SWAP4 POP PUSH2 0x1925 DUP2 DUP6 PUSH1 0x20 DUP7 ADD PUSH2 0x155C JUMP JUMPDEST PUSH2 0x192E DUP2 PUSH2 0x135B JUMP JUMPDEST DUP5 ADD SWAP2 POP POP SWAP3 SWAP2 POP POP JUMP JUMPDEST PUSH0 PUSH2 0x1944 DUP4 DUP4 PUSH2 0x1901 JUMP JUMPDEST SWAP1 POP SWAP3 SWAP2 POP POP JUMP JUMPDEST PUSH0 PUSH1 0x20 DUP3 ADD SWAP1 POP SWAP2 SWAP1 POP JUMP JUMPDEST PUSH0 PUSH2 0x1962 DUP3 PUSH2 0x18C8 JUMP JUMPDEST PUSH2 0x196C DUP2 DUP6 PUSH2 0x18D2 JUMP JUMPDEST SWAP4 POP DUP4 PUSH1 0x20 DUP3 MUL DUP6 ADD PUSH2 0x197E DUP6 PUSH2 0x18E2 JUMP JUMPDEST DUP1 PUSH0 JUMPDEST DUP6 DUP2 LT ISZERO PUSH2 0x19B9 JUMPI DUP5 DUP5 SUB DUP10 MSTORE DUP2 MLOAD PUSH2 0x199A DUP6 DUP3 PUSH2 0x1939 JUMP JUMPDEST SWAP5 POP PUSH2 0x19A5 DUP4 PUSH2 0x194C JUMP JUMPDEST SWAP3 POP PUSH1 0x20 DUP11 ADD SWAP10 POP POP PUSH1 0x1 DUP2 ADD SWAP1 POP PUSH2 0x1981 JUMP JUMPDEST POP DUP3 SWAP8 POP DUP8 SWAP6 POP POP POP POP POP POP SWAP3 SWAP2 POP POP JUMP JUMPDEST PUSH0 PUSH2 0x120 DUP3 ADD SWAP1 POP DUP2 DUP2 SUB PUSH0 DUP4 ADD MSTORE PUSH2 0x19E4 DUP2 DUP13 PUSH2 0x1584 JUMP JUMPDEST SWAP1 POP PUSH2 0x19F3 PUSH1 0x20 DUP4 ADD DUP12 PUSH2 0x15BC JUMP JUMPDEST DUP2 DUP2 SUB PUSH1 0x40 DUP4 ADD MSTORE PUSH2 0x1A05 DUP2 DUP11 PUSH2 0x1584 JUMP JUMPDEST SWAP1 POP PUSH2 0x1A14 PUSH1 0x60 DUP4 ADD DUP10 PUSH2 0x15CB JUMP JUMPDEST DUP2 DUP2 SUB PUSH1 0x80 DUP4 ADD MSTORE PUSH2 0x1A26 DUP2 DUP9 PUSH2 0x1584 JUMP JUMPDEST SWAP1 POP DUP2 DUP2 SUB PUSH1 0xA0 DUP4 ADD MSTORE PUSH2 0x1A3A DUP2 DUP8 PUSH2 0x1584 JUMP JUMPDEST SWAP1 POP DUP2 DUP2 SUB PUSH1 0xC0 DUP4 ADD MSTORE PUSH2 0x1A4E DUP2 DUP7 PUSH2 0x1958 JUMP JUMPDEST SWAP1 POP DUP2 DUP2 SUB PUSH1 0xE0 DUP4 ADD MSTORE PUSH2 0x1A62 DUP2 DUP6 PUSH2 0x1584 JUMP JUMPDEST SWAP1 POP PUSH2 0x1A72 PUSH2 0x100 DUP4 ADD DUP5 PUSH2 0x15CB JUMP JUMPDEST SWAP11 SWAP10 POP POP POP POP POP POP POP POP POP POP JUMP JUMPDEST PUSH0 PUSH1 0x20 DUP3 ADD SWAP1 POP PUSH2 0x1A93 PUSH0 DUP4 ADD DUP5 PUSH2 0x15BC JUMP JUMPDEST SWAP3 SWAP2 POP POP JUMP JUMPDEST PUSH0 PUSH1 0x20 DUP3 ADD SWAP1 POP DUP2 DUP2 SUB PUSH0 DUP4 ADD MSTORE PUSH2 0x1AB1 DUP2 DUP5 PUSH2 0x1584 JUMP JUMPDEST SWAP1 POP SWAP3 SWAP2 POP POP JUMP JUMPDEST PUSH32 0x4E487B7100000000000000000000000000000000000000000000000000000000 PUSH0 MSTORE PUSH1 0x22 PUSH1 0x4 MSTORE PUSH1 0x24 PUSH0 REVERT JUMPDEST PUSH0 PUSH1 0x2 DUP3 DIV SWAP1 POP PUSH1 0x1 DUP3 AND DUP1 PUSH2 0x1AFD JUMPI PUSH1 0x7F DUP3 AND SWAP2 POP JUMPDEST PUSH1 0x20 DUP3 LT DUP2 SUB PUSH2 0x1B10 JUMPI PUSH2 0x1B0F PUSH2 0x1AB9 JUMP JUMPDEST JUMPDEST POP SWAP2 SWAP1 POP JUMP JUMPDEST PUSH0 DUP2 SWAP1 POP DUP2 PUSH0 MSTORE PUSH1 0x20 PUSH0 KECCAK256 SWAP1 POP SWAP2 SWAP1 POP JUMP JUMPDEST PUSH0 PUSH1 0x20 PUSH1 0x1F DUP4 ADD DIV SWAP1 POP SWAP2 SWAP1 POP JUMP JUMPDEST PUSH0 DUP3 DUP3 SHL SWAP1 POP SWAP3 SWAP2 POP POP JUMP JUMPDEST PUSH0 PUSH1 0x8 DUP4 MUL PUSH2 0x1B72 PUSH32 0xFFFFFFFFFFFFFFFFFFFFFFFFFFFFFFFFFFFFFFFFFFFFFFFFFFFFFFFFFFFFFFFF DUP3 PUSH2 0x1B37 JUMP JUMPDEST PUSH2 0x1B7C DUP7 DUP4 PUSH2 0x1B37 JUMP JUMPDEST SWAP6 POP DUP1 NOT DUP5 AND SWAP4 POP DUP1 DUP7 AND DUP5 OR SWAP3 POP POP POP SWAP4 SWAP3 POP POP POP JUMP JUMPDEST PUSH0 DUP2 SWAP1 POP SWAP2 SWAP1 POP JUMP JUMPDEST PUSH0 PUSH2 0x1BB7 PUSH2 0x1BB2 PUSH2 0x1BAD DUP5 PUSH2 0x1320 JUMP JUMPDEST PUSH2 0x1B94 JUMP JUMPDEST PUSH2 0x1320 JUMP JUMPDEST SWAP1 POP SWAP2 SWAP1 POP JUMP JUMPDEST PUSH0 DUP2 SWAP1 POP SWAP2 SWAP1 POP JUMP JUMPDEST PUSH2 0x1BD0 DUP4 PUSH2 0x1B9D JUMP JUMPDEST PUSH2 0x1BE4 PUSH2 0x1BDC DUP3 PUSH2 0x1BBE JUMP JUMPDEST DUP5 DUP5 SLOAD PUSH2 0x1B43 JUMP JUMPDEST DUP3 SSTORE POP POP POP POP JUMP JUMPDEST PUSH0 SWAP1 JUMP JUMPDEST PUSH2 0x1BF8 PUSH2 0x1BEC JUMP JUMPDEST PUSH2 0x1C03 DUP2 DUP5 DUP5 PUSH2 0x1BC7 JUMP JUMPDEST POP POP POP JUMP JUMPDEST JUMPDEST DUP2 DUP2 LT ISZERO PUSH2 0x1C26 JUMPI PUSH2 0x1C1B PUSH0 DUP3 PUSH2 0x1BF0 JUMP JUMPDEST PUSH1 0x1 DUP2 ADD SWAP1 POP PUSH2 0x1C09 JUMP JUMPDEST POP POP JUMP JUMPDEST PUSH1 0x1F DUP3 GT ISZERO PUSH2 0x1C6B JUMPI PUSH2 0x1C3C DUP2 PUSH2 0x1B16 JUMP JUMPDEST PUSH2 0x1C45 DUP5 PUSH2 0x1B28 JUMP JUMPDEST DUP2 ADD PUSH1 0x20 DUP6 LT ISZERO PUSH2 0x1C54 JUMPI DUP2 SWAP1 POP JUMPDEST PUSH2 0x1C68 PUSH2 0x1C60 DUP6 PUSH2 0x1B28 JUMP JUMPDEST DUP4 ADD DUP3 PUSH2 0x1C08 JUMP JUMPDEST POP POP JUMPDEST POP POP POP JUMP JUMPDEST PUSH0 DUP3 DUP3 SHR SWAP1 POP SWAP3 SWAP2 POP POP JUMP JUMPDEST PUSH0 PUSH2 0x1C8B PUSH0 NOT DUP5 PUSH1 0x8 MUL PUSH2 0x1C70 JUMP JUMPDEST NOT DUP1 DUP4 AND SWAP2 POP POP SWAP3 SWAP2 POP POP JUMP JUMPDEST PUSH0 PUSH2 0x1CA3 DUP4 DUP4 PUSH2 0x1C7C JUMP JUMPDEST SWAP2 POP DUP3 PUSH1 0x2 MUL DUP3 OR SWAP1 POP SWAP3 SWAP2 POP POP JUMP JUMPDEST PUSH2 0x1CBC DUP3 PUSH2 0x1542 JUMP JUMPDEST PUSH8 0xFFFFFFFFFFFFFFFF DUP2 GT ISZERO PUSH2 0x1CD5 JUMPI PUSH2 0x1CD4 PUSH2 0x136B JUMP JUMPDEST JUMPDEST PUSH2 0x1CDF DUP3 SLOAD PUSH2 0x1AE6 JUMP JUMPDEST PUSH2 0x1CEA DUP3 DUP3 DUP6 PUSH2 0x1C2A JUMP JUMPDEST PUSH0 PUSH1 0x20 SWAP1 POP PUSH1 0x1F DUP4 GT PUSH1 0x1 DUP2 EQ PUSH2 0x1D1B JUMPI PUSH0 DUP5 ISZERO PUSH2 0x1D09 JUMPI DUP3 DUP8 ADD MLOAD SWAP1 POP JUMPDEST PUSH2 0x1D13 DUP6 DUP3 PUSH2 0x1C98 JUMP JUMPDEST DUP7 SSTORE POP PUSH2 0x1D7A JUMP JUMPDEST PUSH1 0x1F NOT DUP5 AND PUSH2 0x1D29 DUP7 PUSH2 0x1B16 JUMP JUMPDEST PUSH0 JUMPDEST DUP3 DUP2 LT ISZERO PUSH2 0x1D50 JUMPI DUP5 DUP10 ADD MLOAD DUP3 SSTORE PUSH1 0x1 DUP3 ADD SWAP2 POP PUSH1 0x20 DUP6 ADD SWAP5 POP PUSH1 0x20 DUP2 ADD SWAP1 POP PUSH2 0x1D2B JUMP JUMPDEST DUP7 DUP4 LT ISZERO PUSH2 0x1D6D JUMPI DUP5 DUP10 ADD MLOAD PUSH2 0x1D69 PUSH1 0x1F DUP10 AND DUP3 PUSH2 0x1C7C JUMP JUMPDEST DUP4 SSTORE POP JUMPDEST PUSH1 0x1 PUSH1 0x2 DUP9 MUL ADD DUP9 SSTORE POP POP POP JUMPDEST POP POP POP POP POP POP JUMP JUMPDEST PUSH0 PUSH1 0x40 DUP3 ADD SWAP1 POP PUSH2 0x1D95 PUSH0 DUP4 ADD DUP6 PUSH2 0x15CB JUMP JUMPDEST DUP2 DUP2 SUB PUSH1 0x20 DUP4 ADD MSTORE PUSH2 0x1DA7 DUP2 DUP5 PUSH2 0x1584 JUMP JUMPDEST SWAP1 POP SWAP4 SWAP3 POP POP POP JUMP JUMPDEST PUSH32 0x55736572206D757374206861766520612076616C696420726F6C652069640000 PUSH0 DUP3 ADD MSTORE POP JUMP JUMPDEST PUSH0 PUSH2 0x1DE4 PUSH1 0x1E DUP4 PUSH2 0x154C JUMP JUMPDEST SWAP2 POP PUSH2 0x1DEF DUP3 PUSH2 0x1DB0 JUMP JUMPDEST PUSH1 0x20 DUP3 ADD SWAP1 POP SWAP2 SWAP1 POP JUMP JUMPDEST PUSH0 PUSH1 0x20 DUP3 ADD SWAP1 POP DUP2 DUP2 SUB PUSH0 DUP4 ADD MSTORE PUSH2 0x1E11 DUP2 PUSH2 0x1DD8 JUMP JUMPDEST SWAP1 POP SWAP2 SWAP1 POP JUMP JUMPDEST PUSH0 DUP2 SWAP1 POP SWAP3 SWAP2 POP POP JUMP JUMPDEST PUSH0 PUSH2 0x1E2C DUP3 PUSH2 0x1542 JUMP JUMPDEST PUSH2 0x1E36 DUP2 DUP6 PUSH2 0x1E18 JUMP JUMPDEST SWAP4 POP PUSH2 0x1E46 DUP2 DUP6 PUSH1 0x20 DUP7 ADD PUSH2 0x155C JUMP JUMPDEST DUP1 DUP5 ADD SWAP2 POP POP SWAP3 SWAP2 POP POP JUMP JUMPDEST PUSH0 PUSH2 0x1E5D DUP3 DUP5 PUSH2 0x1E22 JUMP JUMPDEST SWAP2 POP DUP2 SWAP1 POP SWAP3 SWAP2 POP POP JUMP JUMPDEST PUSH0 DUP2 SLOAD PUSH2 0x1E74 DUP2 PUSH2 0x1AE6 JUMP JUMPDEST PUSH2 0x1E7E DUP2 DUP7 PUSH2 0x154C JUMP JUMPDEST SWAP5 POP PUSH1 0x1 DUP3 AND PUSH0 DUP2 EQ PUSH2 0x1E98 JUMPI PUSH1 0x1 DUP2 EQ PUSH2 0x1EAE JUMPI PUSH2 0x1EE0 JUMP JUMPDEST PUSH1 0xFF NOT DUP4 AND DUP7 MSTORE DUP2 ISZERO ISZERO PUSH1 0x20 MUL DUP7 ADD SWAP4 POP PUSH2 0x1EE0 JUMP JUMPDEST PUSH2 0x1EB7 DUP6 PUSH2 0x1B16 JUMP JUMPDEST PUSH0 JUMPDEST DUP4 DUP2 LT ISZERO PUSH2 0x1ED8 JUMPI DUP2 SLOAD DUP2 DUP10 ADD MSTORE PUSH1 0x1 DUP3 ADD SWAP2 POP PUSH1 0x20 DUP2 ADD SWAP1 POP PUSH2 0x1EB9 JUMP JUMPDEST DUP1 DUP9 ADD SWAP6 POP POP POP JUMPDEST POP POP POP SWAP3 SWAP2 POP POP JUMP JUMPDEST PUSH0 PUSH1 0x80 DUP3 ADD SWAP1 POP DUP2 DUP2 SUB PUSH0 DUP4 ADD MSTORE PUSH2 0x1F01 DUP2 DUP8 PUSH2 0x1E68 JUMP JUMPDEST SWAP1 POP PUSH2 0x1F10 PUSH1 0x20 DUP4 ADD DUP7 PUSH2 0x15CB JUMP JUMPDEST DUP2 DUP2 SUB PUSH1 0x40 DUP4 ADD MSTORE PUSH2 0x1F22 DUP2 DUP6 PUSH2 0x1584 JUMP JUMPDEST SWAP1 POP DUP2 DUP2 SUB PUSH1 0x60 DUP4 ADD MSTORE PUSH2 0x1F36 DUP2 DUP5 PUSH2 0x1584 JUMP JUMPDEST SWAP1 POP SWAP6 SWAP5 POP POP POP POP POP JUMP JUMPDEST PUSH0 PUSH1 0xA0 DUP3 ADD SWAP1 POP DUP2 DUP2 SUB PUSH0 DUP4 ADD MSTORE PUSH2 0x1F59 DUP2 DUP9 PUSH2 0x1E68 JUMP JUMPDEST SWAP1 POP DUP2 DUP2 SUB PUSH1 0x20 DUP4 ADD MSTORE PUSH2 0x1F6D DUP2 DUP8 PUSH2 0x1584 JUMP JUMPDEST SWAP1 POP PUSH2 0x1F7C PUSH1 0x40 DUP4 ADD DUP7 PUSH2 0x15CB JUMP JUMPDEST DUP2 DUP2 SUB PUSH1 0x60 DUP4 ADD MSTORE PUSH2 0x1F8E DUP2 DUP6 PUSH2 0x1584 JUMP JUMPDEST SWAP1 POP DUP2 DUP2 SUB PUSH1 0x80 DUP4 ADD MSTORE PUSH2 0x1FA2 DUP2 DUP5 PUSH2 0x1584 JUMP JUMPDEST SWAP1 POP SWAP7 SWAP6 POP POP POP POP POP POP JUMP INVALID LOG2 PUSH5 0x6970667358 0x22 SLT KECCAK256 SWAP14 SWAP8 0xD9 PUSH15 0x70DC63F1BA9C2C52576A28691BD83C ISZERO 0xC5 0x4C PUSH22 0x37297362CAF4C1A73964736F6C634300081400330000 "
				},
				"gasEstimates": {
					"creation": {
						"codeDepositCost": "1632800",
						"executionCost": "infinite",
						"totalCost": "infinite"
					},
					"external": {
						"SubjectName(address)": "infinite",
						"TraceDataMap(string)": "infinite",
						"UserRole(address)": "2869",
						"addBasicTraceData(string,uint256,string,string,string[],string,uint256)": "infinite",
						"getTraceData(string)": "infinite",
						"owner()": "2559",
						"renounceOwnership()": "infinite",
						"setRoleAndUser(address,uint256,string)": "infinite",
						"transferOwnership(address)": "infinite"
					}
				},
				"methodIdentifiers": {
					"SubjectName(address)": "d0c53848",
					"TraceDataMap(string)": "1792da60",
					"UserRole(address)": "53060fac",
					"addBasicTraceData(string,uint256,string,string,string[],string,uint256)": "490a370e",
					"getTraceData(string)": "6c0c378d",
					"owner()": "8da5cb5b",
					"renounceOwnership()": "715018a6",
					"setRoleAndUser(address,uint256,string)": "06d3f233",
					"transferOwnership(address)": "f2fde38b"
				}
			},
			"storageLayout": {
				"storage": [
					{
						"astId": 8,
						"contract": "contracts/Traceability.sol:Traceability",
						"label": "_owner",
						"offset": 0,
						"slot": "0",
						"type": "t_address"
					},
					{
						"astId": 212,
						"contract": "contracts/Traceability.sol:Traceability",
						"label": "UserRole",
						"offset": 0,
						"slot": "1",
						"type": "t_mapping(t_address,t_uint256)"
					},
					{
						"astId": 216,
						"contract": "contracts/Traceability.sol:Traceability",
						"label": "SubjectName",
						"offset": 0,
						"slot": "2",
						"type": "t_mapping(t_address,t_string_storage)"
					},
					{
						"astId": 241,
						"contract": "contracts/Traceability.sol:Traceability",
						"label": "TraceDataMap",
						"offset": 0,
						"slot": "3",
						"type": "t_mapping(t_string_memory_ptr,t_struct(TraceData)236_storage)"
					}
				],
				"types": {
					"t_address": {
						"encoding": "inplace",
						"label": "address",
						"numberOfBytes": "20"
					},
					"t_array(t_string_storage)dyn_storage": {
						"base": "t_string_storage",
						"encoding": "dynamic_array",
						"label": "string[]",
						"numberOfBytes": "32"
					},
					"t_mapping(t_address,t_string_storage)": {
						"encoding": "mapping",
						"key": "t_address",
						"label": "mapping(address => string)",
						"numberOfBytes": "32",
						"value": "t_string_storage"
					},
					"t_mapping(t_address,t_uint256)": {
						"encoding": "mapping",
						"key": "t_address",
						"label": "mapping(address => uint256)",
						"numberOfBytes": "32",
						"value": "t_uint256"
					},
					"t_mapping(t_string_memory_ptr,t_struct(TraceData)236_storage)": {
						"encoding": "mapping",
						"key": "t_string_memory_ptr",
						"label": "mapping(string => struct Traceability.TraceData)",
						"numberOfBytes": "32",
						"value": "t_struct(TraceData)236_storage"
					},
					"t_string_memory_ptr": {
						"encoding": "bytes",
						"label": "string",
						"numberOfBytes": "32"
					},
					"t_string_storage": {
						"encoding": "bytes",
						"label": "string",
						"numberOfBytes": "32"
					},
					"t_struct(TraceData)236_storage": {
						"encoding": "inplace",
						"label": "struct Traceability.TraceData",
						"members": [
							{
								"astId": 218,
								"contract": "contracts/Traceability.sol:Traceability",
								"label": "user_id",
								"offset": 0,
								"slot": "0",
								"type": "t_string_storage"
							},
							{
								"astId": 220,
								"contract": "contracts/Traceability.sol:Traceability",
								"label": "user_address",
								"offset": 0,
								"slot": "1",
								"type": "t_address"
							},
							{
								"astId": 222,
								"contract": "contracts/Traceability.sol:Traceability",
								"label": "product_id",
								"offset": 0,
								"slot": "2",
								"type": "t_string_storage"
							},
							{
								"astId": 224,
								"contract": "contracts/Traceability.sol:Traceability",
								"label": "process_date",
								"offset": 0,
								"slot": "3",
								"type": "t_uint256"
							},
							{
								"astId": 226,
								"contract": "contracts/Traceability.sol:Traceability",
								"label": "location_name",
								"offset": 0,
								"slot": "4",
								"type": "t_string_storage"
							},
							{
								"astId": 228,
								"contract": "contracts/Traceability.sol:Traceability",
								"label": "location_address",
								"offset": 0,
								"slot": "5",
								"type": "t_string_storage"
							},
							{
								"astId": 231,
								"contract": "contracts/Traceability.sol:Traceability",
								"label": "src_product_id",
								"offset": 0,
								"slot": "6",
								"type": "t_array(t_string_storage)dyn_storage"
							},
							{
								"astId": 233,
								"contract": "contracts/Traceability.sol:Traceability",
								"label": "product_type",
								"offset": 0,
								"slot": "7",
								"type": "t_string_storage"
							},
							{
								"astId": 235,
								"contract": "contracts/Traceability.sol:Traceability",
								"label": "expiry_date",
								"offset": 0,
								"slot": "8",
								"type": "t_uint256"
							}
						],
						"numberOfBytes": "288"
					},
					"t_uint256": {
						"encoding": "inplace",
						"label": "uint256",
						"numberOfBytes": "32"
					}
				}
			},
			"userdoc": {
				"kind": "user",
				"methods": {},
				"version": 1
			}
		}
	}
}