{
	"contracts/Traceability.sol": {
		"Traceability": {
			"abi": [
				{
					"inputs": [],
					"stateMutability": "nonpayable",
					"type": "constructor"
				},
				{
					"inputs": [
						{
							"internalType": "address",
							"name": "owner",
							"type": "address"
						}
					],
					"name": "OwnableInvalidOwner",
					"type": "error"
				},
				{
					"inputs": [
						{
							"internalType": "address",
							"name": "account",
							"type": "address"
						}
					],
					"name": "OwnableUnauthorizedAccount",
					"type": "error"
				},
				{
					"anonymous": false,
					"inputs": [
						{
							"indexed": true,
							"internalType": "string",
							"name": "product_id",
							"type": "string"
						},
						{
							"indexed": false,
							"internalType": "string",
							"name": "user_id",
							"type": "string"
						},
						{
							"indexed": false,
							"internalType": "uint256",
							"name": "process_date",
							"type": "uint256"
						},
						{
							"indexed": false,
							"internalType": "string",
							"name": "location_name",
							"type": "string"
						},
						{
							"indexed": false,
							"internalType": "string",
							"name": "location_address",
							"type": "string"
						}
					],
					"name": "BasicTraceDataAdded",
					"type": "event"
				},
				{
					"anonymous": false,
					"inputs": [
						{
							"indexed": true,
							"internalType": "address",
							"name": "previousOwner",
							"type": "address"
						},
						{
							"indexed": true,
							"internalType": "address",
							"name": "newOwner",
							"type": "address"
						}
					],
					"name": "OwnershipTransferred",
					"type": "event"
				},
				{
					"anonymous": false,
					"inputs": [
						{
							"indexed": true,
							"internalType": "string",
							"name": "product_id",
							"type": "string"
						},
						{
							"indexed": false,
							"internalType": "string",
							"name": "user_id",
							"type": "string"
						},
						{
							"indexed": false,
							"internalType": "string",
							"name": "product_type",
							"type": "string"
						},
						{
							"indexed": false,
							"internalType": "uint256",
							"name": "expiry_date",
							"type": "uint256"
						},
						{
							"indexed": false,
							"internalType": "string",
							"name": "location_name",
							"type": "string"
						},
						{
							"indexed": false,
							"internalType": "string",
							"name": "location_address",
							"type": "string"
						}
					],
					"name": "ProducerTraceDataAdded",
					"type": "event"
				},
				{
					"anonymous": false,
					"inputs": [
						{
							"indexed": true,
							"internalType": "address",
							"name": "user",
							"type": "address"
						},
						{
							"indexed": false,
							"internalType": "uint256",
							"name": "roleId",
							"type": "uint256"
						},
						{
							"indexed": false,
							"internalType": "string",
							"name": "subjectName",
							"type": "string"
						}
					],
					"name": "RoleAndUserSet",
					"type": "event"
				},
				{
					"inputs": [
						{
							"internalType": "address",
							"name": "",
							"type": "address"
						}
					],
					"name": "SubjectName",
					"outputs": [
						{
							"internalType": "string",
							"name": "",
							"type": "string"
						}
					],
					"stateMutability": "view",
					"type": "function"
				},
				{
					"inputs": [
						{
							"internalType": "string",
							"name": "",
							"type": "string"
						}
					],
					"name": "TraceDataMap",
					"outputs": [
						{
							"internalType": "string",
							"name": "user_id",
							"type": "string"
						},
						{
							"internalType": "address",
							"name": "user_address",
							"type": "address"
						},
						{
							"internalType": "string",
							"name": "product_id",
							"type": "string"
						},
						{
							"internalType": "uint256",
							"name": "process_date",
							"type": "uint256"
						},
						{
							"internalType": "string",
							"name": "location_name",
							"type": "string"
						},
						{
							"internalType": "string",
							"name": "location_address",
							"type": "string"
						},
						{
							"internalType": "string",
							"name": "product_type",
							"type": "string"
						},
						{
							"internalType": "uint256",
							"name": "expiry_date",
							"type": "uint256"
						}
					],
					"stateMutability": "view",
					"type": "function"
				},
				{
					"inputs": [
						{
							"internalType": "address",
							"name": "",
							"type": "address"
						}
					],
					"name": "UserRole",
					"outputs": [
						{
							"internalType": "uint256",
							"name": "",
							"type": "uint256"
						}
					],
					"stateMutability": "view",
					"type": "function"
				},
				{
					"inputs": [
						{
							"internalType": "string",
							"name": "_product_id",
							"type": "string"
						},
						{
							"internalType": "uint256",
							"name": "_process_date",
							"type": "uint256"
						},
						{
							"internalType": "string",
							"name": "_location_name",
							"type": "string"
						},
						{
							"internalType": "string",
							"name": "_location_address",
							"type": "string"
						},
						{
							"internalType": "string[]",
							"name": "_src_product_id",
							"type": "string[]"
						},
						{
							"internalType": "string",
							"name": "_product_type",
							"type": "string"
						},
						{
							"internalType": "uint256",
							"name": "_expiry_date",
							"type": "uint256"
						}
					],
					"name": "addBasicTraceData",
					"outputs": [],
					"stateMutability": "nonpayable",
					"type": "function"
				},
				{
					"inputs": [
						{
							"internalType": "string",
							"name": "_product_id",
							"type": "string"
						}
					],
					"name": "getTraceData",
					"outputs": [
						{
							"internalType": "string",
							"name": "user_id",
							"type": "string"
						},
						{
							"internalType": "address",
							"name": "user_address",
							"type": "address"
						},
						{
							"internalType": "string",
							"name": "product_id",
							"type": "string"
						},
						{
							"internalType": "uint256",
							"name": "process_date",
							"type": "uint256"
						},
						{
							"internalType": "string",
							"name": "location_name",
							"type": "string"
						},
						{
							"internalType": "string",
							"name": "location_address",
							"type": "string"
						},
						{
							"internalType": "string",
							"name": "product_type",
							"type": "string"
						},
						{
							"internalType": "uint256",
							"name": "expiry_date",
							"type": "uint256"
						}
					],
					"stateMutability": "view",
					"type": "function"
				},
				{
					"inputs": [],
					"name": "owner",
					"outputs": [
						{
							"internalType": "address",
							"name": "",
							"type": "address"
						}
					],
					"stateMutability": "view",
					"type": "function"
				},
				{
					"inputs": [],
					"name": "renounceOwnership",
					"outputs": [],
					"stateMutability": "nonpayable",
					"type": "function"
				},
				{
					"inputs": [
						{
							"internalType": "address",
							"name": "_user",
							"type": "address"
						},
						{
							"internalType": "uint256",
							"name": "_roleId",
							"type": "uint256"
						},
						{
							"internalType": "string",
							"name": "_subjectName",
							"type": "string"
						}
					],
					"name": "setRoleAndUser",
					"outputs": [],
					"stateMutability": "nonpayable",
					"type": "function"
				},
				{
					"inputs": [
						{
							"internalType": "address",
							"name": "newOwner",
							"type": "address"
						}
					],
					"name": "transferOwnership",
					"outputs": [],
					"stateMutability": "nonpayable",
					"type": "function"
				}
			],
			"devdoc": {
				"errors": {
					"OwnableInvalidOwner(address)": [
						{
							"details": "The owner is not a valid owner account. (eg. `address(0)`)"
						}
					],
					"OwnableUnauthorizedAccount(address)": [
						{
							"details": "The caller account is not authorized to perform an operation."
						}
					]
				},
				"kind": "dev",
				"methods": {
					"owner()": {
						"details": "Returns the address of the current owner."
					},
					"renounceOwnership()": {
						"details": "Leaves the contract without owner. It will not be possible to call `onlyOwner` functions. Can only be called by the current owner. NOTE: Renouncing ownership will leave the contract without an owner, thereby disabling any functionality that is only available to the owner."
					},
					"transferOwnership(address)": {
						"details": "Transfers ownership of the contract to a new account (`newOwner`). Can only be called by the current owner."
					}
				},
				"version": 1
			},
			"evm": {
				"assembly": "    /* \"contracts/Traceability.sol\":117:4489  contract Traceability is Ownable {... */\n  mstore(0x40, 0x80)\n    /* \"contracts/Traceability.sol\":1159:1195  constructor() Ownable(msg.sender) {} */\n  callvalue\n  dup1\n  iszero\n  tag_1\n  jumpi\n  0x00\n  dup1\n  revert\ntag_1:\n  pop\n    /* \"contracts/Traceability.sol\":1181:1191  msg.sender */\n  caller\n    /* \"@openzeppelin/contracts/access/Ownable.sol\":1297:1298  0 */\n  0x00\n    /* \"@openzeppelin/contracts/access/Ownable.sol\":1273:1299  initialOwner == address(0) */\n  0xffffffffffffffffffffffffffffffffffffffff\n  and\n    /* \"@openzeppelin/contracts/access/Ownable.sol\":1273:1285  initialOwner */\n  dup2\n    /* \"@openzeppelin/contracts/access/Ownable.sol\":1273:1299  initialOwner == address(0) */\n  0xffffffffffffffffffffffffffffffffffffffff\n  and\n  sub\n    /* \"@openzeppelin/contracts/access/Ownable.sol\":1269:1364  if (initialOwner == address(0)) {... */\n  tag_5\n  jumpi\n    /* \"@openzeppelin/contracts/access/Ownable.sol\":1350:1351  0 */\n  0x00\n    /* \"@openzeppelin/contracts/access/Ownable.sol\":1322:1353  OwnableInvalidOwner(address(0)) */\n  mload(0x40)\n  0x1e4fbdf700000000000000000000000000000000000000000000000000000000\n  dup2\n  mstore\n  0x04\n  add\n  tag_6\n  swap2\n  swap1\n  tag_7\n  jump\t// in\ntag_6:\n  mload(0x40)\n  dup1\n  swap2\n  sub\n  swap1\n  revert\n    /* \"@openzeppelin/contracts/access/Ownable.sol\":1269:1364  if (initialOwner == address(0)) {... */\ntag_5:\n    /* \"@openzeppelin/contracts/access/Ownable.sol\":1373:1405  _transferOwnership(initialOwner) */\n  tag_8\n    /* \"@openzeppelin/contracts/access/Ownable.sol\":1392:1404  initialOwner */\n  dup2\n    /* \"@openzeppelin/contracts/access/Ownable.sol\":1373:1391  _transferOwnership */\n  shl(0x20, tag_9)\n    /* \"@openzeppelin/contracts/access/Ownable.sol\":1373:1405  _transferOwnership(initialOwner) */\n  0x20\n  shr\n  jump\t// in\ntag_8:\n    /* \"@openzeppelin/contracts/access/Ownable.sol\":1225:1412  constructor(address initialOwner) {... */\n  pop\n    /* \"contracts/Traceability.sol\":117:4489  contract Traceability is Ownable {... */\n  jump(tag_11)\n    /* \"@openzeppelin/contracts/access/Ownable.sol\":2912:3099  function _transferOwnership(address newOwner) internal virtual {... */\ntag_9:\n    /* \"@openzeppelin/contracts/access/Ownable.sol\":2985:3001  address oldOwner */\n  0x00\n    /* \"@openzeppelin/contracts/access/Ownable.sol\":3004:3010  _owner */\n  dup1\n  0x00\n  swap1\n  sload\n  swap1\n  0x0100\n  exp\n  swap1\n  div\n  0xffffffffffffffffffffffffffffffffffffffff\n  and\n    /* \"@openzeppelin/contracts/access/Ownable.sol\":2985:3010  address oldOwner = _owner */\n  swap1\n  pop\n    /* \"@openzeppelin/contracts/access/Ownable.sol\":3029:3037  newOwner */\n  dup2\n    /* \"@openzeppelin/contracts/access/Ownable.sol\":3020:3026  _owner */\n  0x00\n  dup1\n    /* \"@openzeppelin/contracts/access/Ownable.sol\":3020:3037  _owner = newOwner */\n  0x0100\n  exp\n  dup2\n  sload\n  dup2\n  0xffffffffffffffffffffffffffffffffffffffff\n  mul\n  not\n  and\n  swap1\n  dup4\n  0xffffffffffffffffffffffffffffffffffffffff\n  and\n  mul\n  or\n  swap1\n  sstore\n  pop\n    /* \"@openzeppelin/contracts/access/Ownable.sol\":3083:3091  newOwner */\n  dup2\n    /* \"@openzeppelin/contracts/access/Ownable.sol\":3052:3092  OwnershipTransferred(oldOwner, newOwner) */\n  0xffffffffffffffffffffffffffffffffffffffff\n  and\n    /* \"@openzeppelin/contracts/access/Ownable.sol\":3073:3081  oldOwner */\n  dup2\n    /* \"@openzeppelin/contracts/access/Ownable.sol\":3052:3092  OwnershipTransferred(oldOwner, newOwner) */\n  0xffffffffffffffffffffffffffffffffffffffff\n  and\n  0x8be0079c531659141344cd1fd0a4f28419497f9722a3daafe3b4186f6b6457e0\n  mload(0x40)\n  mload(0x40)\n  dup1\n  swap2\n  sub\n  swap1\n  log3\n    /* \"@openzeppelin/contracts/access/Ownable.sol\":2975:3099  {... */\n  pop\n    /* \"@openzeppelin/contracts/access/Ownable.sol\":2912:3099  function _transferOwnership(address newOwner) internal virtual {... */\n  pop\n  jump\t// out\n    /* \"#utility.yul\":7:133   */\ntag_13:\n    /* \"#utility.yul\":44:51   */\n  0x00\n    /* \"#utility.yul\":84:126   */\n  0xffffffffffffffffffffffffffffffffffffffff\n    /* \"#utility.yul\":77:82   */\n  dup3\n    /* \"#utility.yul\":73:127   */\n  and\n    /* \"#utility.yul\":62:127   */\n  swap1\n  pop\n    /* \"#utility.yul\":7:133   */\n  swap2\n  swap1\n  pop\n  jump\t// out\n    /* \"#utility.yul\":139:235   */\ntag_14:\n    /* \"#utility.yul\":176:183   */\n  0x00\n    /* \"#utility.yul\":205:229   */\n  tag_19\n    /* \"#utility.yul\":223:228   */\n  dup3\n    /* \"#utility.yul\":205:229   */\n  tag_13\n  jump\t// in\ntag_19:\n    /* \"#utility.yul\":194:229   */\n  swap1\n  pop\n    /* \"#utility.yul\":139:235   */\n  swap2\n  swap1\n  pop\n  jump\t// out\n    /* \"#utility.yul\":241:359   */\ntag_15:\n    /* \"#utility.yul\":328:352   */\n  tag_21\n    /* \"#utility.yul\":346:351   */\n  dup2\n    /* \"#utility.yul\":328:352   */\n  tag_14\n  jump\t// in\ntag_21:\n    /* \"#utility.yul\":323:326   */\n  dup3\n    /* \"#utility.yul\":316:353   */\n  mstore\n    /* \"#utility.yul\":241:359   */\n  pop\n  pop\n  jump\t// out\n    /* \"#utility.yul\":365:587   */\ntag_7:\n    /* \"#utility.yul\":458:462   */\n  0x00\n    /* \"#utility.yul\":496:498   */\n  0x20\n    /* \"#utility.yul\":485:494   */\n  dup3\n    /* \"#utility.yul\":481:499   */\n  add\n    /* \"#utility.yul\":473:499   */\n  swap1\n  pop\n    /* \"#utility.yul\":509:580   */\n  tag_23\n    /* \"#utility.yul\":577:578   */\n  0x00\n    /* \"#utility.yul\":566:575   */\n  dup4\n    /* \"#utility.yul\":562:579   */\n  add\n    /* \"#utility.yul\":553:559   */\n  dup5\n    /* \"#utility.yul\":509:580   */\n  tag_15\n  jump\t// in\ntag_23:\n    /* \"#utility.yul\":365:587   */\n  swap3\n  swap2\n  pop\n  pop\n  jump\t// out\n    /* \"contracts/Traceability.sol\":117:4489  contract Traceability is Ownable {... */\ntag_11:\n  dataSize(sub_0)\n  dup1\n  dataOffset(sub_0)\n  0x00\n  codecopy\n  0x00\n  return\nstop\n\nsub_0: assembly {\n        /* \"contracts/Traceability.sol\":117:4489  contract Traceability is Ownable {... */\n      mstore(0x40, 0x80)\n      callvalue\n      dup1\n      iszero\n      tag_1\n      jumpi\n      0x00\n      dup1\n      revert\n    tag_1:\n      pop\n      jumpi(tag_2, lt(calldatasize, 0x04))\n      shr(0xe0, calldataload(0x00))\n      dup1\n      0x6c0c378d\n      gt\n      tag_12\n      jumpi\n      dup1\n      0x6c0c378d\n      eq\n      tag_7\n      jumpi\n      dup1\n      0x715018a6\n      eq\n      tag_8\n      jumpi\n      dup1\n      0x8da5cb5b\n      eq\n      tag_9\n      jumpi\n      dup1\n      0xd0c53848\n      eq\n      tag_10\n      jumpi\n      dup1\n      0xf2fde38b\n      eq\n      tag_11\n      jumpi\n      jump(tag_2)\n    tag_12:\n      dup1\n      0x06d3f233\n      eq\n      tag_3\n      jumpi\n      dup1\n      0x1792da60\n      eq\n      tag_4\n      jumpi\n      dup1\n      0x490a370e\n      eq\n      tag_5\n      jumpi\n      dup1\n      0x53060fac\n      eq\n      tag_6\n      jumpi\n    tag_2:\n      0x00\n      dup1\n      revert\n        /* \"contracts/Traceability.sol\":1201:1446  function setRoleAndUser(address _user, uint256 _roleId, string memory _subjectName) public onlyOwner {... */\n    tag_3:\n      tag_13\n      0x04\n      dup1\n      calldatasize\n      sub\n      dup2\n      add\n      swap1\n      tag_14\n      swap2\n      swap1\n      tag_15\n      jump\t// in\n    tag_14:\n      tag_16\n      jump\t// in\n    tag_13:\n      stop\n        /* \"contracts/Traceability.sol\":1104:1152  mapping(string => TraceData) public TraceDataMap */\n    tag_4:\n      tag_17\n      0x04\n      dup1\n      calldatasize\n      sub\n      dup2\n      add\n      swap1\n      tag_18\n      swap2\n      swap1\n      tag_19\n      jump\t// in\n    tag_18:\n      tag_20\n      jump\t// in\n    tag_17:\n      mload(0x40)\n      tag_21\n      swap9\n      swap8\n      swap7\n      swap6\n      swap5\n      swap4\n      swap3\n      swap2\n      swap1\n      tag_22\n      jump\t// in\n    tag_21:\n      mload(0x40)\n      dup1\n      swap2\n      sub\n      swap1\n      return\n        /* \"contracts/Traceability.sol\":1452:2821  function addBasicTraceData(... */\n    tag_5:\n      tag_23\n      0x04\n      dup1\n      calldatasize\n      sub\n      dup2\n      add\n      swap1\n      tag_24\n      swap2\n      swap1\n      tag_25\n      jump\t// in\n    tag_24:\n      tag_26\n      jump\t// in\n    tag_23:\n      stop\n        /* \"contracts/Traceability.sol\":580:623  mapping(address => uint256) public UserRole */\n    tag_6:\n      tag_27\n      0x04\n      dup1\n      calldatasize\n      sub\n      dup2\n      add\n      swap1\n      tag_28\n      swap2\n      swap1\n      tag_29\n      jump\t// in\n    tag_28:\n      tag_30\n      jump\t// in\n    tag_27:\n      mload(0x40)\n      tag_31\n      swap2\n      swap1\n      tag_32\n      jump\t// in\n    tag_31:\n      mload(0x40)\n      dup1\n      swap2\n      sub\n      swap1\n      return\n        /* \"contracts/Traceability.sol\":3809:4487  function getTraceData(string memory _product_id) public view returns (... */\n    tag_7:\n      tag_33\n      0x04\n      dup1\n      calldatasize\n      sub\n      dup2\n      add\n      swap1\n      tag_34\n      swap2\n      swap1\n      tag_19\n      jump\t// in\n    tag_34:\n      tag_35\n      jump\t// in\n    tag_33:\n      mload(0x40)\n      tag_36\n      swap9\n      swap8\n      swap7\n      swap6\n      swap5\n      swap4\n      swap3\n      swap2\n      swap1\n      tag_22\n      jump\t// in\n    tag_36:\n      mload(0x40)\n      dup1\n      swap2\n      sub\n      swap1\n      return\n        /* \"@openzeppelin/contracts/access/Ownable.sol\":2293:2394  function renounceOwnership() public virtual onlyOwner {... */\n    tag_8:\n      tag_37\n      tag_38\n      jump\t// in\n    tag_37:\n      stop\n        /* \"@openzeppelin/contracts/access/Ownable.sol\":1638:1723  function owner() public view virtual returns (address) {... */\n    tag_9:\n      tag_39\n      tag_40\n      jump\t// in\n    tag_39:\n      mload(0x40)\n      tag_41\n      swap2\n      swap1\n      tag_42\n      jump\t// in\n    tag_41:\n      mload(0x40)\n      dup1\n      swap2\n      sub\n      swap1\n      return\n        /* \"contracts/Traceability.sol\":706:751  mapping(address => string) public SubjectName */\n    tag_10:\n      tag_43\n      0x04\n      dup1\n      calldatasize\n      sub\n      dup2\n      add\n      swap1\n      tag_44\n      swap2\n      swap1\n      tag_29\n      jump\t// in\n    tag_44:\n      tag_45\n      jump\t// in\n    tag_43:\n      mload(0x40)\n      tag_46\n      swap2\n      swap1\n      tag_47\n      jump\t// in\n    tag_46:\n      mload(0x40)\n      dup1\n      swap2\n      sub\n      swap1\n      return\n        /* \"@openzeppelin/contracts/access/Ownable.sol\":2543:2758  function transferOwnership(address newOwner) public virtual onlyOwner {... */\n    tag_11:\n      tag_48\n      0x04\n      dup1\n      calldatasize\n      sub\n      dup2\n      add\n      swap1\n      tag_49\n      swap2\n      swap1\n      tag_29\n      jump\t// in\n    tag_49:\n      tag_50\n      jump\t// in\n    tag_48:\n      stop\n        /* \"contracts/Traceability.sol\":1201:1446  function setRoleAndUser(address _user, uint256 _roleId, string memory _subjectName) public onlyOwner {... */\n    tag_16:\n        /* \"@openzeppelin/contracts/access/Ownable.sol\":1531:1544  _checkOwner() */\n      tag_52\n        /* \"@openzeppelin/contracts/access/Ownable.sol\":1531:1542  _checkOwner */\n      tag_53\n        /* \"@openzeppelin/contracts/access/Ownable.sol\":1531:1544  _checkOwner() */\n      jump\t// in\n    tag_52:\n        /* \"contracts/Traceability.sol\":1330:1337  _roleId */\n      dup2\n        /* \"contracts/Traceability.sol\":1312:1320  UserRole */\n      0x01\n        /* \"contracts/Traceability.sol\":1312:1327  UserRole[_user] */\n      0x00\n        /* \"contracts/Traceability.sol\":1321:1326  _user */\n      dup6\n        /* \"contracts/Traceability.sol\":1312:1327  UserRole[_user] */\n      0xffffffffffffffffffffffffffffffffffffffff\n      and\n      0xffffffffffffffffffffffffffffffffffffffff\n      and\n      dup2\n      mstore\n      0x20\n      add\n      swap1\n      dup2\n      mstore\n      0x20\n      add\n      0x00\n      keccak256\n        /* \"contracts/Traceability.sol\":1312:1337  UserRole[_user] = _roleId */\n      dup2\n      swap1\n      sstore\n      pop\n        /* \"contracts/Traceability.sol\":1368:1380  _subjectName */\n      dup1\n        /* \"contracts/Traceability.sol\":1347:1358  SubjectName */\n      0x02\n        /* \"contracts/Traceability.sol\":1347:1365  SubjectName[_user] */\n      0x00\n        /* \"contracts/Traceability.sol\":1359:1364  _user */\n      dup6\n        /* \"contracts/Traceability.sol\":1347:1365  SubjectName[_user] */\n      0xffffffffffffffffffffffffffffffffffffffff\n      and\n      0xffffffffffffffffffffffffffffffffffffffff\n      and\n      dup2\n      mstore\n      0x20\n      add\n      swap1\n      dup2\n      mstore\n      0x20\n      add\n      0x00\n      keccak256\n        /* \"contracts/Traceability.sol\":1347:1380  SubjectName[_user] = _subjectName */\n      swap1\n      dup2\n      tag_55\n      swap2\n      swap1\n      tag_56\n      jump\t// in\n    tag_55:\n      pop\n        /* \"contracts/Traceability.sol\":1410:1415  _user */\n      dup3\n        /* \"contracts/Traceability.sol\":1395:1439  RoleAndUserSet(_user, _roleId, _subjectName) */\n      0xffffffffffffffffffffffffffffffffffffffff\n      and\n      0x75541d04f577c4b73a2a0439aa5f65abbc21fb391c30e2147bb341bd2e90de76\n        /* \"contracts/Traceability.sol\":1417:1424  _roleId */\n      dup4\n        /* \"contracts/Traceability.sol\":1426:1438  _subjectName */\n      dup4\n        /* \"contracts/Traceability.sol\":1395:1439  RoleAndUserSet(_user, _roleId, _subjectName) */\n      mload(0x40)\n      tag_57\n      swap3\n      swap2\n      swap1\n      tag_58\n      jump\t// in\n    tag_57:\n      mload(0x40)\n      dup1\n      swap2\n      sub\n      swap1\n      log2\n        /* \"contracts/Traceability.sol\":1201:1446  function setRoleAndUser(address _user, uint256 _roleId, string memory _subjectName) public onlyOwner {... */\n      pop\n      pop\n      pop\n      jump\t// out\n        /* \"contracts/Traceability.sol\":1104:1152  mapping(string => TraceData) public TraceDataMap */\n    tag_20:\n      0x03\n      dup2\n      dup1\n      mload\n      0x20\n      dup2\n      add\n      dup3\n      add\n      dup1\n      mload\n      dup5\n      dup3\n      mstore\n      0x20\n      dup4\n      add\n      0x20\n      dup6\n      add\n      keccak256\n      dup2\n      dup4\n      mstore\n      dup1\n      swap6\n      pop\n      pop\n      pop\n      pop\n      pop\n      pop\n      0x00\n      swap2\n      pop\n      swap1\n      pop\n      dup1\n      0x00\n      add\n      dup1\n      sload\n      tag_59\n      swap1\n      tag_60\n      jump\t// in\n    tag_59:\n      dup1\n      0x1f\n      add\n      0x20\n      dup1\n      swap2\n      div\n      mul\n      0x20\n      add\n      mload(0x40)\n      swap1\n      dup2\n      add\n      0x40\n      mstore\n      dup1\n      swap3\n      swap2\n      swap1\n      dup2\n      dup2\n      mstore\n      0x20\n      add\n      dup3\n      dup1\n      sload\n      tag_61\n      swap1\n      tag_60\n      jump\t// in\n    tag_61:\n      dup1\n      iszero\n      tag_62\n      jumpi\n      dup1\n      0x1f\n      lt\n      tag_63\n      jumpi\n      0x0100\n      dup1\n      dup4\n      sload\n      div\n      mul\n      dup4\n      mstore\n      swap2\n      0x20\n      add\n      swap2\n      jump(tag_62)\n    tag_63:\n      dup3\n      add\n      swap2\n      swap1\n      0x00\n      mstore\n      keccak256(0x00, 0x20)\n      swap1\n    tag_64:\n      dup2\n      sload\n      dup2\n      mstore\n      swap1\n      0x01\n      add\n      swap1\n      0x20\n      add\n      dup1\n      dup4\n      gt\n      tag_64\n      jumpi\n      dup3\n      swap1\n      sub\n      0x1f\n      and\n      dup3\n      add\n      swap2\n    tag_62:\n      pop\n      pop\n      pop\n      pop\n      pop\n      swap1\n      dup1\n      0x01\n      add\n      0x00\n      swap1\n      sload\n      swap1\n      0x0100\n      exp\n      swap1\n      div\n      0xffffffffffffffffffffffffffffffffffffffff\n      and\n      swap1\n      dup1\n      0x02\n      add\n      dup1\n      sload\n      tag_65\n      swap1\n      tag_60\n      jump\t// in\n    tag_65:\n      dup1\n      0x1f\n      add\n      0x20\n      dup1\n      swap2\n      div\n      mul\n      0x20\n      add\n      mload(0x40)\n      swap1\n      dup2\n      add\n      0x40\n      mstore\n      dup1\n      swap3\n      swap2\n      swap1\n      dup2\n      dup2\n      mstore\n      0x20\n      add\n      dup3\n      dup1\n      sload\n      tag_66\n      swap1\n      tag_60\n      jump\t// in\n    tag_66:\n      dup1\n      iszero\n      tag_67\n      jumpi\n      dup1\n      0x1f\n      lt\n      tag_68\n      jumpi\n      0x0100\n      dup1\n      dup4\n      sload\n      div\n      mul\n      dup4\n      mstore\n      swap2\n      0x20\n      add\n      swap2\n      jump(tag_67)\n    tag_68:\n      dup3\n      add\n      swap2\n      swap1\n      0x00\n      mstore\n      keccak256(0x00, 0x20)\n      swap1\n    tag_69:\n      dup2\n      sload\n      dup2\n      mstore\n      swap1\n      0x01\n      add\n      swap1\n      0x20\n      add\n      dup1\n      dup4\n      gt\n      tag_69\n      jumpi\n      dup3\n      swap1\n      sub\n      0x1f\n      and\n      dup3\n      add\n      swap2\n    tag_67:\n      pop\n      pop\n      pop\n      pop\n      pop\n      swap1\n      dup1\n      0x03\n      add\n      sload\n      swap1\n      dup1\n      0x04\n      add\n      dup1\n      sload\n      tag_70\n      swap1\n      tag_60\n      jump\t// in\n    tag_70:\n      dup1\n      0x1f\n      add\n      0x20\n      dup1\n      swap2\n      div\n      mul\n      0x20\n      add\n      mload(0x40)\n      swap1\n      dup2\n      add\n      0x40\n      mstore\n      dup1\n      swap3\n      swap2\n      swap1\n      dup2\n      dup2\n      mstore\n      0x20\n      add\n      dup3\n      dup1\n      sload\n      tag_71\n      swap1\n      tag_60\n      jump\t// in\n    tag_71:\n      dup1\n      iszero\n      tag_72\n      jumpi\n      dup1\n      0x1f\n      lt\n      tag_73\n      jumpi\n      0x0100\n      dup1\n      dup4\n      sload\n      div\n      mul\n      dup4\n      mstore\n      swap2\n      0x20\n      add\n      swap2\n      jump(tag_72)\n    tag_73:\n      dup3\n      add\n      swap2\n      swap1\n      0x00\n      mstore\n      keccak256(0x00, 0x20)\n      swap1\n    tag_74:\n      dup2\n      sload\n      dup2\n      mstore\n      swap1\n      0x01\n      add\n      swap1\n      0x20\n      add\n      dup1\n      dup4\n      gt\n      tag_74\n      jumpi\n      dup3\n      swap1\n      sub\n      0x1f\n      and\n      dup3\n      add\n      swap2\n    tag_72:\n      pop\n      pop\n      pop\n      pop\n      pop\n      swap1\n      dup1\n      0x05\n      add\n      dup1\n      sload\n      tag_75\n      swap1\n      tag_60\n      jump\t// in\n    tag_75:\n      dup1\n      0x1f\n      add\n      0x20\n      dup1\n      swap2\n      div\n      mul\n      0x20\n      add\n      mload(0x40)\n      swap1\n      dup2\n      add\n      0x40\n      mstore\n      dup1\n      swap3\n      swap2\n      swap1\n      dup2\n      dup2\n      mstore\n      0x20\n      add\n      dup3\n      dup1\n      sload\n      tag_76\n      swap1\n      tag_60\n      jump\t// in\n    tag_76:\n      dup1\n      iszero\n      tag_77\n      jumpi\n      dup1\n      0x1f\n      lt\n      tag_78\n      jumpi\n      0x0100\n      dup1\n      dup4\n      sload\n      div\n      mul\n      dup4\n      mstore\n      swap2\n      0x20\n      add\n      swap2\n      jump(tag_77)\n    tag_78:\n      dup3\n      add\n      swap2\n      swap1\n      0x00\n      mstore\n      keccak256(0x00, 0x20)\n      swap1\n    tag_79:\n      dup2\n      sload\n      dup2\n      mstore\n      swap1\n      0x01\n      add\n      swap1\n      0x20\n      add\n      dup1\n      dup4\n      gt\n      tag_79\n      jumpi\n      dup3\n      swap1\n      sub\n      0x1f\n      and\n      dup3\n      add\n      swap2\n    tag_77:\n      pop\n      pop\n      pop\n      pop\n      pop\n      swap1\n      dup1\n      0x07\n      add\n      dup1\n      sload\n      tag_80\n      swap1\n      tag_60\n      jump\t// in\n    tag_80:\n      dup1\n      0x1f\n      add\n      0x20\n      dup1\n      swap2\n      div\n      mul\n      0x20\n      add\n      mload(0x40)\n      swap1\n      dup2\n      add\n      0x40\n      mstore\n      dup1\n      swap3\n      swap2\n      swap1\n      dup2\n      dup2\n      mstore\n      0x20\n      add\n      dup3\n      dup1\n      sload\n      tag_81\n      swap1\n      tag_60\n      jump\t// in\n    tag_81:\n      dup1\n      iszero\n      tag_82\n      jumpi\n      dup1\n      0x1f\n      lt\n      tag_83\n      jumpi\n      0x0100\n      dup1\n      dup4\n      sload\n      div\n      mul\n      dup4\n      mstore\n      swap2\n      0x20\n      add\n      swap2\n      jump(tag_82)\n    tag_83:\n      dup3\n      add\n      swap2\n      swap1\n      0x00\n      mstore\n      keccak256(0x00, 0x20)\n      swap1\n    tag_84:\n      dup2\n      sload\n      dup2\n      mstore\n      swap1\n      0x01\n      add\n      swap1\n      0x20\n      add\n      dup1\n      dup4\n      gt\n      tag_84\n      jumpi\n      dup3\n      swap1\n      sub\n      0x1f\n      and\n      dup3\n      add\n      swap2\n    tag_82:\n      pop\n      pop\n      pop\n      pop\n      pop\n      swap1\n      dup1\n      0x08\n      add\n      sload\n      swap1\n      pop\n      dup9\n      jump\t// out\n        /* \"contracts/Traceability.sol\":1452:2821  function addBasicTraceData(... */\n    tag_26:\n        /* \"contracts/Traceability.sol\":1787:1788  0 */\n      0x00\n        /* \"contracts/Traceability.sol\":1763:1771  UserRole */\n      0x01\n        /* \"contracts/Traceability.sol\":1763:1783  UserRole[msg.sender] */\n      0x00\n        /* \"contracts/Traceability.sol\":1772:1782  msg.sender */\n      caller\n        /* \"contracts/Traceability.sol\":1763:1783  UserRole[msg.sender] */\n      0xffffffffffffffffffffffffffffffffffffffff\n      and\n      0xffffffffffffffffffffffffffffffffffffffff\n      and\n      dup2\n      mstore\n      0x20\n      add\n      swap1\n      dup2\n      mstore\n      0x20\n      add\n      0x00\n      keccak256\n      sload\n        /* \"contracts/Traceability.sol\":1763:1788  UserRole[msg.sender] != 0 */\n      eq\n      iszero\n        /* \"contracts/Traceability.sol\":1763:1816  UserRole[msg.sender] != 0 && UserRole[msg.sender] < 5 */\n      dup1\n      iszero\n      tag_86\n      jumpi\n      pop\n        /* \"contracts/Traceability.sol\":1815:1816  5 */\n      0x05\n        /* \"contracts/Traceability.sol\":1792:1800  UserRole */\n      0x01\n        /* \"contracts/Traceability.sol\":1792:1812  UserRole[msg.sender] */\n      0x00\n        /* \"contracts/Traceability.sol\":1801:1811  msg.sender */\n      caller\n        /* \"contracts/Traceability.sol\":1792:1812  UserRole[msg.sender] */\n      0xffffffffffffffffffffffffffffffffffffffff\n      and\n      0xffffffffffffffffffffffffffffffffffffffff\n      and\n      dup2\n      mstore\n      0x20\n      add\n      swap1\n      dup2\n      mstore\n      0x20\n      add\n      0x00\n      keccak256\n      sload\n        /* \"contracts/Traceability.sol\":1792:1816  UserRole[msg.sender] < 5 */\n      lt\n        /* \"contracts/Traceability.sol\":1763:1816  UserRole[msg.sender] != 0 && UserRole[msg.sender] < 5 */\n    tag_86:\n        /* \"contracts/Traceability.sol\":1755:1851  require(UserRole[msg.sender] != 0 && UserRole[msg.sender] < 5, \"User must have a valid role id\") */\n      tag_87\n      jumpi\n      mload(0x40)\n      0x08c379a000000000000000000000000000000000000000000000000000000000\n      dup2\n      mstore\n      0x04\n      add\n      tag_88\n      swap1\n      tag_89\n      jump\t// in\n    tag_88:\n      mload(0x40)\n      dup1\n      swap2\n      sub\n      swap1\n      revert\n    tag_87:\n        /* \"contracts/Traceability.sol\":1980:1981  2 */\n      0x02\n        /* \"contracts/Traceability.sol\":1956:1964  UserRole */\n      0x01\n        /* \"contracts/Traceability.sol\":1956:1976  UserRole[msg.sender] */\n      0x00\n        /* \"contracts/Traceability.sol\":1965:1975  msg.sender */\n      caller\n        /* \"contracts/Traceability.sol\":1956:1976  UserRole[msg.sender] */\n      0xffffffffffffffffffffffffffffffffffffffff\n      and\n      0xffffffffffffffffffffffffffffffffffffffff\n      and\n      dup2\n      mstore\n      0x20\n      add\n      swap1\n      dup2\n      mstore\n      0x20\n      add\n      0x00\n      keccak256\n      sload\n        /* \"contracts/Traceability.sol\":1956:1981  UserRole[msg.sender] != 2 */\n      eq\n        /* \"contracts/Traceability.sol\":1953:2056  if(UserRole[msg.sender] != 2){... */\n      tag_90\n      jumpi\n        /* \"contracts/Traceability.sol\":1996:2014  _product_type = \"\" */\n      mload(0x40)\n      dup1\n      0x20\n      add\n      0x40\n      mstore\n      dup1\n      0x00\n      dup2\n      mstore\n      pop\n      swap2\n      pop\n        /* \"contracts/Traceability.sol\":2043:2044  0 */\n      0x00\n        /* \"contracts/Traceability.sol\":2028:2044  _expiry_date = 0 */\n      swap1\n      pop\n        /* \"contracts/Traceability.sol\":1953:2056  if(UserRole[msg.sender] != 2){... */\n    tag_90:\n        /* \"contracts/Traceability.sol\":2094:2494  TraceData({... */\n      mload(0x40)\n      dup1\n      0x0120\n      add\n      0x40\n      mstore\n      dup1\n        /* \"contracts/Traceability.sol\":2127:2138  SubjectName */\n      0x02\n        /* \"contracts/Traceability.sol\":2127:2150  SubjectName[msg.sender] */\n      0x00\n        /* \"contracts/Traceability.sol\":2139:2149  msg.sender */\n      caller\n        /* \"contracts/Traceability.sol\":2127:2150  SubjectName[msg.sender] */\n      0xffffffffffffffffffffffffffffffffffffffff\n      and\n      0xffffffffffffffffffffffffffffffffffffffff\n      and\n      dup2\n      mstore\n      0x20\n      add\n      swap1\n      dup2\n      mstore\n      0x20\n      add\n      0x00\n      keccak256\n        /* \"contracts/Traceability.sol\":2094:2494  TraceData({... */\n      dup1\n      sload\n      tag_91\n      swap1\n      tag_60\n      jump\t// in\n    tag_91:\n      dup1\n      0x1f\n      add\n      0x20\n      dup1\n      swap2\n      div\n      mul\n      0x20\n      add\n      mload(0x40)\n      swap1\n      dup2\n      add\n      0x40\n      mstore\n      dup1\n      swap3\n      swap2\n      swap1\n      dup2\n      dup2\n      mstore\n      0x20\n      add\n      dup3\n      dup1\n      sload\n      tag_92\n      swap1\n      tag_60\n      jump\t// in\n    tag_92:\n      dup1\n      iszero\n      tag_93\n      jumpi\n      dup1\n      0x1f\n      lt\n      tag_94\n      jumpi\n      0x0100\n      dup1\n      dup4\n      sload\n      div\n      mul\n      dup4\n      mstore\n      swap2\n      0x20\n      add\n      swap2\n      jump(tag_93)\n    tag_94:\n      dup3\n      add\n      swap2\n      swap1\n      0x00\n      mstore\n      keccak256(0x00, 0x20)\n      swap1\n    tag_95:\n      dup2\n      sload\n      dup2\n      mstore\n      swap1\n      0x01\n      add\n      swap1\n      0x20\n      add\n      dup1\n      dup4\n      gt\n      tag_95\n      jumpi\n      dup3\n      swap1\n      sub\n      0x1f\n      and\n      dup3\n      add\n      swap2\n    tag_93:\n      pop\n      pop\n      pop\n      pop\n      pop\n      dup2\n      mstore\n      0x20\n      add\n        /* \"contracts/Traceability.sol\":2178:2188  msg.sender */\n      caller\n        /* \"contracts/Traceability.sol\":2094:2494  TraceData({... */\n      0xffffffffffffffffffffffffffffffffffffffff\n      and\n      dup2\n      mstore\n      0x20\n      add\n        /* \"contracts/Traceability.sol\":2214:2225  _product_id */\n      dup9\n        /* \"contracts/Traceability.sol\":2094:2494  TraceData({... */\n      dup2\n      mstore\n      0x20\n      add\n        /* \"contracts/Traceability.sol\":2253:2266  _process_date */\n      dup8\n        /* \"contracts/Traceability.sol\":2094:2494  TraceData({... */\n      dup2\n      mstore\n      0x20\n      add\n        /* \"contracts/Traceability.sol\":2295:2309  _location_name */\n      dup7\n        /* \"contracts/Traceability.sol\":2094:2494  TraceData({... */\n      dup2\n      mstore\n      0x20\n      add\n        /* \"contracts/Traceability.sol\":2341:2358  _location_address */\n      dup6\n        /* \"contracts/Traceability.sol\":2094:2494  TraceData({... */\n      dup2\n      mstore\n      0x20\n      add\n        /* \"contracts/Traceability.sol\":2388:2403  _src_product_id */\n      dup5\n        /* \"contracts/Traceability.sol\":2094:2494  TraceData({... */\n      dup2\n      mstore\n      0x20\n      add\n        /* \"contracts/Traceability.sol\":2431:2444  _product_type */\n      dup4\n        /* \"contracts/Traceability.sol\":2094:2494  TraceData({... */\n      dup2\n      mstore\n      0x20\n      add\n        /* \"contracts/Traceability.sol\":2471:2483  _expiry_date */\n      dup3\n        /* \"contracts/Traceability.sol\":2094:2494  TraceData({... */\n      dup2\n      mstore\n      pop\n        /* \"contracts/Traceability.sol\":2066:2078  TraceDataMap */\n      0x03\n        /* \"contracts/Traceability.sol\":2079:2090  _product_id */\n      dup9\n        /* \"contracts/Traceability.sol\":2066:2091  TraceDataMap[_product_id] */\n      mload(0x40)\n      tag_96\n      swap2\n      swap1\n      tag_97\n      jump\t// in\n    tag_96:\n      swap1\n      dup2\n      mstore\n      0x20\n      add\n      mload(0x40)\n      dup1\n      swap2\n      sub\n      swap1\n      keccak256\n        /* \"contracts/Traceability.sol\":2066:2494  TraceDataMap[_product_id] = TraceData({... */\n      0x00\n      dup3\n      add\n      mload\n      dup2\n      0x00\n      add\n      swap1\n      dup2\n      tag_98\n      swap2\n      swap1\n      tag_56\n      jump\t// in\n    tag_98:\n      pop\n      0x20\n      dup3\n      add\n      mload\n      dup2\n      0x01\n      add\n      exp(0x0100, 0x00)\n      dup2\n      sload\n      dup2\n      0xffffffffffffffffffffffffffffffffffffffff\n      mul\n      not\n      and\n      swap1\n      dup4\n      0xffffffffffffffffffffffffffffffffffffffff\n      and\n      mul\n      or\n      swap1\n      sstore\n      pop\n      0x40\n      dup3\n      add\n      mload\n      dup2\n      0x02\n      add\n      swap1\n      dup2\n      tag_99\n      swap2\n      swap1\n      tag_56\n      jump\t// in\n    tag_99:\n      pop\n      0x60\n      dup3\n      add\n      mload\n      dup2\n      0x03\n      add\n      sstore\n      0x80\n      dup3\n      add\n      mload\n      dup2\n      0x04\n      add\n      swap1\n      dup2\n      tag_100\n      swap2\n      swap1\n      tag_56\n      jump\t// in\n    tag_100:\n      pop\n      0xa0\n      dup3\n      add\n      mload\n      dup2\n      0x05\n      add\n      swap1\n      dup2\n      tag_101\n      swap2\n      swap1\n      tag_56\n      jump\t// in\n    tag_101:\n      pop\n      0xc0\n      dup3\n      add\n      mload\n      dup2\n      0x06\n      add\n      swap1\n      dup1\n      mload\n      swap1\n      0x20\n      add\n      swap1\n      tag_102\n      swap3\n      swap2\n      swap1\n      tag_103\n      jump\t// in\n    tag_102:\n      pop\n      0xe0\n      dup3\n      add\n      mload\n      dup2\n      0x07\n      add\n      swap1\n      dup2\n      tag_104\n      swap2\n      swap1\n      tag_56\n      jump\t// in\n    tag_104:\n      pop\n      0x0100\n      dup3\n      add\n      mload\n      dup2\n      0x08\n      add\n      sstore\n      swap1\n      pop\n      pop\n        /* \"contracts/Traceability.sol\":2530:2541  _product_id */\n      dup7\n        /* \"contracts/Traceability.sol\":2510:2617  BasicTraceDataAdded(_product_id, SubjectName[msg.sender], _process_date, _location_name, _location_address) */\n      mload(0x40)\n      tag_105\n      swap2\n      swap1\n      tag_97\n      jump\t// in\n    tag_105:\n      mload(0x40)\n      dup1\n      swap2\n      sub\n      swap1\n      keccak256\n      0x4ec0335d49ce48af3b2be1555f2724c6aded22db73f58d175f703be14044b99b\n        /* \"contracts/Traceability.sol\":2543:2554  SubjectName */\n      0x02\n        /* \"contracts/Traceability.sol\":2543:2566  SubjectName[msg.sender] */\n      0x00\n        /* \"contracts/Traceability.sol\":2555:2565  msg.sender */\n      caller\n        /* \"contracts/Traceability.sol\":2543:2566  SubjectName[msg.sender] */\n      0xffffffffffffffffffffffffffffffffffffffff\n      and\n      0xffffffffffffffffffffffffffffffffffffffff\n      and\n      dup2\n      mstore\n      0x20\n      add\n      swap1\n      dup2\n      mstore\n      0x20\n      add\n      0x00\n      keccak256\n        /* \"contracts/Traceability.sol\":2568:2581  _process_date */\n      dup9\n        /* \"contracts/Traceability.sol\":2583:2597  _location_name */\n      dup9\n        /* \"contracts/Traceability.sol\":2599:2616  _location_address */\n      dup9\n        /* \"contracts/Traceability.sol\":2510:2617  BasicTraceDataAdded(_product_id, SubjectName[msg.sender], _process_date, _location_name, _location_address) */\n      mload(0x40)\n      tag_106\n      swap5\n      swap4\n      swap3\n      swap2\n      swap1\n      tag_107\n      jump\t// in\n    tag_106:\n      mload(0x40)\n      dup1\n      swap2\n      sub\n      swap1\n      log2\n        /* \"contracts/Traceability.sol\":2659:2660  2 */\n      0x02\n        /* \"contracts/Traceability.sol\":2635:2643  UserRole */\n      0x01\n        /* \"contracts/Traceability.sol\":2635:2655  UserRole[msg.sender] */\n      0x00\n        /* \"contracts/Traceability.sol\":2644:2654  msg.sender */\n      caller\n        /* \"contracts/Traceability.sol\":2635:2655  UserRole[msg.sender] */\n      0xffffffffffffffffffffffffffffffffffffffff\n      and\n      0xffffffffffffffffffffffffffffffffffffffff\n      and\n      dup2\n      mstore\n      0x20\n      add\n      swap1\n      dup2\n      mstore\n      0x20\n      add\n      0x00\n      keccak256\n      sload\n        /* \"contracts/Traceability.sol\":2635:2660  UserRole[msg.sender] == 2 */\n      sub\n        /* \"contracts/Traceability.sol\":2632:2815  if(UserRole[msg.sender] == 2){... */\n      tag_108\n      jumpi\n        /* \"contracts/Traceability.sol\":2703:2714  _product_id */\n      dup7\n        /* \"contracts/Traceability.sol\":2680:2804  ProducerTraceDataAdded(_product_id, SubjectName[msg.sender], _product_type, _expiry_date, _location_name, _location_address) */\n      mload(0x40)\n      tag_109\n      swap2\n      swap1\n      tag_97\n      jump\t// in\n    tag_109:\n      mload(0x40)\n      dup1\n      swap2\n      sub\n      swap1\n      keccak256\n      0xd0d34aa945315e3f0b3e36799a4d0751af195ca3a10841986740a9140e824dff\n        /* \"contracts/Traceability.sol\":2716:2727  SubjectName */\n      0x02\n        /* \"contracts/Traceability.sol\":2716:2739  SubjectName[msg.sender] */\n      0x00\n        /* \"contracts/Traceability.sol\":2728:2738  msg.sender */\n      caller\n        /* \"contracts/Traceability.sol\":2716:2739  SubjectName[msg.sender] */\n      0xffffffffffffffffffffffffffffffffffffffff\n      and\n      0xffffffffffffffffffffffffffffffffffffffff\n      and\n      dup2\n      mstore\n      0x20\n      add\n      swap1\n      dup2\n      mstore\n      0x20\n      add\n      0x00\n      keccak256\n        /* \"contracts/Traceability.sol\":2741:2754  _product_type */\n      dup5\n        /* \"contracts/Traceability.sol\":2756:2768  _expiry_date */\n      dup5\n        /* \"contracts/Traceability.sol\":2770:2784  _location_name */\n      dup10\n        /* \"contracts/Traceability.sol\":2786:2803  _location_address */\n      dup10\n        /* \"contracts/Traceability.sol\":2680:2804  ProducerTraceDataAdded(_product_id, SubjectName[msg.sender], _product_type, _expiry_date, _location_name, _location_address) */\n      mload(0x40)\n      tag_110\n      swap6\n      swap5\n      swap4\n      swap3\n      swap2\n      swap1\n      tag_111\n      jump\t// in\n    tag_110:\n      mload(0x40)\n      dup1\n      swap2\n      sub\n      swap1\n      log2\n        /* \"contracts/Traceability.sol\":2632:2815  if(UserRole[msg.sender] == 2){... */\n    tag_108:\n        /* \"contracts/Traceability.sol\":1452:2821  function addBasicTraceData(... */\n      pop\n      pop\n      pop\n      pop\n      pop\n      pop\n      pop\n      jump\t// out\n        /* \"contracts/Traceability.sol\":580:623  mapping(address => uint256) public UserRole */\n    tag_30:\n      mstore(0x20, 0x01)\n      dup1\n      0x00\n      mstore\n      keccak256(0x00, 0x40)\n      0x00\n      swap2\n      pop\n      swap1\n      pop\n      sload\n      dup2\n      jump\t// out\n        /* \"contracts/Traceability.sol\":3809:4487  function getTraceData(string memory _product_id) public view returns (... */\n    tag_35:\n        /* \"contracts/Traceability.sol\":3888:3909  string memory user_id */\n      0x60\n        /* \"contracts/Traceability.sol\":3919:3939  address user_address */\n      0x00\n        /* \"contracts/Traceability.sol\":3949:3973  string memory product_id */\n      0x60\n        /* \"contracts/Traceability.sol\":3983:4003  uint256 process_date */\n      0x00\n        /* \"contracts/Traceability.sol\":4013:4040  string memory location_name */\n      0x60\n        /* \"contracts/Traceability.sol\":4050:4080  string memory location_address */\n      dup1\n        /* \"contracts/Traceability.sol\":4090:4116  string memory product_type */\n      0x60\n        /* \"contracts/Traceability.sol\":4126:4142  uint expiry_date */\n      0x00\n        /* \"contracts/Traceability.sol\":4159:4180  TraceData memory data */\n      dup1\n        /* \"contracts/Traceability.sol\":4183:4195  TraceDataMap */\n      0x03\n        /* \"contracts/Traceability.sol\":4196:4207  _product_id */\n      dup11\n        /* \"contracts/Traceability.sol\":4183:4208  TraceDataMap[_product_id] */\n      mload(0x40)\n      tag_113\n      swap2\n      swap1\n      tag_97\n      jump\t// in\n    tag_113:\n      swap1\n      dup2\n      mstore\n      0x20\n      add\n      mload(0x40)\n      dup1\n      swap2\n      sub\n      swap1\n      keccak256\n        /* \"contracts/Traceability.sol\":4159:4208  TraceData memory data = TraceDataMap[_product_id] */\n      mload(0x40)\n      dup1\n      0x0120\n      add\n      0x40\n      mstore\n      swap1\n      dup2\n      0x00\n      dup3\n      add\n      dup1\n      sload\n      tag_114\n      swap1\n      tag_60\n      jump\t// in\n    tag_114:\n      dup1\n      0x1f\n      add\n      0x20\n      dup1\n      swap2\n      div\n      mul\n      0x20\n      add\n      mload(0x40)\n      swap1\n      dup2\n      add\n      0x40\n      mstore\n      dup1\n      swap3\n      swap2\n      swap1\n      dup2\n      dup2\n      mstore\n      0x20\n      add\n      dup3\n      dup1\n      sload\n      tag_115\n      swap1\n      tag_60\n      jump\t// in\n    tag_115:\n      dup1\n      iszero\n      tag_116\n      jumpi\n      dup1\n      0x1f\n      lt\n      tag_117\n      jumpi\n      0x0100\n      dup1\n      dup4\n      sload\n      div\n      mul\n      dup4\n      mstore\n      swap2\n      0x20\n      add\n      swap2\n      jump(tag_116)\n    tag_117:\n      dup3\n      add\n      swap2\n      swap1\n      0x00\n      mstore\n      keccak256(0x00, 0x20)\n      swap1\n    tag_118:\n      dup2\n      sload\n      dup2\n      mstore\n      swap1\n      0x01\n      add\n      swap1\n      0x20\n      add\n      dup1\n      dup4\n      gt\n      tag_118\n      jumpi\n      dup3\n      swap1\n      sub\n      0x1f\n      and\n      dup3\n      add\n      swap2\n    tag_116:\n      pop\n      pop\n      pop\n      pop\n      pop\n      dup2\n      mstore\n      0x20\n      add\n      0x01\n      dup3\n      add\n      0x00\n      swap1\n      sload\n      swap1\n      0x0100\n      exp\n      swap1\n      div\n      0xffffffffffffffffffffffffffffffffffffffff\n      and\n      0xffffffffffffffffffffffffffffffffffffffff\n      and\n      0xffffffffffffffffffffffffffffffffffffffff\n      and\n      dup2\n      mstore\n      0x20\n      add\n      0x02\n      dup3\n      add\n      dup1\n      sload\n      tag_119\n      swap1\n      tag_60\n      jump\t// in\n    tag_119:\n      dup1\n      0x1f\n      add\n      0x20\n      dup1\n      swap2\n      div\n      mul\n      0x20\n      add\n      mload(0x40)\n      swap1\n      dup2\n      add\n      0x40\n      mstore\n      dup1\n      swap3\n      swap2\n      swap1\n      dup2\n      dup2\n      mstore\n      0x20\n      add\n      dup3\n      dup1\n      sload\n      tag_120\n      swap1\n      tag_60\n      jump\t// in\n    tag_120:\n      dup1\n      iszero\n      tag_121\n      jumpi\n      dup1\n      0x1f\n      lt\n      tag_122\n      jumpi\n      0x0100\n      dup1\n      dup4\n      sload\n      div\n      mul\n      dup4\n      mstore\n      swap2\n      0x20\n      add\n      swap2\n      jump(tag_121)\n    tag_122:\n      dup3\n      add\n      swap2\n      swap1\n      0x00\n      mstore\n      keccak256(0x00, 0x20)\n      swap1\n    tag_123:\n      dup2\n      sload\n      dup2\n      mstore\n      swap1\n      0x01\n      add\n      swap1\n      0x20\n      add\n      dup1\n      dup4\n      gt\n      tag_123\n      jumpi\n      dup3\n      swap1\n      sub\n      0x1f\n      and\n      dup3\n      add\n      swap2\n    tag_121:\n      pop\n      pop\n      pop\n      pop\n      pop\n      dup2\n      mstore\n      0x20\n      add\n      0x03\n      dup3\n      add\n      sload\n      dup2\n      mstore\n      0x20\n      add\n      0x04\n      dup3\n      add\n      dup1\n      sload\n      tag_124\n      swap1\n      tag_60\n      jump\t// in\n    tag_124:\n      dup1\n      0x1f\n      add\n      0x20\n      dup1\n      swap2\n      div\n      mul\n      0x20\n      add\n      mload(0x40)\n      swap1\n      dup2\n      add\n      0x40\n      mstore\n      dup1\n      swap3\n      swap2\n      swap1\n      dup2\n      dup2\n      mstore\n      0x20\n      add\n      dup3\n      dup1\n      sload\n      tag_125\n      swap1\n      tag_60\n      jump\t// in\n    tag_125:\n      dup1\n      iszero\n      tag_126\n      jumpi\n      dup1\n      0x1f\n      lt\n      tag_127\n      jumpi\n      0x0100\n      dup1\n      dup4\n      sload\n      div\n      mul\n      dup4\n      mstore\n      swap2\n      0x20\n      add\n      swap2\n      jump(tag_126)\n    tag_127:\n      dup3\n      add\n      swap2\n      swap1\n      0x00\n      mstore\n      keccak256(0x00, 0x20)\n      swap1\n    tag_128:\n      dup2\n      sload\n      dup2\n      mstore\n      swap1\n      0x01\n      add\n      swap1\n      0x20\n      add\n      dup1\n      dup4\n      gt\n      tag_128\n      jumpi\n      dup3\n      swap1\n      sub\n      0x1f\n      and\n      dup3\n      add\n      swap2\n    tag_126:\n      pop\n      pop\n      pop\n      pop\n      pop\n      dup2\n      mstore\n      0x20\n      add\n      0x05\n      dup3\n      add\n      dup1\n      sload\n      tag_129\n      swap1\n      tag_60\n      jump\t// in\n    tag_129:\n      dup1\n      0x1f\n      add\n      0x20\n      dup1\n      swap2\n      div\n      mul\n      0x20\n      add\n      mload(0x40)\n      swap1\n      dup2\n      add\n      0x40\n      mstore\n      dup1\n      swap3\n      swap2\n      swap1\n      dup2\n      dup2\n      mstore\n      0x20\n      add\n      dup3\n      dup1\n      sload\n      tag_130\n      swap1\n      tag_60\n      jump\t// in\n    tag_130:\n      dup1\n      iszero\n      tag_131\n      jumpi\n      dup1\n      0x1f\n      lt\n      tag_132\n      jumpi\n      0x0100\n      dup1\n      dup4\n      sload\n      div\n      mul\n      dup4\n      mstore\n      swap2\n      0x20\n      add\n      swap2\n      jump(tag_131)\n    tag_132:\n      dup3\n      add\n      swap2\n      swap1\n      0x00\n      mstore\n      keccak256(0x00, 0x20)\n      swap1\n    tag_133:\n      dup2\n      sload\n      dup2\n      mstore\n      swap1\n      0x01\n      add\n      swap1\n      0x20\n      add\n      dup1\n      dup4\n      gt\n      tag_133\n      jumpi\n      dup3\n      swap1\n      sub\n      0x1f\n      and\n      dup3\n      add\n      swap2\n    tag_131:\n      pop\n      pop\n      pop\n      pop\n      pop\n      dup2\n      mstore\n      0x20\n      add\n      0x06\n      dup3\n      add\n      dup1\n      sload\n      dup1\n      0x20\n      mul\n      0x20\n      add\n      mload(0x40)\n      swap1\n      dup2\n      add\n      0x40\n      mstore\n      dup1\n      swap3\n      swap2\n      swap1\n      dup2\n      dup2\n      mstore\n      0x20\n      add\n      0x00\n      swap1\n    tag_134:\n      dup3\n      dup3\n      lt\n      iszero\n      tag_135\n      jumpi\n      dup4\n      dup3\n      swap1\n      0x00\n      mstore\n      keccak256(0x00, 0x20)\n      add\n      dup1\n      sload\n      tag_137\n      swap1\n      tag_60\n      jump\t// in\n    tag_137:\n      dup1\n      0x1f\n      add\n      0x20\n      dup1\n      swap2\n      div\n      mul\n      0x20\n      add\n      mload(0x40)\n      swap1\n      dup2\n      add\n      0x40\n      mstore\n      dup1\n      swap3\n      swap2\n      swap1\n      dup2\n      dup2\n      mstore\n      0x20\n      add\n      dup3\n      dup1\n      sload\n      tag_138\n      swap1\n      tag_60\n      jump\t// in\n    tag_138:\n      dup1\n      iszero\n      tag_139\n      jumpi\n      dup1\n      0x1f\n      lt\n      tag_140\n      jumpi\n      0x0100\n      dup1\n      dup4\n      sload\n      div\n      mul\n      dup4\n      mstore\n      swap2\n      0x20\n      add\n      swap2\n      jump(tag_139)\n    tag_140:\n      dup3\n      add\n      swap2\n      swap1\n      0x00\n      mstore\n      keccak256(0x00, 0x20)\n      swap1\n    tag_141:\n      dup2\n      sload\n      dup2\n      mstore\n      swap1\n      0x01\n      add\n      swap1\n      0x20\n      add\n      dup1\n      dup4\n      gt\n      tag_141\n      jumpi\n      dup3\n      swap1\n      sub\n      0x1f\n      and\n      dup3\n      add\n      swap2\n    tag_139:\n      pop\n      pop\n      pop\n      pop\n      pop\n      dup2\n      mstore\n      0x20\n      add\n      swap1\n      0x01\n      add\n      swap1\n      jump(tag_134)\n    tag_135:\n      pop\n      pop\n      pop\n      pop\n      dup2\n      mstore\n      0x20\n      add\n      0x07\n      dup3\n      add\n      dup1\n      sload\n      tag_142\n      swap1\n      tag_60\n      jump\t// in\n    tag_142:\n      dup1\n      0x1f\n      add\n      0x20\n      dup1\n      swap2\n      div\n      mul\n      0x20\n      add\n      mload(0x40)\n      swap1\n      dup2\n      add\n      0x40\n      mstore\n      dup1\n      swap3\n      swap2\n      swap1\n      dup2\n      dup2\n      mstore\n      0x20\n      add\n      dup3\n      dup1\n      sload\n      tag_143\n      swap1\n      tag_60\n      jump\t// in\n    tag_143:\n      dup1\n      iszero\n      tag_144\n      jumpi\n      dup1\n      0x1f\n      lt\n      tag_145\n      jumpi\n      0x0100\n      dup1\n      dup4\n      sload\n      div\n      mul\n      dup4\n      mstore\n      swap2\n      0x20\n      add\n      swap2\n      jump(tag_144)\n    tag_145:\n      dup3\n      add\n      swap2\n      swap1\n      0x00\n      mstore\n      keccak256(0x00, 0x20)\n      swap1\n    tag_146:\n      dup2\n      sload\n      dup2\n      mstore\n      swap1\n      0x01\n      add\n      swap1\n      0x20\n      add\n      dup1\n      dup4\n      gt\n      tag_146\n      jumpi\n      dup3\n      swap1\n      sub\n      0x1f\n      and\n      dup3\n      add\n      swap2\n    tag_144:\n      pop\n      pop\n      pop\n      pop\n      pop\n      dup2\n      mstore\n      0x20\n      add\n      0x08\n      dup3\n      add\n      sload\n      dup2\n      mstore\n      pop\n      pop\n      swap1\n      pop\n        /* \"contracts/Traceability.sol\":4239:4243  data */\n      dup1\n        /* \"contracts/Traceability.sol\":4239:4251  data.user_id */\n      0x00\n      add\n      mload\n        /* \"contracts/Traceability.sol\":4265:4269  data */\n      dup2\n        /* \"contracts/Traceability.sol\":4265:4282  data.user_address */\n      0x20\n      add\n      mload\n        /* \"contracts/Traceability.sol\":4296:4300  data */\n      dup3\n        /* \"contracts/Traceability.sol\":4296:4311  data.product_id */\n      0x40\n      add\n      mload\n        /* \"contracts/Traceability.sol\":4325:4329  data */\n      dup4\n        /* \"contracts/Traceability.sol\":4325:4342  data.process_date */\n      0x60\n      add\n      mload\n        /* \"contracts/Traceability.sol\":4356:4360  data */\n      dup5\n        /* \"contracts/Traceability.sol\":4356:4374  data.location_name */\n      0x80\n      add\n      mload\n        /* \"contracts/Traceability.sol\":4388:4392  data */\n      dup6\n        /* \"contracts/Traceability.sol\":4388:4409  data.location_address */\n      0xa0\n      add\n      mload\n        /* \"contracts/Traceability.sol\":4423:4427  data */\n      dup7\n        /* \"contracts/Traceability.sol\":4423:4440  data.product_type */\n      0xe0\n      add\n      mload\n        /* \"contracts/Traceability.sol\":4454:4458  data */\n      dup8\n        /* \"contracts/Traceability.sol\":4454:4470  data.expiry_date */\n      0x0100\n      add\n      mload\n        /* \"contracts/Traceability.sol\":4218:4480  return (... */\n      swap9\n      pop\n      swap9\n      pop\n      swap9\n      pop\n      swap9\n      pop\n      swap9\n      pop\n      swap9\n      pop\n      swap9\n      pop\n      swap9\n      pop\n      pop\n        /* \"contracts/Traceability.sol\":3809:4487  function getTraceData(string memory _product_id) public view returns (... */\n      swap2\n      swap4\n      swap6\n      swap8\n      pop\n      swap2\n      swap4\n      swap6\n      swap8\n      jump\t// out\n        /* \"@openzeppelin/contracts/access/Ownable.sol\":2293:2394  function renounceOwnership() public virtual onlyOwner {... */\n    tag_38:\n        /* \"@openzeppelin/contracts/access/Ownable.sol\":1531:1544  _checkOwner() */\n      tag_148\n        /* \"@openzeppelin/contracts/access/Ownable.sol\":1531:1542  _checkOwner */\n      tag_53\n        /* \"@openzeppelin/contracts/access/Ownable.sol\":1531:1544  _checkOwner() */\n      jump\t// in\n    tag_148:\n        /* \"@openzeppelin/contracts/access/Ownable.sol\":2357:2387  _transferOwnership(address(0)) */\n      tag_150\n        /* \"@openzeppelin/contracts/access/Ownable.sol\":2384:2385  0 */\n      0x00\n        /* \"@openzeppelin/contracts/access/Ownable.sol\":2357:2375  _transferOwnership */\n      tag_151\n        /* \"@openzeppelin/contracts/access/Ownable.sol\":2357:2387  _transferOwnership(address(0)) */\n      jump\t// in\n    tag_150:\n        /* \"@openzeppelin/contracts/access/Ownable.sol\":2293:2394  function renounceOwnership() public virtual onlyOwner {... */\n      jump\t// out\n        /* \"@openzeppelin/contracts/access/Ownable.sol\":1638:1723  function owner() public view virtual returns (address) {... */\n    tag_40:\n        /* \"@openzeppelin/contracts/access/Ownable.sol\":1684:1691  address */\n      0x00\n        /* \"@openzeppelin/contracts/access/Ownable.sol\":1710:1716  _owner */\n      dup1\n      0x00\n      swap1\n      sload\n      swap1\n      0x0100\n      exp\n      swap1\n      div\n      0xffffffffffffffffffffffffffffffffffffffff\n      and\n        /* \"@openzeppelin/contracts/access/Ownable.sol\":1703:1716  return _owner */\n      swap1\n      pop\n        /* \"@openzeppelin/contracts/access/Ownable.sol\":1638:1723  function owner() public view virtual returns (address) {... */\n      swap1\n      jump\t// out\n        /* \"contracts/Traceability.sol\":706:751  mapping(address => string) public SubjectName */\n    tag_45:\n      mstore(0x20, 0x02)\n      dup1\n      0x00\n      mstore\n      keccak256(0x00, 0x40)\n      0x00\n      swap2\n      pop\n      swap1\n      pop\n      dup1\n      sload\n      tag_153\n      swap1\n      tag_60\n      jump\t// in\n    tag_153:\n      dup1\n      0x1f\n      add\n      0x20\n      dup1\n      swap2\n      div\n      mul\n      0x20\n      add\n      mload(0x40)\n      swap1\n      dup2\n      add\n      0x40\n      mstore\n      dup1\n      swap3\n      swap2\n      swap1\n      dup2\n      dup2\n      mstore\n      0x20\n      add\n      dup3\n      dup1\n      sload\n      tag_154\n      swap1\n      tag_60\n      jump\t// in\n    tag_154:\n      dup1\n      iszero\n      tag_155\n      jumpi\n      dup1\n      0x1f\n      lt\n      tag_156\n      jumpi\n      0x0100\n      dup1\n      dup4\n      sload\n      div\n      mul\n      dup4\n      mstore\n      swap2\n      0x20\n      add\n      swap2\n      jump(tag_155)\n    tag_156:\n      dup3\n      add\n      swap2\n      swap1\n      0x00\n      mstore\n      keccak256(0x00, 0x20)\n      swap1\n    tag_157:\n      dup2\n      sload\n      dup2\n      mstore\n      swap1\n      0x01\n      add\n      swap1\n      0x20\n      add\n      dup1\n      dup4\n      gt\n      tag_157\n      jumpi\n      dup3\n      swap1\n      sub\n      0x1f\n      and\n      dup3\n      add\n      swap2\n    tag_155:\n      pop\n      pop\n      pop\n      pop\n      pop\n      dup2\n      jump\t// out\n        /* \"@openzeppelin/contracts/access/Ownable.sol\":2543:2758  function transferOwnership(address newOwner) public virtual onlyOwner {... */\n    tag_50:\n        /* \"@openzeppelin/contracts/access/Ownable.sol\":1531:1544  _checkOwner() */\n      tag_159\n        /* \"@openzeppelin/contracts/access/Ownable.sol\":1531:1542  _checkOwner */\n      tag_53\n        /* \"@openzeppelin/contracts/access/Ownable.sol\":1531:1544  _checkOwner() */\n      jump\t// in\n    tag_159:\n        /* \"@openzeppelin/contracts/access/Ownable.sol\":2647:2648  0 */\n      0x00\n        /* \"@openzeppelin/contracts/access/Ownable.sol\":2627:2649  newOwner == address(0) */\n      0xffffffffffffffffffffffffffffffffffffffff\n      and\n        /* \"@openzeppelin/contracts/access/Ownable.sol\":2627:2635  newOwner */\n      dup2\n        /* \"@openzeppelin/contracts/access/Ownable.sol\":2627:2649  newOwner == address(0) */\n      0xffffffffffffffffffffffffffffffffffffffff\n      and\n      sub\n        /* \"@openzeppelin/contracts/access/Ownable.sol\":2623:2714  if (newOwner == address(0)) {... */\n      tag_161\n      jumpi\n        /* \"@openzeppelin/contracts/access/Ownable.sol\":2700:2701  0 */\n      0x00\n        /* \"@openzeppelin/contracts/access/Ownable.sol\":2672:2703  OwnableInvalidOwner(address(0)) */\n      mload(0x40)\n      0x1e4fbdf700000000000000000000000000000000000000000000000000000000\n      dup2\n      mstore\n      0x04\n      add\n      tag_162\n      swap2\n      swap1\n      tag_42\n      jump\t// in\n    tag_162:\n      mload(0x40)\n      dup1\n      swap2\n      sub\n      swap1\n      revert\n        /* \"@openzeppelin/contracts/access/Ownable.sol\":2623:2714  if (newOwner == address(0)) {... */\n    tag_161:\n        /* \"@openzeppelin/contracts/access/Ownable.sol\":2723:2751  _transferOwnership(newOwner) */\n      tag_163\n        /* \"@openzeppelin/contracts/access/Ownable.sol\":2742:2750  newOwner */\n      dup2\n        /* \"@openzeppelin/contracts/access/Ownable.sol\":2723:2741  _transferOwnership */\n      tag_151\n        /* \"@openzeppelin/contracts/access/Ownable.sol\":2723:2751  _transferOwnership(newOwner) */\n      jump\t// in\n    tag_163:\n        /* \"@openzeppelin/contracts/access/Ownable.sol\":2543:2758  function transferOwnership(address newOwner) public virtual onlyOwner {... */\n      pop\n      jump\t// out\n        /* \"@openzeppelin/contracts/access/Ownable.sol\":1796:1958  function _checkOwner() internal view virtual {... */\n    tag_53:\n        /* \"@openzeppelin/contracts/access/Ownable.sol\":1866:1878  _msgSender() */\n      tag_165\n        /* \"@openzeppelin/contracts/access/Ownable.sol\":1866:1876  _msgSender */\n      tag_166\n        /* \"@openzeppelin/contracts/access/Ownable.sol\":1866:1878  _msgSender() */\n      jump\t// in\n    tag_165:\n        /* \"@openzeppelin/contracts/access/Ownable.sol\":1855:1878  owner() != _msgSender() */\n      0xffffffffffffffffffffffffffffffffffffffff\n      and\n        /* \"@openzeppelin/contracts/access/Ownable.sol\":1855:1862  owner() */\n      tag_167\n        /* \"@openzeppelin/contracts/access/Ownable.sol\":1855:1860  owner */\n      tag_40\n        /* \"@openzeppelin/contracts/access/Ownable.sol\":1855:1862  owner() */\n      jump\t// in\n    tag_167:\n        /* \"@openzeppelin/contracts/access/Ownable.sol\":1855:1878  owner() != _msgSender() */\n      0xffffffffffffffffffffffffffffffffffffffff\n      and\n      eq\n        /* \"@openzeppelin/contracts/access/Ownable.sol\":1851:1952  if (owner() != _msgSender()) {... */\n      tag_168\n      jumpi\n        /* \"@openzeppelin/contracts/access/Ownable.sol\":1928:1940  _msgSender() */\n      tag_169\n        /* \"@openzeppelin/contracts/access/Ownable.sol\":1928:1938  _msgSender */\n      tag_166\n        /* \"@openzeppelin/contracts/access/Ownable.sol\":1928:1940  _msgSender() */\n      jump\t// in\n    tag_169:\n        /* \"@openzeppelin/contracts/access/Ownable.sol\":1901:1941  OwnableUnauthorizedAccount(_msgSender()) */\n      mload(0x40)\n      0x118cdaa700000000000000000000000000000000000000000000000000000000\n      dup2\n      mstore\n      0x04\n      add\n      tag_170\n      swap2\n      swap1\n      tag_42\n      jump\t// in\n    tag_170:\n      mload(0x40)\n      dup1\n      swap2\n      sub\n      swap1\n      revert\n        /* \"@openzeppelin/contracts/access/Ownable.sol\":1851:1952  if (owner() != _msgSender()) {... */\n    tag_168:\n        /* \"@openzeppelin/contracts/access/Ownable.sol\":1796:1958  function _checkOwner() internal view virtual {... */\n      jump\t// out\n        /* \"@openzeppelin/contracts/access/Ownable.sol\":2912:3099  function _transferOwnership(address newOwner) internal virtual {... */\n    tag_151:\n        /* \"@openzeppelin/contracts/access/Ownable.sol\":2985:3001  address oldOwner */\n      0x00\n        /* \"@openzeppelin/contracts/access/Ownable.sol\":3004:3010  _owner */\n      dup1\n      0x00\n      swap1\n      sload\n      swap1\n      0x0100\n      exp\n      swap1\n      div\n      0xffffffffffffffffffffffffffffffffffffffff\n      and\n        /* \"@openzeppelin/contracts/access/Ownable.sol\":2985:3010  address oldOwner = _owner */\n      swap1\n      pop\n        /* \"@openzeppelin/contracts/access/Ownable.sol\":3029:3037  newOwner */\n      dup2\n        /* \"@openzeppelin/contracts/access/Ownable.sol\":3020:3026  _owner */\n      0x00\n      dup1\n        /* \"@openzeppelin/contracts/access/Ownable.sol\":3020:3037  _owner = newOwner */\n      0x0100\n      exp\n      dup2\n      sload\n      dup2\n      0xffffffffffffffffffffffffffffffffffffffff\n      mul\n      not\n      and\n      swap1\n      dup4\n      0xffffffffffffffffffffffffffffffffffffffff\n      and\n      mul\n      or\n      swap1\n      sstore\n      pop\n        /* \"@openzeppelin/contracts/access/Ownable.sol\":3083:3091  newOwner */\n      dup2\n        /* \"@openzeppelin/contracts/access/Ownable.sol\":3052:3092  OwnershipTransferred(oldOwner, newOwner) */\n      0xffffffffffffffffffffffffffffffffffffffff\n      and\n        /* \"@openzeppelin/contracts/access/Ownable.sol\":3073:3081  oldOwner */\n      dup2\n        /* \"@openzeppelin/contracts/access/Ownable.sol\":3052:3092  OwnershipTransferred(oldOwner, newOwner) */\n      0xffffffffffffffffffffffffffffffffffffffff\n      and\n      0x8be0079c531659141344cd1fd0a4f28419497f9722a3daafe3b4186f6b6457e0\n      mload(0x40)\n      mload(0x40)\n      dup1\n      swap2\n      sub\n      swap1\n      log3\n        /* \"@openzeppelin/contracts/access/Ownable.sol\":2975:3099  {... */\n      pop\n        /* \"@openzeppelin/contracts/access/Ownable.sol\":2912:3099  function _transferOwnership(address newOwner) internal virtual {... */\n      pop\n      jump\t// out\n        /* \"@openzeppelin/contracts/utils/Context.sol\":656:752  function _msgSender() internal view virtual returns (address) {... */\n    tag_166:\n        /* \"@openzeppelin/contracts/utils/Context.sol\":709:716  address */\n      0x00\n        /* \"@openzeppelin/contracts/utils/Context.sol\":735:745  msg.sender */\n      caller\n        /* \"@openzeppelin/contracts/utils/Context.sol\":728:745  return msg.sender */\n      swap1\n      pop\n        /* \"@openzeppelin/contracts/utils/Context.sol\":656:752  function _msgSender() internal view virtual returns (address) {... */\n      swap1\n      jump\t// out\n    tag_103:\n      dup3\n      dup1\n      sload\n      dup3\n      dup3\n      sstore\n      swap1\n      0x00\n      mstore\n      keccak256(0x00, 0x20)\n      swap1\n      dup2\n      add\n      swap3\n      dup3\n      iszero\n      tag_173\n      jumpi\n      swap2\n      0x20\n      mul\n      dup3\n      add\n    tag_174:\n      dup3\n      dup2\n      gt\n      iszero\n      tag_175\n      jumpi\n      dup3\n      mload\n      dup3\n      swap1\n      dup2\n      tag_176\n      swap2\n      swap1\n      tag_56\n      jump\t// in\n    tag_176:\n      pop\n      swap2\n      0x20\n      add\n      swap2\n      swap1\n      0x01\n      add\n      swap1\n      jump(tag_174)\n    tag_175:\n    tag_173:\n      pop\n      swap1\n      pop\n      tag_177\n      swap2\n      swap1\n      tag_178\n      jump\t// in\n    tag_177:\n      pop\n      swap1\n      jump\t// out\n    tag_178:\n    tag_179:\n      dup1\n      dup3\n      gt\n      iszero\n      tag_180\n      jumpi\n      0x00\n      dup2\n      dup2\n      tag_181\n      swap2\n      swap1\n      tag_182\n      jump\t// in\n    tag_181:\n      pop\n      0x01\n      add\n      jump(tag_179)\n    tag_180:\n      pop\n      swap1\n      jump\t// out\n    tag_182:\n      pop\n      dup1\n      sload\n      tag_183\n      swap1\n      tag_60\n      jump\t// in\n    tag_183:\n      0x00\n      dup3\n      sstore\n      dup1\n      0x1f\n      lt\n      tag_185\n      jumpi\n      pop\n      jump(tag_184)\n    tag_185:\n      0x1f\n      add\n      0x20\n      swap1\n      div\n      swap1\n      0x00\n      mstore\n      keccak256(0x00, 0x20)\n      swap1\n      dup2\n      add\n      swap1\n      tag_186\n      swap2\n      swap1\n      tag_187\n      jump\t// in\n    tag_186:\n    tag_184:\n      pop\n      jump\t// out\n    tag_187:\n    tag_188:\n      dup1\n      dup3\n      gt\n      iszero\n      tag_189\n      jumpi\n      0x00\n      dup2\n      0x00\n      swap1\n      sstore\n      pop\n      0x01\n      add\n      jump(tag_188)\n    tag_189:\n      pop\n      swap1\n      jump\t// out\n        /* \"#utility.yul\":7:82   */\n    tag_190:\n        /* \"#utility.yul\":40:46   */\n      0x00\n        /* \"#utility.yul\":73:75   */\n      0x40\n        /* \"#utility.yul\":67:76   */\n      mload\n        /* \"#utility.yul\":57:76   */\n      swap1\n      pop\n        /* \"#utility.yul\":7:82   */\n      swap1\n      jump\t// out\n        /* \"#utility.yul\":88:205   */\n    tag_191:\n        /* \"#utility.yul\":197:198   */\n      0x00\n        /* \"#utility.yul\":194:195   */\n      dup1\n        /* \"#utility.yul\":187:199   */\n      revert\n        /* \"#utility.yul\":211:328   */\n    tag_192:\n        /* \"#utility.yul\":320:321   */\n      0x00\n        /* \"#utility.yul\":317:318   */\n      dup1\n        /* \"#utility.yul\":310:322   */\n      revert\n        /* \"#utility.yul\":334:460   */\n    tag_193:\n        /* \"#utility.yul\":371:378   */\n      0x00\n        /* \"#utility.yul\":411:453   */\n      0xffffffffffffffffffffffffffffffffffffffff\n        /* \"#utility.yul\":404:409   */\n      dup3\n        /* \"#utility.yul\":400:454   */\n      and\n        /* \"#utility.yul\":389:454   */\n      swap1\n      pop\n        /* \"#utility.yul\":334:460   */\n      swap2\n      swap1\n      pop\n      jump\t// out\n        /* \"#utility.yul\":466:562   */\n    tag_194:\n        /* \"#utility.yul\":503:510   */\n      0x00\n        /* \"#utility.yul\":532:556   */\n      tag_247\n        /* \"#utility.yul\":550:555   */\n      dup3\n        /* \"#utility.yul\":532:556   */\n      tag_193\n      jump\t// in\n    tag_247:\n        /* \"#utility.yul\":521:556   */\n      swap1\n      pop\n        /* \"#utility.yul\":466:562   */\n      swap2\n      swap1\n      pop\n      jump\t// out\n        /* \"#utility.yul\":568:690   */\n    tag_195:\n        /* \"#utility.yul\":641:665   */\n      tag_249\n        /* \"#utility.yul\":659:664   */\n      dup2\n        /* \"#utility.yul\":641:665   */\n      tag_194\n      jump\t// in\n    tag_249:\n        /* \"#utility.yul\":634:639   */\n      dup2\n        /* \"#utility.yul\":631:666   */\n      eq\n        /* \"#utility.yul\":621:684   */\n      tag_250\n      jumpi\n        /* \"#utility.yul\":680:681   */\n      0x00\n        /* \"#utility.yul\":677:678   */\n      dup1\n        /* \"#utility.yul\":670:682   */\n      revert\n        /* \"#utility.yul\":621:684   */\n    tag_250:\n        /* \"#utility.yul\":568:690   */\n      pop\n      jump\t// out\n        /* \"#utility.yul\":696:835   */\n    tag_196:\n        /* \"#utility.yul\":742:747   */\n      0x00\n        /* \"#utility.yul\":780:786   */\n      dup2\n        /* \"#utility.yul\":767:787   */\n      calldataload\n        /* \"#utility.yul\":758:787   */\n      swap1\n      pop\n        /* \"#utility.yul\":796:829   */\n      tag_252\n        /* \"#utility.yul\":823:828   */\n      dup2\n        /* \"#utility.yul\":796:829   */\n      tag_195\n      jump\t// in\n    tag_252:\n        /* \"#utility.yul\":696:835   */\n      swap3\n      swap2\n      pop\n      pop\n      jump\t// out\n        /* \"#utility.yul\":841:918   */\n    tag_197:\n        /* \"#utility.yul\":878:885   */\n      0x00\n        /* \"#utility.yul\":907:912   */\n      dup2\n        /* \"#utility.yul\":896:912   */\n      swap1\n      pop\n        /* \"#utility.yul\":841:918   */\n      swap2\n      swap1\n      pop\n      jump\t// out\n        /* \"#utility.yul\":924:1046   */\n    tag_198:\n        /* \"#utility.yul\":997:1021   */\n      tag_255\n        /* \"#utility.yul\":1015:1020   */\n      dup2\n        /* \"#utility.yul\":997:1021   */\n      tag_197\n      jump\t// in\n    tag_255:\n        /* \"#utility.yul\":990:995   */\n      dup2\n        /* \"#utility.yul\":987:1022   */\n      eq\n        /* \"#utility.yul\":977:1040   */\n      tag_256\n      jumpi\n        /* \"#utility.yul\":1036:1037   */\n      0x00\n        /* \"#utility.yul\":1033:1034   */\n      dup1\n        /* \"#utility.yul\":1026:1038   */\n      revert\n        /* \"#utility.yul\":977:1040   */\n    tag_256:\n        /* \"#utility.yul\":924:1046   */\n      pop\n      jump\t// out\n        /* \"#utility.yul\":1052:1191   */\n    tag_199:\n        /* \"#utility.yul\":1098:1103   */\n      0x00\n        /* \"#utility.yul\":1136:1142   */\n      dup2\n        /* \"#utility.yul\":1123:1143   */\n      calldataload\n        /* \"#utility.yul\":1114:1143   */\n      swap1\n      pop\n        /* \"#utility.yul\":1152:1185   */\n      tag_258\n        /* \"#utility.yul\":1179:1184   */\n      dup2\n        /* \"#utility.yul\":1152:1185   */\n      tag_198\n      jump\t// in\n    tag_258:\n        /* \"#utility.yul\":1052:1191   */\n      swap3\n      swap2\n      pop\n      pop\n      jump\t// out\n        /* \"#utility.yul\":1197:1314   */\n    tag_200:\n        /* \"#utility.yul\":1306:1307   */\n      0x00\n        /* \"#utility.yul\":1303:1304   */\n      dup1\n        /* \"#utility.yul\":1296:1308   */\n      revert\n        /* \"#utility.yul\":1320:1437   */\n    tag_201:\n        /* \"#utility.yul\":1429:1430   */\n      0x00\n        /* \"#utility.yul\":1426:1427   */\n      dup1\n        /* \"#utility.yul\":1419:1431   */\n      revert\n        /* \"#utility.yul\":1443:1545   */\n    tag_202:\n        /* \"#utility.yul\":1484:1490   */\n      0x00\n        /* \"#utility.yul\":1535:1537   */\n      0x1f\n        /* \"#utility.yul\":1531:1538   */\n      not\n        /* \"#utility.yul\":1526:1528   */\n      0x1f\n        /* \"#utility.yul\":1519:1524   */\n      dup4\n        /* \"#utility.yul\":1515:1529   */\n      add\n        /* \"#utility.yul\":1511:1539   */\n      and\n        /* \"#utility.yul\":1501:1539   */\n      swap1\n      pop\n        /* \"#utility.yul\":1443:1545   */\n      swap2\n      swap1\n      pop\n      jump\t// out\n        /* \"#utility.yul\":1551:1731   */\n    tag_203:\n        /* \"#utility.yul\":1599:1676   */\n      0x4e487b7100000000000000000000000000000000000000000000000000000000\n        /* \"#utility.yul\":1596:1597   */\n      0x00\n        /* \"#utility.yul\":1589:1677   */\n      mstore\n        /* \"#utility.yul\":1696:1700   */\n      0x41\n        /* \"#utility.yul\":1693:1694   */\n      0x04\n        /* \"#utility.yul\":1686:1701   */\n      mstore\n        /* \"#utility.yul\":1720:1724   */\n      0x24\n        /* \"#utility.yul\":1717:1718   */\n      0x00\n        /* \"#utility.yul\":1710:1725   */\n      revert\n        /* \"#utility.yul\":1737:2018   */\n    tag_204:\n        /* \"#utility.yul\":1820:1847   */\n      tag_264\n        /* \"#utility.yul\":1842:1846   */\n      dup3\n        /* \"#utility.yul\":1820:1847   */\n      tag_202\n      jump\t// in\n    tag_264:\n        /* \"#utility.yul\":1812:1818   */\n      dup2\n        /* \"#utility.yul\":1808:1848   */\n      add\n        /* \"#utility.yul\":1950:1956   */\n      dup2\n        /* \"#utility.yul\":1938:1948   */\n      dup2\n        /* \"#utility.yul\":1935:1957   */\n      lt\n        /* \"#utility.yul\":1914:1932   */\n      0xffffffffffffffff\n        /* \"#utility.yul\":1902:1912   */\n      dup3\n        /* \"#utility.yul\":1899:1933   */\n      gt\n        /* \"#utility.yul\":1896:1958   */\n      or\n        /* \"#utility.yul\":1893:1981   */\n      iszero\n      tag_265\n      jumpi\n        /* \"#utility.yul\":1961:1979   */\n      tag_266\n      tag_203\n      jump\t// in\n    tag_266:\n        /* \"#utility.yul\":1893:1981   */\n    tag_265:\n        /* \"#utility.yul\":2001:2011   */\n      dup1\n        /* \"#utility.yul\":1997:1999   */\n      0x40\n        /* \"#utility.yul\":1990:2012   */\n      mstore\n        /* \"#utility.yul\":1780:2018   */\n      pop\n        /* \"#utility.yul\":1737:2018   */\n      pop\n      pop\n      jump\t// out\n        /* \"#utility.yul\":2024:2153   */\n    tag_205:\n        /* \"#utility.yul\":2058:2064   */\n      0x00\n        /* \"#utility.yul\":2085:2105   */\n      tag_268\n      tag_190\n      jump\t// in\n    tag_268:\n        /* \"#utility.yul\":2075:2105   */\n      swap1\n      pop\n        /* \"#utility.yul\":2114:2147   */\n      tag_269\n        /* \"#utility.yul\":2142:2146   */\n      dup3\n        /* \"#utility.yul\":2134:2140   */\n      dup3\n        /* \"#utility.yul\":2114:2147   */\n      tag_204\n      jump\t// in\n    tag_269:\n        /* \"#utility.yul\":2024:2153   */\n      swap2\n      swap1\n      pop\n      jump\t// out\n        /* \"#utility.yul\":2159:2467   */\n    tag_206:\n        /* \"#utility.yul\":2221:2225   */\n      0x00\n        /* \"#utility.yul\":2311:2329   */\n      0xffffffffffffffff\n        /* \"#utility.yul\":2303:2309   */\n      dup3\n        /* \"#utility.yul\":2300:2330   */\n      gt\n        /* \"#utility.yul\":2297:2353   */\n      iszero\n      tag_271\n      jumpi\n        /* \"#utility.yul\":2333:2351   */\n      tag_272\n      tag_203\n      jump\t// in\n    tag_272:\n        /* \"#utility.yul\":2297:2353   */\n    tag_271:\n        /* \"#utility.yul\":2371:2400   */\n      tag_273\n        /* \"#utility.yul\":2393:2399   */\n      dup3\n        /* \"#utility.yul\":2371:2400   */\n      tag_202\n      jump\t// in\n    tag_273:\n        /* \"#utility.yul\":2363:2400   */\n      swap1\n      pop\n        /* \"#utility.yul\":2455:2459   */\n      0x20\n        /* \"#utility.yul\":2449:2453   */\n      dup2\n        /* \"#utility.yul\":2445:2460   */\n      add\n        /* \"#utility.yul\":2437:2460   */\n      swap1\n      pop\n        /* \"#utility.yul\":2159:2467   */\n      swap2\n      swap1\n      pop\n      jump\t// out\n        /* \"#utility.yul\":2473:2619   */\n    tag_207:\n        /* \"#utility.yul\":2570:2576   */\n      dup3\n        /* \"#utility.yul\":2565:2568   */\n      dup2\n        /* \"#utility.yul\":2560:2563   */\n      dup4\n        /* \"#utility.yul\":2547:2577   */\n      calldatacopy\n        /* \"#utility.yul\":2611:2612   */\n      0x00\n        /* \"#utility.yul\":2602:2608   */\n      dup4\n        /* \"#utility.yul\":2597:2600   */\n      dup4\n        /* \"#utility.yul\":2593:2609   */\n      add\n        /* \"#utility.yul\":2586:2613   */\n      mstore\n        /* \"#utility.yul\":2473:2619   */\n      pop\n      pop\n      pop\n      jump\t// out\n        /* \"#utility.yul\":2625:3050   */\n    tag_208:\n        /* \"#utility.yul\":2703:2708   */\n      0x00\n        /* \"#utility.yul\":2728:2794   */\n      tag_276\n        /* \"#utility.yul\":2744:2793   */\n      tag_277\n        /* \"#utility.yul\":2786:2792   */\n      dup5\n        /* \"#utility.yul\":2744:2793   */\n      tag_206\n      jump\t// in\n    tag_277:\n        /* \"#utility.yul\":2728:2794   */\n      tag_205\n      jump\t// in\n    tag_276:\n        /* \"#utility.yul\":2719:2794   */\n      swap1\n      pop\n        /* \"#utility.yul\":2817:2823   */\n      dup3\n        /* \"#utility.yul\":2810:2815   */\n      dup2\n        /* \"#utility.yul\":2803:2824   */\n      mstore\n        /* \"#utility.yul\":2855:2859   */\n      0x20\n        /* \"#utility.yul\":2848:2853   */\n      dup2\n        /* \"#utility.yul\":2844:2860   */\n      add\n        /* \"#utility.yul\":2893:2896   */\n      dup5\n        /* \"#utility.yul\":2884:2890   */\n      dup5\n        /* \"#utility.yul\":2879:2882   */\n      dup5\n        /* \"#utility.yul\":2875:2891   */\n      add\n        /* \"#utility.yul\":2872:2897   */\n      gt\n        /* \"#utility.yul\":2869:2981   */\n      iszero\n      tag_278\n      jumpi\n        /* \"#utility.yul\":2900:2979   */\n      tag_279\n      tag_201\n      jump\t// in\n    tag_279:\n        /* \"#utility.yul\":2869:2981   */\n    tag_278:\n        /* \"#utility.yul\":2990:3044   */\n      tag_280\n        /* \"#utility.yul\":3037:3043   */\n      dup5\n        /* \"#utility.yul\":3032:3035   */\n      dup3\n        /* \"#utility.yul\":3027:3030   */\n      dup6\n        /* \"#utility.yul\":2990:3044   */\n      tag_207\n      jump\t// in\n    tag_280:\n        /* \"#utility.yul\":2709:3050   */\n      pop\n        /* \"#utility.yul\":2625:3050   */\n      swap4\n      swap3\n      pop\n      pop\n      pop\n      jump\t// out\n        /* \"#utility.yul\":3070:3410   */\n    tag_209:\n        /* \"#utility.yul\":3126:3131   */\n      0x00\n        /* \"#utility.yul\":3175:3178   */\n      dup3\n        /* \"#utility.yul\":3168:3172   */\n      0x1f\n        /* \"#utility.yul\":3160:3166   */\n      dup4\n        /* \"#utility.yul\":3156:3173   */\n      add\n        /* \"#utility.yul\":3152:3179   */\n      slt\n        /* \"#utility.yul\":3142:3264   */\n      tag_282\n      jumpi\n        /* \"#utility.yul\":3183:3262   */\n      tag_283\n      tag_200\n      jump\t// in\n    tag_283:\n        /* \"#utility.yul\":3142:3264   */\n    tag_282:\n        /* \"#utility.yul\":3300:3306   */\n      dup2\n        /* \"#utility.yul\":3287:3307   */\n      calldataload\n        /* \"#utility.yul\":3325:3404   */\n      tag_284\n        /* \"#utility.yul\":3400:3403   */\n      dup5\n        /* \"#utility.yul\":3392:3398   */\n      dup3\n        /* \"#utility.yul\":3385:3389   */\n      0x20\n        /* \"#utility.yul\":3377:3383   */\n      dup7\n        /* \"#utility.yul\":3373:3390   */\n      add\n        /* \"#utility.yul\":3325:3404   */\n      tag_208\n      jump\t// in\n    tag_284:\n        /* \"#utility.yul\":3316:3404   */\n      swap2\n      pop\n        /* \"#utility.yul\":3132:3410   */\n      pop\n        /* \"#utility.yul\":3070:3410   */\n      swap3\n      swap2\n      pop\n      pop\n      jump\t// out\n        /* \"#utility.yul\":3416:4215   */\n    tag_15:\n        /* \"#utility.yul\":3503:3509   */\n      0x00\n        /* \"#utility.yul\":3511:3517   */\n      dup1\n        /* \"#utility.yul\":3519:3525   */\n      0x00\n        /* \"#utility.yul\":3568:3570   */\n      0x60\n        /* \"#utility.yul\":3556:3565   */\n      dup5\n        /* \"#utility.yul\":3547:3554   */\n      dup7\n        /* \"#utility.yul\":3543:3566   */\n      sub\n        /* \"#utility.yul\":3539:3571   */\n      slt\n        /* \"#utility.yul\":3536:3655   */\n      iszero\n      tag_286\n      jumpi\n        /* \"#utility.yul\":3574:3653   */\n      tag_287\n      tag_191\n      jump\t// in\n    tag_287:\n        /* \"#utility.yul\":3536:3655   */\n    tag_286:\n        /* \"#utility.yul\":3694:3695   */\n      0x00\n        /* \"#utility.yul\":3719:3772   */\n      tag_288\n        /* \"#utility.yul\":3764:3771   */\n      dup7\n        /* \"#utility.yul\":3755:3761   */\n      dup3\n        /* \"#utility.yul\":3744:3753   */\n      dup8\n        /* \"#utility.yul\":3740:3762   */\n      add\n        /* \"#utility.yul\":3719:3772   */\n      tag_196\n      jump\t// in\n    tag_288:\n        /* \"#utility.yul\":3709:3772   */\n      swap4\n      pop\n        /* \"#utility.yul\":3665:3782   */\n      pop\n        /* \"#utility.yul\":3821:3823   */\n      0x20\n        /* \"#utility.yul\":3847:3900   */\n      tag_289\n        /* \"#utility.yul\":3892:3899   */\n      dup7\n        /* \"#utility.yul\":3883:3889   */\n      dup3\n        /* \"#utility.yul\":3872:3881   */\n      dup8\n        /* \"#utility.yul\":3868:3890   */\n      add\n        /* \"#utility.yul\":3847:3900   */\n      tag_199\n      jump\t// in\n    tag_289:\n        /* \"#utility.yul\":3837:3900   */\n      swap3\n      pop\n        /* \"#utility.yul\":3792:3910   */\n      pop\n        /* \"#utility.yul\":3977:3979   */\n      0x40\n        /* \"#utility.yul\":3966:3975   */\n      dup5\n        /* \"#utility.yul\":3962:3980   */\n      add\n        /* \"#utility.yul\":3949:3981   */\n      calldataload\n        /* \"#utility.yul\":4008:4026   */\n      0xffffffffffffffff\n        /* \"#utility.yul\":4000:4006   */\n      dup2\n        /* \"#utility.yul\":3997:4027   */\n      gt\n        /* \"#utility.yul\":3994:4111   */\n      iszero\n      tag_290\n      jumpi\n        /* \"#utility.yul\":4030:4109   */\n      tag_291\n      tag_192\n      jump\t// in\n    tag_291:\n        /* \"#utility.yul\":3994:4111   */\n    tag_290:\n        /* \"#utility.yul\":4135:4198   */\n      tag_292\n        /* \"#utility.yul\":4190:4197   */\n      dup7\n        /* \"#utility.yul\":4181:4187   */\n      dup3\n        /* \"#utility.yul\":4170:4179   */\n      dup8\n        /* \"#utility.yul\":4166:4188   */\n      add\n        /* \"#utility.yul\":4135:4198   */\n      tag_209\n      jump\t// in\n    tag_292:\n        /* \"#utility.yul\":4125:4198   */\n      swap2\n      pop\n        /* \"#utility.yul\":3920:4208   */\n      pop\n        /* \"#utility.yul\":3416:4215   */\n      swap3\n      pop\n      swap3\n      pop\n      swap3\n      jump\t// out\n        /* \"#utility.yul\":4221:4730   */\n    tag_19:\n        /* \"#utility.yul\":4290:4296   */\n      0x00\n        /* \"#utility.yul\":4339:4341   */\n      0x20\n        /* \"#utility.yul\":4327:4336   */\n      dup3\n        /* \"#utility.yul\":4318:4325   */\n      dup5\n        /* \"#utility.yul\":4314:4337   */\n      sub\n        /* \"#utility.yul\":4310:4342   */\n      slt\n        /* \"#utility.yul\":4307:4426   */\n      iszero\n      tag_294\n      jumpi\n        /* \"#utility.yul\":4345:4424   */\n      tag_295\n      tag_191\n      jump\t// in\n    tag_295:\n        /* \"#utility.yul\":4307:4426   */\n    tag_294:\n        /* \"#utility.yul\":4493:4494   */\n      0x00\n        /* \"#utility.yul\":4482:4491   */\n      dup3\n        /* \"#utility.yul\":4478:4495   */\n      add\n        /* \"#utility.yul\":4465:4496   */\n      calldataload\n        /* \"#utility.yul\":4523:4541   */\n      0xffffffffffffffff\n        /* \"#utility.yul\":4515:4521   */\n      dup2\n        /* \"#utility.yul\":4512:4542   */\n      gt\n        /* \"#utility.yul\":4509:4626   */\n      iszero\n      tag_296\n      jumpi\n        /* \"#utility.yul\":4545:4624   */\n      tag_297\n      tag_192\n      jump\t// in\n    tag_297:\n        /* \"#utility.yul\":4509:4626   */\n    tag_296:\n        /* \"#utility.yul\":4650:4713   */\n      tag_298\n        /* \"#utility.yul\":4705:4712   */\n      dup5\n        /* \"#utility.yul\":4696:4702   */\n      dup3\n        /* \"#utility.yul\":4685:4694   */\n      dup6\n        /* \"#utility.yul\":4681:4703   */\n      add\n        /* \"#utility.yul\":4650:4713   */\n      tag_209\n      jump\t// in\n    tag_298:\n        /* \"#utility.yul\":4640:4713   */\n      swap2\n      pop\n        /* \"#utility.yul\":4436:4723   */\n      pop\n        /* \"#utility.yul\":4221:4730   */\n      swap3\n      swap2\n      pop\n      pop\n      jump\t// out\n        /* \"#utility.yul\":4736:4835   */\n    tag_210:\n        /* \"#utility.yul\":4788:4794   */\n      0x00\n        /* \"#utility.yul\":4822:4827   */\n      dup2\n        /* \"#utility.yul\":4816:4828   */\n      mload\n        /* \"#utility.yul\":4806:4828   */\n      swap1\n      pop\n        /* \"#utility.yul\":4736:4835   */\n      swap2\n      swap1\n      pop\n      jump\t// out\n        /* \"#utility.yul\":4841:5010   */\n    tag_211:\n        /* \"#utility.yul\":4925:4936   */\n      0x00\n        /* \"#utility.yul\":4959:4965   */\n      dup3\n        /* \"#utility.yul\":4954:4957   */\n      dup3\n        /* \"#utility.yul\":4947:4966   */\n      mstore\n        /* \"#utility.yul\":4999:5003   */\n      0x20\n        /* \"#utility.yul\":4994:4997   */\n      dup3\n        /* \"#utility.yul\":4990:5004   */\n      add\n        /* \"#utility.yul\":4975:5004   */\n      swap1\n      pop\n        /* \"#utility.yul\":4841:5010   */\n      swap3\n      swap2\n      pop\n      pop\n      jump\t// out\n        /* \"#utility.yul\":5016:5262   */\n    tag_212:\n        /* \"#utility.yul\":5097:5098   */\n      0x00\n        /* \"#utility.yul\":5107:5220   */\n    tag_302:\n        /* \"#utility.yul\":5121:5127   */\n      dup4\n        /* \"#utility.yul\":5118:5119   */\n      dup2\n        /* \"#utility.yul\":5115:5128   */\n      lt\n        /* \"#utility.yul\":5107:5220   */\n      iszero\n      tag_304\n      jumpi\n        /* \"#utility.yul\":5206:5207   */\n      dup1\n        /* \"#utility.yul\":5201:5204   */\n      dup3\n        /* \"#utility.yul\":5197:5208   */\n      add\n        /* \"#utility.yul\":5191:5209   */\n      mload\n        /* \"#utility.yul\":5187:5188   */\n      dup2\n        /* \"#utility.yul\":5182:5185   */\n      dup5\n        /* \"#utility.yul\":5178:5189   */\n      add\n        /* \"#utility.yul\":5171:5210   */\n      mstore\n        /* \"#utility.yul\":5143:5145   */\n      0x20\n        /* \"#utility.yul\":5140:5141   */\n      dup2\n        /* \"#utility.yul\":5136:5146   */\n      add\n        /* \"#utility.yul\":5131:5146   */\n      swap1\n      pop\n        /* \"#utility.yul\":5107:5220   */\n      jump(tag_302)\n    tag_304:\n        /* \"#utility.yul\":5254:5255   */\n      0x00\n        /* \"#utility.yul\":5245:5251   */\n      dup5\n        /* \"#utility.yul\":5240:5243   */\n      dup5\n        /* \"#utility.yul\":5236:5252   */\n      add\n        /* \"#utility.yul\":5229:5256   */\n      mstore\n        /* \"#utility.yul\":5078:5262   */\n      pop\n        /* \"#utility.yul\":5016:5262   */\n      pop\n      pop\n      pop\n      jump\t// out\n        /* \"#utility.yul\":5268:5645   */\n    tag_213:\n        /* \"#utility.yul\":5356:5359   */\n      0x00\n        /* \"#utility.yul\":5384:5423   */\n      tag_306\n        /* \"#utility.yul\":5417:5422   */\n      dup3\n        /* \"#utility.yul\":5384:5423   */\n      tag_210\n      jump\t// in\n    tag_306:\n        /* \"#utility.yul\":5439:5510   */\n      tag_307\n        /* \"#utility.yul\":5503:5509   */\n      dup2\n        /* \"#utility.yul\":5498:5501   */\n      dup6\n        /* \"#utility.yul\":5439:5510   */\n      tag_211\n      jump\t// in\n    tag_307:\n        /* \"#utility.yul\":5432:5510   */\n      swap4\n      pop\n        /* \"#utility.yul\":5519:5584   */\n      tag_308\n        /* \"#utility.yul\":5577:5583   */\n      dup2\n        /* \"#utility.yul\":5572:5575   */\n      dup6\n        /* \"#utility.yul\":5565:5569   */\n      0x20\n        /* \"#utility.yul\":5558:5563   */\n      dup7\n        /* \"#utility.yul\":5554:5570   */\n      add\n        /* \"#utility.yul\":5519:5584   */\n      tag_212\n      jump\t// in\n    tag_308:\n        /* \"#utility.yul\":5609:5638   */\n      tag_309\n        /* \"#utility.yul\":5631:5637   */\n      dup2\n        /* \"#utility.yul\":5609:5638   */\n      tag_202\n      jump\t// in\n    tag_309:\n        /* \"#utility.yul\":5604:5607   */\n      dup5\n        /* \"#utility.yul\":5600:5639   */\n      add\n        /* \"#utility.yul\":5593:5639   */\n      swap2\n      pop\n        /* \"#utility.yul\":5360:5645   */\n      pop\n        /* \"#utility.yul\":5268:5645   */\n      swap3\n      swap2\n      pop\n      pop\n      jump\t// out\n        /* \"#utility.yul\":5651:5769   */\n    tag_214:\n        /* \"#utility.yul\":5738:5762   */\n      tag_311\n        /* \"#utility.yul\":5756:5761   */\n      dup2\n        /* \"#utility.yul\":5738:5762   */\n      tag_194\n      jump\t// in\n    tag_311:\n        /* \"#utility.yul\":5733:5736   */\n      dup3\n        /* \"#utility.yul\":5726:5763   */\n      mstore\n        /* \"#utility.yul\":5651:5769   */\n      pop\n      pop\n      jump\t// out\n        /* \"#utility.yul\":5775:5893   */\n    tag_215:\n        /* \"#utility.yul\":5862:5886   */\n      tag_313\n        /* \"#utility.yul\":5880:5885   */\n      dup2\n        /* \"#utility.yul\":5862:5886   */\n      tag_197\n      jump\t// in\n    tag_313:\n        /* \"#utility.yul\":5857:5860   */\n      dup3\n        /* \"#utility.yul\":5850:5887   */\n      mstore\n        /* \"#utility.yul\":5775:5893   */\n      pop\n      pop\n      jump\t// out\n        /* \"#utility.yul\":5899:7351   */\n    tag_22:\n        /* \"#utility.yul\":6288:6292   */\n      0x00\n        /* \"#utility.yul\":6326:6329   */\n      0x0100\n        /* \"#utility.yul\":6315:6324   */\n      dup3\n        /* \"#utility.yul\":6311:6330   */\n      add\n        /* \"#utility.yul\":6303:6330   */\n      swap1\n      pop\n        /* \"#utility.yul\":6376:6385   */\n      dup2\n        /* \"#utility.yul\":6370:6374   */\n      dup2\n        /* \"#utility.yul\":6366:6386   */\n      sub\n        /* \"#utility.yul\":6362:6363   */\n      0x00\n        /* \"#utility.yul\":6351:6360   */\n      dup4\n        /* \"#utility.yul\":6347:6364   */\n      add\n        /* \"#utility.yul\":6340:6387   */\n      mstore\n        /* \"#utility.yul\":6404:6482   */\n      tag_315\n        /* \"#utility.yul\":6477:6481   */\n      dup2\n        /* \"#utility.yul\":6468:6474   */\n      dup12\n        /* \"#utility.yul\":6404:6482   */\n      tag_213\n      jump\t// in\n    tag_315:\n        /* \"#utility.yul\":6396:6482   */\n      swap1\n      pop\n        /* \"#utility.yul\":6492:6564   */\n      tag_316\n        /* \"#utility.yul\":6560:6562   */\n      0x20\n        /* \"#utility.yul\":6549:6558   */\n      dup4\n        /* \"#utility.yul\":6545:6563   */\n      add\n        /* \"#utility.yul\":6536:6542   */\n      dup11\n        /* \"#utility.yul\":6492:6564   */\n      tag_214\n      jump\t// in\n    tag_316:\n        /* \"#utility.yul\":6611:6620   */\n      dup2\n        /* \"#utility.yul\":6605:6609   */\n      dup2\n        /* \"#utility.yul\":6601:6621   */\n      sub\n        /* \"#utility.yul\":6596:6598   */\n      0x40\n        /* \"#utility.yul\":6585:6594   */\n      dup4\n        /* \"#utility.yul\":6581:6599   */\n      add\n        /* \"#utility.yul\":6574:6622   */\n      mstore\n        /* \"#utility.yul\":6639:6717   */\n      tag_317\n        /* \"#utility.yul\":6712:6716   */\n      dup2\n        /* \"#utility.yul\":6703:6709   */\n      dup10\n        /* \"#utility.yul\":6639:6717   */\n      tag_213\n      jump\t// in\n    tag_317:\n        /* \"#utility.yul\":6631:6717   */\n      swap1\n      pop\n        /* \"#utility.yul\":6727:6799   */\n      tag_318\n        /* \"#utility.yul\":6795:6797   */\n      0x60\n        /* \"#utility.yul\":6784:6793   */\n      dup4\n        /* \"#utility.yul\":6780:6798   */\n      add\n        /* \"#utility.yul\":6771:6777   */\n      dup9\n        /* \"#utility.yul\":6727:6799   */\n      tag_215\n      jump\t// in\n    tag_318:\n        /* \"#utility.yul\":6847:6856   */\n      dup2\n        /* \"#utility.yul\":6841:6845   */\n      dup2\n        /* \"#utility.yul\":6837:6857   */\n      sub\n        /* \"#utility.yul\":6831:6834   */\n      0x80\n        /* \"#utility.yul\":6820:6829   */\n      dup4\n        /* \"#utility.yul\":6816:6835   */\n      add\n        /* \"#utility.yul\":6809:6858   */\n      mstore\n        /* \"#utility.yul\":6875:6953   */\n      tag_319\n        /* \"#utility.yul\":6948:6952   */\n      dup2\n        /* \"#utility.yul\":6939:6945   */\n      dup8\n        /* \"#utility.yul\":6875:6953   */\n      tag_213\n      jump\t// in\n    tag_319:\n        /* \"#utility.yul\":6867:6953   */\n      swap1\n      pop\n        /* \"#utility.yul\":7001:7010   */\n      dup2\n        /* \"#utility.yul\":6995:6999   */\n      dup2\n        /* \"#utility.yul\":6991:7011   */\n      sub\n        /* \"#utility.yul\":6985:6988   */\n      0xa0\n        /* \"#utility.yul\":6974:6983   */\n      dup4\n        /* \"#utility.yul\":6970:6989   */\n      add\n        /* \"#utility.yul\":6963:7012   */\n      mstore\n        /* \"#utility.yul\":7029:7107   */\n      tag_320\n        /* \"#utility.yul\":7102:7106   */\n      dup2\n        /* \"#utility.yul\":7093:7099   */\n      dup7\n        /* \"#utility.yul\":7029:7107   */\n      tag_213\n      jump\t// in\n    tag_320:\n        /* \"#utility.yul\":7021:7107   */\n      swap1\n      pop\n        /* \"#utility.yul\":7155:7164   */\n      dup2\n        /* \"#utility.yul\":7149:7153   */\n      dup2\n        /* \"#utility.yul\":7145:7165   */\n      sub\n        /* \"#utility.yul\":7139:7142   */\n      0xc0\n        /* \"#utility.yul\":7128:7137   */\n      dup4\n        /* \"#utility.yul\":7124:7143   */\n      add\n        /* \"#utility.yul\":7117:7166   */\n      mstore\n        /* \"#utility.yul\":7183:7261   */\n      tag_321\n        /* \"#utility.yul\":7256:7260   */\n      dup2\n        /* \"#utility.yul\":7247:7253   */\n      dup6\n        /* \"#utility.yul\":7183:7261   */\n      tag_213\n      jump\t// in\n    tag_321:\n        /* \"#utility.yul\":7175:7261   */\n      swap1\n      pop\n        /* \"#utility.yul\":7271:7344   */\n      tag_322\n        /* \"#utility.yul\":7339:7342   */\n      0xe0\n        /* \"#utility.yul\":7328:7337   */\n      dup4\n        /* \"#utility.yul\":7324:7343   */\n      add\n        /* \"#utility.yul\":7315:7321   */\n      dup5\n        /* \"#utility.yul\":7271:7344   */\n      tag_215\n      jump\t// in\n    tag_322:\n        /* \"#utility.yul\":5899:7351   */\n      swap10\n      swap9\n      pop\n      pop\n      pop\n      pop\n      pop\n      pop\n      pop\n      pop\n      pop\n      jump\t// out\n        /* \"#utility.yul\":7357:7678   */\n    tag_216:\n        /* \"#utility.yul\":7444:7448   */\n      0x00\n        /* \"#utility.yul\":7534:7552   */\n      0xffffffffffffffff\n        /* \"#utility.yul\":7526:7532   */\n      dup3\n        /* \"#utility.yul\":7523:7553   */\n      gt\n        /* \"#utility.yul\":7520:7576   */\n      iszero\n      tag_324\n      jumpi\n        /* \"#utility.yul\":7556:7574   */\n      tag_325\n      tag_203\n      jump\t// in\n    tag_325:\n        /* \"#utility.yul\":7520:7576   */\n    tag_324:\n        /* \"#utility.yul\":7606:7610   */\n      0x20\n        /* \"#utility.yul\":7598:7604   */\n      dup3\n        /* \"#utility.yul\":7594:7611   */\n      mul\n        /* \"#utility.yul\":7586:7611   */\n      swap1\n      pop\n        /* \"#utility.yul\":7666:7670   */\n      0x20\n        /* \"#utility.yul\":7660:7664   */\n      dup2\n        /* \"#utility.yul\":7656:7671   */\n      add\n        /* \"#utility.yul\":7648:7671   */\n      swap1\n      pop\n        /* \"#utility.yul\":7357:7678   */\n      swap2\n      swap1\n      pop\n      jump\t// out\n        /* \"#utility.yul\":7684:7801   */\n    tag_217:\n        /* \"#utility.yul\":7793:7794   */\n      0x00\n        /* \"#utility.yul\":7790:7791   */\n      dup1\n        /* \"#utility.yul\":7783:7795   */\n      revert\n        /* \"#utility.yul\":7823:8768   */\n    tag_218:\n        /* \"#utility.yul\":7929:7934   */\n      0x00\n        /* \"#utility.yul\":7954:8045   */\n      tag_328\n        /* \"#utility.yul\":7970:8044   */\n      tag_329\n        /* \"#utility.yul\":8037:8043   */\n      dup5\n        /* \"#utility.yul\":7970:8044   */\n      tag_216\n      jump\t// in\n    tag_329:\n        /* \"#utility.yul\":7954:8045   */\n      tag_205\n      jump\t// in\n    tag_328:\n        /* \"#utility.yul\":7945:8045   */\n      swap1\n      pop\n        /* \"#utility.yul\":8065:8070   */\n      dup1\n        /* \"#utility.yul\":8094:8100   */\n      dup4\n        /* \"#utility.yul\":8087:8092   */\n      dup3\n        /* \"#utility.yul\":8080:8101   */\n      mstore\n        /* \"#utility.yul\":8128:8132   */\n      0x20\n        /* \"#utility.yul\":8121:8126   */\n      dup3\n        /* \"#utility.yul\":8117:8133   */\n      add\n        /* \"#utility.yul\":8110:8133   */\n      swap1\n      pop\n        /* \"#utility.yul\":8181:8185   */\n      0x20\n        /* \"#utility.yul\":8173:8179   */\n      dup5\n        /* \"#utility.yul\":8169:8186   */\n      mul\n        /* \"#utility.yul\":8161:8167   */\n      dup4\n        /* \"#utility.yul\":8157:8187   */\n      add\n        /* \"#utility.yul\":8210:8213   */\n      dup6\n        /* \"#utility.yul\":8202:8208   */\n      dup2\n        /* \"#utility.yul\":8199:8214   */\n      gt\n        /* \"#utility.yul\":8196:8318   */\n      iszero\n      tag_330\n      jumpi\n        /* \"#utility.yul\":8229:8308   */\n      tag_331\n      tag_217\n      jump\t// in\n    tag_331:\n        /* \"#utility.yul\":8196:8318   */\n    tag_330:\n        /* \"#utility.yul\":8344:8350   */\n      dup4\n        /* \"#utility.yul\":8327:8762   */\n    tag_332:\n        /* \"#utility.yul\":8361:8367   */\n      dup2\n        /* \"#utility.yul\":8356:8359   */\n      dup2\n        /* \"#utility.yul\":8353:8368   */\n      lt\n        /* \"#utility.yul\":8327:8762   */\n      iszero\n      tag_334\n      jumpi\n        /* \"#utility.yul\":8450:8453   */\n      dup1\n        /* \"#utility.yul\":8437:8454   */\n      calldataload\n        /* \"#utility.yul\":8486:8504   */\n      0xffffffffffffffff\n        /* \"#utility.yul\":8473:8484   */\n      dup2\n        /* \"#utility.yul\":8470:8505   */\n      gt\n        /* \"#utility.yul\":8467:8589   */\n      iszero\n      tag_335\n      jumpi\n        /* \"#utility.yul\":8508:8587   */\n      tag_336\n      tag_200\n      jump\t// in\n    tag_336:\n        /* \"#utility.yul\":8467:8589   */\n    tag_335:\n        /* \"#utility.yul\":8632:8643   */\n      dup1\n        /* \"#utility.yul\":8624:8630   */\n      dup7\n        /* \"#utility.yul\":8620:8644   */\n      add\n        /* \"#utility.yul\":8670:8717   */\n      tag_337\n        /* \"#utility.yul\":8713:8716   */\n      dup10\n        /* \"#utility.yul\":8701:8711   */\n      dup3\n        /* \"#utility.yul\":8670:8717   */\n      tag_209\n      jump\t// in\n    tag_337:\n        /* \"#utility.yul\":8665:8668   */\n      dup6\n        /* \"#utility.yul\":8658:8718   */\n      mstore\n        /* \"#utility.yul\":8747:8751   */\n      0x20\n        /* \"#utility.yul\":8742:8745   */\n      dup6\n        /* \"#utility.yul\":8738:8752   */\n      add\n        /* \"#utility.yul\":8731:8752   */\n      swap5\n      pop\n        /* \"#utility.yul\":8403:8762   */\n      pop\n      pop\n        /* \"#utility.yul\":8387:8391   */\n      0x20\n        /* \"#utility.yul\":8382:8385   */\n      dup2\n        /* \"#utility.yul\":8378:8392   */\n      add\n        /* \"#utility.yul\":8371:8392   */\n      swap1\n      pop\n        /* \"#utility.yul\":8327:8762   */\n      jump(tag_332)\n    tag_334:\n        /* \"#utility.yul\":8331:8352   */\n      pop\n        /* \"#utility.yul\":7935:8768   */\n      pop\n      pop\n        /* \"#utility.yul\":7823:8768   */\n      swap4\n      swap3\n      pop\n      pop\n      pop\n      jump\t// out\n        /* \"#utility.yul\":8790:9180   */\n    tag_219:\n        /* \"#utility.yul\":8871:8876   */\n      0x00\n        /* \"#utility.yul\":8920:8923   */\n      dup3\n        /* \"#utility.yul\":8913:8917   */\n      0x1f\n        /* \"#utility.yul\":8905:8911   */\n      dup4\n        /* \"#utility.yul\":8901:8918   */\n      add\n        /* \"#utility.yul\":8897:8924   */\n      slt\n        /* \"#utility.yul\":8887:9009   */\n      tag_339\n      jumpi\n        /* \"#utility.yul\":8928:9007   */\n      tag_340\n      tag_200\n      jump\t// in\n    tag_340:\n        /* \"#utility.yul\":8887:9009   */\n    tag_339:\n        /* \"#utility.yul\":9045:9051   */\n      dup2\n        /* \"#utility.yul\":9032:9052   */\n      calldataload\n        /* \"#utility.yul\":9070:9174   */\n      tag_341\n        /* \"#utility.yul\":9170:9173   */\n      dup5\n        /* \"#utility.yul\":9162:9168   */\n      dup3\n        /* \"#utility.yul\":9155:9159   */\n      0x20\n        /* \"#utility.yul\":9147:9153   */\n      dup7\n        /* \"#utility.yul\":9143:9160   */\n      add\n        /* \"#utility.yul\":9070:9174   */\n      tag_218\n      jump\t// in\n    tag_341:\n        /* \"#utility.yul\":9061:9174   */\n      swap2\n      pop\n        /* \"#utility.yul\":8877:9180   */\n      pop\n        /* \"#utility.yul\":8790:9180   */\n      swap3\n      swap2\n      pop\n      pop\n      jump\t// out\n        /* \"#utility.yul\":9186:11339   */\n    tag_25:\n        /* \"#utility.yul\":9374:9380   */\n      0x00\n        /* \"#utility.yul\":9382:9388   */\n      dup1\n        /* \"#utility.yul\":9390:9396   */\n      0x00\n        /* \"#utility.yul\":9398:9404   */\n      dup1\n        /* \"#utility.yul\":9406:9412   */\n      0x00\n        /* \"#utility.yul\":9414:9420   */\n      dup1\n        /* \"#utility.yul\":9422:9428   */\n      0x00\n        /* \"#utility.yul\":9471:9474   */\n      0xe0\n        /* \"#utility.yul\":9459:9468   */\n      dup9\n        /* \"#utility.yul\":9450:9457   */\n      dup11\n        /* \"#utility.yul\":9446:9469   */\n      sub\n        /* \"#utility.yul\":9442:9475   */\n      slt\n        /* \"#utility.yul\":9439:9559   */\n      iszero\n      tag_343\n      jumpi\n        /* \"#utility.yul\":9478:9557   */\n      tag_344\n      tag_191\n      jump\t// in\n    tag_344:\n        /* \"#utility.yul\":9439:9559   */\n    tag_343:\n        /* \"#utility.yul\":9626:9627   */\n      0x00\n        /* \"#utility.yul\":9615:9624   */\n      dup9\n        /* \"#utility.yul\":9611:9628   */\n      add\n        /* \"#utility.yul\":9598:9629   */\n      calldataload\n        /* \"#utility.yul\":9656:9674   */\n      0xffffffffffffffff\n        /* \"#utility.yul\":9648:9654   */\n      dup2\n        /* \"#utility.yul\":9645:9675   */\n      gt\n        /* \"#utility.yul\":9642:9759   */\n      iszero\n      tag_345\n      jumpi\n        /* \"#utility.yul\":9678:9757   */\n      tag_346\n      tag_192\n      jump\t// in\n    tag_346:\n        /* \"#utility.yul\":9642:9759   */\n    tag_345:\n        /* \"#utility.yul\":9783:9846   */\n      tag_347\n        /* \"#utility.yul\":9838:9845   */\n      dup11\n        /* \"#utility.yul\":9829:9835   */\n      dup3\n        /* \"#utility.yul\":9818:9827   */\n      dup12\n        /* \"#utility.yul\":9814:9836   */\n      add\n        /* \"#utility.yul\":9783:9846   */\n      tag_209\n      jump\t// in\n    tag_347:\n        /* \"#utility.yul\":9773:9846   */\n      swap8\n      pop\n        /* \"#utility.yul\":9569:9856   */\n      pop\n        /* \"#utility.yul\":9895:9897   */\n      0x20\n        /* \"#utility.yul\":9921:9974   */\n      tag_348\n        /* \"#utility.yul\":9966:9973   */\n      dup11\n        /* \"#utility.yul\":9957:9963   */\n      dup3\n        /* \"#utility.yul\":9946:9955   */\n      dup12\n        /* \"#utility.yul\":9942:9964   */\n      add\n        /* \"#utility.yul\":9921:9974   */\n      tag_199\n      jump\t// in\n    tag_348:\n        /* \"#utility.yul\":9911:9974   */\n      swap7\n      pop\n        /* \"#utility.yul\":9866:9984   */\n      pop\n        /* \"#utility.yul\":10051:10053   */\n      0x40\n        /* \"#utility.yul\":10040:10049   */\n      dup9\n        /* \"#utility.yul\":10036:10054   */\n      add\n        /* \"#utility.yul\":10023:10055   */\n      calldataload\n        /* \"#utility.yul\":10082:10100   */\n      0xffffffffffffffff\n        /* \"#utility.yul\":10074:10080   */\n      dup2\n        /* \"#utility.yul\":10071:10101   */\n      gt\n        /* \"#utility.yul\":10068:10185   */\n      iszero\n      tag_349\n      jumpi\n        /* \"#utility.yul\":10104:10183   */\n      tag_350\n      tag_192\n      jump\t// in\n    tag_350:\n        /* \"#utility.yul\":10068:10185   */\n    tag_349:\n        /* \"#utility.yul\":10209:10272   */\n      tag_351\n        /* \"#utility.yul\":10264:10271   */\n      dup11\n        /* \"#utility.yul\":10255:10261   */\n      dup3\n        /* \"#utility.yul\":10244:10253   */\n      dup12\n        /* \"#utility.yul\":10240:10262   */\n      add\n        /* \"#utility.yul\":10209:10272   */\n      tag_209\n      jump\t// in\n    tag_351:\n        /* \"#utility.yul\":10199:10272   */\n      swap6\n      pop\n        /* \"#utility.yul\":9994:10282   */\n      pop\n        /* \"#utility.yul\":10349:10351   */\n      0x60\n        /* \"#utility.yul\":10338:10347   */\n      dup9\n        /* \"#utility.yul\":10334:10352   */\n      add\n        /* \"#utility.yul\":10321:10353   */\n      calldataload\n        /* \"#utility.yul\":10380:10398   */\n      0xffffffffffffffff\n        /* \"#utility.yul\":10372:10378   */\n      dup2\n        /* \"#utility.yul\":10369:10399   */\n      gt\n        /* \"#utility.yul\":10366:10483   */\n      iszero\n      tag_352\n      jumpi\n        /* \"#utility.yul\":10402:10481   */\n      tag_353\n      tag_192\n      jump\t// in\n    tag_353:\n        /* \"#utility.yul\":10366:10483   */\n    tag_352:\n        /* \"#utility.yul\":10507:10570   */\n      tag_354\n        /* \"#utility.yul\":10562:10569   */\n      dup11\n        /* \"#utility.yul\":10553:10559   */\n      dup3\n        /* \"#utility.yul\":10542:10551   */\n      dup12\n        /* \"#utility.yul\":10538:10560   */\n      add\n        /* \"#utility.yul\":10507:10570   */\n      tag_209\n      jump\t// in\n    tag_354:\n        /* \"#utility.yul\":10497:10570   */\n      swap5\n      pop\n        /* \"#utility.yul\":10292:10580   */\n      pop\n        /* \"#utility.yul\":10647:10650   */\n      0x80\n        /* \"#utility.yul\":10636:10645   */\n      dup9\n        /* \"#utility.yul\":10632:10651   */\n      add\n        /* \"#utility.yul\":10619:10652   */\n      calldataload\n        /* \"#utility.yul\":10679:10697   */\n      0xffffffffffffffff\n        /* \"#utility.yul\":10671:10677   */\n      dup2\n        /* \"#utility.yul\":10668:10698   */\n      gt\n        /* \"#utility.yul\":10665:10782   */\n      iszero\n      tag_355\n      jumpi\n        /* \"#utility.yul\":10701:10780   */\n      tag_356\n      tag_192\n      jump\t// in\n    tag_356:\n        /* \"#utility.yul\":10665:10782   */\n    tag_355:\n        /* \"#utility.yul\":10806:10894   */\n      tag_357\n        /* \"#utility.yul\":10886:10893   */\n      dup11\n        /* \"#utility.yul\":10877:10883   */\n      dup3\n        /* \"#utility.yul\":10866:10875   */\n      dup12\n        /* \"#utility.yul\":10862:10884   */\n      add\n        /* \"#utility.yul\":10806:10894   */\n      tag_219\n      jump\t// in\n    tag_357:\n        /* \"#utility.yul\":10796:10894   */\n      swap4\n      pop\n        /* \"#utility.yul\":10590:10904   */\n      pop\n        /* \"#utility.yul\":10971:10974   */\n      0xa0\n        /* \"#utility.yul\":10960:10969   */\n      dup9\n        /* \"#utility.yul\":10956:10975   */\n      add\n        /* \"#utility.yul\":10943:10976   */\n      calldataload\n        /* \"#utility.yul\":11003:11021   */\n      0xffffffffffffffff\n        /* \"#utility.yul\":10995:11001   */\n      dup2\n        /* \"#utility.yul\":10992:11022   */\n      gt\n        /* \"#utility.yul\":10989:11106   */\n      iszero\n      tag_358\n      jumpi\n        /* \"#utility.yul\":11025:11104   */\n      tag_359\n      tag_192\n      jump\t// in\n    tag_359:\n        /* \"#utility.yul\":10989:11106   */\n    tag_358:\n        /* \"#utility.yul\":11130:11193   */\n      tag_360\n        /* \"#utility.yul\":11185:11192   */\n      dup11\n        /* \"#utility.yul\":11176:11182   */\n      dup3\n        /* \"#utility.yul\":11165:11174   */\n      dup12\n        /* \"#utility.yul\":11161:11183   */\n      add\n        /* \"#utility.yul\":11130:11193   */\n      tag_209\n      jump\t// in\n    tag_360:\n        /* \"#utility.yul\":11120:11193   */\n      swap3\n      pop\n        /* \"#utility.yul\":10914:11203   */\n      pop\n        /* \"#utility.yul\":11242:11245   */\n      0xc0\n        /* \"#utility.yul\":11269:11322   */\n      tag_361\n        /* \"#utility.yul\":11314:11321   */\n      dup11\n        /* \"#utility.yul\":11305:11311   */\n      dup3\n        /* \"#utility.yul\":11294:11303   */\n      dup12\n        /* \"#utility.yul\":11290:11312   */\n      add\n        /* \"#utility.yul\":11269:11322   */\n      tag_199\n      jump\t// in\n    tag_361:\n        /* \"#utility.yul\":11259:11322   */\n      swap2\n      pop\n        /* \"#utility.yul\":11213:11332   */\n      pop\n        /* \"#utility.yul\":9186:11339   */\n      swap3\n      swap6\n      swap9\n      swap2\n      swap5\n      swap8\n      pop\n      swap3\n      swap6\n      pop\n      jump\t// out\n        /* \"#utility.yul\":11345:11674   */\n    tag_29:\n        /* \"#utility.yul\":11404:11410   */\n      0x00\n        /* \"#utility.yul\":11453:11455   */\n      0x20\n        /* \"#utility.yul\":11441:11450   */\n      dup3\n        /* \"#utility.yul\":11432:11439   */\n      dup5\n        /* \"#utility.yul\":11428:11451   */\n      sub\n        /* \"#utility.yul\":11424:11456   */\n      slt\n        /* \"#utility.yul\":11421:11540   */\n      iszero\n      tag_363\n      jumpi\n        /* \"#utility.yul\":11459:11538   */\n      tag_364\n      tag_191\n      jump\t// in\n    tag_364:\n        /* \"#utility.yul\":11421:11540   */\n    tag_363:\n        /* \"#utility.yul\":11579:11580   */\n      0x00\n        /* \"#utility.yul\":11604:11657   */\n      tag_365\n        /* \"#utility.yul\":11649:11656   */\n      dup5\n        /* \"#utility.yul\":11640:11646   */\n      dup3\n        /* \"#utility.yul\":11629:11638   */\n      dup6\n        /* \"#utility.yul\":11625:11647   */\n      add\n        /* \"#utility.yul\":11604:11657   */\n      tag_196\n      jump\t// in\n    tag_365:\n        /* \"#utility.yul\":11594:11657   */\n      swap2\n      pop\n        /* \"#utility.yul\":11550:11667   */\n      pop\n        /* \"#utility.yul\":11345:11674   */\n      swap3\n      swap2\n      pop\n      pop\n      jump\t// out\n        /* \"#utility.yul\":11680:11902   */\n    tag_32:\n        /* \"#utility.yul\":11773:11777   */\n      0x00\n        /* \"#utility.yul\":11811:11813   */\n      0x20\n        /* \"#utility.yul\":11800:11809   */\n      dup3\n        /* \"#utility.yul\":11796:11814   */\n      add\n        /* \"#utility.yul\":11788:11814   */\n      swap1\n      pop\n        /* \"#utility.yul\":11824:11895   */\n      tag_367\n        /* \"#utility.yul\":11892:11893   */\n      0x00\n        /* \"#utility.yul\":11881:11890   */\n      dup4\n        /* \"#utility.yul\":11877:11894   */\n      add\n        /* \"#utility.yul\":11868:11874   */\n      dup5\n        /* \"#utility.yul\":11824:11895   */\n      tag_215\n      jump\t// in\n    tag_367:\n        /* \"#utility.yul\":11680:11902   */\n      swap3\n      swap2\n      pop\n      pop\n      jump\t// out\n        /* \"#utility.yul\":11908:12130   */\n    tag_42:\n        /* \"#utility.yul\":12001:12005   */\n      0x00\n        /* \"#utility.yul\":12039:12041   */\n      0x20\n        /* \"#utility.yul\":12028:12037   */\n      dup3\n        /* \"#utility.yul\":12024:12042   */\n      add\n        /* \"#utility.yul\":12016:12042   */\n      swap1\n      pop\n        /* \"#utility.yul\":12052:12123   */\n      tag_369\n        /* \"#utility.yul\":12120:12121   */\n      0x00\n        /* \"#utility.yul\":12109:12118   */\n      dup4\n        /* \"#utility.yul\":12105:12122   */\n      add\n        /* \"#utility.yul\":12096:12102   */\n      dup5\n        /* \"#utility.yul\":12052:12123   */\n      tag_214\n      jump\t// in\n    tag_369:\n        /* \"#utility.yul\":11908:12130   */\n      swap3\n      swap2\n      pop\n      pop\n      jump\t// out\n        /* \"#utility.yul\":12136:12449   */\n    tag_47:\n        /* \"#utility.yul\":12249:12253   */\n      0x00\n        /* \"#utility.yul\":12287:12289   */\n      0x20\n        /* \"#utility.yul\":12276:12285   */\n      dup3\n        /* \"#utility.yul\":12272:12290   */\n      add\n        /* \"#utility.yul\":12264:12290   */\n      swap1\n      pop\n        /* \"#utility.yul\":12336:12345   */\n      dup2\n        /* \"#utility.yul\":12330:12334   */\n      dup2\n        /* \"#utility.yul\":12326:12346   */\n      sub\n        /* \"#utility.yul\":12322:12323   */\n      0x00\n        /* \"#utility.yul\":12311:12320   */\n      dup4\n        /* \"#utility.yul\":12307:12324   */\n      add\n        /* \"#utility.yul\":12300:12347   */\n      mstore\n        /* \"#utility.yul\":12364:12442   */\n      tag_371\n        /* \"#utility.yul\":12437:12441   */\n      dup2\n        /* \"#utility.yul\":12428:12434   */\n      dup5\n        /* \"#utility.yul\":12364:12442   */\n      tag_213\n      jump\t// in\n    tag_371:\n        /* \"#utility.yul\":12356:12442   */\n      swap1\n      pop\n        /* \"#utility.yul\":12136:12449   */\n      swap3\n      swap2\n      pop\n      pop\n      jump\t// out\n        /* \"#utility.yul\":12455:12635   */\n    tag_220:\n        /* \"#utility.yul\":12503:12580   */\n      0x4e487b7100000000000000000000000000000000000000000000000000000000\n        /* \"#utility.yul\":12500:12501   */\n      0x00\n        /* \"#utility.yul\":12493:12581   */\n      mstore\n        /* \"#utility.yul\":12600:12604   */\n      0x22\n        /* \"#utility.yul\":12597:12598   */\n      0x04\n        /* \"#utility.yul\":12590:12605   */\n      mstore\n        /* \"#utility.yul\":12624:12628   */\n      0x24\n        /* \"#utility.yul\":12621:12622   */\n      0x00\n        /* \"#utility.yul\":12614:12629   */\n      revert\n        /* \"#utility.yul\":12641:12961   */\n    tag_60:\n        /* \"#utility.yul\":12685:12691   */\n      0x00\n        /* \"#utility.yul\":12722:12723   */\n      0x02\n        /* \"#utility.yul\":12716:12720   */\n      dup3\n        /* \"#utility.yul\":12712:12724   */\n      div\n        /* \"#utility.yul\":12702:12724   */\n      swap1\n      pop\n        /* \"#utility.yul\":12769:12770   */\n      0x01\n        /* \"#utility.yul\":12763:12767   */\n      dup3\n        /* \"#utility.yul\":12759:12771   */\n      and\n        /* \"#utility.yul\":12790:12808   */\n      dup1\n        /* \"#utility.yul\":12780:12861   */\n      tag_374\n      jumpi\n        /* \"#utility.yul\":12846:12850   */\n      0x7f\n        /* \"#utility.yul\":12838:12844   */\n      dup3\n        /* \"#utility.yul\":12834:12851   */\n      and\n        /* \"#utility.yul\":12824:12851   */\n      swap2\n      pop\n        /* \"#utility.yul\":12780:12861   */\n    tag_374:\n        /* \"#utility.yul\":12908:12910   */\n      0x20\n        /* \"#utility.yul\":12900:12906   */\n      dup3\n        /* \"#utility.yul\":12897:12911   */\n      lt\n        /* \"#utility.yul\":12877:12895   */\n      dup2\n        /* \"#utility.yul\":12874:12912   */\n      sub\n        /* \"#utility.yul\":12871:12955   */\n      tag_375\n      jumpi\n        /* \"#utility.yul\":12927:12945   */\n      tag_376\n      tag_220\n      jump\t// in\n    tag_376:\n        /* \"#utility.yul\":12871:12955   */\n    tag_375:\n        /* \"#utility.yul\":12692:12961   */\n      pop\n        /* \"#utility.yul\":12641:12961   */\n      swap2\n      swap1\n      pop\n      jump\t// out\n        /* \"#utility.yul\":12967:13108   */\n    tag_221:\n        /* \"#utility.yul\":13016:13020   */\n      0x00\n        /* \"#utility.yul\":13039:13042   */\n      dup2\n        /* \"#utility.yul\":13031:13042   */\n      swap1\n      pop\n        /* \"#utility.yul\":13062:13065   */\n      dup2\n        /* \"#utility.yul\":13059:13060   */\n      0x00\n        /* \"#utility.yul\":13052:13066   */\n      mstore\n        /* \"#utility.yul\":13096:13100   */\n      0x20\n        /* \"#utility.yul\":13093:13094   */\n      0x00\n        /* \"#utility.yul\":13083:13101   */\n      keccak256\n        /* \"#utility.yul\":13075:13101   */\n      swap1\n      pop\n        /* \"#utility.yul\":12967:13108   */\n      swap2\n      swap1\n      pop\n      jump\t// out\n        /* \"#utility.yul\":13114:13207   */\n    tag_222:\n        /* \"#utility.yul\":13151:13157   */\n      0x00\n        /* \"#utility.yul\":13198:13200   */\n      0x20\n        /* \"#utility.yul\":13193:13195   */\n      0x1f\n        /* \"#utility.yul\":13186:13191   */\n      dup4\n        /* \"#utility.yul\":13182:13196   */\n      add\n        /* \"#utility.yul\":13178:13201   */\n      div\n        /* \"#utility.yul\":13168:13201   */\n      swap1\n      pop\n        /* \"#utility.yul\":13114:13207   */\n      swap2\n      swap1\n      pop\n      jump\t// out\n        /* \"#utility.yul\":13213:13320   */\n    tag_223:\n        /* \"#utility.yul\":13257:13265   */\n      0x00\n        /* \"#utility.yul\":13307:13312   */\n      dup3\n        /* \"#utility.yul\":13301:13305   */\n      dup3\n        /* \"#utility.yul\":13297:13313   */\n      shl\n        /* \"#utility.yul\":13276:13313   */\n      swap1\n      pop\n        /* \"#utility.yul\":13213:13320   */\n      swap3\n      swap2\n      pop\n      pop\n      jump\t// out\n        /* \"#utility.yul\":13326:13719   */\n    tag_224:\n        /* \"#utility.yul\":13395:13401   */\n      0x00\n        /* \"#utility.yul\":13445:13446   */\n      0x08\n        /* \"#utility.yul\":13433:13443   */\n      dup4\n        /* \"#utility.yul\":13429:13447   */\n      mul\n        /* \"#utility.yul\":13468:13565   */\n      tag_381\n        /* \"#utility.yul\":13498:13564   */\n      0xffffffffffffffffffffffffffffffffffffffffffffffffffffffffffffffff\n        /* \"#utility.yul\":13487:13496   */\n      dup3\n        /* \"#utility.yul\":13468:13565   */\n      tag_223\n      jump\t// in\n    tag_381:\n        /* \"#utility.yul\":13586:13625   */\n      tag_382\n        /* \"#utility.yul\":13616:13624   */\n      dup7\n        /* \"#utility.yul\":13605:13614   */\n      dup4\n        /* \"#utility.yul\":13586:13625   */\n      tag_223\n      jump\t// in\n    tag_382:\n        /* \"#utility.yul\":13574:13625   */\n      swap6\n      pop\n        /* \"#utility.yul\":13658:13662   */\n      dup1\n        /* \"#utility.yul\":13654:13663   */\n      not\n        /* \"#utility.yul\":13647:13652   */\n      dup5\n        /* \"#utility.yul\":13643:13664   */\n      and\n        /* \"#utility.yul\":13634:13664   */\n      swap4\n      pop\n        /* \"#utility.yul\":13707:13711   */\n      dup1\n        /* \"#utility.yul\":13697:13705   */\n      dup7\n        /* \"#utility.yul\":13693:13712   */\n      and\n        /* \"#utility.yul\":13686:13691   */\n      dup5\n        /* \"#utility.yul\":13683:13713   */\n      or\n        /* \"#utility.yul\":13673:13713   */\n      swap3\n      pop\n        /* \"#utility.yul\":13402:13719   */\n      pop\n      pop\n        /* \"#utility.yul\":13326:13719   */\n      swap4\n      swap3\n      pop\n      pop\n      pop\n      jump\t// out\n        /* \"#utility.yul\":13725:13785   */\n    tag_225:\n        /* \"#utility.yul\":13753:13756   */\n      0x00\n        /* \"#utility.yul\":13774:13779   */\n      dup2\n        /* \"#utility.yul\":13767:13779   */\n      swap1\n      pop\n        /* \"#utility.yul\":13725:13785   */\n      swap2\n      swap1\n      pop\n      jump\t// out\n        /* \"#utility.yul\":13791:13933   */\n    tag_226:\n        /* \"#utility.yul\":13841:13850   */\n      0x00\n        /* \"#utility.yul\":13874:13927   */\n      tag_385\n        /* \"#utility.yul\":13892:13926   */\n      tag_386\n        /* \"#utility.yul\":13901:13925   */\n      tag_387\n        /* \"#utility.yul\":13919:13924   */\n      dup5\n        /* \"#utility.yul\":13901:13925   */\n      tag_197\n      jump\t// in\n    tag_387:\n        /* \"#utility.yul\":13892:13926   */\n      tag_225\n      jump\t// in\n    tag_386:\n        /* \"#utility.yul\":13874:13927   */\n      tag_197\n      jump\t// in\n    tag_385:\n        /* \"#utility.yul\":13861:13927   */\n      swap1\n      pop\n        /* \"#utility.yul\":13791:13933   */\n      swap2\n      swap1\n      pop\n      jump\t// out\n        /* \"#utility.yul\":13939:14014   */\n    tag_227:\n        /* \"#utility.yul\":13982:13985   */\n      0x00\n        /* \"#utility.yul\":14003:14008   */\n      dup2\n        /* \"#utility.yul\":13996:14008   */\n      swap1\n      pop\n        /* \"#utility.yul\":13939:14014   */\n      swap2\n      swap1\n      pop\n      jump\t// out\n        /* \"#utility.yul\":14020:14289   */\n    tag_228:\n        /* \"#utility.yul\":14130:14169   */\n      tag_390\n        /* \"#utility.yul\":14161:14168   */\n      dup4\n        /* \"#utility.yul\":14130:14169   */\n      tag_226\n      jump\t// in\n    tag_390:\n        /* \"#utility.yul\":14191:14282   */\n      tag_391\n        /* \"#utility.yul\":14240:14281   */\n      tag_392\n        /* \"#utility.yul\":14264:14280   */\n      dup3\n        /* \"#utility.yul\":14240:14281   */\n      tag_227\n      jump\t// in\n    tag_392:\n        /* \"#utility.yul\":14232:14238   */\n      dup5\n        /* \"#utility.yul\":14225:14229   */\n      dup5\n        /* \"#utility.yul\":14219:14230   */\n      sload\n        /* \"#utility.yul\":14191:14282   */\n      tag_224\n      jump\t// in\n    tag_391:\n        /* \"#utility.yul\":14185:14189   */\n      dup3\n        /* \"#utility.yul\":14178:14283   */\n      sstore\n        /* \"#utility.yul\":14096:14289   */\n      pop\n        /* \"#utility.yul\":14020:14289   */\n      pop\n      pop\n      pop\n      jump\t// out\n        /* \"#utility.yul\":14295:14368   */\n    tag_229:\n        /* \"#utility.yul\":14340:14343   */\n      0x00\n        /* \"#utility.yul\":14295:14368   */\n      swap1\n      jump\t// out\n        /* \"#utility.yul\":14374:14563   */\n    tag_230:\n        /* \"#utility.yul\":14451:14483   */\n      tag_395\n      tag_229\n      jump\t// in\n    tag_395:\n        /* \"#utility.yul\":14492:14557   */\n      tag_396\n        /* \"#utility.yul\":14550:14556   */\n      dup2\n        /* \"#utility.yul\":14542:14548   */\n      dup5\n        /* \"#utility.yul\":14536:14540   */\n      dup5\n        /* \"#utility.yul\":14492:14557   */\n      tag_228\n      jump\t// in\n    tag_396:\n        /* \"#utility.yul\":14427:14563   */\n      pop\n        /* \"#utility.yul\":14374:14563   */\n      pop\n      pop\n      jump\t// out\n        /* \"#utility.yul\":14569:14755   */\n    tag_231:\n        /* \"#utility.yul\":14629:14749   */\n    tag_398:\n        /* \"#utility.yul\":14646:14649   */\n      dup2\n        /* \"#utility.yul\":14639:14644   */\n      dup2\n        /* \"#utility.yul\":14636:14650   */\n      lt\n        /* \"#utility.yul\":14629:14749   */\n      iszero\n      tag_400\n      jumpi\n        /* \"#utility.yul\":14700:14739   */\n      tag_401\n        /* \"#utility.yul\":14737:14738   */\n      0x00\n        /* \"#utility.yul\":14730:14735   */\n      dup3\n        /* \"#utility.yul\":14700:14739   */\n      tag_230\n      jump\t// in\n    tag_401:\n        /* \"#utility.yul\":14673:14674   */\n      0x01\n        /* \"#utility.yul\":14666:14671   */\n      dup2\n        /* \"#utility.yul\":14662:14675   */\n      add\n        /* \"#utility.yul\":14653:14675   */\n      swap1\n      pop\n        /* \"#utility.yul\":14629:14749   */\n      jump(tag_398)\n    tag_400:\n        /* \"#utility.yul\":14569:14755   */\n      pop\n      pop\n      jump\t// out\n        /* \"#utility.yul\":14761:15304   */\n    tag_232:\n        /* \"#utility.yul\":14862:14864   */\n      0x1f\n        /* \"#utility.yul\":14857:14860   */\n      dup3\n        /* \"#utility.yul\":14854:14865   */\n      gt\n        /* \"#utility.yul\":14851:15297   */\n      iszero\n      tag_403\n      jumpi\n        /* \"#utility.yul\":14896:14934   */\n      tag_404\n        /* \"#utility.yul\":14928:14933   */\n      dup2\n        /* \"#utility.yul\":14896:14934   */\n      tag_221\n      jump\t// in\n    tag_404:\n        /* \"#utility.yul\":14980:15009   */\n      tag_405\n        /* \"#utility.yul\":14998:15008   */\n      dup5\n        /* \"#utility.yul\":14980:15009   */\n      tag_222\n      jump\t// in\n    tag_405:\n        /* \"#utility.yul\":14970:14978   */\n      dup2\n        /* \"#utility.yul\":14966:15010   */\n      add\n        /* \"#utility.yul\":15163:15165   */\n      0x20\n        /* \"#utility.yul\":15151:15161   */\n      dup6\n        /* \"#utility.yul\":15148:15166   */\n      lt\n        /* \"#utility.yul\":15145:15194   */\n      iszero\n      tag_406\n      jumpi\n        /* \"#utility.yul\":15184:15192   */\n      dup2\n        /* \"#utility.yul\":15169:15192   */\n      swap1\n      pop\n        /* \"#utility.yul\":15145:15194   */\n    tag_406:\n        /* \"#utility.yul\":15207:15287   */\n      tag_407\n        /* \"#utility.yul\":15263:15285   */\n      tag_408\n        /* \"#utility.yul\":15281:15284   */\n      dup6\n        /* \"#utility.yul\":15263:15285   */\n      tag_222\n      jump\t// in\n    tag_408:\n        /* \"#utility.yul\":15253:15261   */\n      dup4\n        /* \"#utility.yul\":15249:15286   */\n      add\n        /* \"#utility.yul\":15236:15247   */\n      dup3\n        /* \"#utility.yul\":15207:15287   */\n      tag_231\n      jump\t// in\n    tag_407:\n        /* \"#utility.yul\":14866:15297   */\n      pop\n      pop\n        /* \"#utility.yul\":14851:15297   */\n    tag_403:\n        /* \"#utility.yul\":14761:15304   */\n      pop\n      pop\n      pop\n      jump\t// out\n        /* \"#utility.yul\":15310:15427   */\n    tag_233:\n        /* \"#utility.yul\":15364:15372   */\n      0x00\n        /* \"#utility.yul\":15414:15419   */\n      dup3\n        /* \"#utility.yul\":15408:15412   */\n      dup3\n        /* \"#utility.yul\":15404:15420   */\n      shr\n        /* \"#utility.yul\":15383:15420   */\n      swap1\n      pop\n        /* \"#utility.yul\":15310:15427   */\n      swap3\n      swap2\n      pop\n      pop\n      jump\t// out\n        /* \"#utility.yul\":15433:15602   */\n    tag_234:\n        /* \"#utility.yul\":15477:15483   */\n      0x00\n        /* \"#utility.yul\":15510:15561   */\n      tag_411\n        /* \"#utility.yul\":15558:15559   */\n      0x00\n        /* \"#utility.yul\":15554:15560   */\n      not\n        /* \"#utility.yul\":15546:15551   */\n      dup5\n        /* \"#utility.yul\":15543:15544   */\n      0x08\n        /* \"#utility.yul\":15539:15552   */\n      mul\n        /* \"#utility.yul\":15510:15561   */\n      tag_233\n      jump\t// in\n    tag_411:\n        /* \"#utility.yul\":15506:15562   */\n      not\n        /* \"#utility.yul\":15591:15595   */\n      dup1\n        /* \"#utility.yul\":15585:15589   */\n      dup4\n        /* \"#utility.yul\":15581:15596   */\n      and\n        /* \"#utility.yul\":15571:15596   */\n      swap2\n      pop\n        /* \"#utility.yul\":15484:15602   */\n      pop\n        /* \"#utility.yul\":15433:15602   */\n      swap3\n      swap2\n      pop\n      pop\n      jump\t// out\n        /* \"#utility.yul\":15607:15902   */\n    tag_235:\n        /* \"#utility.yul\":15683:15687   */\n      0x00\n        /* \"#utility.yul\":15829:15858   */\n      tag_413\n        /* \"#utility.yul\":15854:15857   */\n      dup4\n        /* \"#utility.yul\":15848:15852   */\n      dup4\n        /* \"#utility.yul\":15829:15858   */\n      tag_234\n      jump\t// in\n    tag_413:\n        /* \"#utility.yul\":15821:15858   */\n      swap2\n      pop\n        /* \"#utility.yul\":15891:15894   */\n      dup3\n        /* \"#utility.yul\":15888:15889   */\n      0x02\n        /* \"#utility.yul\":15884:15895   */\n      mul\n        /* \"#utility.yul\":15878:15882   */\n      dup3\n        /* \"#utility.yul\":15875:15896   */\n      or\n        /* \"#utility.yul\":15867:15896   */\n      swap1\n      pop\n        /* \"#utility.yul\":15607:15902   */\n      swap3\n      swap2\n      pop\n      pop\n      jump\t// out\n        /* \"#utility.yul\":15907:17302   */\n    tag_56:\n        /* \"#utility.yul\":16024:16061   */\n      tag_415\n        /* \"#utility.yul\":16057:16060   */\n      dup3\n        /* \"#utility.yul\":16024:16061   */\n      tag_210\n      jump\t// in\n    tag_415:\n        /* \"#utility.yul\":16126:16144   */\n      0xffffffffffffffff\n        /* \"#utility.yul\":16118:16124   */\n      dup2\n        /* \"#utility.yul\":16115:16145   */\n      gt\n        /* \"#utility.yul\":16112:16168   */\n      iszero\n      tag_416\n      jumpi\n        /* \"#utility.yul\":16148:16166   */\n      tag_417\n      tag_203\n      jump\t// in\n    tag_417:\n        /* \"#utility.yul\":16112:16168   */\n    tag_416:\n        /* \"#utility.yul\":16192:16230   */\n      tag_418\n        /* \"#utility.yul\":16224:16228   */\n      dup3\n        /* \"#utility.yul\":16218:16229   */\n      sload\n        /* \"#utility.yul\":16192:16230   */\n      tag_60\n      jump\t// in\n    tag_418:\n        /* \"#utility.yul\":16277:16344   */\n      tag_419\n        /* \"#utility.yul\":16337:16343   */\n      dup3\n        /* \"#utility.yul\":16329:16335   */\n      dup3\n        /* \"#utility.yul\":16323:16327   */\n      dup6\n        /* \"#utility.yul\":16277:16344   */\n      tag_232\n      jump\t// in\n    tag_419:\n        /* \"#utility.yul\":16371:16372   */\n      0x00\n        /* \"#utility.yul\":16395:16399   */\n      0x20\n        /* \"#utility.yul\":16382:16399   */\n      swap1\n      pop\n        /* \"#utility.yul\":16427:16429   */\n      0x1f\n        /* \"#utility.yul\":16419:16425   */\n      dup4\n        /* \"#utility.yul\":16416:16430   */\n      gt\n        /* \"#utility.yul\":16444:16445   */\n      0x01\n        /* \"#utility.yul\":16439:17057   */\n      dup2\n      eq\n      tag_421\n      jumpi\n        /* \"#utility.yul\":17101:17102   */\n      0x00\n        /* \"#utility.yul\":17118:17124   */\n      dup5\n        /* \"#utility.yul\":17115:17192   */\n      iszero\n      tag_422\n      jumpi\n        /* \"#utility.yul\":17167:17176   */\n      dup3\n        /* \"#utility.yul\":17162:17165   */\n      dup8\n        /* \"#utility.yul\":17158:17177   */\n      add\n        /* \"#utility.yul\":17152:17178   */\n      mload\n        /* \"#utility.yul\":17143:17178   */\n      swap1\n      pop\n        /* \"#utility.yul\":17115:17192   */\n    tag_422:\n        /* \"#utility.yul\":17218:17285   */\n      tag_423\n        /* \"#utility.yul\":17278:17284   */\n      dup6\n        /* \"#utility.yul\":17271:17276   */\n      dup3\n        /* \"#utility.yul\":17218:17285   */\n      tag_235\n      jump\t// in\n    tag_423:\n        /* \"#utility.yul\":17212:17216   */\n      dup7\n        /* \"#utility.yul\":17205:17286   */\n      sstore\n        /* \"#utility.yul\":17074:17296   */\n      pop\n        /* \"#utility.yul\":16409:17296   */\n      jump(tag_420)\n        /* \"#utility.yul\":16439:17057   */\n    tag_421:\n        /* \"#utility.yul\":16491:16495   */\n      0x1f\n        /* \"#utility.yul\":16487:16496   */\n      not\n        /* \"#utility.yul\":16479:16485   */\n      dup5\n        /* \"#utility.yul\":16475:16497   */\n      and\n        /* \"#utility.yul\":16525:16562   */\n      tag_424\n        /* \"#utility.yul\":16557:16561   */\n      dup7\n        /* \"#utility.yul\":16525:16562   */\n      tag_221\n      jump\t// in\n    tag_424:\n        /* \"#utility.yul\":16584:16585   */\n      0x00\n        /* \"#utility.yul\":16598:16806   */\n    tag_425:\n        /* \"#utility.yul\":16612:16619   */\n      dup3\n        /* \"#utility.yul\":16609:16610   */\n      dup2\n        /* \"#utility.yul\":16606:16620   */\n      lt\n        /* \"#utility.yul\":16598:16806   */\n      iszero\n      tag_427\n      jumpi\n        /* \"#utility.yul\":16691:16700   */\n      dup5\n        /* \"#utility.yul\":16686:16689   */\n      dup10\n        /* \"#utility.yul\":16682:16701   */\n      add\n        /* \"#utility.yul\":16676:16702   */\n      mload\n        /* \"#utility.yul\":16668:16674   */\n      dup3\n        /* \"#utility.yul\":16661:16703   */\n      sstore\n        /* \"#utility.yul\":16742:16743   */\n      0x01\n        /* \"#utility.yul\":16734:16740   */\n      dup3\n        /* \"#utility.yul\":16730:16744   */\n      add\n        /* \"#utility.yul\":16720:16744   */\n      swap2\n      pop\n        /* \"#utility.yul\":16789:16791   */\n      0x20\n        /* \"#utility.yul\":16778:16787   */\n      dup6\n        /* \"#utility.yul\":16774:16792   */\n      add\n        /* \"#utility.yul\":16761:16792   */\n      swap5\n      pop\n        /* \"#utility.yul\":16635:16639   */\n      0x20\n        /* \"#utility.yul\":16632:16633   */\n      dup2\n        /* \"#utility.yul\":16628:16640   */\n      add\n        /* \"#utility.yul\":16623:16640   */\n      swap1\n      pop\n        /* \"#utility.yul\":16598:16806   */\n      jump(tag_425)\n    tag_427:\n        /* \"#utility.yul\":16834:16840   */\n      dup7\n        /* \"#utility.yul\":16825:16832   */\n      dup4\n        /* \"#utility.yul\":16822:16841   */\n      lt\n        /* \"#utility.yul\":16819:16998   */\n      iszero\n      tag_428\n      jumpi\n        /* \"#utility.yul\":16892:16901   */\n      dup5\n        /* \"#utility.yul\":16887:16890   */\n      dup10\n        /* \"#utility.yul\":16883:16902   */\n      add\n        /* \"#utility.yul\":16877:16903   */\n      mload\n        /* \"#utility.yul\":16935:16983   */\n      tag_429\n        /* \"#utility.yul\":16977:16981   */\n      0x1f\n        /* \"#utility.yul\":16969:16975   */\n      dup10\n        /* \"#utility.yul\":16965:16982   */\n      and\n        /* \"#utility.yul\":16954:16963   */\n      dup3\n        /* \"#utility.yul\":16935:16983   */\n      tag_234\n      jump\t// in\n    tag_429:\n        /* \"#utility.yul\":16927:16933   */\n      dup4\n        /* \"#utility.yul\":16920:16984   */\n      sstore\n        /* \"#utility.yul\":16842:16998   */\n      pop\n        /* \"#utility.yul\":16819:16998   */\n    tag_428:\n        /* \"#utility.yul\":17044:17045   */\n      0x01\n        /* \"#utility.yul\":17040:17041   */\n      0x02\n        /* \"#utility.yul\":17032:17038   */\n      dup9\n        /* \"#utility.yul\":17028:17042   */\n      mul\n        /* \"#utility.yul\":17024:17046   */\n      add\n        /* \"#utility.yul\":17018:17022   */\n      dup9\n        /* \"#utility.yul\":17011:17047   */\n      sstore\n        /* \"#utility.yul\":16446:17057   */\n      pop\n      pop\n      pop\n        /* \"#utility.yul\":16409:17296   */\n    tag_420:\n      pop\n        /* \"#utility.yul\":15999:17302   */\n      pop\n      pop\n      pop\n        /* \"#utility.yul\":15907:17302   */\n      pop\n      pop\n      jump\t// out\n        /* \"#utility.yul\":17308:17731   */\n    tag_58:\n        /* \"#utility.yul\":17449:17453   */\n      0x00\n        /* \"#utility.yul\":17487:17489   */\n      0x40\n        /* \"#utility.yul\":17476:17485   */\n      dup3\n        /* \"#utility.yul\":17472:17490   */\n      add\n        /* \"#utility.yul\":17464:17490   */\n      swap1\n      pop\n        /* \"#utility.yul\":17500:17571   */\n      tag_431\n        /* \"#utility.yul\":17568:17569   */\n      0x00\n        /* \"#utility.yul\":17557:17566   */\n      dup4\n        /* \"#utility.yul\":17553:17570   */\n      add\n        /* \"#utility.yul\":17544:17550   */\n      dup6\n        /* \"#utility.yul\":17500:17571   */\n      tag_215\n      jump\t// in\n    tag_431:\n        /* \"#utility.yul\":17618:17627   */\n      dup2\n        /* \"#utility.yul\":17612:17616   */\n      dup2\n        /* \"#utility.yul\":17608:17628   */\n      sub\n        /* \"#utility.yul\":17603:17605   */\n      0x20\n        /* \"#utility.yul\":17592:17601   */\n      dup4\n        /* \"#utility.yul\":17588:17606   */\n      add\n        /* \"#utility.yul\":17581:17629   */\n      mstore\n        /* \"#utility.yul\":17646:17724   */\n      tag_432\n        /* \"#utility.yul\":17719:17723   */\n      dup2\n        /* \"#utility.yul\":17710:17716   */\n      dup5\n        /* \"#utility.yul\":17646:17724   */\n      tag_213\n      jump\t// in\n    tag_432:\n        /* \"#utility.yul\":17638:17724   */\n      swap1\n      pop\n        /* \"#utility.yul\":17308:17731   */\n      swap4\n      swap3\n      pop\n      pop\n      pop\n      jump\t// out\n        /* \"#utility.yul\":17737:17917   */\n    tag_236:\n        /* \"#utility.yul\":17877:17909   */\n      0x55736572206d757374206861766520612076616c696420726f6c652069640000\n        /* \"#utility.yul\":17873:17874   */\n      0x00\n        /* \"#utility.yul\":17865:17871   */\n      dup3\n        /* \"#utility.yul\":17861:17875   */\n      add\n        /* \"#utility.yul\":17854:17910   */\n      mstore\n        /* \"#utility.yul\":17737:17917   */\n      pop\n      jump\t// out\n        /* \"#utility.yul\":17923:18289   */\n    tag_237:\n        /* \"#utility.yul\":18065:18068   */\n      0x00\n        /* \"#utility.yul\":18086:18153   */\n      tag_435\n        /* \"#utility.yul\":18150:18152   */\n      0x1e\n        /* \"#utility.yul\":18145:18148   */\n      dup4\n        /* \"#utility.yul\":18086:18153   */\n      tag_211\n      jump\t// in\n    tag_435:\n        /* \"#utility.yul\":18079:18153   */\n      swap2\n      pop\n        /* \"#utility.yul\":18162:18255   */\n      tag_436\n        /* \"#utility.yul\":18251:18254   */\n      dup3\n        /* \"#utility.yul\":18162:18255   */\n      tag_236\n      jump\t// in\n    tag_436:\n        /* \"#utility.yul\":18280:18282   */\n      0x20\n        /* \"#utility.yul\":18275:18278   */\n      dup3\n        /* \"#utility.yul\":18271:18283   */\n      add\n        /* \"#utility.yul\":18264:18283   */\n      swap1\n      pop\n        /* \"#utility.yul\":17923:18289   */\n      swap2\n      swap1\n      pop\n      jump\t// out\n        /* \"#utility.yul\":18295:18714   */\n    tag_89:\n        /* \"#utility.yul\":18461:18465   */\n      0x00\n        /* \"#utility.yul\":18499:18501   */\n      0x20\n        /* \"#utility.yul\":18488:18497   */\n      dup3\n        /* \"#utility.yul\":18484:18502   */\n      add\n        /* \"#utility.yul\":18476:18502   */\n      swap1\n      pop\n        /* \"#utility.yul\":18548:18557   */\n      dup2\n        /* \"#utility.yul\":18542:18546   */\n      dup2\n        /* \"#utility.yul\":18538:18558   */\n      sub\n        /* \"#utility.yul\":18534:18535   */\n      0x00\n        /* \"#utility.yul\":18523:18532   */\n      dup4\n        /* \"#utility.yul\":18519:18536   */\n      add\n        /* \"#utility.yul\":18512:18559   */\n      mstore\n        /* \"#utility.yul\":18576:18707   */\n      tag_438\n        /* \"#utility.yul\":18702:18706   */\n      dup2\n        /* \"#utility.yul\":18576:18707   */\n      tag_237\n      jump\t// in\n    tag_438:\n        /* \"#utility.yul\":18568:18707   */\n      swap1\n      pop\n        /* \"#utility.yul\":18295:18714   */\n      swap2\n      swap1\n      pop\n      jump\t// out\n        /* \"#utility.yul\":18720:18868   */\n    tag_238:\n        /* \"#utility.yul\":18822:18833   */\n      0x00\n        /* \"#utility.yul\":18859:18862   */\n      dup2\n        /* \"#utility.yul\":18844:18862   */\n      swap1\n      pop\n        /* \"#utility.yul\":18720:18868   */\n      swap3\n      swap2\n      pop\n      pop\n      jump\t// out\n        /* \"#utility.yul\":18874:19264   */\n    tag_239:\n        /* \"#utility.yul\":18980:18983   */\n      0x00\n        /* \"#utility.yul\":19008:19047   */\n      tag_441\n        /* \"#utility.yul\":19041:19046   */\n      dup3\n        /* \"#utility.yul\":19008:19047   */\n      tag_210\n      jump\t// in\n    tag_441:\n        /* \"#utility.yul\":19063:19152   */\n      tag_442\n        /* \"#utility.yul\":19145:19151   */\n      dup2\n        /* \"#utility.yul\":19140:19143   */\n      dup6\n        /* \"#utility.yul\":19063:19152   */\n      tag_238\n      jump\t// in\n    tag_442:\n        /* \"#utility.yul\":19056:19152   */\n      swap4\n      pop\n        /* \"#utility.yul\":19161:19226   */\n      tag_443\n        /* \"#utility.yul\":19219:19225   */\n      dup2\n        /* \"#utility.yul\":19214:19217   */\n      dup6\n        /* \"#utility.yul\":19207:19211   */\n      0x20\n        /* \"#utility.yul\":19200:19205   */\n      dup7\n        /* \"#utility.yul\":19196:19212   */\n      add\n        /* \"#utility.yul\":19161:19226   */\n      tag_212\n      jump\t// in\n    tag_443:\n        /* \"#utility.yul\":19251:19257   */\n      dup1\n        /* \"#utility.yul\":19246:19249   */\n      dup5\n        /* \"#utility.yul\":19242:19258   */\n      add\n        /* \"#utility.yul\":19235:19258   */\n      swap2\n      pop\n        /* \"#utility.yul\":18984:19264   */\n      pop\n        /* \"#utility.yul\":18874:19264   */\n      swap3\n      swap2\n      pop\n      pop\n      jump\t// out\n        /* \"#utility.yul\":19270:19545   */\n    tag_97:\n        /* \"#utility.yul\":19402:19405   */\n      0x00\n        /* \"#utility.yul\":19424:19519   */\n      tag_445\n        /* \"#utility.yul\":19515:19518   */\n      dup3\n        /* \"#utility.yul\":19506:19512   */\n      dup5\n        /* \"#utility.yul\":19424:19519   */\n      tag_239\n      jump\t// in\n    tag_445:\n        /* \"#utility.yul\":19417:19519   */\n      swap2\n      pop\n        /* \"#utility.yul\":19536:19539   */\n      dup2\n        /* \"#utility.yul\":19529:19539   */\n      swap1\n      pop\n        /* \"#utility.yul\":19270:19545   */\n      swap3\n      swap2\n      pop\n      pop\n      jump\t// out\n        /* \"#utility.yul\":19575:20406   */\n    tag_240:\n        /* \"#utility.yul\":19660:19663   */\n      0x00\n        /* \"#utility.yul\":19697:19702   */\n      dup2\n        /* \"#utility.yul\":19691:19703   */\n      sload\n        /* \"#utility.yul\":19726:19762   */\n      tag_447\n        /* \"#utility.yul\":19752:19761   */\n      dup2\n        /* \"#utility.yul\":19726:19762   */\n      tag_60\n      jump\t// in\n    tag_447:\n        /* \"#utility.yul\":19778:19849   */\n      tag_448\n        /* \"#utility.yul\":19842:19848   */\n      dup2\n        /* \"#utility.yul\":19837:19840   */\n      dup7\n        /* \"#utility.yul\":19778:19849   */\n      tag_211\n      jump\t// in\n    tag_448:\n        /* \"#utility.yul\":19771:19849   */\n      swap5\n      pop\n        /* \"#utility.yul\":19880:19881   */\n      0x01\n        /* \"#utility.yul\":19869:19878   */\n      dup3\n        /* \"#utility.yul\":19865:19882   */\n      and\n        /* \"#utility.yul\":19896:19897   */\n      0x00\n        /* \"#utility.yul\":19891:20055   */\n      dup2\n      eq\n      tag_450\n      jumpi\n        /* \"#utility.yul\":20069:20070   */\n      0x01\n        /* \"#utility.yul\":20064:20400   */\n      dup2\n      eq\n      tag_451\n      jumpi\n        /* \"#utility.yul\":19858:20400   */\n      jump(tag_449)\n        /* \"#utility.yul\":19891:20055   */\n    tag_450:\n        /* \"#utility.yul\":19975:19979   */\n      0xff\n        /* \"#utility.yul\":19971:19980   */\n      not\n        /* \"#utility.yul\":19960:19969   */\n      dup4\n        /* \"#utility.yul\":19956:19981   */\n      and\n        /* \"#utility.yul\":19951:19954   */\n      dup7\n        /* \"#utility.yul\":19944:19982   */\n      mstore\n        /* \"#utility.yul\":20035:20041   */\n      dup2\n        /* \"#utility.yul\":20028:20042   */\n      iszero\n        /* \"#utility.yul\":20021:20043   */\n      iszero\n        /* \"#utility.yul\":20015:20019   */\n      0x20\n        /* \"#utility.yul\":20011:20044   */\n      mul\n        /* \"#utility.yul\":20006:20009   */\n      dup7\n        /* \"#utility.yul\":20002:20045   */\n      add\n        /* \"#utility.yul\":19995:20045   */\n      swap4\n      pop\n        /* \"#utility.yul\":19891:20055   */\n      jump(tag_449)\n        /* \"#utility.yul\":20064:20400   */\n    tag_451:\n        /* \"#utility.yul\":20131:20169   */\n      tag_452\n        /* \"#utility.yul\":20163:20168   */\n      dup6\n        /* \"#utility.yul\":20131:20169   */\n      tag_221\n      jump\t// in\n    tag_452:\n        /* \"#utility.yul\":20191:20192   */\n      0x00\n        /* \"#utility.yul\":20205:20359   */\n    tag_453:\n        /* \"#utility.yul\":20219:20225   */\n      dup4\n        /* \"#utility.yul\":20216:20217   */\n      dup2\n        /* \"#utility.yul\":20213:20226   */\n      lt\n        /* \"#utility.yul\":20205:20359   */\n      iszero\n      tag_455\n      jumpi\n        /* \"#utility.yul\":20293:20300   */\n      dup2\n        /* \"#utility.yul\":20287:20301   */\n      sload\n        /* \"#utility.yul\":20283:20284   */\n      dup2\n        /* \"#utility.yul\":20278:20281   */\n      dup10\n        /* \"#utility.yul\":20274:20285   */\n      add\n        /* \"#utility.yul\":20267:20302   */\n      mstore\n        /* \"#utility.yul\":20343:20344   */\n      0x01\n        /* \"#utility.yul\":20334:20341   */\n      dup3\n        /* \"#utility.yul\":20330:20345   */\n      add\n        /* \"#utility.yul\":20319:20345   */\n      swap2\n      pop\n        /* \"#utility.yul\":20241:20245   */\n      0x20\n        /* \"#utility.yul\":20238:20239   */\n      dup2\n        /* \"#utility.yul\":20234:20246   */\n      add\n        /* \"#utility.yul\":20229:20246   */\n      swap1\n      pop\n        /* \"#utility.yul\":20205:20359   */\n      jump(tag_453)\n    tag_455:\n        /* \"#utility.yul\":20388:20389   */\n      dup1\n        /* \"#utility.yul\":20383:20386   */\n      dup9\n        /* \"#utility.yul\":20379:20390   */\n      add\n        /* \"#utility.yul\":20372:20390   */\n      swap6\n      pop\n        /* \"#utility.yul\":20071:20400   */\n      pop\n      pop\n        /* \"#utility.yul\":19858:20400   */\n    tag_449:\n      pop\n        /* \"#utility.yul\":19664:20406   */\n      pop\n      pop\n        /* \"#utility.yul\":19575:20406   */\n      swap3\n      swap2\n      pop\n      pop\n      jump\t// out\n        /* \"#utility.yul\":20412:21232   */\n    tag_107:\n        /* \"#utility.yul\":20646:20650   */\n      0x00\n        /* \"#utility.yul\":20684:20687   */\n      0x80\n        /* \"#utility.yul\":20673:20682   */\n      dup3\n        /* \"#utility.yul\":20669:20688   */\n      add\n        /* \"#utility.yul\":20661:20688   */\n      swap1\n      pop\n        /* \"#utility.yul\":20734:20743   */\n      dup2\n        /* \"#utility.yul\":20728:20732   */\n      dup2\n        /* \"#utility.yul\":20724:20744   */\n      sub\n        /* \"#utility.yul\":20720:20721   */\n      0x00\n        /* \"#utility.yul\":20709:20718   */\n      dup4\n        /* \"#utility.yul\":20705:20722   */\n      add\n        /* \"#utility.yul\":20698:20745   */\n      mstore\n        /* \"#utility.yul\":20762:20837   */\n      tag_457\n        /* \"#utility.yul\":20832:20836   */\n      dup2\n        /* \"#utility.yul\":20823:20829   */\n      dup8\n        /* \"#utility.yul\":20762:20837   */\n      tag_240\n      jump\t// in\n    tag_457:\n        /* \"#utility.yul\":20754:20837   */\n      swap1\n      pop\n        /* \"#utility.yul\":20847:20919   */\n      tag_458\n        /* \"#utility.yul\":20915:20917   */\n      0x20\n        /* \"#utility.yul\":20904:20913   */\n      dup4\n        /* \"#utility.yul\":20900:20918   */\n      add\n        /* \"#utility.yul\":20891:20897   */\n      dup7\n        /* \"#utility.yul\":20847:20919   */\n      tag_215\n      jump\t// in\n    tag_458:\n        /* \"#utility.yul\":20966:20975   */\n      dup2\n        /* \"#utility.yul\":20960:20964   */\n      dup2\n        /* \"#utility.yul\":20956:20976   */\n      sub\n        /* \"#utility.yul\":20951:20953   */\n      0x40\n        /* \"#utility.yul\":20940:20949   */\n      dup4\n        /* \"#utility.yul\":20936:20954   */\n      add\n        /* \"#utility.yul\":20929:20977   */\n      mstore\n        /* \"#utility.yul\":20994:21072   */\n      tag_459\n        /* \"#utility.yul\":21067:21071   */\n      dup2\n        /* \"#utility.yul\":21058:21064   */\n      dup6\n        /* \"#utility.yul\":20994:21072   */\n      tag_213\n      jump\t// in\n    tag_459:\n        /* \"#utility.yul\":20986:21072   */\n      swap1\n      pop\n        /* \"#utility.yul\":21119:21128   */\n      dup2\n        /* \"#utility.yul\":21113:21117   */\n      dup2\n        /* \"#utility.yul\":21109:21129   */\n      sub\n        /* \"#utility.yul\":21104:21106   */\n      0x60\n        /* \"#utility.yul\":21093:21102   */\n      dup4\n        /* \"#utility.yul\":21089:21107   */\n      add\n        /* \"#utility.yul\":21082:21130   */\n      mstore\n        /* \"#utility.yul\":21147:21225   */\n      tag_460\n        /* \"#utility.yul\":21220:21224   */\n      dup2\n        /* \"#utility.yul\":21211:21217   */\n      dup5\n        /* \"#utility.yul\":21147:21225   */\n      tag_213\n      jump\t// in\n    tag_460:\n        /* \"#utility.yul\":21139:21225   */\n      swap1\n      pop\n        /* \"#utility.yul\":20412:21232   */\n      swap6\n      swap5\n      pop\n      pop\n      pop\n      pop\n      pop\n      jump\t// out\n        /* \"#utility.yul\":21238:22260   */\n    tag_111:\n        /* \"#utility.yul\":21520:21524   */\n      0x00\n        /* \"#utility.yul\":21558:21561   */\n      0xa0\n        /* \"#utility.yul\":21547:21556   */\n      dup3\n        /* \"#utility.yul\":21543:21562   */\n      add\n        /* \"#utility.yul\":21535:21562   */\n      swap1\n      pop\n        /* \"#utility.yul\":21608:21617   */\n      dup2\n        /* \"#utility.yul\":21602:21606   */\n      dup2\n        /* \"#utility.yul\":21598:21618   */\n      sub\n        /* \"#utility.yul\":21594:21595   */\n      0x00\n        /* \"#utility.yul\":21583:21592   */\n      dup4\n        /* \"#utility.yul\":21579:21596   */\n      add\n        /* \"#utility.yul\":21572:21619   */\n      mstore\n        /* \"#utility.yul\":21636:21711   */\n      tag_462\n        /* \"#utility.yul\":21706:21710   */\n      dup2\n        /* \"#utility.yul\":21697:21703   */\n      dup9\n        /* \"#utility.yul\":21636:21711   */\n      tag_240\n      jump\t// in\n    tag_462:\n        /* \"#utility.yul\":21628:21711   */\n      swap1\n      pop\n        /* \"#utility.yul\":21758:21767   */\n      dup2\n        /* \"#utility.yul\":21752:21756   */\n      dup2\n        /* \"#utility.yul\":21748:21768   */\n      sub\n        /* \"#utility.yul\":21743:21745   */\n      0x20\n        /* \"#utility.yul\":21732:21741   */\n      dup4\n        /* \"#utility.yul\":21728:21746   */\n      add\n        /* \"#utility.yul\":21721:21769   */\n      mstore\n        /* \"#utility.yul\":21786:21864   */\n      tag_463\n        /* \"#utility.yul\":21859:21863   */\n      dup2\n        /* \"#utility.yul\":21850:21856   */\n      dup8\n        /* \"#utility.yul\":21786:21864   */\n      tag_213\n      jump\t// in\n    tag_463:\n        /* \"#utility.yul\":21778:21864   */\n      swap1\n      pop\n        /* \"#utility.yul\":21874:21946   */\n      tag_464\n        /* \"#utility.yul\":21942:21944   */\n      0x40\n        /* \"#utility.yul\":21931:21940   */\n      dup4\n        /* \"#utility.yul\":21927:21945   */\n      add\n        /* \"#utility.yul\":21918:21924   */\n      dup7\n        /* \"#utility.yul\":21874:21946   */\n      tag_215\n      jump\t// in\n    tag_464:\n        /* \"#utility.yul\":21993:22002   */\n      dup2\n        /* \"#utility.yul\":21987:21991   */\n      dup2\n        /* \"#utility.yul\":21983:22003   */\n      sub\n        /* \"#utility.yul\":21978:21980   */\n      0x60\n        /* \"#utility.yul\":21967:21976   */\n      dup4\n        /* \"#utility.yul\":21963:21981   */\n      add\n        /* \"#utility.yul\":21956:22004   */\n      mstore\n        /* \"#utility.yul\":22021:22099   */\n      tag_465\n        /* \"#utility.yul\":22094:22098   */\n      dup2\n        /* \"#utility.yul\":22085:22091   */\n      dup6\n        /* \"#utility.yul\":22021:22099   */\n      tag_213\n      jump\t// in\n    tag_465:\n        /* \"#utility.yul\":22013:22099   */\n      swap1\n      pop\n        /* \"#utility.yul\":22147:22156   */\n      dup2\n        /* \"#utility.yul\":22141:22145   */\n      dup2\n        /* \"#utility.yul\":22137:22157   */\n      sub\n        /* \"#utility.yul\":22131:22134   */\n      0x80\n        /* \"#utility.yul\":22120:22129   */\n      dup4\n        /* \"#utility.yul\":22116:22135   */\n      add\n        /* \"#utility.yul\":22109:22158   */\n      mstore\n        /* \"#utility.yul\":22175:22253   */\n      tag_466\n        /* \"#utility.yul\":22248:22252   */\n      dup2\n        /* \"#utility.yul\":22239:22245   */\n      dup5\n        /* \"#utility.yul\":22175:22253   */\n      tag_213\n      jump\t// in\n    tag_466:\n        /* \"#utility.yul\":22167:22253   */\n      swap1\n      pop\n        /* \"#utility.yul\":21238:22260   */\n      swap7\n      swap6\n      pop\n      pop\n      pop\n      pop\n      pop\n      pop\n      jump\t// out\n\n    auxdata: 0xa26469706673582212209c6dace2d2df3caba8e7613c0d9a424e37cb1eab3a371ab7adc729806a9fdd2864736f6c63430008140033\n}\n",
				"bytecode": {
					"linkReferences": {},
					"object": "608060405234801562000010575f80fd5b50335f73ffffffffffffffffffffffffffffffffffffffff168173ffffffffffffffffffffffffffffffffffffffff160362000085575f6040517f1e4fbdf70000000000000000000000000000000000000000000000000000000081526004016200007c9190620001a1565b60405180910390fd5b62000096816200009d60201b60201c565b50620001bc565b5f805f9054906101000a900473ffffffffffffffffffffffffffffffffffffffff169050815f806101000a81548173ffffffffffffffffffffffffffffffffffffffff021916908373ffffffffffffffffffffffffffffffffffffffff1602179055508173ffffffffffffffffffffffffffffffffffffffff168173ffffffffffffffffffffffffffffffffffffffff167f8be0079c531659141344cd1fd0a4f28419497f9722a3daafe3b4186f6b6457e060405160405180910390a35050565b5f73ffffffffffffffffffffffffffffffffffffffff82169050919050565b5f62000189826200015e565b9050919050565b6200019b816200017d565b82525050565b5f602082019050620001b65f83018462000190565b92915050565b611e2180620001ca5f395ff3fe608060405234801561000f575f80fd5b5060043610610091575f3560e01c80636c0c378d116100645780636c0c378d14610134578063715018a61461016b5780638da5cb5b14610175578063d0c5384814610193578063f2fde38b146101c357610091565b806306d3f233146100955780631792da60146100b1578063490a370e146100e857806353060fac14610104575b5f80fd5b6100af60048036038101906100aa9190611484565b6101df565b005b6100cb60048036038101906100c691906114f0565b6102c9565b6040516100df9897969594939291906115cf565b60405180910390f35b61010260048036038101906100fd9190611750565b6105e2565b005b61011e60048036038101906101199190611879565b610a92565b60405161012b91906118a4565b60405180910390f35b61014e600480360381019061014991906114f0565b610aa7565b6040516101629897969594939291906115cf565b60405180910390f35b610173610f30565b005b61017d610f43565b60405161018a91906118bd565b60405180910390f35b6101ad60048036038101906101a89190611879565b610f6a565b6040516101ba91906118d6565b60405180910390f35b6101dd60048036038101906101d89190611879565b611005565b005b6101e7611089565b8160015f8573ffffffffffffffffffffffffffffffffffffffff1673ffffffffffffffffffffffffffffffffffffffff1681526020019081526020015f20819055508060025f8573ffffffffffffffffffffffffffffffffffffffff1673ffffffffffffffffffffffffffffffffffffffff1681526020019081526020015f2090816102739190611af0565b508273ffffffffffffffffffffffffffffffffffffffff167f75541d04f577c4b73a2a0439aa5f65abbc21fb391c30e2147bb341bd2e90de7683836040516102bc929190611bbf565b60405180910390a2505050565b6003818051602081018201805184825260208301602085012081835280955050505050505f91509050805f01805461030090611923565b80601f016020809104026020016040519081016040528092919081815260200182805461032c90611923565b80156103775780601f1061034e57610100808354040283529160200191610377565b820191905f5260205f20905b81548152906001019060200180831161035a57829003601f168201915b505050505090806001015f9054906101000a900473ffffffffffffffffffffffffffffffffffffffff16908060020180546103b190611923565b80601f01602080910402602001604051908101604052809291908181526020018280546103dd90611923565b80156104285780601f106103ff57610100808354040283529160200191610428565b820191905f5260205f20905b81548152906001019060200180831161040b57829003601f168201915b50505050509080600301549080600401805461044390611923565b80601f016020809104026020016040519081016040528092919081815260200182805461046f90611923565b80156104ba5780601f10610491576101008083540402835291602001916104ba565b820191905f5260205f20905b81548152906001019060200180831161049d57829003601f168201915b5050505050908060050180546104cf90611923565b80601f01602080910402602001604051908101604052809291908181526020018280546104fb90611923565b80156105465780601f1061051d57610100808354040283529160200191610546565b820191905f5260205f20905b81548152906001019060200180831161052957829003601f168201915b50505050509080600701805461055b90611923565b80601f016020809104026020016040519081016040528092919081815260200182805461058790611923565b80156105d25780601f106105a9576101008083540402835291602001916105d2565b820191905f5260205f20905b8154815290600101906020018083116105b557829003601f168201915b5050505050908060080154905088565b5f60015f3373ffffffffffffffffffffffffffffffffffffffff1673ffffffffffffffffffffffffffffffffffffffff1681526020019081526020015f20541415801561066c5750600560015f3373ffffffffffffffffffffffffffffffffffffffff1673ffffffffffffffffffffffffffffffffffffffff1681526020019081526020015f2054105b6106ab576040517f08c379a00000000000000000000000000000000000000000000000000000000081526004016106a290611c37565b60405180910390fd5b600260015f3373ffffffffffffffffffffffffffffffffffffffff1673ffffffffffffffffffffffffffffffffffffffff1681526020019081526020015f2054146107055760405180602001604052805f81525091505f90505b60405180610120016040528060025f3373ffffffffffffffffffffffffffffffffffffffff1673ffffffffffffffffffffffffffffffffffffffff1681526020019081526020015f20805461075990611923565b80601f016020809104026020016040519081016040528092919081815260200182805461078590611923565b80156107d05780601f106107a7576101008083540402835291602001916107d0565b820191905f5260205f20905b8154815290600101906020018083116107b357829003601f168201915b505050505081526020013373ffffffffffffffffffffffffffffffffffffffff1681526020018881526020018781526020018681526020018581526020018481526020018381526020018281525060038860405161082e9190611c8f565b90815260200160405180910390205f820151815f01908161084f9190611af0565b506020820151816001015f6101000a81548173ffffffffffffffffffffffffffffffffffffffff021916908373ffffffffffffffffffffffffffffffffffffffff16021790555060408201518160020190816108ab9190611af0565b506060820151816003015560808201518160040190816108cb9190611af0565b5060a08201518160050190816108e19190611af0565b5060c08201518160060190805190602001906108fe9291906111d8565b5060e08201518160070190816109149190611af0565b506101008201518160080155905050866040516109319190611c8f565b60405180910390207f4ec0335d49ce48af3b2be1555f2724c6aded22db73f58d175f703be14044b99b60025f3373ffffffffffffffffffffffffffffffffffffffff1673ffffffffffffffffffffffffffffffffffffffff1681526020019081526020015f208888886040516109aa9493929190611d26565b60405180910390a2600260015f3373ffffffffffffffffffffffffffffffffffffffff1673ffffffffffffffffffffffffffffffffffffffff1681526020019081526020015f205403610a895786604051610a059190611c8f565b60405180910390207fd0d34aa945315e3f0b3e36799a4d0751af195ca3a10841986740a9140e824dff60025f3373ffffffffffffffffffffffffffffffffffffffff1673ffffffffffffffffffffffffffffffffffffffff1681526020019081526020015f2084848989604051610a80959493929190611d7e565b60405180910390a25b50505050505050565b6001602052805f5260405f205f915090505481565b60605f60605f60608060605f8060038a604051610ac49190611c8f565b9081526020016040518091039020604051806101200160405290815f82018054610aed90611923565b80601f0160208091040260200160405190810160405280929190818152602001828054610b1990611923565b8015610b645780601f10610b3b57610100808354040283529160200191610b64565b820191905f5260205f20905b815481529060010190602001808311610b4757829003601f168201915b50505050508152602001600182015f9054906101000a900473ffffffffffffffffffffffffffffffffffffffff1673ffffffffffffffffffffffffffffffffffffffff1673ffffffffffffffffffffffffffffffffffffffff168152602001600282018054610bd290611923565b80601f0160208091040260200160405190810160405280929190818152602001828054610bfe90611923565b8015610c495780601f10610c2057610100808354040283529160200191610c49565b820191905f5260205f20905b815481529060010190602001808311610c2c57829003601f168201915b5050505050815260200160038201548152602001600482018054610c6c90611923565b80601f0160208091040260200160405190810160405280929190818152602001828054610c9890611923565b8015610ce35780601f10610cba57610100808354040283529160200191610ce3565b820191905f5260205f20905b815481529060010190602001808311610cc657829003601f168201915b50505050508152602001600582018054610cfc90611923565b80601f0160208091040260200160405190810160405280929190818152602001828054610d2890611923565b8015610d735780601f10610d4a57610100808354040283529160200191610d73565b820191905f5260205f20905b815481529060010190602001808311610d5657829003601f168201915b5050505050815260200160068201805480602002602001604051908101604052809291908181526020015f905b82821015610e48578382905f5260205f20018054610dbd90611923565b80601f0160208091040260200160405190810160405280929190818152602001828054610de990611923565b8015610e345780601f10610e0b57610100808354040283529160200191610e34565b820191905f5260205f20905b815481529060010190602001808311610e1757829003601f168201915b505050505081526020019060010190610da0565b505050508152602001600782018054610e6090611923565b80601f0160208091040260200160405190810160405280929190818152602001828054610e8c90611923565b8015610ed75780601f10610eae57610100808354040283529160200191610ed7565b820191905f5260205f20905b815481529060010190602001808311610eba57829003601f168201915b505050505081526020016008820154815250509050805f015181602001518260400151836060015184608001518560a001518660e001518761010001519850985098509850985098509850985050919395975091939597565b610f38611089565b610f415f611110565b565b5f805f9054906101000a900473ffffffffffffffffffffffffffffffffffffffff16905090565b6002602052805f5260405f205f915090508054610f8690611923565b80601f0160208091040260200160405190810160405280929190818152602001828054610fb290611923565b8015610ffd5780601f10610fd457610100808354040283529160200191610ffd565b820191905f5260205f20905b815481529060010190602001808311610fe057829003601f168201915b505050505081565b61100d611089565b5f73ffffffffffffffffffffffffffffffffffffffff168173ffffffffffffffffffffffffffffffffffffffff160361107d575f6040517f1e4fbdf700000000000000000000000000000000000000000000000000000000815260040161107491906118bd565b60405180910390fd5b61108681611110565b50565b6110916111d1565b73ffffffffffffffffffffffffffffffffffffffff166110af610f43565b73ffffffffffffffffffffffffffffffffffffffff161461110e576110d26111d1565b6040517f118cdaa700000000000000000000000000000000000000000000000000000000815260040161110591906118bd565b60405180910390fd5b565b5f805f9054906101000a900473ffffffffffffffffffffffffffffffffffffffff169050815f806101000a81548173ffffffffffffffffffffffffffffffffffffffff021916908373ffffffffffffffffffffffffffffffffffffffff1602179055508173ffffffffffffffffffffffffffffffffffffffff168173ffffffffffffffffffffffffffffffffffffffff167f8be0079c531659141344cd1fd0a4f28419497f9722a3daafe3b4186f6b6457e060405160405180910390a35050565b5f33905090565b828054828255905f5260205f2090810192821561121e579160200282015b8281111561121d57825182908161120d9190611af0565b50916020019190600101906111f6565b5b50905061122b919061122f565b5090565b5b8082111561124e575f81816112459190611252565b50600101611230565b5090565b50805461125e90611923565b5f825580601f1061126f575061128c565b601f0160209004905f5260205f209081019061128b919061128f565b5b50565b5b808211156112a6575f815f905550600101611290565b5090565b5f604051905090565b5f80fd5b5f80fd5b5f73ffffffffffffffffffffffffffffffffffffffff82169050919050565b5f6112e4826112bb565b9050919050565b6112f4816112da565b81146112fe575f80fd5b50565b5f8135905061130f816112eb565b92915050565b5f819050919050565b61132781611315565b8114611331575f80fd5b50565b5f813590506113428161131e565b92915050565b5f80fd5b5f80fd5b5f601f19601f8301169050919050565b7f4e487b71000000000000000000000000000000000000000000000000000000005f52604160045260245ffd5b61139682611350565b810181811067ffffffffffffffff821117156113b5576113b4611360565b5b80604052505050565b5f6113c76112aa565b90506113d3828261138d565b919050565b5f67ffffffffffffffff8211156113f2576113f1611360565b5b6113fb82611350565b9050602081019050919050565b828183375f83830152505050565b5f611428611423846113d8565b6113be565b9050828152602081018484840111156114445761144361134c565b5b61144f848285611408565b509392505050565b5f82601f83011261146b5761146a611348565b5b813561147b848260208601611416565b91505092915050565b5f805f6060848603121561149b5761149a6112b3565b5b5f6114a886828701611301565b93505060206114b986828701611334565b925050604084013567ffffffffffffffff8111156114da576114d96112b7565b5b6114e686828701611457565b9150509250925092565b5f60208284031215611505576115046112b3565b5b5f82013567ffffffffffffffff811115611522576115216112b7565b5b61152e84828501611457565b91505092915050565b5f81519050919050565b5f82825260208201905092915050565b5f5b8381101561156e578082015181840152602081019050611553565b5f8484015250505050565b5f61158382611537565b61158d8185611541565b935061159d818560208601611551565b6115a681611350565b840191505092915050565b6115ba816112da565b82525050565b6115c981611315565b82525050565b5f610100820190508181035f8301526115e8818b611579565b90506115f7602083018a6115b1565b81810360408301526116098189611579565b905061161860608301886115c0565b818103608083015261162a8187611579565b905081810360a083015261163e8186611579565b905081810360c08301526116528185611579565b905061166160e08301846115c0565b9998505050505050505050565b5f67ffffffffffffffff82111561168857611687611360565b5b602082029050602081019050919050565b5f80fd5b5f6116af6116aa8461166e565b6113be565b905080838252602082019050602084028301858111156116d2576116d1611699565b5b835b8181101561171957803567ffffffffffffffff8111156116f7576116f6611348565b5b8086016117048982611457565b855260208501945050506020810190506116d4565b5050509392505050565b5f82601f83011261173757611736611348565b5b813561174784826020860161169d565b91505092915050565b5f805f805f805f60e0888a03121561176b5761176a6112b3565b5b5f88013567ffffffffffffffff811115611788576117876112b7565b5b6117948a828b01611457565b97505060206117a58a828b01611334565b965050604088013567ffffffffffffffff8111156117c6576117c56112b7565b5b6117d28a828b01611457565b955050606088013567ffffffffffffffff8111156117f3576117f26112b7565b5b6117ff8a828b01611457565b945050608088013567ffffffffffffffff8111156118205761181f6112b7565b5b61182c8a828b01611723565b93505060a088013567ffffffffffffffff81111561184d5761184c6112b7565b5b6118598a828b01611457565b92505060c061186a8a828b01611334565b91505092959891949750929550565b5f6020828403121561188e5761188d6112b3565b5b5f61189b84828501611301565b91505092915050565b5f6020820190506118b75f8301846115c0565b92915050565b5f6020820190506118d05f8301846115b1565b92915050565b5f6020820190508181035f8301526118ee8184611579565b905092915050565b7f4e487b71000000000000000000000000000000000000000000000000000000005f52602260045260245ffd5b5f600282049050600182168061193a57607f821691505b60208210810361194d5761194c6118f6565b5b50919050565b5f819050815f5260205f209050919050565b5f6020601f8301049050919050565b5f82821b905092915050565b5f600883026119af7fffffffffffffffffffffffffffffffffffffffffffffffffffffffffffffffff82611974565b6119b98683611974565b95508019841693508086168417925050509392505050565b5f819050919050565b5f6119f46119ef6119ea84611315565b6119d1565b611315565b9050919050565b5f819050919050565b611a0d836119da565b611a21611a19826119fb565b848454611980565b825550505050565b5f90565b611a35611a29565b611a40818484611a04565b505050565b5b81811015611a6357611a585f82611a2d565b600181019050611a46565b5050565b601f821115611aa857611a7981611953565b611a8284611965565b81016020851015611a91578190505b611aa5611a9d85611965565b830182611a45565b50505b505050565b5f82821c905092915050565b5f611ac85f1984600802611aad565b1980831691505092915050565b5f611ae08383611ab9565b9150826002028217905092915050565b611af982611537565b67ffffffffffffffff811115611b1257611b11611360565b5b611b1c8254611923565b611b27828285611a67565b5f60209050601f831160018114611b58575f8415611b46578287015190505b611b508582611ad5565b865550611bb7565b601f198416611b6686611953565b5f5b82811015611b8d57848901518255600182019150602085019450602081019050611b68565b86831015611baa5784890151611ba6601f891682611ab9565b8355505b6001600288020188555050505b505050505050565b5f604082019050611bd25f8301856115c0565b8181036020830152611be48184611579565b90509392505050565b7f55736572206d757374206861766520612076616c696420726f6c6520696400005f82015250565b5f611c21601e83611541565b9150611c2c82611bed565b602082019050919050565b5f6020820190508181035f830152611c4e81611c15565b9050919050565b5f81905092915050565b5f611c6982611537565b611c738185611c55565b9350611c83818560208601611551565b80840191505092915050565b5f611c9a8284611c5f565b915081905092915050565b5f8154611cb181611923565b611cbb8186611541565b9450600182165f8114611cd55760018114611ceb57611d1d565b60ff198316865281151560200286019350611d1d565b611cf485611953565b5f5b83811015611d1557815481890152600182019150602081019050611cf6565b808801955050505b50505092915050565b5f6080820190508181035f830152611d3e8187611ca5565b9050611d4d60208301866115c0565b8181036040830152611d5f8185611579565b90508181036060830152611d738184611579565b905095945050505050565b5f60a0820190508181035f830152611d968188611ca5565b90508181036020830152611daa8187611579565b9050611db960408301866115c0565b8181036060830152611dcb8185611579565b90508181036080830152611ddf8184611579565b9050969550505050505056fea26469706673582212209c6dace2d2df3caba8e7613c0d9a424e37cb1eab3a371ab7adc729806a9fdd2864736f6c63430008140033",
					"opcodes": "PUSH1 0x80 PUSH1 0x40 MSTORE CALLVALUE DUP1 ISZERO PUSH3 0x10 JUMPI PUSH0 DUP1 REVERT JUMPDEST POP CALLER PUSH0 PUSH20 0xFFFFFFFFFFFFFFFFFFFFFFFFFFFFFFFFFFFFFFFF AND DUP2 PUSH20 0xFFFFFFFFFFFFFFFFFFFFFFFFFFFFFFFFFFFFFFFF AND SUB PUSH3 0x85 JUMPI PUSH0 PUSH1 0x40 MLOAD PUSH32 0x1E4FBDF700000000000000000000000000000000000000000000000000000000 DUP2 MSTORE PUSH1 0x4 ADD PUSH3 0x7C SWAP2 SWAP1 PUSH3 0x1A1 JUMP JUMPDEST PUSH1 0x40 MLOAD DUP1 SWAP2 SUB SWAP1 REVERT JUMPDEST PUSH3 0x96 DUP2 PUSH3 0x9D PUSH1 0x20 SHL PUSH1 0x20 SHR JUMP JUMPDEST POP PUSH3 0x1BC JUMP JUMPDEST PUSH0 DUP1 PUSH0 SWAP1 SLOAD SWAP1 PUSH2 0x100 EXP SWAP1 DIV PUSH20 0xFFFFFFFFFFFFFFFFFFFFFFFFFFFFFFFFFFFFFFFF AND SWAP1 POP DUP2 PUSH0 DUP1 PUSH2 0x100 EXP DUP2 SLOAD DUP2 PUSH20 0xFFFFFFFFFFFFFFFFFFFFFFFFFFFFFFFFFFFFFFFF MUL NOT AND SWAP1 DUP4 PUSH20 0xFFFFFFFFFFFFFFFFFFFFFFFFFFFFFFFFFFFFFFFF AND MUL OR SWAP1 SSTORE POP DUP2 PUSH20 0xFFFFFFFFFFFFFFFFFFFFFFFFFFFFFFFFFFFFFFFF AND DUP2 PUSH20 0xFFFFFFFFFFFFFFFFFFFFFFFFFFFFFFFFFFFFFFFF AND PUSH32 0x8BE0079C531659141344CD1FD0A4F28419497F9722A3DAAFE3B4186F6B6457E0 PUSH1 0x40 MLOAD PUSH1 0x40 MLOAD DUP1 SWAP2 SUB SWAP1 LOG3 POP POP JUMP JUMPDEST PUSH0 PUSH20 0xFFFFFFFFFFFFFFFFFFFFFFFFFFFFFFFFFFFFFFFF DUP3 AND SWAP1 POP SWAP2 SWAP1 POP JUMP JUMPDEST PUSH0 PUSH3 0x189 DUP3 PUSH3 0x15E JUMP JUMPDEST SWAP1 POP SWAP2 SWAP1 POP JUMP JUMPDEST PUSH3 0x19B DUP2 PUSH3 0x17D JUMP JUMPDEST DUP3 MSTORE POP POP JUMP JUMPDEST PUSH0 PUSH1 0x20 DUP3 ADD SWAP1 POP PUSH3 0x1B6 PUSH0 DUP4 ADD DUP5 PUSH3 0x190 JUMP JUMPDEST SWAP3 SWAP2 POP POP JUMP JUMPDEST PUSH2 0x1E21 DUP1 PUSH3 0x1CA PUSH0 CODECOPY PUSH0 RETURN INVALID PUSH1 0x80 PUSH1 0x40 MSTORE CALLVALUE DUP1 ISZERO PUSH2 0xF JUMPI PUSH0 DUP1 REVERT JUMPDEST POP PUSH1 0x4 CALLDATASIZE LT PUSH2 0x91 JUMPI PUSH0 CALLDATALOAD PUSH1 0xE0 SHR DUP1 PUSH4 0x6C0C378D GT PUSH2 0x64 JUMPI DUP1 PUSH4 0x6C0C378D EQ PUSH2 0x134 JUMPI DUP1 PUSH4 0x715018A6 EQ PUSH2 0x16B JUMPI DUP1 PUSH4 0x8DA5CB5B EQ PUSH2 0x175 JUMPI DUP1 PUSH4 0xD0C53848 EQ PUSH2 0x193 JUMPI DUP1 PUSH4 0xF2FDE38B EQ PUSH2 0x1C3 JUMPI PUSH2 0x91 JUMP JUMPDEST DUP1 PUSH4 0x6D3F233 EQ PUSH2 0x95 JUMPI DUP1 PUSH4 0x1792DA60 EQ PUSH2 0xB1 JUMPI DUP1 PUSH4 0x490A370E EQ PUSH2 0xE8 JUMPI DUP1 PUSH4 0x53060FAC EQ PUSH2 0x104 JUMPI JUMPDEST PUSH0 DUP1 REVERT JUMPDEST PUSH2 0xAF PUSH1 0x4 DUP1 CALLDATASIZE SUB DUP2 ADD SWAP1 PUSH2 0xAA SWAP2 SWAP1 PUSH2 0x1484 JUMP JUMPDEST PUSH2 0x1DF JUMP JUMPDEST STOP JUMPDEST PUSH2 0xCB PUSH1 0x4 DUP1 CALLDATASIZE SUB DUP2 ADD SWAP1 PUSH2 0xC6 SWAP2 SWAP1 PUSH2 0x14F0 JUMP JUMPDEST PUSH2 0x2C9 JUMP JUMPDEST PUSH1 0x40 MLOAD PUSH2 0xDF SWAP9 SWAP8 SWAP7 SWAP6 SWAP5 SWAP4 SWAP3 SWAP2 SWAP1 PUSH2 0x15CF JUMP JUMPDEST PUSH1 0x40 MLOAD DUP1 SWAP2 SUB SWAP1 RETURN JUMPDEST PUSH2 0x102 PUSH1 0x4 DUP1 CALLDATASIZE SUB DUP2 ADD SWAP1 PUSH2 0xFD SWAP2 SWAP1 PUSH2 0x1750 JUMP JUMPDEST PUSH2 0x5E2 JUMP JUMPDEST STOP JUMPDEST PUSH2 0x11E PUSH1 0x4 DUP1 CALLDATASIZE SUB DUP2 ADD SWAP1 PUSH2 0x119 SWAP2 SWAP1 PUSH2 0x1879 JUMP JUMPDEST PUSH2 0xA92 JUMP JUMPDEST PUSH1 0x40 MLOAD PUSH2 0x12B SWAP2 SWAP1 PUSH2 0x18A4 JUMP JUMPDEST PUSH1 0x40 MLOAD DUP1 SWAP2 SUB SWAP1 RETURN JUMPDEST PUSH2 0x14E PUSH1 0x4 DUP1 CALLDATASIZE SUB DUP2 ADD SWAP1 PUSH2 0x149 SWAP2 SWAP1 PUSH2 0x14F0 JUMP JUMPDEST PUSH2 0xAA7 JUMP JUMPDEST PUSH1 0x40 MLOAD PUSH2 0x162 SWAP9 SWAP8 SWAP7 SWAP6 SWAP5 SWAP4 SWAP3 SWAP2 SWAP1 PUSH2 0x15CF JUMP JUMPDEST PUSH1 0x40 MLOAD DUP1 SWAP2 SUB SWAP1 RETURN JUMPDEST PUSH2 0x173 PUSH2 0xF30 JUMP JUMPDEST STOP JUMPDEST PUSH2 0x17D PUSH2 0xF43 JUMP JUMPDEST PUSH1 0x40 MLOAD PUSH2 0x18A SWAP2 SWAP1 PUSH2 0x18BD JUMP JUMPDEST PUSH1 0x40 MLOAD DUP1 SWAP2 SUB SWAP1 RETURN JUMPDEST PUSH2 0x1AD PUSH1 0x4 DUP1 CALLDATASIZE SUB DUP2 ADD SWAP1 PUSH2 0x1A8 SWAP2 SWAP1 PUSH2 0x1879 JUMP JUMPDEST PUSH2 0xF6A JUMP JUMPDEST PUSH1 0x40 MLOAD PUSH2 0x1BA SWAP2 SWAP1 PUSH2 0x18D6 JUMP JUMPDEST PUSH1 0x40 MLOAD DUP1 SWAP2 SUB SWAP1 RETURN JUMPDEST PUSH2 0x1DD PUSH1 0x4 DUP1 CALLDATASIZE SUB DUP2 ADD SWAP1 PUSH2 0x1D8 SWAP2 SWAP1 PUSH2 0x1879 JUMP JUMPDEST PUSH2 0x1005 JUMP JUMPDEST STOP JUMPDEST PUSH2 0x1E7 PUSH2 0x1089 JUMP JUMPDEST DUP2 PUSH1 0x1 PUSH0 DUP6 PUSH20 0xFFFFFFFFFFFFFFFFFFFFFFFFFFFFFFFFFFFFFFFF AND PUSH20 0xFFFFFFFFFFFFFFFFFFFFFFFFFFFFFFFFFFFFFFFF AND DUP2 MSTORE PUSH1 0x20 ADD SWAP1 DUP2 MSTORE PUSH1 0x20 ADD PUSH0 KECCAK256 DUP2 SWAP1 SSTORE POP DUP1 PUSH1 0x2 PUSH0 DUP6 PUSH20 0xFFFFFFFFFFFFFFFFFFFFFFFFFFFFFFFFFFFFFFFF AND PUSH20 0xFFFFFFFFFFFFFFFFFFFFFFFFFFFFFFFFFFFFFFFF AND DUP2 MSTORE PUSH1 0x20 ADD SWAP1 DUP2 MSTORE PUSH1 0x20 ADD PUSH0 KECCAK256 SWAP1 DUP2 PUSH2 0x273 SWAP2 SWAP1 PUSH2 0x1AF0 JUMP JUMPDEST POP DUP3 PUSH20 0xFFFFFFFFFFFFFFFFFFFFFFFFFFFFFFFFFFFFFFFF AND PUSH32 0x75541D04F577C4B73A2A0439AA5F65ABBC21FB391C30E2147BB341BD2E90DE76 DUP4 DUP4 PUSH1 0x40 MLOAD PUSH2 0x2BC SWAP3 SWAP2 SWAP1 PUSH2 0x1BBF JUMP JUMPDEST PUSH1 0x40 MLOAD DUP1 SWAP2 SUB SWAP1 LOG2 POP POP POP JUMP JUMPDEST PUSH1 0x3 DUP2 DUP1 MLOAD PUSH1 0x20 DUP2 ADD DUP3 ADD DUP1 MLOAD DUP5 DUP3 MSTORE PUSH1 0x20 DUP4 ADD PUSH1 0x20 DUP6 ADD KECCAK256 DUP2 DUP4 MSTORE DUP1 SWAP6 POP POP POP POP POP POP PUSH0 SWAP2 POP SWAP1 POP DUP1 PUSH0 ADD DUP1 SLOAD PUSH2 0x300 SWAP1 PUSH2 0x1923 JUMP JUMPDEST DUP1 PUSH1 0x1F ADD PUSH1 0x20 DUP1 SWAP2 DIV MUL PUSH1 0x20 ADD PUSH1 0x40 MLOAD SWAP1 DUP2 ADD PUSH1 0x40 MSTORE DUP1 SWAP3 SWAP2 SWAP1 DUP2 DUP2 MSTORE PUSH1 0x20 ADD DUP3 DUP1 SLOAD PUSH2 0x32C SWAP1 PUSH2 0x1923 JUMP JUMPDEST DUP1 ISZERO PUSH2 0x377 JUMPI DUP1 PUSH1 0x1F LT PUSH2 0x34E JUMPI PUSH2 0x100 DUP1 DUP4 SLOAD DIV MUL DUP4 MSTORE SWAP2 PUSH1 0x20 ADD SWAP2 PUSH2 0x377 JUMP JUMPDEST DUP3 ADD SWAP2 SWAP1 PUSH0 MSTORE PUSH1 0x20 PUSH0 KECCAK256 SWAP1 JUMPDEST DUP2 SLOAD DUP2 MSTORE SWAP1 PUSH1 0x1 ADD SWAP1 PUSH1 0x20 ADD DUP1 DUP4 GT PUSH2 0x35A JUMPI DUP3 SWAP1 SUB PUSH1 0x1F AND DUP3 ADD SWAP2 JUMPDEST POP POP POP POP POP SWAP1 DUP1 PUSH1 0x1 ADD PUSH0 SWAP1 SLOAD SWAP1 PUSH2 0x100 EXP SWAP1 DIV PUSH20 0xFFFFFFFFFFFFFFFFFFFFFFFFFFFFFFFFFFFFFFFF AND SWAP1 DUP1 PUSH1 0x2 ADD DUP1 SLOAD PUSH2 0x3B1 SWAP1 PUSH2 0x1923 JUMP JUMPDEST DUP1 PUSH1 0x1F ADD PUSH1 0x20 DUP1 SWAP2 DIV MUL PUSH1 0x20 ADD PUSH1 0x40 MLOAD SWAP1 DUP2 ADD PUSH1 0x40 MSTORE DUP1 SWAP3 SWAP2 SWAP1 DUP2 DUP2 MSTORE PUSH1 0x20 ADD DUP3 DUP1 SLOAD PUSH2 0x3DD SWAP1 PUSH2 0x1923 JUMP JUMPDEST DUP1 ISZERO PUSH2 0x428 JUMPI DUP1 PUSH1 0x1F LT PUSH2 0x3FF JUMPI PUSH2 0x100 DUP1 DUP4 SLOAD DIV MUL DUP4 MSTORE SWAP2 PUSH1 0x20 ADD SWAP2 PUSH2 0x428 JUMP JUMPDEST DUP3 ADD SWAP2 SWAP1 PUSH0 MSTORE PUSH1 0x20 PUSH0 KECCAK256 SWAP1 JUMPDEST DUP2 SLOAD DUP2 MSTORE SWAP1 PUSH1 0x1 ADD SWAP1 PUSH1 0x20 ADD DUP1 DUP4 GT PUSH2 0x40B JUMPI DUP3 SWAP1 SUB PUSH1 0x1F AND DUP3 ADD SWAP2 JUMPDEST POP POP POP POP POP SWAP1 DUP1 PUSH1 0x3 ADD SLOAD SWAP1 DUP1 PUSH1 0x4 ADD DUP1 SLOAD PUSH2 0x443 SWAP1 PUSH2 0x1923 JUMP JUMPDEST DUP1 PUSH1 0x1F ADD PUSH1 0x20 DUP1 SWAP2 DIV MUL PUSH1 0x20 ADD PUSH1 0x40 MLOAD SWAP1 DUP2 ADD PUSH1 0x40 MSTORE DUP1 SWAP3 SWAP2 SWAP1 DUP2 DUP2 MSTORE PUSH1 0x20 ADD DUP3 DUP1 SLOAD PUSH2 0x46F SWAP1 PUSH2 0x1923 JUMP JUMPDEST DUP1 ISZERO PUSH2 0x4BA JUMPI DUP1 PUSH1 0x1F LT PUSH2 0x491 JUMPI PUSH2 0x100 DUP1 DUP4 SLOAD DIV MUL DUP4 MSTORE SWAP2 PUSH1 0x20 ADD SWAP2 PUSH2 0x4BA JUMP JUMPDEST DUP3 ADD SWAP2 SWAP1 PUSH0 MSTORE PUSH1 0x20 PUSH0 KECCAK256 SWAP1 JUMPDEST DUP2 SLOAD DUP2 MSTORE SWAP1 PUSH1 0x1 ADD SWAP1 PUSH1 0x20 ADD DUP1 DUP4 GT PUSH2 0x49D JUMPI DUP3 SWAP1 SUB PUSH1 0x1F AND DUP3 ADD SWAP2 JUMPDEST POP POP POP POP POP SWAP1 DUP1 PUSH1 0x5 ADD DUP1 SLOAD PUSH2 0x4CF SWAP1 PUSH2 0x1923 JUMP JUMPDEST DUP1 PUSH1 0x1F ADD PUSH1 0x20 DUP1 SWAP2 DIV MUL PUSH1 0x20 ADD PUSH1 0x40 MLOAD SWAP1 DUP2 ADD PUSH1 0x40 MSTORE DUP1 SWAP3 SWAP2 SWAP1 DUP2 DUP2 MSTORE PUSH1 0x20 ADD DUP3 DUP1 SLOAD PUSH2 0x4FB SWAP1 PUSH2 0x1923 JUMP JUMPDEST DUP1 ISZERO PUSH2 0x546 JUMPI DUP1 PUSH1 0x1F LT PUSH2 0x51D JUMPI PUSH2 0x100 DUP1 DUP4 SLOAD DIV MUL DUP4 MSTORE SWAP2 PUSH1 0x20 ADD SWAP2 PUSH2 0x546 JUMP JUMPDEST DUP3 ADD SWAP2 SWAP1 PUSH0 MSTORE PUSH1 0x20 PUSH0 KECCAK256 SWAP1 JUMPDEST DUP2 SLOAD DUP2 MSTORE SWAP1 PUSH1 0x1 ADD SWAP1 PUSH1 0x20 ADD DUP1 DUP4 GT PUSH2 0x529 JUMPI DUP3 SWAP1 SUB PUSH1 0x1F AND DUP3 ADD SWAP2 JUMPDEST POP POP POP POP POP SWAP1 DUP1 PUSH1 0x7 ADD DUP1 SLOAD PUSH2 0x55B SWAP1 PUSH2 0x1923 JUMP JUMPDEST DUP1 PUSH1 0x1F ADD PUSH1 0x20 DUP1 SWAP2 DIV MUL PUSH1 0x20 ADD PUSH1 0x40 MLOAD SWAP1 DUP2 ADD PUSH1 0x40 MSTORE DUP1 SWAP3 SWAP2 SWAP1 DUP2 DUP2 MSTORE PUSH1 0x20 ADD DUP3 DUP1 SLOAD PUSH2 0x587 SWAP1 PUSH2 0x1923 JUMP JUMPDEST DUP1 ISZERO PUSH2 0x5D2 JUMPI DUP1 PUSH1 0x1F LT PUSH2 0x5A9 JUMPI PUSH2 0x100 DUP1 DUP4 SLOAD DIV MUL DUP4 MSTORE SWAP2 PUSH1 0x20 ADD SWAP2 PUSH2 0x5D2 JUMP JUMPDEST DUP3 ADD SWAP2 SWAP1 PUSH0 MSTORE PUSH1 0x20 PUSH0 KECCAK256 SWAP1 JUMPDEST DUP2 SLOAD DUP2 MSTORE SWAP1 PUSH1 0x1 ADD SWAP1 PUSH1 0x20 ADD DUP1 DUP4 GT PUSH2 0x5B5 JUMPI DUP3 SWAP1 SUB PUSH1 0x1F AND DUP3 ADD SWAP2 JUMPDEST POP POP POP POP POP SWAP1 DUP1 PUSH1 0x8 ADD SLOAD SWAP1 POP DUP9 JUMP JUMPDEST PUSH0 PUSH1 0x1 PUSH0 CALLER PUSH20 0xFFFFFFFFFFFFFFFFFFFFFFFFFFFFFFFFFFFFFFFF AND PUSH20 0xFFFFFFFFFFFFFFFFFFFFFFFFFFFFFFFFFFFFFFFF AND DUP2 MSTORE PUSH1 0x20 ADD SWAP1 DUP2 MSTORE PUSH1 0x20 ADD PUSH0 KECCAK256 SLOAD EQ ISZERO DUP1 ISZERO PUSH2 0x66C JUMPI POP PUSH1 0x5 PUSH1 0x1 PUSH0 CALLER PUSH20 0xFFFFFFFFFFFFFFFFFFFFFFFFFFFFFFFFFFFFFFFF AND PUSH20 0xFFFFFFFFFFFFFFFFFFFFFFFFFFFFFFFFFFFFFFFF AND DUP2 MSTORE PUSH1 0x20 ADD SWAP1 DUP2 MSTORE PUSH1 0x20 ADD PUSH0 KECCAK256 SLOAD LT JUMPDEST PUSH2 0x6AB JUMPI PUSH1 0x40 MLOAD PUSH32 0x8C379A000000000000000000000000000000000000000000000000000000000 DUP2 MSTORE PUSH1 0x4 ADD PUSH2 0x6A2 SWAP1 PUSH2 0x1C37 JUMP JUMPDEST PUSH1 0x40 MLOAD DUP1 SWAP2 SUB SWAP1 REVERT JUMPDEST PUSH1 0x2 PUSH1 0x1 PUSH0 CALLER PUSH20 0xFFFFFFFFFFFFFFFFFFFFFFFFFFFFFFFFFFFFFFFF AND PUSH20 0xFFFFFFFFFFFFFFFFFFFFFFFFFFFFFFFFFFFFFFFF AND DUP2 MSTORE PUSH1 0x20 ADD SWAP1 DUP2 MSTORE PUSH1 0x20 ADD PUSH0 KECCAK256 SLOAD EQ PUSH2 0x705 JUMPI PUSH1 0x40 MLOAD DUP1 PUSH1 0x20 ADD PUSH1 0x40 MSTORE DUP1 PUSH0 DUP2 MSTORE POP SWAP2 POP PUSH0 SWAP1 POP JUMPDEST PUSH1 0x40 MLOAD DUP1 PUSH2 0x120 ADD PUSH1 0x40 MSTORE DUP1 PUSH1 0x2 PUSH0 CALLER PUSH20 0xFFFFFFFFFFFFFFFFFFFFFFFFFFFFFFFFFFFFFFFF AND PUSH20 0xFFFFFFFFFFFFFFFFFFFFFFFFFFFFFFFFFFFFFFFF AND DUP2 MSTORE PUSH1 0x20 ADD SWAP1 DUP2 MSTORE PUSH1 0x20 ADD PUSH0 KECCAK256 DUP1 SLOAD PUSH2 0x759 SWAP1 PUSH2 0x1923 JUMP JUMPDEST DUP1 PUSH1 0x1F ADD PUSH1 0x20 DUP1 SWAP2 DIV MUL PUSH1 0x20 ADD PUSH1 0x40 MLOAD SWAP1 DUP2 ADD PUSH1 0x40 MSTORE DUP1 SWAP3 SWAP2 SWAP1 DUP2 DUP2 MSTORE PUSH1 0x20 ADD DUP3 DUP1 SLOAD PUSH2 0x785 SWAP1 PUSH2 0x1923 JUMP JUMPDEST DUP1 ISZERO PUSH2 0x7D0 JUMPI DUP1 PUSH1 0x1F LT PUSH2 0x7A7 JUMPI PUSH2 0x100 DUP1 DUP4 SLOAD DIV MUL DUP4 MSTORE SWAP2 PUSH1 0x20 ADD SWAP2 PUSH2 0x7D0 JUMP JUMPDEST DUP3 ADD SWAP2 SWAP1 PUSH0 MSTORE PUSH1 0x20 PUSH0 KECCAK256 SWAP1 JUMPDEST DUP2 SLOAD DUP2 MSTORE SWAP1 PUSH1 0x1 ADD SWAP1 PUSH1 0x20 ADD DUP1 DUP4 GT PUSH2 0x7B3 JUMPI DUP3 SWAP1 SUB PUSH1 0x1F AND DUP3 ADD SWAP2 JUMPDEST POP POP POP POP POP DUP2 MSTORE PUSH1 0x20 ADD CALLER PUSH20 0xFFFFFFFFFFFFFFFFFFFFFFFFFFFFFFFFFFFFFFFF AND DUP2 MSTORE PUSH1 0x20 ADD DUP9 DUP2 MSTORE PUSH1 0x20 ADD DUP8 DUP2 MSTORE PUSH1 0x20 ADD DUP7 DUP2 MSTORE PUSH1 0x20 ADD DUP6 DUP2 MSTORE PUSH1 0x20 ADD DUP5 DUP2 MSTORE PUSH1 0x20 ADD DUP4 DUP2 MSTORE PUSH1 0x20 ADD DUP3 DUP2 MSTORE POP PUSH1 0x3 DUP9 PUSH1 0x40 MLOAD PUSH2 0x82E SWAP2 SWAP1 PUSH2 0x1C8F JUMP JUMPDEST SWAP1 DUP2 MSTORE PUSH1 0x20 ADD PUSH1 0x40 MLOAD DUP1 SWAP2 SUB SWAP1 KECCAK256 PUSH0 DUP3 ADD MLOAD DUP2 PUSH0 ADD SWAP1 DUP2 PUSH2 0x84F SWAP2 SWAP1 PUSH2 0x1AF0 JUMP JUMPDEST POP PUSH1 0x20 DUP3 ADD MLOAD DUP2 PUSH1 0x1 ADD PUSH0 PUSH2 0x100 EXP DUP2 SLOAD DUP2 PUSH20 0xFFFFFFFFFFFFFFFFFFFFFFFFFFFFFFFFFFFFFFFF MUL NOT AND SWAP1 DUP4 PUSH20 0xFFFFFFFFFFFFFFFFFFFFFFFFFFFFFFFFFFFFFFFF AND MUL OR SWAP1 SSTORE POP PUSH1 0x40 DUP3 ADD MLOAD DUP2 PUSH1 0x2 ADD SWAP1 DUP2 PUSH2 0x8AB SWAP2 SWAP1 PUSH2 0x1AF0 JUMP JUMPDEST POP PUSH1 0x60 DUP3 ADD MLOAD DUP2 PUSH1 0x3 ADD SSTORE PUSH1 0x80 DUP3 ADD MLOAD DUP2 PUSH1 0x4 ADD SWAP1 DUP2 PUSH2 0x8CB SWAP2 SWAP1 PUSH2 0x1AF0 JUMP JUMPDEST POP PUSH1 0xA0 DUP3 ADD MLOAD DUP2 PUSH1 0x5 ADD SWAP1 DUP2 PUSH2 0x8E1 SWAP2 SWAP1 PUSH2 0x1AF0 JUMP JUMPDEST POP PUSH1 0xC0 DUP3 ADD MLOAD DUP2 PUSH1 0x6 ADD SWAP1 DUP1 MLOAD SWAP1 PUSH1 0x20 ADD SWAP1 PUSH2 0x8FE SWAP3 SWAP2 SWAP1 PUSH2 0x11D8 JUMP JUMPDEST POP PUSH1 0xE0 DUP3 ADD MLOAD DUP2 PUSH1 0x7 ADD SWAP1 DUP2 PUSH2 0x914 SWAP2 SWAP1 PUSH2 0x1AF0 JUMP JUMPDEST POP PUSH2 0x100 DUP3 ADD MLOAD DUP2 PUSH1 0x8 ADD SSTORE SWAP1 POP POP DUP7 PUSH1 0x40 MLOAD PUSH2 0x931 SWAP2 SWAP1 PUSH2 0x1C8F JUMP JUMPDEST PUSH1 0x40 MLOAD DUP1 SWAP2 SUB SWAP1 KECCAK256 PUSH32 0x4EC0335D49CE48AF3B2BE1555F2724C6ADED22DB73F58D175F703BE14044B99B PUSH1 0x2 PUSH0 CALLER PUSH20 0xFFFFFFFFFFFFFFFFFFFFFFFFFFFFFFFFFFFFFFFF AND PUSH20 0xFFFFFFFFFFFFFFFFFFFFFFFFFFFFFFFFFFFFFFFF AND DUP2 MSTORE PUSH1 0x20 ADD SWAP1 DUP2 MSTORE PUSH1 0x20 ADD PUSH0 KECCAK256 DUP9 DUP9 DUP9 PUSH1 0x40 MLOAD PUSH2 0x9AA SWAP5 SWAP4 SWAP3 SWAP2 SWAP1 PUSH2 0x1D26 JUMP JUMPDEST PUSH1 0x40 MLOAD DUP1 SWAP2 SUB SWAP1 LOG2 PUSH1 0x2 PUSH1 0x1 PUSH0 CALLER PUSH20 0xFFFFFFFFFFFFFFFFFFFFFFFFFFFFFFFFFFFFFFFF AND PUSH20 0xFFFFFFFFFFFFFFFFFFFFFFFFFFFFFFFFFFFFFFFF AND DUP2 MSTORE PUSH1 0x20 ADD SWAP1 DUP2 MSTORE PUSH1 0x20 ADD PUSH0 KECCAK256 SLOAD SUB PUSH2 0xA89 JUMPI DUP7 PUSH1 0x40 MLOAD PUSH2 0xA05 SWAP2 SWAP1 PUSH2 0x1C8F JUMP JUMPDEST PUSH1 0x40 MLOAD DUP1 SWAP2 SUB SWAP1 KECCAK256 PUSH32 0xD0D34AA945315E3F0B3E36799A4D0751AF195CA3A10841986740A9140E824DFF PUSH1 0x2 PUSH0 CALLER PUSH20 0xFFFFFFFFFFFFFFFFFFFFFFFFFFFFFFFFFFFFFFFF AND PUSH20 0xFFFFFFFFFFFFFFFFFFFFFFFFFFFFFFFFFFFFFFFF AND DUP2 MSTORE PUSH1 0x20 ADD SWAP1 DUP2 MSTORE PUSH1 0x20 ADD PUSH0 KECCAK256 DUP5 DUP5 DUP10 DUP10 PUSH1 0x40 MLOAD PUSH2 0xA80 SWAP6 SWAP5 SWAP4 SWAP3 SWAP2 SWAP1 PUSH2 0x1D7E JUMP JUMPDEST PUSH1 0x40 MLOAD DUP1 SWAP2 SUB SWAP1 LOG2 JUMPDEST POP POP POP POP POP POP POP JUMP JUMPDEST PUSH1 0x1 PUSH1 0x20 MSTORE DUP1 PUSH0 MSTORE PUSH1 0x40 PUSH0 KECCAK256 PUSH0 SWAP2 POP SWAP1 POP SLOAD DUP2 JUMP JUMPDEST PUSH1 0x60 PUSH0 PUSH1 0x60 PUSH0 PUSH1 0x60 DUP1 PUSH1 0x60 PUSH0 DUP1 PUSH1 0x3 DUP11 PUSH1 0x40 MLOAD PUSH2 0xAC4 SWAP2 SWAP1 PUSH2 0x1C8F JUMP JUMPDEST SWAP1 DUP2 MSTORE PUSH1 0x20 ADD PUSH1 0x40 MLOAD DUP1 SWAP2 SUB SWAP1 KECCAK256 PUSH1 0x40 MLOAD DUP1 PUSH2 0x120 ADD PUSH1 0x40 MSTORE SWAP1 DUP2 PUSH0 DUP3 ADD DUP1 SLOAD PUSH2 0xAED SWAP1 PUSH2 0x1923 JUMP JUMPDEST DUP1 PUSH1 0x1F ADD PUSH1 0x20 DUP1 SWAP2 DIV MUL PUSH1 0x20 ADD PUSH1 0x40 MLOAD SWAP1 DUP2 ADD PUSH1 0x40 MSTORE DUP1 SWAP3 SWAP2 SWAP1 DUP2 DUP2 MSTORE PUSH1 0x20 ADD DUP3 DUP1 SLOAD PUSH2 0xB19 SWAP1 PUSH2 0x1923 JUMP JUMPDEST DUP1 ISZERO PUSH2 0xB64 JUMPI DUP1 PUSH1 0x1F LT PUSH2 0xB3B JUMPI PUSH2 0x100 DUP1 DUP4 SLOAD DIV MUL DUP4 MSTORE SWAP2 PUSH1 0x20 ADD SWAP2 PUSH2 0xB64 JUMP JUMPDEST DUP3 ADD SWAP2 SWAP1 PUSH0 MSTORE PUSH1 0x20 PUSH0 KECCAK256 SWAP1 JUMPDEST DUP2 SLOAD DUP2 MSTORE SWAP1 PUSH1 0x1 ADD SWAP1 PUSH1 0x20 ADD DUP1 DUP4 GT PUSH2 0xB47 JUMPI DUP3 SWAP1 SUB PUSH1 0x1F AND DUP3 ADD SWAP2 JUMPDEST POP POP POP POP POP DUP2 MSTORE PUSH1 0x20 ADD PUSH1 0x1 DUP3 ADD PUSH0 SWAP1 SLOAD SWAP1 PUSH2 0x100 EXP SWAP1 DIV PUSH20 0xFFFFFFFFFFFFFFFFFFFFFFFFFFFFFFFFFFFFFFFF AND PUSH20 0xFFFFFFFFFFFFFFFFFFFFFFFFFFFFFFFFFFFFFFFF AND PUSH20 0xFFFFFFFFFFFFFFFFFFFFFFFFFFFFFFFFFFFFFFFF AND DUP2 MSTORE PUSH1 0x20 ADD PUSH1 0x2 DUP3 ADD DUP1 SLOAD PUSH2 0xBD2 SWAP1 PUSH2 0x1923 JUMP JUMPDEST DUP1 PUSH1 0x1F ADD PUSH1 0x20 DUP1 SWAP2 DIV MUL PUSH1 0x20 ADD PUSH1 0x40 MLOAD SWAP1 DUP2 ADD PUSH1 0x40 MSTORE DUP1 SWAP3 SWAP2 SWAP1 DUP2 DUP2 MSTORE PUSH1 0x20 ADD DUP3 DUP1 SLOAD PUSH2 0xBFE SWAP1 PUSH2 0x1923 JUMP JUMPDEST DUP1 ISZERO PUSH2 0xC49 JUMPI DUP1 PUSH1 0x1F LT PUSH2 0xC20 JUMPI PUSH2 0x100 DUP1 DUP4 SLOAD DIV MUL DUP4 MSTORE SWAP2 PUSH1 0x20 ADD SWAP2 PUSH2 0xC49 JUMP JUMPDEST DUP3 ADD SWAP2 SWAP1 PUSH0 MSTORE PUSH1 0x20 PUSH0 KECCAK256 SWAP1 JUMPDEST DUP2 SLOAD DUP2 MSTORE SWAP1 PUSH1 0x1 ADD SWAP1 PUSH1 0x20 ADD DUP1 DUP4 GT PUSH2 0xC2C JUMPI DUP3 SWAP1 SUB PUSH1 0x1F AND DUP3 ADD SWAP2 JUMPDEST POP POP POP POP POP DUP2 MSTORE PUSH1 0x20 ADD PUSH1 0x3 DUP3 ADD SLOAD DUP2 MSTORE PUSH1 0x20 ADD PUSH1 0x4 DUP3 ADD DUP1 SLOAD PUSH2 0xC6C SWAP1 PUSH2 0x1923 JUMP JUMPDEST DUP1 PUSH1 0x1F ADD PUSH1 0x20 DUP1 SWAP2 DIV MUL PUSH1 0x20 ADD PUSH1 0x40 MLOAD SWAP1 DUP2 ADD PUSH1 0x40 MSTORE DUP1 SWAP3 SWAP2 SWAP1 DUP2 DUP2 MSTORE PUSH1 0x20 ADD DUP3 DUP1 SLOAD PUSH2 0xC98 SWAP1 PUSH2 0x1923 JUMP JUMPDEST DUP1 ISZERO PUSH2 0xCE3 JUMPI DUP1 PUSH1 0x1F LT PUSH2 0xCBA JUMPI PUSH2 0x100 DUP1 DUP4 SLOAD DIV MUL DUP4 MSTORE SWAP2 PUSH1 0x20 ADD SWAP2 PUSH2 0xCE3 JUMP JUMPDEST DUP3 ADD SWAP2 SWAP1 PUSH0 MSTORE PUSH1 0x20 PUSH0 KECCAK256 SWAP1 JUMPDEST DUP2 SLOAD DUP2 MSTORE SWAP1 PUSH1 0x1 ADD SWAP1 PUSH1 0x20 ADD DUP1 DUP4 GT PUSH2 0xCC6 JUMPI DUP3 SWAP1 SUB PUSH1 0x1F AND DUP3 ADD SWAP2 JUMPDEST POP POP POP POP POP DUP2 MSTORE PUSH1 0x20 ADD PUSH1 0x5 DUP3 ADD DUP1 SLOAD PUSH2 0xCFC SWAP1 PUSH2 0x1923 JUMP JUMPDEST DUP1 PUSH1 0x1F ADD PUSH1 0x20 DUP1 SWAP2 DIV MUL PUSH1 0x20 ADD PUSH1 0x40 MLOAD SWAP1 DUP2 ADD PUSH1 0x40 MSTORE DUP1 SWAP3 SWAP2 SWAP1 DUP2 DUP2 MSTORE PUSH1 0x20 ADD DUP3 DUP1 SLOAD PUSH2 0xD28 SWAP1 PUSH2 0x1923 JUMP JUMPDEST DUP1 ISZERO PUSH2 0xD73 JUMPI DUP1 PUSH1 0x1F LT PUSH2 0xD4A JUMPI PUSH2 0x100 DUP1 DUP4 SLOAD DIV MUL DUP4 MSTORE SWAP2 PUSH1 0x20 ADD SWAP2 PUSH2 0xD73 JUMP JUMPDEST DUP3 ADD SWAP2 SWAP1 PUSH0 MSTORE PUSH1 0x20 PUSH0 KECCAK256 SWAP1 JUMPDEST DUP2 SLOAD DUP2 MSTORE SWAP1 PUSH1 0x1 ADD SWAP1 PUSH1 0x20 ADD DUP1 DUP4 GT PUSH2 0xD56 JUMPI DUP3 SWAP1 SUB PUSH1 0x1F AND DUP3 ADD SWAP2 JUMPDEST POP POP POP POP POP DUP2 MSTORE PUSH1 0x20 ADD PUSH1 0x6 DUP3 ADD DUP1 SLOAD DUP1 PUSH1 0x20 MUL PUSH1 0x20 ADD PUSH1 0x40 MLOAD SWAP1 DUP2 ADD PUSH1 0x40 MSTORE DUP1 SWAP3 SWAP2 SWAP1 DUP2 DUP2 MSTORE PUSH1 0x20 ADD PUSH0 SWAP1 JUMPDEST DUP3 DUP3 LT ISZERO PUSH2 0xE48 JUMPI DUP4 DUP3 SWAP1 PUSH0 MSTORE PUSH1 0x20 PUSH0 KECCAK256 ADD DUP1 SLOAD PUSH2 0xDBD SWAP1 PUSH2 0x1923 JUMP JUMPDEST DUP1 PUSH1 0x1F ADD PUSH1 0x20 DUP1 SWAP2 DIV MUL PUSH1 0x20 ADD PUSH1 0x40 MLOAD SWAP1 DUP2 ADD PUSH1 0x40 MSTORE DUP1 SWAP3 SWAP2 SWAP1 DUP2 DUP2 MSTORE PUSH1 0x20 ADD DUP3 DUP1 SLOAD PUSH2 0xDE9 SWAP1 PUSH2 0x1923 JUMP JUMPDEST DUP1 ISZERO PUSH2 0xE34 JUMPI DUP1 PUSH1 0x1F LT PUSH2 0xE0B JUMPI PUSH2 0x100 DUP1 DUP4 SLOAD DIV MUL DUP4 MSTORE SWAP2 PUSH1 0x20 ADD SWAP2 PUSH2 0xE34 JUMP JUMPDEST DUP3 ADD SWAP2 SWAP1 PUSH0 MSTORE PUSH1 0x20 PUSH0 KECCAK256 SWAP1 JUMPDEST DUP2 SLOAD DUP2 MSTORE SWAP1 PUSH1 0x1 ADD SWAP1 PUSH1 0x20 ADD DUP1 DUP4 GT PUSH2 0xE17 JUMPI DUP3 SWAP1 SUB PUSH1 0x1F AND DUP3 ADD SWAP2 JUMPDEST POP POP POP POP POP DUP2 MSTORE PUSH1 0x20 ADD SWAP1 PUSH1 0x1 ADD SWAP1 PUSH2 0xDA0 JUMP JUMPDEST POP POP POP POP DUP2 MSTORE PUSH1 0x20 ADD PUSH1 0x7 DUP3 ADD DUP1 SLOAD PUSH2 0xE60 SWAP1 PUSH2 0x1923 JUMP JUMPDEST DUP1 PUSH1 0x1F ADD PUSH1 0x20 DUP1 SWAP2 DIV MUL PUSH1 0x20 ADD PUSH1 0x40 MLOAD SWAP1 DUP2 ADD PUSH1 0x40 MSTORE DUP1 SWAP3 SWAP2 SWAP1 DUP2 DUP2 MSTORE PUSH1 0x20 ADD DUP3 DUP1 SLOAD PUSH2 0xE8C SWAP1 PUSH2 0x1923 JUMP JUMPDEST DUP1 ISZERO PUSH2 0xED7 JUMPI DUP1 PUSH1 0x1F LT PUSH2 0xEAE JUMPI PUSH2 0x100 DUP1 DUP4 SLOAD DIV MUL DUP4 MSTORE SWAP2 PUSH1 0x20 ADD SWAP2 PUSH2 0xED7 JUMP JUMPDEST DUP3 ADD SWAP2 SWAP1 PUSH0 MSTORE PUSH1 0x20 PUSH0 KECCAK256 SWAP1 JUMPDEST DUP2 SLOAD DUP2 MSTORE SWAP1 PUSH1 0x1 ADD SWAP1 PUSH1 0x20 ADD DUP1 DUP4 GT PUSH2 0xEBA JUMPI DUP3 SWAP1 SUB PUSH1 0x1F AND DUP3 ADD SWAP2 JUMPDEST POP POP POP POP POP DUP2 MSTORE PUSH1 0x20 ADD PUSH1 0x8 DUP3 ADD SLOAD DUP2 MSTORE POP POP SWAP1 POP DUP1 PUSH0 ADD MLOAD DUP2 PUSH1 0x20 ADD MLOAD DUP3 PUSH1 0x40 ADD MLOAD DUP4 PUSH1 0x60 ADD MLOAD DUP5 PUSH1 0x80 ADD MLOAD DUP6 PUSH1 0xA0 ADD MLOAD DUP7 PUSH1 0xE0 ADD MLOAD DUP8 PUSH2 0x100 ADD MLOAD SWAP9 POP SWAP9 POP SWAP9 POP SWAP9 POP SWAP9 POP SWAP9 POP SWAP9 POP SWAP9 POP POP SWAP2 SWAP4 SWAP6 SWAP8 POP SWAP2 SWAP4 SWAP6 SWAP8 JUMP JUMPDEST PUSH2 0xF38 PUSH2 0x1089 JUMP JUMPDEST PUSH2 0xF41 PUSH0 PUSH2 0x1110 JUMP JUMPDEST JUMP JUMPDEST PUSH0 DUP1 PUSH0 SWAP1 SLOAD SWAP1 PUSH2 0x100 EXP SWAP1 DIV PUSH20 0xFFFFFFFFFFFFFFFFFFFFFFFFFFFFFFFFFFFFFFFF AND SWAP1 POP SWAP1 JUMP JUMPDEST PUSH1 0x2 PUSH1 0x20 MSTORE DUP1 PUSH0 MSTORE PUSH1 0x40 PUSH0 KECCAK256 PUSH0 SWAP2 POP SWAP1 POP DUP1 SLOAD PUSH2 0xF86 SWAP1 PUSH2 0x1923 JUMP JUMPDEST DUP1 PUSH1 0x1F ADD PUSH1 0x20 DUP1 SWAP2 DIV MUL PUSH1 0x20 ADD PUSH1 0x40 MLOAD SWAP1 DUP2 ADD PUSH1 0x40 MSTORE DUP1 SWAP3 SWAP2 SWAP1 DUP2 DUP2 MSTORE PUSH1 0x20 ADD DUP3 DUP1 SLOAD PUSH2 0xFB2 SWAP1 PUSH2 0x1923 JUMP JUMPDEST DUP1 ISZERO PUSH2 0xFFD JUMPI DUP1 PUSH1 0x1F LT PUSH2 0xFD4 JUMPI PUSH2 0x100 DUP1 DUP4 SLOAD DIV MUL DUP4 MSTORE SWAP2 PUSH1 0x20 ADD SWAP2 PUSH2 0xFFD JUMP JUMPDEST DUP3 ADD SWAP2 SWAP1 PUSH0 MSTORE PUSH1 0x20 PUSH0 KECCAK256 SWAP1 JUMPDEST DUP2 SLOAD DUP2 MSTORE SWAP1 PUSH1 0x1 ADD SWAP1 PUSH1 0x20 ADD DUP1 DUP4 GT PUSH2 0xFE0 JUMPI DUP3 SWAP1 SUB PUSH1 0x1F AND DUP3 ADD SWAP2 JUMPDEST POP POP POP POP POP DUP2 JUMP JUMPDEST PUSH2 0x100D PUSH2 0x1089 JUMP JUMPDEST PUSH0 PUSH20 0xFFFFFFFFFFFFFFFFFFFFFFFFFFFFFFFFFFFFFFFF AND DUP2 PUSH20 0xFFFFFFFFFFFFFFFFFFFFFFFFFFFFFFFFFFFFFFFF AND SUB PUSH2 0x107D JUMPI PUSH0 PUSH1 0x40 MLOAD PUSH32 0x1E4FBDF700000000000000000000000000000000000000000000000000000000 DUP2 MSTORE PUSH1 0x4 ADD PUSH2 0x1074 SWAP2 SWAP1 PUSH2 0x18BD JUMP JUMPDEST PUSH1 0x40 MLOAD DUP1 SWAP2 SUB SWAP1 REVERT JUMPDEST PUSH2 0x1086 DUP2 PUSH2 0x1110 JUMP JUMPDEST POP JUMP JUMPDEST PUSH2 0x1091 PUSH2 0x11D1 JUMP JUMPDEST PUSH20 0xFFFFFFFFFFFFFFFFFFFFFFFFFFFFFFFFFFFFFFFF AND PUSH2 0x10AF PUSH2 0xF43 JUMP JUMPDEST PUSH20 0xFFFFFFFFFFFFFFFFFFFFFFFFFFFFFFFFFFFFFFFF AND EQ PUSH2 0x110E JUMPI PUSH2 0x10D2 PUSH2 0x11D1 JUMP JUMPDEST PUSH1 0x40 MLOAD PUSH32 0x118CDAA700000000000000000000000000000000000000000000000000000000 DUP2 MSTORE PUSH1 0x4 ADD PUSH2 0x1105 SWAP2 SWAP1 PUSH2 0x18BD JUMP JUMPDEST PUSH1 0x40 MLOAD DUP1 SWAP2 SUB SWAP1 REVERT JUMPDEST JUMP JUMPDEST PUSH0 DUP1 PUSH0 SWAP1 SLOAD SWAP1 PUSH2 0x100 EXP SWAP1 DIV PUSH20 0xFFFFFFFFFFFFFFFFFFFFFFFFFFFFFFFFFFFFFFFF AND SWAP1 POP DUP2 PUSH0 DUP1 PUSH2 0x100 EXP DUP2 SLOAD DUP2 PUSH20 0xFFFFFFFFFFFFFFFFFFFFFFFFFFFFFFFFFFFFFFFF MUL NOT AND SWAP1 DUP4 PUSH20 0xFFFFFFFFFFFFFFFFFFFFFFFFFFFFFFFFFFFFFFFF AND MUL OR SWAP1 SSTORE POP DUP2 PUSH20 0xFFFFFFFFFFFFFFFFFFFFFFFFFFFFFFFFFFFFFFFF AND DUP2 PUSH20 0xFFFFFFFFFFFFFFFFFFFFFFFFFFFFFFFFFFFFFFFF AND PUSH32 0x8BE0079C531659141344CD1FD0A4F28419497F9722A3DAAFE3B4186F6B6457E0 PUSH1 0x40 MLOAD PUSH1 0x40 MLOAD DUP1 SWAP2 SUB SWAP1 LOG3 POP POP JUMP JUMPDEST PUSH0 CALLER SWAP1 POP SWAP1 JUMP JUMPDEST DUP3 DUP1 SLOAD DUP3 DUP3 SSTORE SWAP1 PUSH0 MSTORE PUSH1 0x20 PUSH0 KECCAK256 SWAP1 DUP2 ADD SWAP3 DUP3 ISZERO PUSH2 0x121E JUMPI SWAP2 PUSH1 0x20 MUL DUP3 ADD JUMPDEST DUP3 DUP2 GT ISZERO PUSH2 0x121D JUMPI DUP3 MLOAD DUP3 SWAP1 DUP2 PUSH2 0x120D SWAP2 SWAP1 PUSH2 0x1AF0 JUMP JUMPDEST POP SWAP2 PUSH1 0x20 ADD SWAP2 SWAP1 PUSH1 0x1 ADD SWAP1 PUSH2 0x11F6 JUMP JUMPDEST JUMPDEST POP SWAP1 POP PUSH2 0x122B SWAP2 SWAP1 PUSH2 0x122F JUMP JUMPDEST POP SWAP1 JUMP JUMPDEST JUMPDEST DUP1 DUP3 GT ISZERO PUSH2 0x124E JUMPI PUSH0 DUP2 DUP2 PUSH2 0x1245 SWAP2 SWAP1 PUSH2 0x1252 JUMP JUMPDEST POP PUSH1 0x1 ADD PUSH2 0x1230 JUMP JUMPDEST POP SWAP1 JUMP JUMPDEST POP DUP1 SLOAD PUSH2 0x125E SWAP1 PUSH2 0x1923 JUMP JUMPDEST PUSH0 DUP3 SSTORE DUP1 PUSH1 0x1F LT PUSH2 0x126F JUMPI POP PUSH2 0x128C JUMP JUMPDEST PUSH1 0x1F ADD PUSH1 0x20 SWAP1 DIV SWAP1 PUSH0 MSTORE PUSH1 0x20 PUSH0 KECCAK256 SWAP1 DUP2 ADD SWAP1 PUSH2 0x128B SWAP2 SWAP1 PUSH2 0x128F JUMP JUMPDEST JUMPDEST POP JUMP JUMPDEST JUMPDEST DUP1 DUP3 GT ISZERO PUSH2 0x12A6 JUMPI PUSH0 DUP2 PUSH0 SWAP1 SSTORE POP PUSH1 0x1 ADD PUSH2 0x1290 JUMP JUMPDEST POP SWAP1 JUMP JUMPDEST PUSH0 PUSH1 0x40 MLOAD SWAP1 POP SWAP1 JUMP JUMPDEST PUSH0 DUP1 REVERT JUMPDEST PUSH0 DUP1 REVERT JUMPDEST PUSH0 PUSH20 0xFFFFFFFFFFFFFFFFFFFFFFFFFFFFFFFFFFFFFFFF DUP3 AND SWAP1 POP SWAP2 SWAP1 POP JUMP JUMPDEST PUSH0 PUSH2 0x12E4 DUP3 PUSH2 0x12BB JUMP JUMPDEST SWAP1 POP SWAP2 SWAP1 POP JUMP JUMPDEST PUSH2 0x12F4 DUP2 PUSH2 0x12DA JUMP JUMPDEST DUP2 EQ PUSH2 0x12FE JUMPI PUSH0 DUP1 REVERT JUMPDEST POP JUMP JUMPDEST PUSH0 DUP2 CALLDATALOAD SWAP1 POP PUSH2 0x130F DUP2 PUSH2 0x12EB JUMP JUMPDEST SWAP3 SWAP2 POP POP JUMP JUMPDEST PUSH0 DUP2 SWAP1 POP SWAP2 SWAP1 POP JUMP JUMPDEST PUSH2 0x1327 DUP2 PUSH2 0x1315 JUMP JUMPDEST DUP2 EQ PUSH2 0x1331 JUMPI PUSH0 DUP1 REVERT JUMPDEST POP JUMP JUMPDEST PUSH0 DUP2 CALLDATALOAD SWAP1 POP PUSH2 0x1342 DUP2 PUSH2 0x131E JUMP JUMPDEST SWAP3 SWAP2 POP POP JUMP JUMPDEST PUSH0 DUP1 REVERT JUMPDEST PUSH0 DUP1 REVERT JUMPDEST PUSH0 PUSH1 0x1F NOT PUSH1 0x1F DUP4 ADD AND SWAP1 POP SWAP2 SWAP1 POP JUMP JUMPDEST PUSH32 0x4E487B7100000000000000000000000000000000000000000000000000000000 PUSH0 MSTORE PUSH1 0x41 PUSH1 0x4 MSTORE PUSH1 0x24 PUSH0 REVERT JUMPDEST PUSH2 0x1396 DUP3 PUSH2 0x1350 JUMP JUMPDEST DUP2 ADD DUP2 DUP2 LT PUSH8 0xFFFFFFFFFFFFFFFF DUP3 GT OR ISZERO PUSH2 0x13B5 JUMPI PUSH2 0x13B4 PUSH2 0x1360 JUMP JUMPDEST JUMPDEST DUP1 PUSH1 0x40 MSTORE POP POP POP JUMP JUMPDEST PUSH0 PUSH2 0x13C7 PUSH2 0x12AA JUMP JUMPDEST SWAP1 POP PUSH2 0x13D3 DUP3 DUP3 PUSH2 0x138D JUMP JUMPDEST SWAP2 SWAP1 POP JUMP JUMPDEST PUSH0 PUSH8 0xFFFFFFFFFFFFFFFF DUP3 GT ISZERO PUSH2 0x13F2 JUMPI PUSH2 0x13F1 PUSH2 0x1360 JUMP JUMPDEST JUMPDEST PUSH2 0x13FB DUP3 PUSH2 0x1350 JUMP JUMPDEST SWAP1 POP PUSH1 0x20 DUP2 ADD SWAP1 POP SWAP2 SWAP1 POP JUMP JUMPDEST DUP3 DUP2 DUP4 CALLDATACOPY PUSH0 DUP4 DUP4 ADD MSTORE POP POP POP JUMP JUMPDEST PUSH0 PUSH2 0x1428 PUSH2 0x1423 DUP5 PUSH2 0x13D8 JUMP JUMPDEST PUSH2 0x13BE JUMP JUMPDEST SWAP1 POP DUP3 DUP2 MSTORE PUSH1 0x20 DUP2 ADD DUP5 DUP5 DUP5 ADD GT ISZERO PUSH2 0x1444 JUMPI PUSH2 0x1443 PUSH2 0x134C JUMP JUMPDEST JUMPDEST PUSH2 0x144F DUP5 DUP3 DUP6 PUSH2 0x1408 JUMP JUMPDEST POP SWAP4 SWAP3 POP POP POP JUMP JUMPDEST PUSH0 DUP3 PUSH1 0x1F DUP4 ADD SLT PUSH2 0x146B JUMPI PUSH2 0x146A PUSH2 0x1348 JUMP JUMPDEST JUMPDEST DUP2 CALLDATALOAD PUSH2 0x147B DUP5 DUP3 PUSH1 0x20 DUP7 ADD PUSH2 0x1416 JUMP JUMPDEST SWAP2 POP POP SWAP3 SWAP2 POP POP JUMP JUMPDEST PUSH0 DUP1 PUSH0 PUSH1 0x60 DUP5 DUP7 SUB SLT ISZERO PUSH2 0x149B JUMPI PUSH2 0x149A PUSH2 0x12B3 JUMP JUMPDEST JUMPDEST PUSH0 PUSH2 0x14A8 DUP7 DUP3 DUP8 ADD PUSH2 0x1301 JUMP JUMPDEST SWAP4 POP POP PUSH1 0x20 PUSH2 0x14B9 DUP7 DUP3 DUP8 ADD PUSH2 0x1334 JUMP JUMPDEST SWAP3 POP POP PUSH1 0x40 DUP5 ADD CALLDATALOAD PUSH8 0xFFFFFFFFFFFFFFFF DUP2 GT ISZERO PUSH2 0x14DA JUMPI PUSH2 0x14D9 PUSH2 0x12B7 JUMP JUMPDEST JUMPDEST PUSH2 0x14E6 DUP7 DUP3 DUP8 ADD PUSH2 0x1457 JUMP JUMPDEST SWAP2 POP POP SWAP3 POP SWAP3 POP SWAP3 JUMP JUMPDEST PUSH0 PUSH1 0x20 DUP3 DUP5 SUB SLT ISZERO PUSH2 0x1505 JUMPI PUSH2 0x1504 PUSH2 0x12B3 JUMP JUMPDEST JUMPDEST PUSH0 DUP3 ADD CALLDATALOAD PUSH8 0xFFFFFFFFFFFFFFFF DUP2 GT ISZERO PUSH2 0x1522 JUMPI PUSH2 0x1521 PUSH2 0x12B7 JUMP JUMPDEST JUMPDEST PUSH2 0x152E DUP5 DUP3 DUP6 ADD PUSH2 0x1457 JUMP JUMPDEST SWAP2 POP POP SWAP3 SWAP2 POP POP JUMP JUMPDEST PUSH0 DUP2 MLOAD SWAP1 POP SWAP2 SWAP1 POP JUMP JUMPDEST PUSH0 DUP3 DUP3 MSTORE PUSH1 0x20 DUP3 ADD SWAP1 POP SWAP3 SWAP2 POP POP JUMP JUMPDEST PUSH0 JUMPDEST DUP4 DUP2 LT ISZERO PUSH2 0x156E JUMPI DUP1 DUP3 ADD MLOAD DUP2 DUP5 ADD MSTORE PUSH1 0x20 DUP2 ADD SWAP1 POP PUSH2 0x1553 JUMP JUMPDEST PUSH0 DUP5 DUP5 ADD MSTORE POP POP POP POP JUMP JUMPDEST PUSH0 PUSH2 0x1583 DUP3 PUSH2 0x1537 JUMP JUMPDEST PUSH2 0x158D DUP2 DUP6 PUSH2 0x1541 JUMP JUMPDEST SWAP4 POP PUSH2 0x159D DUP2 DUP6 PUSH1 0x20 DUP7 ADD PUSH2 0x1551 JUMP JUMPDEST PUSH2 0x15A6 DUP2 PUSH2 0x1350 JUMP JUMPDEST DUP5 ADD SWAP2 POP POP SWAP3 SWAP2 POP POP JUMP JUMPDEST PUSH2 0x15BA DUP2 PUSH2 0x12DA JUMP JUMPDEST DUP3 MSTORE POP POP JUMP JUMPDEST PUSH2 0x15C9 DUP2 PUSH2 0x1315 JUMP JUMPDEST DUP3 MSTORE POP POP JUMP JUMPDEST PUSH0 PUSH2 0x100 DUP3 ADD SWAP1 POP DUP2 DUP2 SUB PUSH0 DUP4 ADD MSTORE PUSH2 0x15E8 DUP2 DUP12 PUSH2 0x1579 JUMP JUMPDEST SWAP1 POP PUSH2 0x15F7 PUSH1 0x20 DUP4 ADD DUP11 PUSH2 0x15B1 JUMP JUMPDEST DUP2 DUP2 SUB PUSH1 0x40 DUP4 ADD MSTORE PUSH2 0x1609 DUP2 DUP10 PUSH2 0x1579 JUMP JUMPDEST SWAP1 POP PUSH2 0x1618 PUSH1 0x60 DUP4 ADD DUP9 PUSH2 0x15C0 JUMP JUMPDEST DUP2 DUP2 SUB PUSH1 0x80 DUP4 ADD MSTORE PUSH2 0x162A DUP2 DUP8 PUSH2 0x1579 JUMP JUMPDEST SWAP1 POP DUP2 DUP2 SUB PUSH1 0xA0 DUP4 ADD MSTORE PUSH2 0x163E DUP2 DUP7 PUSH2 0x1579 JUMP JUMPDEST SWAP1 POP DUP2 DUP2 SUB PUSH1 0xC0 DUP4 ADD MSTORE PUSH2 0x1652 DUP2 DUP6 PUSH2 0x1579 JUMP JUMPDEST SWAP1 POP PUSH2 0x1661 PUSH1 0xE0 DUP4 ADD DUP5 PUSH2 0x15C0 JUMP JUMPDEST SWAP10 SWAP9 POP POP POP POP POP POP POP POP POP JUMP JUMPDEST PUSH0 PUSH8 0xFFFFFFFFFFFFFFFF DUP3 GT ISZERO PUSH2 0x1688 JUMPI PUSH2 0x1687 PUSH2 0x1360 JUMP JUMPDEST JUMPDEST PUSH1 0x20 DUP3 MUL SWAP1 POP PUSH1 0x20 DUP2 ADD SWAP1 POP SWAP2 SWAP1 POP JUMP JUMPDEST PUSH0 DUP1 REVERT JUMPDEST PUSH0 PUSH2 0x16AF PUSH2 0x16AA DUP5 PUSH2 0x166E JUMP JUMPDEST PUSH2 0x13BE JUMP JUMPDEST SWAP1 POP DUP1 DUP4 DUP3 MSTORE PUSH1 0x20 DUP3 ADD SWAP1 POP PUSH1 0x20 DUP5 MUL DUP4 ADD DUP6 DUP2 GT ISZERO PUSH2 0x16D2 JUMPI PUSH2 0x16D1 PUSH2 0x1699 JUMP JUMPDEST JUMPDEST DUP4 JUMPDEST DUP2 DUP2 LT ISZERO PUSH2 0x1719 JUMPI DUP1 CALLDATALOAD PUSH8 0xFFFFFFFFFFFFFFFF DUP2 GT ISZERO PUSH2 0x16F7 JUMPI PUSH2 0x16F6 PUSH2 0x1348 JUMP JUMPDEST JUMPDEST DUP1 DUP7 ADD PUSH2 0x1704 DUP10 DUP3 PUSH2 0x1457 JUMP JUMPDEST DUP6 MSTORE PUSH1 0x20 DUP6 ADD SWAP5 POP POP POP PUSH1 0x20 DUP2 ADD SWAP1 POP PUSH2 0x16D4 JUMP JUMPDEST POP POP POP SWAP4 SWAP3 POP POP POP JUMP JUMPDEST PUSH0 DUP3 PUSH1 0x1F DUP4 ADD SLT PUSH2 0x1737 JUMPI PUSH2 0x1736 PUSH2 0x1348 JUMP JUMPDEST JUMPDEST DUP2 CALLDATALOAD PUSH2 0x1747 DUP5 DUP3 PUSH1 0x20 DUP7 ADD PUSH2 0x169D JUMP JUMPDEST SWAP2 POP POP SWAP3 SWAP2 POP POP JUMP JUMPDEST PUSH0 DUP1 PUSH0 DUP1 PUSH0 DUP1 PUSH0 PUSH1 0xE0 DUP9 DUP11 SUB SLT ISZERO PUSH2 0x176B JUMPI PUSH2 0x176A PUSH2 0x12B3 JUMP JUMPDEST JUMPDEST PUSH0 DUP9 ADD CALLDATALOAD PUSH8 0xFFFFFFFFFFFFFFFF DUP2 GT ISZERO PUSH2 0x1788 JUMPI PUSH2 0x1787 PUSH2 0x12B7 JUMP JUMPDEST JUMPDEST PUSH2 0x1794 DUP11 DUP3 DUP12 ADD PUSH2 0x1457 JUMP JUMPDEST SWAP8 POP POP PUSH1 0x20 PUSH2 0x17A5 DUP11 DUP3 DUP12 ADD PUSH2 0x1334 JUMP JUMPDEST SWAP7 POP POP PUSH1 0x40 DUP9 ADD CALLDATALOAD PUSH8 0xFFFFFFFFFFFFFFFF DUP2 GT ISZERO PUSH2 0x17C6 JUMPI PUSH2 0x17C5 PUSH2 0x12B7 JUMP JUMPDEST JUMPDEST PUSH2 0x17D2 DUP11 DUP3 DUP12 ADD PUSH2 0x1457 JUMP JUMPDEST SWAP6 POP POP PUSH1 0x60 DUP9 ADD CALLDATALOAD PUSH8 0xFFFFFFFFFFFFFFFF DUP2 GT ISZERO PUSH2 0x17F3 JUMPI PUSH2 0x17F2 PUSH2 0x12B7 JUMP JUMPDEST JUMPDEST PUSH2 0x17FF DUP11 DUP3 DUP12 ADD PUSH2 0x1457 JUMP JUMPDEST SWAP5 POP POP PUSH1 0x80 DUP9 ADD CALLDATALOAD PUSH8 0xFFFFFFFFFFFFFFFF DUP2 GT ISZERO PUSH2 0x1820 JUMPI PUSH2 0x181F PUSH2 0x12B7 JUMP JUMPDEST JUMPDEST PUSH2 0x182C DUP11 DUP3 DUP12 ADD PUSH2 0x1723 JUMP JUMPDEST SWAP4 POP POP PUSH1 0xA0 DUP9 ADD CALLDATALOAD PUSH8 0xFFFFFFFFFFFFFFFF DUP2 GT ISZERO PUSH2 0x184D JUMPI PUSH2 0x184C PUSH2 0x12B7 JUMP JUMPDEST JUMPDEST PUSH2 0x1859 DUP11 DUP3 DUP12 ADD PUSH2 0x1457 JUMP JUMPDEST SWAP3 POP POP PUSH1 0xC0 PUSH2 0x186A DUP11 DUP3 DUP12 ADD PUSH2 0x1334 JUMP JUMPDEST SWAP2 POP POP SWAP3 SWAP6 SWAP9 SWAP2 SWAP5 SWAP8 POP SWAP3 SWAP6 POP JUMP JUMPDEST PUSH0 PUSH1 0x20 DUP3 DUP5 SUB SLT ISZERO PUSH2 0x188E JUMPI PUSH2 0x188D PUSH2 0x12B3 JUMP JUMPDEST JUMPDEST PUSH0 PUSH2 0x189B DUP5 DUP3 DUP6 ADD PUSH2 0x1301 JUMP JUMPDEST SWAP2 POP POP SWAP3 SWAP2 POP POP JUMP JUMPDEST PUSH0 PUSH1 0x20 DUP3 ADD SWAP1 POP PUSH2 0x18B7 PUSH0 DUP4 ADD DUP5 PUSH2 0x15C0 JUMP JUMPDEST SWAP3 SWAP2 POP POP JUMP JUMPDEST PUSH0 PUSH1 0x20 DUP3 ADD SWAP1 POP PUSH2 0x18D0 PUSH0 DUP4 ADD DUP5 PUSH2 0x15B1 JUMP JUMPDEST SWAP3 SWAP2 POP POP JUMP JUMPDEST PUSH0 PUSH1 0x20 DUP3 ADD SWAP1 POP DUP2 DUP2 SUB PUSH0 DUP4 ADD MSTORE PUSH2 0x18EE DUP2 DUP5 PUSH2 0x1579 JUMP JUMPDEST SWAP1 POP SWAP3 SWAP2 POP POP JUMP JUMPDEST PUSH32 0x4E487B7100000000000000000000000000000000000000000000000000000000 PUSH0 MSTORE PUSH1 0x22 PUSH1 0x4 MSTORE PUSH1 0x24 PUSH0 REVERT JUMPDEST PUSH0 PUSH1 0x2 DUP3 DIV SWAP1 POP PUSH1 0x1 DUP3 AND DUP1 PUSH2 0x193A JUMPI PUSH1 0x7F DUP3 AND SWAP2 POP JUMPDEST PUSH1 0x20 DUP3 LT DUP2 SUB PUSH2 0x194D JUMPI PUSH2 0x194C PUSH2 0x18F6 JUMP JUMPDEST JUMPDEST POP SWAP2 SWAP1 POP JUMP JUMPDEST PUSH0 DUP2 SWAP1 POP DUP2 PUSH0 MSTORE PUSH1 0x20 PUSH0 KECCAK256 SWAP1 POP SWAP2 SWAP1 POP JUMP JUMPDEST PUSH0 PUSH1 0x20 PUSH1 0x1F DUP4 ADD DIV SWAP1 POP SWAP2 SWAP1 POP JUMP JUMPDEST PUSH0 DUP3 DUP3 SHL SWAP1 POP SWAP3 SWAP2 POP POP JUMP JUMPDEST PUSH0 PUSH1 0x8 DUP4 MUL PUSH2 0x19AF PUSH32 0xFFFFFFFFFFFFFFFFFFFFFFFFFFFFFFFFFFFFFFFFFFFFFFFFFFFFFFFFFFFFFFFF DUP3 PUSH2 0x1974 JUMP JUMPDEST PUSH2 0x19B9 DUP7 DUP4 PUSH2 0x1974 JUMP JUMPDEST SWAP6 POP DUP1 NOT DUP5 AND SWAP4 POP DUP1 DUP7 AND DUP5 OR SWAP3 POP POP POP SWAP4 SWAP3 POP POP POP JUMP JUMPDEST PUSH0 DUP2 SWAP1 POP SWAP2 SWAP1 POP JUMP JUMPDEST PUSH0 PUSH2 0x19F4 PUSH2 0x19EF PUSH2 0x19EA DUP5 PUSH2 0x1315 JUMP JUMPDEST PUSH2 0x19D1 JUMP JUMPDEST PUSH2 0x1315 JUMP JUMPDEST SWAP1 POP SWAP2 SWAP1 POP JUMP JUMPDEST PUSH0 DUP2 SWAP1 POP SWAP2 SWAP1 POP JUMP JUMPDEST PUSH2 0x1A0D DUP4 PUSH2 0x19DA JUMP JUMPDEST PUSH2 0x1A21 PUSH2 0x1A19 DUP3 PUSH2 0x19FB JUMP JUMPDEST DUP5 DUP5 SLOAD PUSH2 0x1980 JUMP JUMPDEST DUP3 SSTORE POP POP POP POP JUMP JUMPDEST PUSH0 SWAP1 JUMP JUMPDEST PUSH2 0x1A35 PUSH2 0x1A29 JUMP JUMPDEST PUSH2 0x1A40 DUP2 DUP5 DUP5 PUSH2 0x1A04 JUMP JUMPDEST POP POP POP JUMP JUMPDEST JUMPDEST DUP2 DUP2 LT ISZERO PUSH2 0x1A63 JUMPI PUSH2 0x1A58 PUSH0 DUP3 PUSH2 0x1A2D JUMP JUMPDEST PUSH1 0x1 DUP2 ADD SWAP1 POP PUSH2 0x1A46 JUMP JUMPDEST POP POP JUMP JUMPDEST PUSH1 0x1F DUP3 GT ISZERO PUSH2 0x1AA8 JUMPI PUSH2 0x1A79 DUP2 PUSH2 0x1953 JUMP JUMPDEST PUSH2 0x1A82 DUP5 PUSH2 0x1965 JUMP JUMPDEST DUP2 ADD PUSH1 0x20 DUP6 LT ISZERO PUSH2 0x1A91 JUMPI DUP2 SWAP1 POP JUMPDEST PUSH2 0x1AA5 PUSH2 0x1A9D DUP6 PUSH2 0x1965 JUMP JUMPDEST DUP4 ADD DUP3 PUSH2 0x1A45 JUMP JUMPDEST POP POP JUMPDEST POP POP POP JUMP JUMPDEST PUSH0 DUP3 DUP3 SHR SWAP1 POP SWAP3 SWAP2 POP POP JUMP JUMPDEST PUSH0 PUSH2 0x1AC8 PUSH0 NOT DUP5 PUSH1 0x8 MUL PUSH2 0x1AAD JUMP JUMPDEST NOT DUP1 DUP4 AND SWAP2 POP POP SWAP3 SWAP2 POP POP JUMP JUMPDEST PUSH0 PUSH2 0x1AE0 DUP4 DUP4 PUSH2 0x1AB9 JUMP JUMPDEST SWAP2 POP DUP3 PUSH1 0x2 MUL DUP3 OR SWAP1 POP SWAP3 SWAP2 POP POP JUMP JUMPDEST PUSH2 0x1AF9 DUP3 PUSH2 0x1537 JUMP JUMPDEST PUSH8 0xFFFFFFFFFFFFFFFF DUP2 GT ISZERO PUSH2 0x1B12 JUMPI PUSH2 0x1B11 PUSH2 0x1360 JUMP JUMPDEST JUMPDEST PUSH2 0x1B1C DUP3 SLOAD PUSH2 0x1923 JUMP JUMPDEST PUSH2 0x1B27 DUP3 DUP3 DUP6 PUSH2 0x1A67 JUMP JUMPDEST PUSH0 PUSH1 0x20 SWAP1 POP PUSH1 0x1F DUP4 GT PUSH1 0x1 DUP2 EQ PUSH2 0x1B58 JUMPI PUSH0 DUP5 ISZERO PUSH2 0x1B46 JUMPI DUP3 DUP8 ADD MLOAD SWAP1 POP JUMPDEST PUSH2 0x1B50 DUP6 DUP3 PUSH2 0x1AD5 JUMP JUMPDEST DUP7 SSTORE POP PUSH2 0x1BB7 JUMP JUMPDEST PUSH1 0x1F NOT DUP5 AND PUSH2 0x1B66 DUP7 PUSH2 0x1953 JUMP JUMPDEST PUSH0 JUMPDEST DUP3 DUP2 LT ISZERO PUSH2 0x1B8D JUMPI DUP5 DUP10 ADD MLOAD DUP3 SSTORE PUSH1 0x1 DUP3 ADD SWAP2 POP PUSH1 0x20 DUP6 ADD SWAP5 POP PUSH1 0x20 DUP2 ADD SWAP1 POP PUSH2 0x1B68 JUMP JUMPDEST DUP7 DUP4 LT ISZERO PUSH2 0x1BAA JUMPI DUP5 DUP10 ADD MLOAD PUSH2 0x1BA6 PUSH1 0x1F DUP10 AND DUP3 PUSH2 0x1AB9 JUMP JUMPDEST DUP4 SSTORE POP JUMPDEST PUSH1 0x1 PUSH1 0x2 DUP9 MUL ADD DUP9 SSTORE POP POP POP JUMPDEST POP POP POP POP POP POP JUMP JUMPDEST PUSH0 PUSH1 0x40 DUP3 ADD SWAP1 POP PUSH2 0x1BD2 PUSH0 DUP4 ADD DUP6 PUSH2 0x15C0 JUMP JUMPDEST DUP2 DUP2 SUB PUSH1 0x20 DUP4 ADD MSTORE PUSH2 0x1BE4 DUP2 DUP5 PUSH2 0x1579 JUMP JUMPDEST SWAP1 POP SWAP4 SWAP3 POP POP POP JUMP JUMPDEST PUSH32 0x55736572206D757374206861766520612076616C696420726F6C652069640000 PUSH0 DUP3 ADD MSTORE POP JUMP JUMPDEST PUSH0 PUSH2 0x1C21 PUSH1 0x1E DUP4 PUSH2 0x1541 JUMP JUMPDEST SWAP2 POP PUSH2 0x1C2C DUP3 PUSH2 0x1BED JUMP JUMPDEST PUSH1 0x20 DUP3 ADD SWAP1 POP SWAP2 SWAP1 POP JUMP JUMPDEST PUSH0 PUSH1 0x20 DUP3 ADD SWAP1 POP DUP2 DUP2 SUB PUSH0 DUP4 ADD MSTORE PUSH2 0x1C4E DUP2 PUSH2 0x1C15 JUMP JUMPDEST SWAP1 POP SWAP2 SWAP1 POP JUMP JUMPDEST PUSH0 DUP2 SWAP1 POP SWAP3 SWAP2 POP POP JUMP JUMPDEST PUSH0 PUSH2 0x1C69 DUP3 PUSH2 0x1537 JUMP JUMPDEST PUSH2 0x1C73 DUP2 DUP6 PUSH2 0x1C55 JUMP JUMPDEST SWAP4 POP PUSH2 0x1C83 DUP2 DUP6 PUSH1 0x20 DUP7 ADD PUSH2 0x1551 JUMP JUMPDEST DUP1 DUP5 ADD SWAP2 POP POP SWAP3 SWAP2 POP POP JUMP JUMPDEST PUSH0 PUSH2 0x1C9A DUP3 DUP5 PUSH2 0x1C5F JUMP JUMPDEST SWAP2 POP DUP2 SWAP1 POP SWAP3 SWAP2 POP POP JUMP JUMPDEST PUSH0 DUP2 SLOAD PUSH2 0x1CB1 DUP2 PUSH2 0x1923 JUMP JUMPDEST PUSH2 0x1CBB DUP2 DUP7 PUSH2 0x1541 JUMP JUMPDEST SWAP5 POP PUSH1 0x1 DUP3 AND PUSH0 DUP2 EQ PUSH2 0x1CD5 JUMPI PUSH1 0x1 DUP2 EQ PUSH2 0x1CEB JUMPI PUSH2 0x1D1D JUMP JUMPDEST PUSH1 0xFF NOT DUP4 AND DUP7 MSTORE DUP2 ISZERO ISZERO PUSH1 0x20 MUL DUP7 ADD SWAP4 POP PUSH2 0x1D1D JUMP JUMPDEST PUSH2 0x1CF4 DUP6 PUSH2 0x1953 JUMP JUMPDEST PUSH0 JUMPDEST DUP4 DUP2 LT ISZERO PUSH2 0x1D15 JUMPI DUP2 SLOAD DUP2 DUP10 ADD MSTORE PUSH1 0x1 DUP3 ADD SWAP2 POP PUSH1 0x20 DUP2 ADD SWAP1 POP PUSH2 0x1CF6 JUMP JUMPDEST DUP1 DUP9 ADD SWAP6 POP POP POP JUMPDEST POP POP POP SWAP3 SWAP2 POP POP JUMP JUMPDEST PUSH0 PUSH1 0x80 DUP3 ADD SWAP1 POP DUP2 DUP2 SUB PUSH0 DUP4 ADD MSTORE PUSH2 0x1D3E DUP2 DUP8 PUSH2 0x1CA5 JUMP JUMPDEST SWAP1 POP PUSH2 0x1D4D PUSH1 0x20 DUP4 ADD DUP7 PUSH2 0x15C0 JUMP JUMPDEST DUP2 DUP2 SUB PUSH1 0x40 DUP4 ADD MSTORE PUSH2 0x1D5F DUP2 DUP6 PUSH2 0x1579 JUMP JUMPDEST SWAP1 POP DUP2 DUP2 SUB PUSH1 0x60 DUP4 ADD MSTORE PUSH2 0x1D73 DUP2 DUP5 PUSH2 0x1579 JUMP JUMPDEST SWAP1 POP SWAP6 SWAP5 POP POP POP POP POP JUMP JUMPDEST PUSH0 PUSH1 0xA0 DUP3 ADD SWAP1 POP DUP2 DUP2 SUB PUSH0 DUP4 ADD MSTORE PUSH2 0x1D96 DUP2 DUP9 PUSH2 0x1CA5 JUMP JUMPDEST SWAP1 POP DUP2 DUP2 SUB PUSH1 0x20 DUP4 ADD MSTORE PUSH2 0x1DAA DUP2 DUP8 PUSH2 0x1579 JUMP JUMPDEST SWAP1 POP PUSH2 0x1DB9 PUSH1 0x40 DUP4 ADD DUP7 PUSH2 0x15C0 JUMP JUMPDEST DUP2 DUP2 SUB PUSH1 0x60 DUP4 ADD MSTORE PUSH2 0x1DCB DUP2 DUP6 PUSH2 0x1579 JUMP JUMPDEST SWAP1 POP DUP2 DUP2 SUB PUSH1 0x80 DUP4 ADD MSTORE PUSH2 0x1DDF DUP2 DUP5 PUSH2 0x1579 JUMP JUMPDEST SWAP1 POP SWAP7 SWAP6 POP POP POP POP POP POP JUMP INVALID LOG2 PUSH5 0x6970667358 0x22 SLT KECCAK256 SWAP13 PUSH14 0xACE2D2DF3CABA8E7613C0D9A424E CALLDATACOPY 0xCB 0x1E 0xAB GASPRICE CALLDATACOPY BYTE 0xB7 0xAD 0xC7 0x29 DUP1 PUSH11 0x9FDD2864736F6C63430008 EQ STOP CALLER "
				},
				"gasEstimates": {
					"creation": {
						"codeDepositCost": "1542600",
						"executionCost": "infinite",
						"totalCost": "infinite"
					},
					"external": {
						"SubjectName(address)": "infinite",
						"TraceDataMap(string)": "infinite",
						"UserRole(address)": "2869",
						"addBasicTraceData(string,uint256,string,string,string[],string,uint256)": "infinite",
						"getTraceData(string)": "infinite",
						"owner()": "2559",
						"renounceOwnership()": "infinite",
						"setRoleAndUser(address,uint256,string)": "infinite",
						"transferOwnership(address)": "infinite"
					}
				},
				"methodIdentifiers": {
					"SubjectName(address)": "d0c53848",
					"TraceDataMap(string)": "1792da60",
					"UserRole(address)": "53060fac",
					"addBasicTraceData(string,uint256,string,string,string[],string,uint256)": "490a370e",
					"getTraceData(string)": "6c0c378d",
					"owner()": "8da5cb5b",
					"renounceOwnership()": "715018a6",
					"setRoleAndUser(address,uint256,string)": "06d3f233",
					"transferOwnership(address)": "f2fde38b"
				}
			},
			"storageLayout": {
				"storage": [
					{
						"astId": 8,
						"contract": "contracts/Traceability.sol:Traceability",
						"label": "_owner",
						"offset": 0,
						"slot": "0",
						"type": "t_address"
					},
					{
						"astId": 212,
						"contract": "contracts/Traceability.sol:Traceability",
						"label": "UserRole",
						"offset": 0,
						"slot": "1",
						"type": "t_mapping(t_address,t_uint256)"
					},
					{
						"astId": 216,
						"contract": "contracts/Traceability.sol:Traceability",
						"label": "SubjectName",
						"offset": 0,
						"slot": "2",
						"type": "t_mapping(t_address,t_string_storage)"
					},
					{
						"astId": 241,
						"contract": "contracts/Traceability.sol:Traceability",
						"label": "TraceDataMap",
						"offset": 0,
						"slot": "3",
						"type": "t_mapping(t_string_memory_ptr,t_struct(TraceData)236_storage)"
					}
				],
				"types": {
					"t_address": {
						"encoding": "inplace",
						"label": "address",
						"numberOfBytes": "20"
					},
					"t_array(t_string_storage)dyn_storage": {
						"base": "t_string_storage",
						"encoding": "dynamic_array",
						"label": "string[]",
						"numberOfBytes": "32"
					},
					"t_mapping(t_address,t_string_storage)": {
						"encoding": "mapping",
						"key": "t_address",
						"label": "mapping(address => string)",
						"numberOfBytes": "32",
						"value": "t_string_storage"
					},
					"t_mapping(t_address,t_uint256)": {
						"encoding": "mapping",
						"key": "t_address",
						"label": "mapping(address => uint256)",
						"numberOfBytes": "32",
						"value": "t_uint256"
					},
					"t_mapping(t_string_memory_ptr,t_struct(TraceData)236_storage)": {
						"encoding": "mapping",
						"key": "t_string_memory_ptr",
						"label": "mapping(string => struct Traceability.TraceData)",
						"numberOfBytes": "32",
						"value": "t_struct(TraceData)236_storage"
					},
					"t_string_memory_ptr": {
						"encoding": "bytes",
						"label": "string",
						"numberOfBytes": "32"
					},
					"t_string_storage": {
						"encoding": "bytes",
						"label": "string",
						"numberOfBytes": "32"
					},
					"t_struct(TraceData)236_storage": {
						"encoding": "inplace",
						"label": "struct Traceability.TraceData",
						"members": [
							{
								"astId": 218,
								"contract": "contracts/Traceability.sol:Traceability",
								"label": "user_id",
								"offset": 0,
								"slot": "0",
								"type": "t_string_storage"
							},
							{
								"astId": 220,
								"contract": "contracts/Traceability.sol:Traceability",
								"label": "user_address",
								"offset": 0,
								"slot": "1",
								"type": "t_address"
							},
							{
								"astId": 222,
								"contract": "contracts/Traceability.sol:Traceability",
								"label": "product_id",
								"offset": 0,
								"slot": "2",
								"type": "t_string_storage"
							},
							{
								"astId": 224,
								"contract": "contracts/Traceability.sol:Traceability",
								"label": "process_date",
								"offset": 0,
								"slot": "3",
								"type": "t_uint256"
							},
							{
								"astId": 226,
								"contract": "contracts/Traceability.sol:Traceability",
								"label": "location_name",
								"offset": 0,
								"slot": "4",
								"type": "t_string_storage"
							},
							{
								"astId": 228,
								"contract": "contracts/Traceability.sol:Traceability",
								"label": "location_address",
								"offset": 0,
								"slot": "5",
								"type": "t_string_storage"
							},
							{
								"astId": 231,
								"contract": "contracts/Traceability.sol:Traceability",
								"label": "src_product_id",
								"offset": 0,
								"slot": "6",
								"type": "t_array(t_string_storage)dyn_storage"
							},
							{
								"astId": 233,
								"contract": "contracts/Traceability.sol:Traceability",
								"label": "product_type",
								"offset": 0,
								"slot": "7",
								"type": "t_string_storage"
							},
							{
								"astId": 235,
								"contract": "contracts/Traceability.sol:Traceability",
								"label": "expiry_date",
								"offset": 0,
								"slot": "8",
								"type": "t_uint256"
							}
						],
						"numberOfBytes": "288"
					},
					"t_uint256": {
						"encoding": "inplace",
						"label": "uint256",
						"numberOfBytes": "32"
					}
				}
			},
			"userdoc": {
				"kind": "user",
				"methods": {},
				"version": 1
			}
		}
	}
}